{"abi":[{"type":"constructor","inputs":[{"name":"_token","type":"address","internalType":"address"},{"name":"_layerZeroEndpoint","type":"address","internalType":"address"},{"name":"_owner","type":"address","internalType":"address"}],"stateMutability":"nonpayable"},{"type":"function","name":"SEND","inputs":[],"outputs":[{"name":"","type":"uint16","internalType":"uint16"}],"stateMutability":"view"},{"type":"function","name":"SEND_AND_CALL","inputs":[],"outputs":[{"name":"","type":"uint16","internalType":"uint16"}],"stateMutability":"view"},{"type":"function","name":"allowInitializePath","inputs":[{"name":"origin","type":"tuple","internalType":"struct Origin","components":[{"name":"srcEid","type":"uint32","internalType":"uint32"},{"name":"sender","type":"bytes32","internalType":"bytes32"},{"name":"nonce","type":"uint64","internalType":"uint64"}]}],"outputs":[{"name":"","type":"bool","internalType":"bool"}],"stateMutability":"view"},{"type":"function","name":"approvalRequired","inputs":[],"outputs":[{"name":"","type":"bool","internalType":"bool"}],"stateMutability":"pure"},{"type":"function","name":"combineOptions","inputs":[{"name":"_eid","type":"uint32","internalType":"uint32"},{"name":"_msgType","type":"uint16","internalType":"uint16"},{"name":"_extraOptions","type":"bytes","internalType":"bytes"}],"outputs":[{"name":"","type":"bytes","internalType":"bytes"}],"stateMutability":"view"},{"type":"function","name":"decimalConversionRate","inputs":[],"outputs":[{"name":"","type":"uint256","internalType":"uint256"}],"stateMutability":"view"},{"type":"function","name":"endpoint","inputs":[],"outputs":[{"name":"","type":"address","internalType":"contract ILayerZeroEndpointV2"}],"stateMutability":"view"},{"type":"function","name":"enforcedOptions","inputs":[{"name":"eid","type":"uint32","internalType":"uint32"},{"name":"msgType","type":"uint16","internalType":"uint16"}],"outputs":[{"name":"enforcedOption","type":"bytes","internalType":"bytes"}],"stateMutability":"view"},{"type":"function","name":"isComposeMsgSender","inputs":[{"name":"","type":"tuple","internalType":"struct Origin","components":[{"name":"srcEid","type":"uint32","internalType":"uint32"},{"name":"sender","type":"bytes32","internalType":"bytes32"},{"name":"nonce","type":"uint64","internalType":"uint64"}]},{"name":"","type":"bytes","internalType":"bytes"},{"name":"_sender","type":"address","internalType":"address"}],"outputs":[{"name":"","type":"bool","internalType":"bool"}],"stateMutability":"view"},{"type":"function","name":"isPeer","inputs":[{"name":"_eid","type":"uint32","internalType":"uint32"},{"name":"_peer","type":"bytes32","internalType":"bytes32"}],"outputs":[{"name":"","type":"bool","internalType":"bool"}],"stateMutability":"view"},{"type":"function","name":"lzReceive","inputs":[{"name":"_origin","type":"tuple","internalType":"struct Origin","components":[{"name":"srcEid","type":"uint32","internalType":"uint32"},{"name":"sender","type":"bytes32","internalType":"bytes32"},{"name":"nonce","type":"uint64","internalType":"uint64"}]},{"name":"_guid","type":"bytes32","internalType":"bytes32"},{"name":"_message","type":"bytes","internalType":"bytes"},{"name":"_executor","type":"address","internalType":"address"},{"name":"_extraData","type":"bytes","internalType":"bytes"}],"outputs":[],"stateMutability":"payable"},{"type":"function","name":"lzReceiveAndRevert","inputs":[{"name":"_packets","type":"tuple[]","internalType":"struct InboundPacket[]","components":[{"name":"origin","type":"tuple","internalType":"struct Origin","components":[{"name":"srcEid","type":"uint32","internalType":"uint32"},{"name":"sender","type":"bytes32","internalType":"bytes32"},{"name":"nonce","type":"uint64","internalType":"uint64"}]},{"name":"dstEid","type":"uint32","internalType":"uint32"},{"name":"receiver","type":"address","internalType":"address"},{"name":"guid","type":"bytes32","internalType":"bytes32"},{"name":"value","type":"uint256","internalType":"uint256"},{"name":"executor","type":"address","internalType":"address"},{"name":"message","type":"bytes","internalType":"bytes"},{"name":"extraData","type":"bytes","internalType":"bytes"}]}],"outputs":[],"stateMutability":"payable"},{"type":"function","name":"lzReceiveSimulate","inputs":[{"name":"_origin","type":"tuple","internalType":"struct Origin","components":[{"name":"srcEid","type":"uint32","internalType":"uint32"},{"name":"sender","type":"bytes32","internalType":"bytes32"},{"name":"nonce","type":"uint64","internalType":"uint64"}]},{"name":"_guid","type":"bytes32","internalType":"bytes32"},{"name":"_message","type":"bytes","internalType":"bytes"},{"name":"_executor","type":"address","internalType":"address"},{"name":"_extraData","type":"bytes","internalType":"bytes"}],"outputs":[],"stateMutability":"payable"},{"type":"function","name":"msgInspector","inputs":[],"outputs":[{"name":"","type":"address","internalType":"address"}],"stateMutability":"view"},{"type":"function","name":"nextNonce","inputs":[{"name":"","type":"uint32","internalType":"uint32"},{"name":"","type":"bytes32","internalType":"bytes32"}],"outputs":[{"name":"nonce","type":"uint64","internalType":"uint64"}],"stateMutability":"view"},{"type":"function","name":"oApp","inputs":[],"outputs":[{"name":"","type":"address","internalType":"address"}],"stateMutability":"view"},{"type":"function","name":"oAppVersion","inputs":[],"outputs":[{"name":"senderVersion","type":"uint64","internalType":"uint64"},{"name":"receiverVersion","type":"uint64","internalType":"uint64"}],"stateMutability":"pure"},{"type":"function","name":"oftVersion","inputs":[],"outputs":[{"name":"interfaceId","type":"bytes4","internalType":"bytes4"},{"name":"version","type":"uint64","internalType":"uint64"}],"stateMutability":"pure"},{"type":"function","name":"owner","inputs":[],"outputs":[{"name":"","type":"address","internalType":"address"}],"stateMutability":"view"},{"type":"function","name":"peers","inputs":[{"name":"eid","type":"uint32","internalType":"uint32"}],"outputs":[{"name":"peer","type":"bytes32","internalType":"bytes32"}],"stateMutability":"view"},{"type":"function","name":"preCrime","inputs":[],"outputs":[{"name":"","type":"address","internalType":"address"}],"stateMutability":"view"},{"type":"function","name":"quoteOFT","inputs":[{"name":"_sendParam","type":"tuple","internalType":"struct SendParam","components":[{"name":"dstEid","type":"uint32","internalType":"uint32"},{"name":"to","type":"bytes32","internalType":"bytes32"},{"name":"amountLD","type":"uint256","internalType":"uint256"},{"name":"minAmountLD","type":"uint256","internalType":"uint256"},{"name":"extraOptions","type":"bytes","internalType":"bytes"},{"name":"composeMsg","type":"bytes","internalType":"bytes"},{"name":"oftCmd","type":"bytes","internalType":"bytes"}]}],"outputs":[{"name":"oftLimit","type":"tuple","internalType":"struct OFTLimit","components":[{"name":"minAmountLD","type":"uint256","internalType":"uint256"},{"name":"maxAmountLD","type":"uint256","internalType":"uint256"}]},{"name":"oftFeeDetails","type":"tuple[]","internalType":"struct OFTFeeDetail[]","components":[{"name":"feeAmountLD","type":"int256","internalType":"int256"},{"name":"description","type":"string","internalType":"string"}]},{"name":"oftReceipt","type":"tuple","internalType":"struct OFTReceipt","components":[{"name":"amountSentLD","type":"uint256","internalType":"uint256"},{"name":"amountReceivedLD","type":"uint256","internalType":"uint256"}]}],"stateMutability":"view"},{"type":"function","name":"quoteSend","inputs":[{"name":"_sendParam","type":"tuple","internalType":"struct SendParam","components":[{"name":"dstEid","type":"uint32","internalType":"uint32"},{"name":"to","type":"bytes32","internalType":"bytes32"},{"name":"amountLD","type":"uint256","internalType":"uint256"},{"name":"minAmountLD","type":"uint256","internalType":"uint256"},{"name":"extraOptions","type":"bytes","internalType":"bytes"},{"name":"composeMsg","type":"bytes","internalType":"bytes"},{"name":"oftCmd","type":"bytes","internalType":"bytes"}]},{"name":"_payInLzToken","type":"bool","internalType":"bool"}],"outputs":[{"name":"msgFee","type":"tuple","internalType":"struct MessagingFee","components":[{"name":"nativeFee","type":"uint256","internalType":"uint256"},{"name":"lzTokenFee","type":"uint256","internalType":"uint256"}]}],"stateMutability":"view"},{"type":"function","name":"renounceOwnership","inputs":[],"outputs":[],"stateMutability":"nonpayable"},{"type":"function","name":"send","inputs":[{"name":"_sendParam","type":"tuple","internalType":"struct SendParam","components":[{"name":"dstEid","type":"uint32","internalType":"uint32"},{"name":"to","type":"bytes32","internalType":"bytes32"},{"name":"amountLD","type":"uint256","internalType":"uint256"},{"name":"minAmountLD","type":"uint256","internalType":"uint256"},{"name":"extraOptions","type":"bytes","internalType":"bytes"},{"name":"composeMsg","type":"bytes","internalType":"bytes"},{"name":"oftCmd","type":"bytes","internalType":"bytes"}]},{"name":"_fee","type":"tuple","internalType":"struct MessagingFee","components":[{"name":"nativeFee","type":"uint256","internalType":"uint256"},{"name":"lzTokenFee","type":"uint256","internalType":"uint256"}]},{"name":"_refundAddress","type":"address","internalType":"address"}],"outputs":[{"name":"msgReceipt","type":"tuple","internalType":"struct MessagingReceipt","components":[{"name":"guid","type":"bytes32","internalType":"bytes32"},{"name":"nonce","type":"uint64","internalType":"uint64"},{"name":"fee","type":"tuple","internalType":"struct MessagingFee","components":[{"name":"nativeFee","type":"uint256","internalType":"uint256"},{"name":"lzTokenFee","type":"uint256","internalType":"uint256"}]}]},{"name":"oftReceipt","type":"tuple","internalType":"struct OFTReceipt","components":[{"name":"amountSentLD","type":"uint256","internalType":"uint256"},{"name":"amountReceivedLD","type":"uint256","internalType":"uint256"}]}],"stateMutability":"payable"},{"type":"function","name":"setDelegate","inputs":[{"name":"_delegate","type":"address","internalType":"address"}],"outputs":[],"stateMutability":"nonpayable"},{"type":"function","name":"setEnforcedOptions","inputs":[{"name":"_enforcedOptions","type":"tuple[]","internalType":"struct EnforcedOptionParam[]","components":[{"name":"eid","type":"uint32","internalType":"uint32"},{"name":"msgType","type":"uint16","internalType":"uint16"},{"name":"options","type":"bytes","internalType":"bytes"}]}],"outputs":[],"stateMutability":"nonpayable"},{"type":"function","name":"setMsgInspector","inputs":[{"name":"_msgInspector","type":"address","internalType":"address"}],"outputs":[],"stateMutability":"nonpayable"},{"type":"function","name":"setPeer","inputs":[{"name":"_eid","type":"uint32","internalType":"uint32"},{"name":"_peer","type":"bytes32","internalType":"bytes32"}],"outputs":[],"stateMutability":"nonpayable"},{"type":"function","name":"setPreCrime","inputs":[{"name":"_preCrime","type":"address","internalType":"address"}],"outputs":[],"stateMutability":"nonpayable"},{"type":"function","name":"sharedDecimals","inputs":[],"outputs":[{"name":"","type":"uint8","internalType":"uint8"}],"stateMutability":"pure"},{"type":"function","name":"token","inputs":[],"outputs":[{"name":"","type":"address","internalType":"address"}],"stateMutability":"view"},{"type":"function","name":"transferOwnership","inputs":[{"name":"newOwner","type":"address","internalType":"address"}],"outputs":[],"stateMutability":"nonpayable"},{"type":"event","name":"EnforcedOptionSet","inputs":[{"name":"_enforcedOptions","type":"tuple[]","indexed":false,"internalType":"struct EnforcedOptionParam[]","components":[{"name":"eid","type":"uint32","internalType":"uint32"},{"name":"msgType","type":"uint16","internalType":"uint16"},{"name":"options","type":"bytes","internalType":"bytes"}]}],"anonymous":false},{"type":"event","name":"MsgInspectorSet","inputs":[{"name":"inspector","type":"address","indexed":false,"internalType":"address"}],"anonymous":false},{"type":"event","name":"OFTReceived","inputs":[{"name":"guid","type":"bytes32","indexed":true,"internalType":"bytes32"},{"name":"srcEid","type":"uint32","indexed":false,"internalType":"uint32"},{"name":"toAddress","type":"address","indexed":true,"internalType":"address"},{"name":"amountReceivedLD","type":"uint256","indexed":false,"internalType":"uint256"}],"anonymous":false},{"type":"event","name":"OFTSent","inputs":[{"name":"guid","type":"bytes32","indexed":true,"internalType":"bytes32"},{"name":"dstEid","type":"uint32","indexed":false,"internalType":"uint32"},{"name":"fromAddress","type":"address","indexed":true,"internalType":"address"},{"name":"amountSentLD","type":"uint256","indexed":false,"internalType":"uint256"},{"name":"amountReceivedLD","type":"uint256","indexed":false,"internalType":"uint256"}],"anonymous":false},{"type":"event","name":"OwnershipTransferred","inputs":[{"name":"previousOwner","type":"address","indexed":true,"internalType":"address"},{"name":"newOwner","type":"address","indexed":true,"internalType":"address"}],"anonymous":false},{"type":"event","name":"PeerSet","inputs":[{"name":"eid","type":"uint32","indexed":false,"internalType":"uint32"},{"name":"peer","type":"bytes32","indexed":false,"internalType":"bytes32"}],"anonymous":false},{"type":"event","name":"PreCrimeSet","inputs":[{"name":"preCrimeAddress","type":"address","indexed":false,"internalType":"address"}],"anonymous":false},{"type":"error","name":"AddressEmptyCode","inputs":[{"name":"target","type":"address","internalType":"address"}]},{"type":"error","name":"AddressInsufficientBalance","inputs":[{"name":"account","type":"address","internalType":"address"}]},{"type":"error","name":"FailedInnerCall","inputs":[]},{"type":"error","name":"InvalidDelegate","inputs":[]},{"type":"error","name":"InvalidEndpointCall","inputs":[]},{"type":"error","name":"InvalidLocalDecimals","inputs":[]},{"type":"error","name":"InvalidOptions","inputs":[{"name":"options","type":"bytes","internalType":"bytes"}]},{"type":"error","name":"LzTokenUnavailable","inputs":[]},{"type":"error","name":"NoPeer","inputs":[{"name":"eid","type":"uint32","internalType":"uint32"}]},{"type":"error","name":"NotEnoughNative","inputs":[{"name":"msgValue","type":"uint256","internalType":"uint256"}]},{"type":"error","name":"OnlyEndpoint","inputs":[{"name":"addr","type":"address","internalType":"address"}]},{"type":"error","name":"OnlyPeer","inputs":[{"name":"eid","type":"uint32","internalType":"uint32"},{"name":"sender","type":"bytes32","internalType":"bytes32"}]},{"type":"error","name":"OnlySelf","inputs":[]},{"type":"error","name":"OwnableInvalidOwner","inputs":[{"name":"owner","type":"address","internalType":"address"}]},{"type":"error","name":"OwnableUnauthorizedAccount","inputs":[{"name":"account","type":"address","internalType":"address"}]},{"type":"error","name":"SafeERC20FailedOperation","inputs":[{"name":"token","type":"address","internalType":"address"}]},{"type":"error","name":"SimulationResult","inputs":[{"name":"result","type":"bytes","internalType":"bytes"}]},{"type":"error","name":"SlippageExceeded","inputs":[{"name":"amountLD","type":"uint256","internalType":"uint256"},{"name":"minAmountLD","type":"uint256","internalType":"uint256"}]}],"bytecode":{"object":"0x60e060405234801562000010575f80fd5b5060405162002e6938038062002e69833981016040819052620000339162000249565b828282826001600160a01b031663313ce5676040518163ffffffff1660e01b8152600401602060405180830381865afa15801562000073573d5f803e3d5ffd5b505050506040513d601f19601f8201168201806040525081019062000099919062000290565b8282818181818a6001600160a01b038116620000ce57604051631e4fbdf760e01b81525f600482015260240160405180910390fd5b620000d981620001d9565b506001600160a01b0380831660805281166200010857604051632d618d8160e21b815260040160405180910390fd5b60805160405163ca5eb5e160e01b81526001600160a01b0383811660048301529091169063ca5eb5e1906024015f604051808303815f87803b1580156200014d575f80fd5b505af115801562000160573d5f803e3d5ffd5b5050505050505050620001786200022860201b60201c565b60ff168360ff1610156200019f576040516301e9714b60e41b815260040160405180910390fd5b620001ac600684620002cd565b620001b990600a620003e8565b60a0525050506001600160a01b0390921660c05250620003f89350505050565b5f80546001600160a01b038381166001600160a01b0319831681178455604051919092169283917f8be0079c531659141344cd1fd0a4f28419497f9722a3daafe3b4186f6b6457e09190a35050565b600690565b80516001600160a01b038116811462000244575f80fd5b919050565b5f805f606084860312156200025c575f80fd5b62000267846200022d565b925062000277602085016200022d565b915062000287604085016200022d565b90509250925092565b5f60208284031215620002a1575f80fd5b815160ff81168114620002b2575f80fd5b9392505050565b634e487b7160e01b5f52601160045260245ffd5b60ff8281168282160390811115620002e957620002e9620002b9565b92915050565b600181815b808511156200032f57815f1904821115620003135762000313620002b9565b808516156200032157918102915b93841c9390800290620002f4565b509250929050565b5f826200034757506001620002e9565b816200035557505f620002e9565b81600181146200036e5760028114620003795762000399565b6001915050620002e9565b60ff8411156200038d576200038d620002b9565b50506001821b620002e9565b5060208310610133831016604e8410600b8410161715620003be575081810a620002e9565b620003ca8383620002ef565b805f1904821115620003e057620003e0620002b9565b029392505050565b5f620002b260ff84168362000337565b60805160a05160c0516129f2620004775f395f818161064001528181611595015261178401525f81816104c3015281816116cf01528181611748015261183501525f81816103ce0152818161075001528181610dd901528181611039015281816112ba015281816115f70152818161196b0152611a2201526129f25ff3fe6080604052600436106101e6575f3560e01c806382413eac11610108578063bc70b3541161009d578063d045a0dc1161006d578063d045a0dc146105e1578063d4243885146105f4578063f2fde38b14610613578063fc0c546a14610632578063ff7bd03d14610664575f80fd5b8063bc70b3541461056f578063bd815db01461058e578063c7c7f5b3146105a1578063ca5eb5e1146105c2575f80fd5b80639f68b964116100d85780639f68b964146104f3578063b731ea0a14610506578063b98bd07014610525578063bb0b6a5314610544575f80fd5b806382413eac1461045c578063857749b01461047b5780638da5cb5b14610496578063963efcaa146104b2575f80fd5b80633b6f743b1161017e5780635e280f111161014e5780635e280f11146103bd5780636fc1b31e146103f0578063715018a61461040f5780637d25a05e14610423575f80fd5b80633b6f743b1461030e57806352ae28791461033a5780635535d4611461034c5780635a0dfe4d14610378575f80fd5b8063156a0d0f116101b9578063156a0d0f1461029457806317442b70146102ba5780631f5e1334146102db5780633400288b146102ef575f80fd5b80630d35b415146101ea578063111ecdad1461022157806313137d6514610258578063134d4f251461026d575b5f80fd5b3480156101f5575f80fd5b50610209610204366004611c34565b610683565b60405161021893929190611cb2565b60405180910390f35b34801561022c575f80fd5b50600454610240906001600160a01b031681565b6040516001600160a01b039091168152602001610218565b61026b610266366004611db0565b61074e565b005b348015610278575f80fd5b50610281600281565b60405161ffff9091168152602001610218565b34801561029f575f80fd5b506040805162b9270b60e21b81526001602082015201610218565b3480156102c5575f80fd5b5060408051600181526002602082015201610218565b3480156102e6575f80fd5b50610281600181565b3480156102fa575f80fd5b5061026b610309366004611e60565b61080e565b348015610319575f80fd5b5061032d610328366004611e95565b610824565b6040516102189190611ee3565b348015610345575f80fd5b5030610240565b348015610357575f80fd5b5061036b610366366004611f0b565b61088a565b6040516102189190611f3c565b348015610383575f80fd5b506103ad610392366004611e60565b63ffffffff919091165f908152600160205260409020541490565b6040519015158152602001610218565b3480156103c8575f80fd5b506102407f000000000000000000000000000000000000000000000000000000000000000081565b3480156103fb575f80fd5b5061026b61040a366004611f4e565b61092c565b34801561041a575f80fd5b5061026b610989565b34801561042e575f80fd5b5061044461043d366004611e60565b5f92915050565b6040516001600160401b039091168152602001610218565b348015610467575f80fd5b506103ad610476366004611f69565b61099c565b348015610486575f80fd5b5060405160068152602001610218565b3480156104a1575f80fd5b505f546001600160a01b0316610240565b3480156104bd575f80fd5b506104e57f000000000000000000000000000000000000000000000000000000000000000081565b604051908152602001610218565b3480156104fe575f80fd5b5060016103ad565b348015610511575f80fd5b50600254610240906001600160a01b031681565b348015610530575f80fd5b5061026b61053f36600461200b565b6109b1565b34801561054f575f80fd5b506104e561055e366004612049565b60016020525f908152604090205481565b34801561057a575f80fd5b5061036b610589366004612062565b6109c3565b61026b61059c36600461200b565b610b30565b6105b46105af3660046120be565b610cba565b604051610218929190612126565b3480156105cd575f80fd5b5061026b6105dc366004611f4e565b610db2565b61026b6105ef366004611db0565b610e33565b3480156105ff575f80fd5b5061026b61060e366004611f4e565b610e62565b34801561061e575f80fd5b5061026b61062d366004611f4e565b610eb8565b34801561063d575f80fd5b507f0000000000000000000000000000000000000000000000000000000000000000610240565b34801561066f575f80fd5b506103ad61067e366004612177565b610ef5565b604080518082019091525f808252602082015260606106b360405180604001604052805f81526020015f81525090565b6040805180820182525f8082526001600160401b0360208084018290528451838152908101909452919550918261070c565b604080518082019091525f8152606060208201528152602001906001900390816106e55790505b5093505f80610730604089013560608a013561072b60208c018c612049565b610f29565b60408051808201909152918252602082015296989597505050505050565b7f00000000000000000000000000000000000000000000000000000000000000006001600160a01b0316331461079e576040516391ac5e4f60e01b81523360048201526024015b60405180910390fd5b602087018035906107b8906107b3908a612049565b610f6c565b146107f6576107ca6020880188612049565b60405163309afaf360e21b815263ffffffff909116600482015260208801356024820152604401610795565b61080587878787878787610fa7565b50505050505050565b610816611105565b6108208282611131565b5050565b604080518082019091525f80825260208201525f6108526040850135606086013561072b6020880188612049565b9150505f806108618684611186565b909250905061087e6108766020880188612049565b8383886112a5565b93505050505b92915050565b600360209081525f9283526040808420909152908252902080546108ad906121a5565b80601f01602080910402602001604051908101604052809291908181526020018280546108d9906121a5565b80156109245780601f106108fb57610100808354040283529160200191610924565b820191905f5260205f20905b81548152906001019060200180831161090757829003601f168201915b505050505081565b610934611105565b600480546001600160a01b0319166001600160a01b0383169081179091556040519081527ff0be4f1e87349231d80c36b33f9e8639658eeaf474014dee15a3e6a4d4414197906020015b60405180910390a150565b610991611105565b61099a5f611383565b565b6001600160a01b03811630145b949350505050565b6109b9611105565b61082082826113d2565b63ffffffff84165f90815260036020908152604080832061ffff871684529091528120805460609291906109f6906121a5565b80601f0160208091040260200160405190810160405280929190818152602001828054610a22906121a5565b8015610a6d5780601f10610a4457610100808354040283529160200191610a6d565b820191905f5260205f20905b815481529060010190602001808311610a5057829003601f168201915b5050505050905080515f03610abb5783838080601f0160208091040260200160405190810160405280939291908181526020018383808284375f920191909152509294506109a99350505050565b5f839003610aca5790506109a9565b60028310610b1357610adc8484611530565b80610aea84600281886121d7565b604051602001610afc939291906121fe565b6040516020818303038152906040529150506109a9565b8383604051639a6d49cd60e01b815260040161079592919061224c565b5f5b81811015610c3d5736838383818110610b4d57610b4d61225f565b9050602002810190610b5f9190612273565b9050610b91610b716020830183612049565b602083013563ffffffff919091165f908152600160205260409020541490565b610b9b5750610c2b565b3063d045a0dc60c08301358360a0810135610bba610100830183612292565b610bcb610100890160e08a01611f4e565b610bd96101208a018a612292565b6040518963ffffffff1660e01b8152600401610bfb97969594939291906122e8565b5f604051808303818588803b158015610c12575f80fd5b505af1158015610c24573d5f803e3d5ffd5b5050505050505b80610c3581612381565b915050610b32565b50336001600160a01b0316638e9e70996040518163ffffffff1660e01b81526004015f60405180830381865afa158015610c79573d5f803e3d5ffd5b505050506040513d5f823e601f3d908101601f19168201604052610ca091908101906123c1565b604051638351eea760e01b81526004016107959190611f3c565b610cc2611bdb565b604080518082019091525f80825260208201525f80610cf733604089013560608a0135610cf260208c018c612049565b611576565b915091505f80610d078984611186565b9092509050610d33610d1c60208b018b612049565b8383610d2d368d90038d018d61245d565b8b6115c6565b60408051808201909152858152602080820186905282519298509096503391907f85496b760a4b7f8d66384b9df21b381f5d1b1e79f229a47aaf4c232edc2fe59a90610d81908d018d612049565b6040805163ffffffff909216825260208201899052810187905260600160405180910390a350505050935093915050565b610dba611105565b60405163ca5eb5e160e01b81526001600160a01b0382811660048301527f0000000000000000000000000000000000000000000000000000000000000000169063ca5eb5e1906024015f604051808303815f87803b158015610e1a575f80fd5b505af1158015610e2c573d5f803e3d5ffd5b5050505050565b333014610e535760405163029a949d60e31b815260040160405180910390fd5b610805878787878787876107f6565b610e6a611105565b600280546001600160a01b0319166001600160a01b0383169081179091556040519081527fd48d879cef83a1c0bdda516f27b13ddb1b3f8bbac1c9e1511bb2a659c24277609060200161097e565b610ec0611105565b6001600160a01b038116610ee957604051631e4fbdf760e01b81525f6004820152602401610795565b610ef281611383565b50565b5f602082018035906001908390610f0c9086612049565b63ffffffff16815260208101919091526040015f20541492915050565b5f80610f34856116cc565b915081905083811015610f64576040516371c4efed60e01b81526004810182905260248101859052604401610795565b935093915050565b63ffffffff81165f90815260016020526040812054806108845760405163f6ff4fb760e01b815263ffffffff84166004820152602401610795565b5f610fb8610fb58787611702565b90565b90505f610fe382610fd1610fcc8a8a611720565b611742565b610fde60208d018d612049565b611776565b905060288611156110a3575f61101f61100260608c0160408d0161248d565b61100f60208d018d612049565b8461101a8c8c6117b3565b6117fd565b604051633e5ac80960e11b81529091506001600160a01b037f00000000000000000000000000000000000000000000000000000000000000001690637cb59012906110749086908d905f9087906004016124a8565b5f604051808303815f87803b15801561108b575f80fd5b505af115801561109d573d5f803e3d5ffd5b50505050505b6001600160a01b038216887fefed6d3500546b29533b128a29e3a94d70788727f0507505ac12eaf2e578fd9c6110dc60208d018d612049565b6040805163ffffffff9092168252602082018690520160405180910390a3505050505050505050565b5f546001600160a01b0316331461099a5760405163118cdaa760e01b8152336004820152602401610795565b63ffffffff82165f81815260016020908152604091829020849055815192835282018390527f238399d427b947898edb290f5ff0f9109849b1c3ba196a42e35f00c50a54b98b91015b60405180910390a15050565b6060805f6111e1856020013561119b8661182f565b6111a860a0890189612292565b8080601f0160208091040260200160405190810160405280939291908181526020018383808284375f9201919091525061185a92505050565b90935090505f816111f35760016111f6565b60025b90506112166112086020880188612049565b8261058960808a018a612292565b6004549093506001600160a01b03161561129c576004805460405163043a78eb60e01b81526001600160a01b039091169163043a78eb9161125b9188918891016124d8565b602060405180830381865afa158015611276573d5f803e3d5ffd5b505050506040513d601f19601f8201168201806040525081019061129a91906124fc565b505b50509250929050565b604080518082019091525f80825260208201527f00000000000000000000000000000000000000000000000000000000000000006001600160a01b031663ddc28c586040518060a001604052808863ffffffff16815260200161130789610f6c565b8152602001878152602001868152602001851515815250306040518363ffffffff1660e01b815260040161133c929190612517565b6040805180830381865afa158015611356573d5f803e3d5ffd5b505050506040513d601f19601f8201168201806040525081019061137a91906125bd565b95945050505050565b5f80546001600160a01b038381166001600160a01b0319831681178455604051919092169283917f8be0079c531659141344cd1fd0a4f28419497f9722a3daafe3b4186f6b6457e09190a35050565b5f5b818110156114fe576114168383838181106113f1576113f161225f565b905060200281019061140391906125d7565b611411906040810190612292565b611530565b8282828181106114285761142861225f565b905060200281019061143a91906125d7565b611448906040810190612292565b60035f86868681811061145d5761145d61225f565b905060200281019061146f91906125d7565b61147d906020810190612049565b63ffffffff1663ffffffff1681526020019081526020015f205f8686868181106114a9576114a961225f565b90506020028101906114bb91906125d7565b6114cc9060408101906020016125eb565b61ffff16815260208101919091526040015f20916114eb919083612651565b50806114f681612381565b9150506113d4565b507fbe4864a8e820971c0247f5992e2da559595f7bf076a21cb5928d443d2a13b674828260405161117a92919061270b565b5f61153e60028284866121d7565b611547916127ea565b60f01c905060038114611571578282604051639a6d49cd60e01b815260040161079592919061224c565b505050565b5f80611583858585610f29565b90925090506115bd6001600160a01b037f0000000000000000000000000000000000000000000000000000000000000000168730856118d4565b94509492505050565b6115ce611bdb565b5f6115db845f0151611941565b6020850151909150156115f5576115f58460200151611968565b7f00000000000000000000000000000000000000000000000000000000000000006001600160a01b0316632637a450826040518060a001604052808b63ffffffff1681526020016116458c610f6c565b81526020018a81526020018981526020015f8960200151111515815250866040518463ffffffff1660e01b8152600401611680929190612517565b60806040518083038185885af115801561169c573d5f803e3d5ffd5b50505050506040513d601f19601f820116820180604052508101906116c1919061281a565b979650505050505050565b5f7f00000000000000000000000000000000000000000000000000000000000000006116f8818461287f565b610884919061289e565b5f61171060208284866121d7565b611719916128b5565b9392505050565b5f61172f6028602084866121d7565b611738916128d2565b60c01c9392505050565b5f6108847f00000000000000000000000000000000000000000000000000000000000000006001600160401b03841661289e565b5f6117ab6001600160a01b037f0000000000000000000000000000000000000000000000000000000000000000168585611a47565b509092915050565b60606117c282602881866121d7565b8080601f0160208091040260200160405190810160405280939291908181526020018383808284375f92019190915250929695505050505050565b6060848484846040516020016118169493929190612900565b6040516020818303038152906040529050949350505050565b5f6108847f00000000000000000000000000000000000000000000000000000000000000008361287f565b80516060901515806118a357848460405160200161188f92919091825260c01b6001600160c01b031916602082015260280190565b6040516020818303038152906040526118ca565b848433856040516020016118ba949392919061294e565b6040516020818303038152906040525b9150935093915050565b6040516001600160a01b03848116602483015283811660448301526064820183905261193b9186918216906323b872dd906084015b604051602081830303815290604052915060e01b6020820180516001600160e01b038381831617835250505050611a78565b50505050565b5f813414611964576040516304fb820960e51b8152346004820152602401610795565b5090565b5f7f00000000000000000000000000000000000000000000000000000000000000006001600160a01b031663e4fe1d946040518163ffffffff1660e01b8152600401602060405180830381865afa1580156119c5573d5f803e3d5ffd5b505050506040513d601f19601f820116820180604052508101906119e99190612990565b90506001600160a01b038116611a12576040516329b99a9560e11b815260040160405180910390fd5b6108206001600160a01b038216337f0000000000000000000000000000000000000000000000000000000000000000856118d4565b6040516001600160a01b0383811660248301526044820183905261157191859182169063a9059cbb90606401611909565b5f611a8c6001600160a01b03841683611ad9565b905080515f14158015611ab0575080806020019051810190611aae91906124fc565b155b1561157157604051635274afe760e01b81526001600160a01b0384166004820152602401610795565b606061171983835f845f80856001600160a01b03168486604051611afd91906129ab565b5f6040518083038185875af1925050503d805f8114611b37576040519150601f19603f3d011682016040523d82523d5f602084013e611b3c565b606091505b5091509150611b4c868383611b56565b9695505050505050565b606082611b6b57611b6682611bb2565b611719565b8151158015611b8257506001600160a01b0384163b155b15611bab57604051639996b31560e01b81526001600160a01b0385166004820152602401610795565b5080611719565b805115611bc25780518082602001fd5b604051630a12f52160e11b815260040160405180910390fd5b60405180606001604052805f80191681526020015f6001600160401b03168152602001611c1960405180604001604052805f81526020015f81525090565b905290565b5f60e08284031215611c2e575f80fd5b50919050565b5f60208284031215611c44575f80fd5b81356001600160401b03811115611c59575f80fd5b6109a984828501611c1e565b5f5b83811015611c7f578181015183820152602001611c67565b50505f910152565b5f8151808452611c9e816020860160208601611c65565b601f01601f19169290920160200192915050565b83518152602080850151908201525f60a08201604060a08185015281865180845260c08601915060c08160051b870101935060208089015f5b83811015611d2a5788870360bf19018552815180518852830151838801879052611d1787890182611c87565b9750509382019390820190600101611ceb565b505087516060880152505050602085015160808501525090506109a9565b5f60608284031215611c2e575f80fd5b5f8083601f840112611d68575f80fd5b5081356001600160401b03811115611d7e575f80fd5b602083019150836020828501011115611d95575f80fd5b9250929050565b6001600160a01b0381168114610ef2575f80fd5b5f805f805f805f60e0888a031215611dc6575f80fd5b611dd08989611d48565b96506060880135955060808801356001600160401b0380821115611df2575f80fd5b611dfe8b838c01611d58565b909750955060a08a01359150611e1382611d9c565b90935060c08901359080821115611e28575f80fd5b50611e358a828b01611d58565b989b979a50959850939692959293505050565b803563ffffffff81168114611e5b575f80fd5b919050565b5f8060408385031215611e71575f80fd5b611e7a83611e48565b946020939093013593505050565b8015158114610ef2575f80fd5b5f8060408385031215611ea6575f80fd5b82356001600160401b03811115611ebb575f80fd5b611ec785828601611c1e565b9250506020830135611ed881611e88565b809150509250929050565b815181526020808301519082015260408101610884565b803561ffff81168114611e5b575f80fd5b5f8060408385031215611f1c575f80fd5b611f2583611e48565b9150611f3360208401611efa565b90509250929050565b602081525f6117196020830184611c87565b5f60208284031215611f5e575f80fd5b813561171981611d9c565b5f805f8060a08587031215611f7c575f80fd5b611f868686611d48565b935060608501356001600160401b03811115611fa0575f80fd5b611fac87828801611d58565b9094509250506080850135611fc081611d9c565b939692955090935050565b5f8083601f840112611fdb575f80fd5b5081356001600160401b03811115611ff1575f80fd5b6020830191508360208260051b8501011115611d95575f80fd5b5f806020838503121561201c575f80fd5b82356001600160401b03811115612031575f80fd5b61203d85828601611fcb565b90969095509350505050565b5f60208284031215612059575f80fd5b61171982611e48565b5f805f8060608587031215612075575f80fd5b61207e85611e48565b935061208c60208601611efa565b925060408501356001600160401b038111156120a6575f80fd5b6120b287828801611d58565b95989497509550505050565b5f805f83850360808112156120d1575f80fd5b84356001600160401b038111156120e6575f80fd5b6120f287828801611c1e565b9450506040601f1982011215612106575f80fd5b50602084019150606084013561211b81611d9c565b809150509250925092565b5f60c082019050835182526001600160401b0360208501511660208301526040840151612160604084018280518252602090810151910152565b5082516080830152602083015160a0830152611719565b5f60608284031215612187575f80fd5b6117198383611d48565b634e487b7160e01b5f52604160045260245ffd5b600181811c908216806121b957607f821691505b602082108103611c2e57634e487b7160e01b5f52602260045260245ffd5b5f80858511156121e5575f80fd5b838611156121f1575f80fd5b5050820193919092039150565b5f845161220f818460208901611c65565b8201838582375f930192835250909392505050565b81835281816020850137505f828201602090810191909152601f909101601f19169091010190565b602081525f6109a9602083018486612224565b634e487b7160e01b5f52603260045260245ffd5b5f823561013e19833603018112612288575f80fd5b9190910192915050565b5f808335601e198436030181126122a7575f80fd5b8301803591506001600160401b038211156122c0575f80fd5b602001915036819003821315611d95575f80fd5b6001600160401b0381168114610ef2575f80fd5b63ffffffff6122f689611e48565b168152602088013560208201525f6040890135612312816122d4565b6001600160401b03811660408401525087606083015260e0608083015261233d60e083018789612224565b6001600160a01b03861660a084015282810360c084015261235f818587612224565b9a9950505050505050505050565b634e487b7160e01b5f52601160045260245ffd5b5f600182016123925761239261236d565b5060010190565b604080519081016001600160401b03811182821017156123bb576123bb612191565b60405290565b5f602082840312156123d1575f80fd5b81516001600160401b03808211156123e7575f80fd5b818401915084601f8301126123fa575f80fd5b81518181111561240c5761240c612191565b604051601f8201601f19908116603f0116810190838211818310171561243457612434612191565b8160405282815287602084870101111561244c575f80fd5b6116c1836020830160208801611c65565b5f6040828403121561246d575f80fd5b612475612399565b82358152602083013560208201528091505092915050565b5f6020828403121561249d575f80fd5b8135611719816122d4565b60018060a01b038516815283602082015261ffff83166040820152608060608201525f611b4c6080830184611c87565b604081525f6124ea6040830185611c87565b828103602084015261137a8185611c87565b5f6020828403121561250c575f80fd5b815161171981611e88565b6040815263ffffffff8351166040820152602083015160608201525f604084015160a0608084015261254c60e0840182611c87565b90506060850151603f198483030160a08501526125698282611c87565b60809690960151151560c08501525050506001600160a01b039190911660209091015290565b5f6040828403121561259f575f80fd5b6125a7612399565b9050815181526020820151602082015292915050565b5f604082840312156125cd575f80fd5b611719838361258f565b5f8235605e19833603018112612288575f80fd5b5f602082840312156125fb575f80fd5b61171982611efa565b601f821115611571575f81815260208120601f850160051c8101602086101561262a5750805b601f850160051c820191505b8181101561264957828155600101612636565b505050505050565b6001600160401b0383111561266857612668612191565b61267c8361267683546121a5565b83612604565b5f601f8411600181146126ad575f85156126965750838201355b5f19600387901b1c1916600186901b178355610e2c565b5f83815260209020601f19861690835b828110156126dd57868501358255602094850194600190920191016126bd565b50868210156126f9575f1960f88860031b161c19848701351681555b505060018560011b0183555050505050565b60208082528181018390525f906040808401600586901b8501820187855b888110156127dc57878303603f190184528135368b9003605e1901811261274e575f80fd5b8a01606063ffffffff61276083611e48565b16855261ffff612771898401611efa565b168886015286820135601e1983360301811261278b575f80fd5b9091018781019190356001600160401b038111156127a7575f80fd5b8036038313156127b5575f80fd5b81888701526127c78287018285612224565b96890196955050509186019150600101612729565b509098975050505050505050565b6001600160f01b031981358181169160028510156128125780818660020360031b1b83161692505b505092915050565b5f6080828403121561282a575f80fd5b604051606081018181106001600160401b038211171561284c5761284c612191565b604052825181526020830151612861816122d4565b6020820152612873846040850161258f565b60408201529392505050565b5f8261289957634e487b7160e01b5f52601260045260245ffd5b500490565b80820281158282048414176108845761088461236d565b80356020831015610884575f19602084900360031b1b1692915050565b6001600160c01b031981358181169160088510156128125760089490940360031b84901b1690921692915050565b6001600160401b0360c01b8560c01b16815263ffffffff60e01b8460e01b16600882015282600c8201525f825161293e81602c850160208701611c65565b91909101602c0195945050505050565b8481526001600160401b0360c01b8460c01b1660208201528260288201525f8251612980816048850160208701611c65565b9190910160480195945050505050565b5f602082840312156129a0575f80fd5b815161171981611d9c565b5f8251612288818460208701611c6556fea2646970667358221220ce72a14151b3d83faf5352a98559046c567ab61a16541219cd92dd95d9edfd4964736f6c63430008140033","linkReferences":{}},"methodIdentifiers":{"SEND()":"1f5e1334","SEND_AND_CALL()":"134d4f25","allowInitializePath((uint32,bytes32,uint64))":"ff7bd03d","approvalRequired()":"9f68b964","combineOptions(uint32,uint16,bytes)":"bc70b354","decimalConversionRate()":"963efcaa","endpoint()":"5e280f11","enforcedOptions(uint32,uint16)":"5535d461","isComposeMsgSender((uint32,bytes32,uint64),bytes,address)":"82413eac","isPeer(uint32,bytes32)":"5a0dfe4d","lzReceive((uint32,bytes32,uint64),bytes32,bytes,address,bytes)":"13137d65","lzReceiveAndRevert(((uint32,bytes32,uint64),uint32,address,bytes32,uint256,address,bytes,bytes)[])":"bd815db0","lzReceiveSimulate((uint32,bytes32,uint64),bytes32,bytes,address,bytes)":"d045a0dc","msgInspector()":"111ecdad","nextNonce(uint32,bytes32)":"7d25a05e","oApp()":"52ae2879","oAppVersion()":"17442b70","oftVersion()":"156a0d0f","owner()":"8da5cb5b","peers(uint32)":"bb0b6a53","preCrime()":"b731ea0a","quoteOFT((uint32,bytes32,uint256,uint256,bytes,bytes,bytes))":"0d35b415","quoteSend((uint32,bytes32,uint256,uint256,bytes,bytes,bytes),bool)":"3b6f743b","renounceOwnership()":"715018a6","send((uint32,bytes32,uint256,uint256,bytes,bytes,bytes),(uint256,uint256),address)":"c7c7f5b3","setDelegate(address)":"ca5eb5e1","setEnforcedOptions((uint32,uint16,bytes)[])":"b98bd070","setMsgInspector(address)":"6fc1b31e","setPeer(uint32,bytes32)":"3400288b","setPreCrime(address)":"d4243885","sharedDecimals()":"857749b0","token()":"fc0c546a","transferOwnership(address)":"f2fde38b"},"id":1}