{"abi":[{"type":"constructor","inputs":[{"name":"_token","type":"address","internalType":"address"},{"name":"_lzEndpoint","type":"address","internalType":"address"}],"stateMutability":"nonpayable"},{"type":"function","name":"SEND","inputs":[],"outputs":[{"name":"","type":"uint16","internalType":"uint16"}],"stateMutability":"view"},{"type":"function","name":"SEND_AND_CALL","inputs":[],"outputs":[{"name":"","type":"uint16","internalType":"uint16"}],"stateMutability":"view"},{"type":"function","name":"allowInitializePath","inputs":[{"name":"origin","type":"tuple","internalType":"struct Origin","components":[{"name":"srcEid","type":"uint32","internalType":"uint32"},{"name":"sender","type":"bytes32","internalType":"bytes32"},{"name":"nonce","type":"uint64","internalType":"uint64"}]}],"outputs":[{"name":"","type":"bool","internalType":"bool"}],"stateMutability":"view"},{"type":"function","name":"approvalRequired","inputs":[],"outputs":[{"name":"","type":"bool","internalType":"bool"}],"stateMutability":"pure"},{"type":"function","name":"combineOptions","inputs":[{"name":"_eid","type":"uint32","internalType":"uint32"},{"name":"_msgType","type":"uint16","internalType":"uint16"},{"name":"_extraOptions","type":"bytes","internalType":"bytes"}],"outputs":[{"name":"","type":"bytes","internalType":"bytes"}],"stateMutability":"view"},{"type":"function","name":"composeMsgSender","inputs":[],"outputs":[{"name":"sender","type":"address","internalType":"address"}],"stateMutability":"view"},{"type":"function","name":"decimalConversionRate","inputs":[],"outputs":[{"name":"","type":"uint256","internalType":"uint256"}],"stateMutability":"view"},{"type":"function","name":"endpoint","inputs":[],"outputs":[{"name":"","type":"address","internalType":"contract ILayerZeroEndpointV2"}],"stateMutability":"view"},{"type":"function","name":"enforcedOptions","inputs":[{"name":"_eid","type":"uint32","internalType":"uint32"},{"name":"_msgType","type":"uint16","internalType":"uint16"}],"outputs":[{"name":"","type":"bytes","internalType":"bytes"}],"stateMutability":"view"},{"type":"function","name":"initialize","inputs":[{"name":"_owner","type":"address","internalType":"address"},{"name":"_delegate","type":"address","internalType":"address"}],"outputs":[],"stateMutability":"nonpayable"},{"type":"function","name":"isPeer","inputs":[{"name":"_eid","type":"uint32","internalType":"uint32"},{"name":"_peer","type":"bytes32","internalType":"bytes32"}],"outputs":[{"name":"","type":"bool","internalType":"bool"}],"stateMutability":"view"},{"type":"function","name":"lzReceive","inputs":[{"name":"_origin","type":"tuple","internalType":"struct Origin","components":[{"name":"srcEid","type":"uint32","internalType":"uint32"},{"name":"sender","type":"bytes32","internalType":"bytes32"},{"name":"nonce","type":"uint64","internalType":"uint64"}]},{"name":"_guid","type":"bytes32","internalType":"bytes32"},{"name":"_message","type":"bytes","internalType":"bytes"},{"name":"_executor","type":"address","internalType":"address"},{"name":"_extraData","type":"bytes","internalType":"bytes"}],"outputs":[],"stateMutability":"payable"},{"type":"function","name":"lzReceiveAndRevert","inputs":[{"name":"_packets","type":"tuple[]","internalType":"struct InboundPacket[]","components":[{"name":"origin","type":"tuple","internalType":"struct Origin","components":[{"name":"srcEid","type":"uint32","internalType":"uint32"},{"name":"sender","type":"bytes32","internalType":"bytes32"},{"name":"nonce","type":"uint64","internalType":"uint64"}]},{"name":"dstEid","type":"uint32","internalType":"uint32"},{"name":"receiver","type":"address","internalType":"address"},{"name":"guid","type":"bytes32","internalType":"bytes32"},{"name":"value","type":"uint256","internalType":"uint256"},{"name":"executor","type":"address","internalType":"address"},{"name":"message","type":"bytes","internalType":"bytes"},{"name":"extraData","type":"bytes","internalType":"bytes"}]}],"outputs":[],"stateMutability":"payable"},{"type":"function","name":"lzReceiveSimulate","inputs":[{"name":"_origin","type":"tuple","internalType":"struct Origin","components":[{"name":"srcEid","type":"uint32","internalType":"uint32"},{"name":"sender","type":"bytes32","internalType":"bytes32"},{"name":"nonce","type":"uint64","internalType":"uint64"}]},{"name":"_guid","type":"bytes32","internalType":"bytes32"},{"name":"_message","type":"bytes","internalType":"bytes"},{"name":"_executor","type":"address","internalType":"address"},{"name":"_extraData","type":"bytes","internalType":"bytes"}],"outputs":[],"stateMutability":"payable"},{"type":"function","name":"msgInspector","inputs":[],"outputs":[{"name":"","type":"address","internalType":"address"}],"stateMutability":"view"},{"type":"function","name":"nextNonce","inputs":[{"name":"","type":"uint32","internalType":"uint32"},{"name":"","type":"bytes32","internalType":"bytes32"}],"outputs":[{"name":"nonce","type":"uint64","internalType":"uint64"}],"stateMutability":"view"},{"type":"function","name":"oApp","inputs":[],"outputs":[{"name":"","type":"address","internalType":"address"}],"stateMutability":"view"},{"type":"function","name":"oAppVersion","inputs":[],"outputs":[{"name":"senderVersion","type":"uint64","internalType":"uint64"},{"name":"receiverVersion","type":"uint64","internalType":"uint64"}],"stateMutability":"pure"},{"type":"function","name":"oftVersion","inputs":[],"outputs":[{"name":"interfaceId","type":"bytes4","internalType":"bytes4"},{"name":"version","type":"uint64","internalType":"uint64"}],"stateMutability":"pure"},{"type":"function","name":"owner","inputs":[],"outputs":[{"name":"","type":"address","internalType":"address"}],"stateMutability":"view"},{"type":"function","name":"peers","inputs":[{"name":"_eid","type":"uint32","internalType":"uint32"}],"outputs":[{"name":"","type":"bytes32","internalType":"bytes32"}],"stateMutability":"view"},{"type":"function","name":"preCrime","inputs":[],"outputs":[{"name":"","type":"address","internalType":"address"}],"stateMutability":"view"},{"type":"function","name":"quoteOFT","inputs":[{"name":"_sendParam","type":"tuple","internalType":"struct SendParam","components":[{"name":"dstEid","type":"uint32","internalType":"uint32"},{"name":"to","type":"bytes32","internalType":"bytes32"},{"name":"amountLD","type":"uint256","internalType":"uint256"},{"name":"minAmountLD","type":"uint256","internalType":"uint256"},{"name":"extraOptions","type":"bytes","internalType":"bytes"},{"name":"composeMsg","type":"bytes","internalType":"bytes"},{"name":"oftCmd","type":"bytes","internalType":"bytes"}]}],"outputs":[{"name":"oftLimit","type":"tuple","internalType":"struct OFTLimit","components":[{"name":"minAmountLD","type":"uint256","internalType":"uint256"},{"name":"maxAmountLD","type":"uint256","internalType":"uint256"}]},{"name":"oftFeeDetails","type":"tuple[]","internalType":"struct OFTFeeDetail[]","components":[{"name":"feeAmountLD","type":"int256","internalType":"int256"},{"name":"description","type":"string","internalType":"string"}]},{"name":"oftReceipt","type":"tuple","internalType":"struct OFTReceipt","components":[{"name":"amountSentLD","type":"uint256","internalType":"uint256"},{"name":"amountReceivedLD","type":"uint256","internalType":"uint256"}]}],"stateMutability":"view"},{"type":"function","name":"quoteSend","inputs":[{"name":"_sendParam","type":"tuple","internalType":"struct SendParam","components":[{"name":"dstEid","type":"uint32","internalType":"uint32"},{"name":"to","type":"bytes32","internalType":"bytes32"},{"name":"amountLD","type":"uint256","internalType":"uint256"},{"name":"minAmountLD","type":"uint256","internalType":"uint256"},{"name":"extraOptions","type":"bytes","internalType":"bytes"},{"name":"composeMsg","type":"bytes","internalType":"bytes"},{"name":"oftCmd","type":"bytes","internalType":"bytes"}]},{"name":"_payInLzToken","type":"bool","internalType":"bool"}],"outputs":[{"name":"msgFee","type":"tuple","internalType":"struct MessagingFee","components":[{"name":"nativeFee","type":"uint256","internalType":"uint256"},{"name":"lzTokenFee","type":"uint256","internalType":"uint256"}]}],"stateMutability":"view"},{"type":"function","name":"renounceOwnership","inputs":[],"outputs":[],"stateMutability":"nonpayable"},{"type":"function","name":"send","inputs":[{"name":"_sendParam","type":"tuple","internalType":"struct SendParam","components":[{"name":"dstEid","type":"uint32","internalType":"uint32"},{"name":"to","type":"bytes32","internalType":"bytes32"},{"name":"amountLD","type":"uint256","internalType":"uint256"},{"name":"minAmountLD","type":"uint256","internalType":"uint256"},{"name":"extraOptions","type":"bytes","internalType":"bytes"},{"name":"composeMsg","type":"bytes","internalType":"bytes"},{"name":"oftCmd","type":"bytes","internalType":"bytes"}]},{"name":"_fee","type":"tuple","internalType":"struct MessagingFee","components":[{"name":"nativeFee","type":"uint256","internalType":"uint256"},{"name":"lzTokenFee","type":"uint256","internalType":"uint256"}]},{"name":"_refundAddress","type":"address","internalType":"address"}],"outputs":[{"name":"msgReceipt","type":"tuple","internalType":"struct MessagingReceipt","components":[{"name":"guid","type":"bytes32","internalType":"bytes32"},{"name":"nonce","type":"uint64","internalType":"uint64"},{"name":"fee","type":"tuple","internalType":"struct MessagingFee","components":[{"name":"nativeFee","type":"uint256","internalType":"uint256"},{"name":"lzTokenFee","type":"uint256","internalType":"uint256"}]}]},{"name":"oftReceipt","type":"tuple","internalType":"struct OFTReceipt","components":[{"name":"amountSentLD","type":"uint256","internalType":"uint256"},{"name":"amountReceivedLD","type":"uint256","internalType":"uint256"}]}],"stateMutability":"payable"},{"type":"function","name":"setDelegate","inputs":[{"name":"_delegate","type":"address","internalType":"address"}],"outputs":[],"stateMutability":"nonpayable"},{"type":"function","name":"setEnforcedOptions","inputs":[{"name":"_enforcedOptions","type":"tuple[]","internalType":"struct EnforcedOptionParam[]","components":[{"name":"eid","type":"uint32","internalType":"uint32"},{"name":"msgType","type":"uint16","internalType":"uint16"},{"name":"options","type":"bytes","internalType":"bytes"}]}],"outputs":[],"stateMutability":"nonpayable"},{"type":"function","name":"setMsgInspector","inputs":[{"name":"_msgInspector","type":"address","internalType":"address"}],"outputs":[],"stateMutability":"nonpayable"},{"type":"function","name":"setPeer","inputs":[{"name":"_eid","type":"uint32","internalType":"uint32"},{"name":"_peer","type":"bytes32","internalType":"bytes32"}],"outputs":[],"stateMutability":"nonpayable"},{"type":"function","name":"setPreCrime","inputs":[{"name":"_preCrime","type":"address","internalType":"address"}],"outputs":[],"stateMutability":"nonpayable"},{"type":"function","name":"sharedDecimals","inputs":[],"outputs":[{"name":"","type":"uint8","internalType":"uint8"}],"stateMutability":"pure"},{"type":"function","name":"token","inputs":[],"outputs":[{"name":"","type":"address","internalType":"address"}],"stateMutability":"view"},{"type":"function","name":"transferOwnership","inputs":[{"name":"newOwner","type":"address","internalType":"address"}],"outputs":[],"stateMutability":"nonpayable"},{"type":"event","name":"EnforcedOptionSet","inputs":[{"name":"_enforcedOptions","type":"tuple[]","indexed":false,"internalType":"struct EnforcedOptionParam[]","components":[{"name":"eid","type":"uint32","internalType":"uint32"},{"name":"msgType","type":"uint16","internalType":"uint16"},{"name":"options","type":"bytes","internalType":"bytes"}]}],"anonymous":false},{"type":"event","name":"Initialized","inputs":[{"name":"version","type":"uint64","indexed":false,"internalType":"uint64"}],"anonymous":false},{"type":"event","name":"MsgInspectorSet","inputs":[{"name":"inspector","type":"address","indexed":false,"internalType":"address"}],"anonymous":false},{"type":"event","name":"OFTReceived","inputs":[{"name":"guid","type":"bytes32","indexed":true,"internalType":"bytes32"},{"name":"srcEid","type":"uint32","indexed":false,"internalType":"uint32"},{"name":"toAddress","type":"address","indexed":true,"internalType":"address"},{"name":"amountReceivedLD","type":"uint256","indexed":false,"internalType":"uint256"}],"anonymous":false},{"type":"event","name":"OFTSent","inputs":[{"name":"guid","type":"bytes32","indexed":true,"internalType":"bytes32"},{"name":"dstEid","type":"uint32","indexed":false,"internalType":"uint32"},{"name":"fromAddress","type":"address","indexed":true,"internalType":"address"},{"name":"amountSentLD","type":"uint256","indexed":false,"internalType":"uint256"},{"name":"amountReceivedLD","type":"uint256","indexed":false,"internalType":"uint256"}],"anonymous":false},{"type":"event","name":"OwnershipTransferred","inputs":[{"name":"previousOwner","type":"address","indexed":true,"internalType":"address"},{"name":"newOwner","type":"address","indexed":true,"internalType":"address"}],"anonymous":false},{"type":"event","name":"PeerSet","inputs":[{"name":"eid","type":"uint32","indexed":false,"internalType":"uint32"},{"name":"peer","type":"bytes32","indexed":false,"internalType":"bytes32"}],"anonymous":false},{"type":"event","name":"PreCrimeSet","inputs":[{"name":"preCrimeAddress","type":"address","indexed":false,"internalType":"address"}],"anonymous":false},{"type":"error","name":"AddressEmptyCode","inputs":[{"name":"target","type":"address","internalType":"address"}]},{"type":"error","name":"AddressInsufficientBalance","inputs":[{"name":"account","type":"address","internalType":"address"}]},{"type":"error","name":"FailedInnerCall","inputs":[]},{"type":"error","name":"InvalidDelegate","inputs":[]},{"type":"error","name":"InvalidEndpointCall","inputs":[]},{"type":"error","name":"InvalidInitialization","inputs":[]},{"type":"error","name":"InvalidLocalDecimals","inputs":[]},{"type":"error","name":"InvalidOptions","inputs":[{"name":"options","type":"bytes","internalType":"bytes"}]},{"type":"error","name":"LzTokenUnavailable","inputs":[]},{"type":"error","name":"NoPeer","inputs":[{"name":"eid","type":"uint32","internalType":"uint32"}]},{"type":"error","name":"NotEnoughNative","inputs":[{"name":"msgValue","type":"uint256","internalType":"uint256"}]},{"type":"error","name":"NotInitializing","inputs":[]},{"type":"error","name":"OnlyEndpoint","inputs":[{"name":"addr","type":"address","internalType":"address"}]},{"type":"error","name":"OnlyPeer","inputs":[{"name":"eid","type":"uint32","internalType":"uint32"},{"name":"sender","type":"bytes32","internalType":"bytes32"}]},{"type":"error","name":"OnlySelf","inputs":[]},{"type":"error","name":"OwnableInvalidOwner","inputs":[{"name":"owner","type":"address","internalType":"address"}]},{"type":"error","name":"OwnableUnauthorizedAccount","inputs":[{"name":"account","type":"address","internalType":"address"}]},{"type":"error","name":"SafeERC20FailedOperation","inputs":[{"name":"token","type":"address","internalType":"address"}]},{"type":"error","name":"SimulationResult","inputs":[{"name":"result","type":"bytes","internalType":"bytes"}]},{"type":"error","name":"SlippageExceeded","inputs":[{"name":"amountLD","type":"uint256","internalType":"uint256"},{"name":"minAmountLD","type":"uint256","internalType":"uint256"}]}],"bytecode":{"object":"0x60e060405234801562000010575f80fd5b506040516200311f3803806200311f8339810160408190526200003391620001da565b8181816001600160a01b031663313ce5676040518163ffffffff1660e01b8152600401602060405180830381865afa15801562000072573d5f803e3d5ffd5b505050506040513d601f19601f8201168201806040525081019062000098919062000210565b6001600160a01b03821660805281600660ff83161015620000cc576040516301e9714b60e41b815260040160405180910390fd5b620000d96006836200024d565b620000e690600a62000368565b60a0525050506001600160a01b031660c052620001026200010a565b505062000378565b7ff0c57e16840df040f15088dc2f81fe391c3923bec73e23a9662efc9c229c6a00805468010000000000000000900460ff16156200015b5760405163f92ee8a960e01b815260040160405180910390fd5b80546001600160401b0390811614620001bb5780546001600160401b0319166001600160401b0390811782556040519081527fc7f505b2f371ae2175ee4913f4499e1f2633a7b5936321eed1cdaeb6115181d29060200160405180910390a15b50565b80516001600160a01b0381168114620001d5575f80fd5b919050565b5f8060408385031215620001ec575f80fd5b620001f783620001be565b91506200020760208401620001be565b90509250929050565b5f6020828403121562000221575f80fd5b815160ff8116811462000232575f80fd5b9392505050565b634e487b7160e01b5f52601160045260245ffd5b60ff828116828216039081111562000269576200026962000239565b92915050565b600181815b80851115620002af57815f190482111562000293576200029362000239565b80851615620002a157918102915b93841c939080029062000274565b509250929050565b5f82620002c75750600162000269565b81620002d557505f62000269565b8160018114620002ee5760028114620002f95762000319565b600191505062000269565b60ff8411156200030d576200030d62000239565b50506001821b62000269565b5060208310610133831016604e8410600b84101617156200033e575081810a62000269565b6200034a83836200026f565b805f190482111562000360576200036062000239565b029392505050565b5f6200023260ff841683620002b7565b60805160a05160c051612d28620003f75f395f818161064a0152818161184b0152611a2a01525f81816104c60152818161197c015281816119ee0152611adb01525f81816103f80152818161078e015281816111bb015281816114370152818161168b015281816118a401528181611c730152611d2a0152612d285ff3fe6080604052600436106101f1575f3560e01c8063857749b011610108578063bc70b3541161009d578063d045a0dc1161006d578063d045a0dc146105eb578063d4243885146105fe578063f2fde38b1461061d578063fc0c546a1461063c578063ff7bd03d1461066e575f80fd5b8063bc70b35414610579578063bd815db014610598578063c7c7f5b3146105ab578063ca5eb5e1146105cc575f80fd5b8063b731ea0a116100d8578063b731ea0a14610509578063b92d0eff14610358578063b98bd0701461051d578063bb0b6a531461053c575f80fd5b8063857749b0146104865780638da5cb5b146104a1578063963efcaa146104b55780639f68b964146104f6575f80fd5b80633b6f743b116101895780635a0dfe4d116101595780635a0dfe4d146103965780635e280f11146103e75780636fc1b31e1461041a578063715018a6146104395780637d25a05e1461044d575f80fd5b80633b6f743b1461030d578063485cc9551461033957806352ae2879146103585780635535d4611461036a575f80fd5b8063156a0d0f116101c4578063156a0d0f1461029457806317442b70146102ba5780631f5e1334146102da5780633400288b146102ee575f80fd5b80630d35b415146101f5578063111ecdad1461022c57806313137d6514610258578063134d4f251461026d575b5f80fd5b348015610200575f80fd5b5061021461020f366004611f80565b61068d565b60405161022393929190611ffe565b60405180910390f35b348015610237575f80fd5b50610240610758565b6040516001600160a01b039091168152602001610223565b61026b6102663660046120fc565b61078c565b005b348015610278575f80fd5b50610281600281565b60405161ffff9091168152602001610223565b34801561029f575f80fd5b506040805162b9270b60e21b81526001602082015201610223565b3480156102c5575f80fd5b50604080516001808252602082015201610223565b3480156102e5575f80fd5b50610281600181565b3480156102f9575f80fd5b5061026b6103083660046121ac565b61084c565b348015610318575f80fd5b5061032c6103273660046121e1565b6108b7565b604051610223919061222f565b348015610344575f80fd5b5061026b610353366004612246565b61091d565b348015610363575f80fd5b5030610240565b348015610375575f80fd5b50610389610384366004612283565b610a32565b60405161022391906122b4565b3480156103a1575f80fd5b506103d76103b03660046121ac565b63ffffffff919091165f9081525f80516020612cd383398151915260205260409020541490565b6040519015158152602001610223565b3480156103f2575f80fd5b506102407f000000000000000000000000000000000000000000000000000000000000000081565b348015610425575f80fd5b5061026b6104343660046122c6565b610b0a565b348015610444575f80fd5b5061026b610b86565b348015610458575f80fd5b5061046e6104673660046121ac565b5f92915050565b6040516001600160401b039091168152602001610223565b348015610491575f80fd5b5060405160068152602001610223565b3480156104ac575f80fd5b50610240610b99565b3480156104c0575f80fd5b506104e87f000000000000000000000000000000000000000000000000000000000000000081565b604051908152602001610223565b348015610501575f80fd5b5060016103d7565b348015610514575f80fd5b50610240610bc1565b348015610528575f80fd5b5061026b610537366004612321565b610be9565b348015610547575f80fd5b506104e861055636600461235f565b63ffffffff165f9081525f80516020612cd3833981519152602052604090205490565b348015610584575f80fd5b50610389610593366004612378565b610d6f565b61026b6105a6366004612321565b610f07565b6105be6105b93660046123d4565b61109d565b60405161022392919061243c565b3480156105d7575f80fd5b5061026b6105e63660046122c6565b611194565b61026b6105f93660046120fc565b611215565b348015610609575f80fd5b5061026b6106183660046122c6565b611244565b348015610628575f80fd5b5061026b6106373660046122c6565b6112b8565b348015610647575f80fd5b507f0000000000000000000000000000000000000000000000000000000000000000610240565b348015610679575f80fd5b506103d761068836600461248d565b6112f5565b604080518082019091525f808252602082015260606106bd60405180604001604052805f81526020015f81525090565b6040805180820182525f8082526001600160401b03602080840182905284518381529081019094529195509182610716565b604080518082019091525f8152606060208201528152602001906001900390816106ef5790505b5093505f8061073a604089013560608a013561073560208c018c61235f565b611312565b60408051808201909152918252602082015296989597505050505050565b5f807f41db8a78b0206aba5c54bcbfc2bda0d84082a84eb88e680379a57b9e9f653c005b546001600160a01b031692915050565b7f00000000000000000000000000000000000000000000000000000000000000006001600160a01b031633146107dc576040516391ac5e4f60e01b81523360048201526024015b60405180910390fd5b602087018035906107f6906107f1908a61235f565b611355565b1461083457610808602088018861235f565b60405163309afaf360e21b815263ffffffff9091166004820152602088013560248201526044016107d3565b610843878787878787876113a5565b50505050505050565b610854611503565b63ffffffff82165f8181525f80516020612cd3833981519152602081815260409283902085905582519384528301849052917f238399d427b947898edb290f5ff0f9109849b1c3ba196a42e35f00c50a54b98b91015b60405180910390a1505050565b604080518082019091525f80825260208201525f6108e560408501356060860135610735602088018861235f565b9150505f806108f48684611535565b9092509050610911610909602088018861235f565b838388611676565b93505050505b92915050565b7ff0c57e16840df040f15088dc2f81fe391c3923bec73e23a9662efc9c229c6a008054600160401b810460ff1615906001600160401b03165f811580156109615750825b90505f826001600160401b0316600114801561097c5750303b155b90508115801561098a575080155b156109a85760405163f92ee8a960e01b815260040160405180910390fd5b845467ffffffffffffffff1916600117855583156109d257845460ff60401b1916600160401b1785555b6109db87611754565b6109e486611765565b831561084357845460ff60401b19168555604051600181527fc7f505b2f371ae2175ee4913f4499e1f2633a7b5936321eed1cdaeb6115181d29060200160405180910390a150505050505050565b63ffffffff82165f9081527f8d2bda5d9f6ffb5796910376005392955773acee5548d0fcdb10e7c264ea00006020818152604080842061ffff8616855290915290912080546060929190610a85906124bb565b80601f0160208091040260200160405190810160405280929190818152602001828054610ab1906124bb565b8015610afc5780601f10610ad357610100808354040283529160200191610afc565b820191905f5260205f20905b815481529060010190602001808311610adf57829003601f168201915b505050505091505092915050565b610b12611503565b7f41db8a78b0206aba5c54bcbfc2bda0d84082a84eb88e680379a57b9e9f653c0080546001600160a01b0319166001600160a01b03831690811782556040519081527ff0be4f1e87349231d80c36b33f9e8639658eeaf474014dee15a3e6a4d4414197906020015b60405180910390a15050565b610b8e611503565b610b975f611776565b565b5f807f9016d09d72d40fdae2fd8ceac6b6234c7706214fd39c1cd1e609a0528c19930061077c565b5f807fefb041d771d6daaa55702fff6eb740d63ba559a75d2d1d3e151c78ff2480b60061077c565b610bf1611503565b7f8d2bda5d9f6ffb5796910376005392955773acee5548d0fcdb10e7c264ea00005f5b82811015610d3d57610c56848483818110610c3157610c316124ed565b9050602002810190610c439190612501565b610c5190604081019061251f565b6117e6565b838382818110610c6857610c686124ed565b9050602002810190610c7a9190612501565b610c8890604081019061251f565b835f878786818110610c9c57610c9c6124ed565b9050602002810190610cae9190612501565b610cbc90602081019061235f565b63ffffffff1663ffffffff1681526020019081526020015f205f878786818110610ce857610ce86124ed565b9050602002810190610cfa9190612501565b610d0b906040810190602001612561565b61ffff16815260208101919091526040015f2091610d2a9190836125c7565b5080610d3581612695565b915050610c14565b507fbe4864a8e820971c0247f5992e2da559595f7bf076a21cb5928d443d2a13b67483836040516108aa9291906126d5565b63ffffffff84165f9081527f8d2bda5d9f6ffb5796910376005392955773acee5548d0fcdb10e7c264ea00006020818152604080842061ffff88168552909152822080546060939190610dc1906124bb565b80601f0160208091040260200160405190810160405280929190818152602001828054610ded906124bb565b8015610e385780601f10610e0f57610100808354040283529160200191610e38565b820191905f5260205f20905b815481529060010190602001808311610e1b57829003601f168201915b5050505050905080515f03610e875784848080601f0160208091040260200160405190810160405280939291908181526020018383808284375f92019190915250929550610eff945050505050565b5f849003610e98579150610eff9050565b60028410610ee257610eaa85856117e6565b80610eb885600281896127b4565b604051602001610eca939291906127db565b60405160208183030381529060405292505050610eff565b8484604051639a6d49cd60e01b81526004016107d3929190612801565b949350505050565b5f5b818110156110205736838383818110610f2457610f246124ed565b9050602002810190610f369190612814565b9050610f74610f48602083018361235f565b602083013563ffffffff919091165f9081525f80516020612cd383398151915260205260409020541490565b610f7e575061100e565b3063d045a0dc60c08301358360a0810135610f9d61010083018361251f565b610fae610100890160e08a016122c6565b610fbc6101208a018a61251f565b6040518963ffffffff1660e01b8152600401610fde979695949392919061283d565b5f604051808303818588803b158015610ff5575f80fd5b505af1158015611007573d5f803e3d5ffd5b5050505050505b8061101881612695565b915050610f09565b50336001600160a01b0316638e9e70996040518163ffffffff1660e01b81526004015f60405180830381865afa15801561105c573d5f803e3d5ffd5b505050506040513d5f823e601f3d908101601f1916820160405261108391908101906128ea565b604051638351eea760e01b81526004016107d391906122b4565b6110a5611f27565b604080518082019091525f80825260208201525f806110d9604088013560608901356110d460208b018b61235f565b61182c565b915091505f806110e98984611535565b90925090506111156110fe60208b018b61235f565b838361110f368d90038d018d612986565b8b611873565b60408051808201909152858152602080820186905282519298509096503391907f85496b760a4b7f8d66384b9df21b381f5d1b1e79f229a47aaf4c232edc2fe59a90611163908d018d61235f565b6040805163ffffffff909216825260208201899052810187905260600160405180910390a350505050935093915050565b61119c611503565b60405163ca5eb5e160e01b81526001600160a01b0382811660048301527f0000000000000000000000000000000000000000000000000000000000000000169063ca5eb5e1906024015f604051808303815f87803b1580156111fc575f80fd5b505af115801561120e573d5f803e3d5ffd5b5050505050565b3330146112355760405163029a949d60e31b815260040160405180910390fd5b61084387878787878787610834565b61124c611503565b7fefb041d771d6daaa55702fff6eb740d63ba559a75d2d1d3e151c78ff2480b60080546001600160a01b0319166001600160a01b03831690811782556040519081527fd48d879cef83a1c0bdda516f27b13ddb1b3f8bbac1c9e1511bb2a659c242776090602001610b7a565b6112c0611503565b6001600160a01b0381166112e957604051631e4fbdf760e01b81525f60048201526024016107d3565b6112f281611776565b50565b5f6020820180359061130b90610556908561235f565b1492915050565b5f8061131d85611979565b91508190508381101561134d576040516371c4efed60e01b815260048101829052602481018590526044016107d3565b935093915050565b63ffffffff81165f9081525f80516020612cd3833981519152602081905260408220548061139e5760405163f6ff4fb760e01b815263ffffffff851660048201526024016107d3565b9392505050565b5f6113b66113b387876119af565b90565b90505f6113e1826113cf6113ca8a8a6119c6565b6119e8565b6113dc60208d018d61235f565b611a1c565b905060288611156114a1575f61141d61140060608c0160408d016129b6565b61140d60208d018d61235f565b846114188c8c611a59565b611aa3565b604051633e5ac80960e11b81529091506001600160a01b037f00000000000000000000000000000000000000000000000000000000000000001690637cb59012906114729086908d905f9087906004016129d1565b5f604051808303815f87803b158015611489575f80fd5b505af115801561149b573d5f803e3d5ffd5b50505050505b6001600160a01b038216887fefed6d3500546b29533b128a29e3a94d70788727f0507505ac12eaf2e578fd9c6114da60208d018d61235f565b6040805163ffffffff9092168252602082018690520160405180910390a3505050505050505050565b3361150c610b99565b6001600160a01b031614610b975760405163118cdaa760e01b81523360048201526024016107d3565b6060805f611590856020013561154a86611ad5565b61155760a089018961251f565b8080601f0160208091040260200160405190810160405280939291908181526020018383808284375f92019190915250611b0092505050565b90935090505f816115a25760016115a5565b60025b90506115c56115b7602088018861235f565b8261059360808a018a61251f565b7f41db8a78b0206aba5c54bcbfc2bda0d84082a84eb88e680379a57b9e9f653c008054919450906001600160a01b03161561166c57805460405163043a78eb60e01b81526001600160a01b039091169063043a78eb9061162b9088908890600401612a01565b602060405180830381865afa158015611646573d5f803e3d5ffd5b505050506040513d601f19601f8201168201806040525081019061166a9190612a25565b505b5050509250929050565b604080518082019091525f80825260208201527f00000000000000000000000000000000000000000000000000000000000000006001600160a01b031663ddc28c586040518060a001604052808863ffffffff1681526020016116d889611355565b8152602001878152602001868152602001851515815250306040518363ffffffff1660e01b815260040161170d929190612a40565b6040805180830381865afa158015611727573d5f803e3d5ffd5b505050506040513d601f19601f8201168201806040525081019061174b9190612ae6565b95945050505050565b61175c611b7a565b6112f281611bc3565b61176d611b7a565b6112f281611bcb565b7f9016d09d72d40fdae2fd8ceac6b6234c7706214fd39c1cd1e609a0528c19930080546001600160a01b031981166001600160a01b03848116918217845560405192169182907f8be0079c531659141344cd1fd0a4f28419497f9722a3daafe3b4186f6b6457e0905f90a3505050565b5f6117f460028284866127b4565b6117fd91612b00565b60f01c905060038114611827578282604051639a6d49cd60e01b81526004016107d3929190612801565b505050565b5f80611839858585611312565b909250905061134d6001600160a01b037f000000000000000000000000000000000000000000000000000000000000000016333085611bdc565b61187b611f27565b5f611888845f0151611c49565b6020850151909150156118a2576118a28460200151611c70565b7f00000000000000000000000000000000000000000000000000000000000000006001600160a01b0316632637a450826040518060a001604052808b63ffffffff1681526020016118f28c611355565b81526020018a81526020018981526020015f8960200151111515815250866040518463ffffffff1660e01b815260040161192d929190612a40565b60806040518083038185885af1158015611949573d5f803e3d5ffd5b50505050506040513d601f19601f8201168201806040525081019061196e9190612b30565b979650505050505050565b5f7f00000000000000000000000000000000000000000000000000000000000000006119a58184612b95565b6109179190612bb4565b5f6119bd60208284866127b4565b61139e91612bcb565b5f6119d56028602084866127b4565b6119de91612be8565b60c01c9392505050565b5f6109177f00000000000000000000000000000000000000000000000000000000000000006001600160401b038416612bb4565b5f611a516001600160a01b037f0000000000000000000000000000000000000000000000000000000000000000168585611d53565b509092915050565b6060611a6882602881866127b4565b8080601f0160208091040260200160405190810160405280939291908181526020018383808284375f92019190915250929695505050505050565b606084848484604051602001611abc9493929190612c16565b6040516020818303038152906040529050949350505050565b5f6109177f000000000000000000000000000000000000000000000000000000000000000083612b95565b8051606090151580611b49578484604051602001611b3592919091825260c01b6001600160c01b031916602082015260280190565b604051602081830303815290604052611b70565b84843385604051602001611b609493929190612c64565b6040516020818303038152906040525b9150935093915050565b7ff0c57e16840df040f15088dc2f81fe391c3923bec73e23a9662efc9c229c6a0054600160401b900460ff16610b9757604051631afcd79f60e31b815260040160405180910390fd5b6112c0611b7a565b611bd3611b7a565b6112f281611d84565b6040516001600160a01b038481166024830152838116604483015260648201839052611c439186918216906323b872dd906084015b604051602081830303815290604052915060e01b6020820180516001600160e01b038381831617835250505050611d95565b50505050565b5f813414611c6c576040516304fb820960e51b81523460048201526024016107d3565b5090565b5f7f00000000000000000000000000000000000000000000000000000000000000006001600160a01b031663e4fe1d946040518163ffffffff1660e01b8152600401602060405180830381865afa158015611ccd573d5f803e3d5ffd5b505050506040513d601f19601f82011682018060405250810190611cf19190612ca6565b90506001600160a01b038116611d1a576040516329b99a9560e11b815260040160405180910390fd5b611d4f6001600160a01b038216337f000000000000000000000000000000000000000000000000000000000000000085611bdc565b5050565b6040516001600160a01b0383811660248301526044820183905261182791859182169063a9059cbb90606401611c11565b611d8c611b7a565b6112f281611df6565b5f611da96001600160a01b03841683611e25565b905080515f14158015611dcd575080806020019051810190611dcb9190612a25565b155b1561182757604051635274afe760e01b81526001600160a01b03841660048201526024016107d3565b611dfe611b7a565b6001600160a01b03811661119c57604051632d618d8160e21b815260040160405180910390fd5b606061139e83835f845f80856001600160a01b03168486604051611e499190612cc1565b5f6040518083038185875af1925050503d805f8114611e83576040519150601f19603f3d011682016040523d82523d5f602084013e611e88565b606091505b5091509150611e98868383611ea2565b9695505050505050565b606082611eb757611eb282611efe565b61139e565b8151158015611ece57506001600160a01b0384163b155b15611ef757604051639996b31560e01b81526001600160a01b03851660048201526024016107d3565b508061139e565b805115611f0e5780518082602001fd5b604051630a12f52160e11b815260040160405180910390fd5b60405180606001604052805f80191681526020015f6001600160401b03168152602001611f6560405180604001604052805f81526020015f81525090565b905290565b5f60e08284031215611f7a575f80fd5b50919050565b5f60208284031215611f90575f80fd5b81356001600160401b03811115611fa5575f80fd5b610eff84828501611f6a565b5f5b83811015611fcb578181015183820152602001611fb3565b50505f910152565b5f8151808452611fea816020860160208601611fb1565b601f01601f19169290920160200192915050565b83518152602080850151908201525f60a08201604060a08185015281865180845260c08601915060c08160051b870101935060208089015f5b838110156120765788870360bf1901855281518051885283015183880187905261206387890182611fd3565b9750509382019390820190600101612037565b50508751606088015250505060208501516080850152509050610eff565b5f60608284031215611f7a575f80fd5b5f8083601f8401126120b4575f80fd5b5081356001600160401b038111156120ca575f80fd5b6020830191508360208285010111156120e1575f80fd5b9250929050565b6001600160a01b03811681146112f2575f80fd5b5f805f805f805f60e0888a031215612112575f80fd5b61211c8989612094565b96506060880135955060808801356001600160401b038082111561213e575f80fd5b61214a8b838c016120a4565b909750955060a08a0135915061215f826120e8565b90935060c08901359080821115612174575f80fd5b506121818a828b016120a4565b989b979a50959850939692959293505050565b803563ffffffff811681146121a7575f80fd5b919050565b5f80604083850312156121bd575f80fd5b6121c683612194565b946020939093013593505050565b80151581146112f2575f80fd5b5f80604083850312156121f2575f80fd5b82356001600160401b03811115612207575f80fd5b61221385828601611f6a565b9250506020830135612224816121d4565b809150509250929050565b815181526020808301519082015260408101610917565b5f8060408385031215612257575f80fd5b8235612262816120e8565b91506020830135612224816120e8565b803561ffff811681146121a7575f80fd5b5f8060408385031215612294575f80fd5b61229d83612194565b91506122ab60208401612272565b90509250929050565b602081525f61139e6020830184611fd3565b5f602082840312156122d6575f80fd5b813561139e816120e8565b5f8083601f8401126122f1575f80fd5b5081356001600160401b03811115612307575f80fd5b6020830191508360208260051b85010111156120e1575f80fd5b5f8060208385031215612332575f80fd5b82356001600160401b03811115612347575f80fd5b612353858286016122e1565b90969095509350505050565b5f6020828403121561236f575f80fd5b61139e82612194565b5f805f806060858703121561238b575f80fd5b61239485612194565b93506123a260208601612272565b925060408501356001600160401b038111156123bc575f80fd5b6123c8878288016120a4565b95989497509550505050565b5f805f83850360808112156123e7575f80fd5b84356001600160401b038111156123fc575f80fd5b61240887828801611f6a565b9450506040601f198201121561241c575f80fd5b506020840191506060840135612431816120e8565b809150509250925092565b5f60c082019050835182526001600160401b0360208501511660208301526040840151612476604084018280518252602090810151910152565b5082516080830152602083015160a083015261139e565b5f6060828403121561249d575f80fd5b61139e8383612094565b634e487b7160e01b5f52604160045260245ffd5b600181811c908216806124cf57607f821691505b602082108103611f7a57634e487b7160e01b5f52602260045260245ffd5b634e487b7160e01b5f52603260045260245ffd5b5f8235605e19833603018112612515575f80fd5b9190910192915050565b5f808335601e19843603018112612534575f80fd5b8301803591506001600160401b0382111561254d575f80fd5b6020019150368190038213156120e1575f80fd5b5f60208284031215612571575f80fd5b61139e82612272565b601f821115611827575f81815260208120601f850160051c810160208610156125a05750805b601f850160051c820191505b818110156125bf578281556001016125ac565b505050505050565b6001600160401b038311156125de576125de6124a7565b6125f2836125ec83546124bb565b8361257a565b5f601f841160018114612623575f851561260c5750838201355b5f19600387901b1c1916600186901b17835561120e565b5f83815260209020601f19861690835b828110156126535786850135825560209485019460019092019101612633565b508682101561266f575f1960f88860031b161c19848701351681555b505060018560011b0183555050505050565b634e487b7160e01b5f52601160045260245ffd5b5f600182016126a6576126a6612681565b5060010190565b81835281816020850137505f828201602090810191909152601f909101601f19169091010190565b60208082528181018390525f906040808401600586901b8501820187855b888110156127a657878303603f190184528135368b9003605e19018112612718575f80fd5b8a01606063ffffffff61272a83612194565b16855261ffff61273b898401612272565b168886015286820135601e19833603018112612755575f80fd5b9091018781019190356001600160401b03811115612771575f80fd5b80360383131561277f575f80fd5b818887015261279182870182856126ad565b968901969550505091860191506001016126f3565b509098975050505050505050565b5f80858511156127c2575f80fd5b838611156127ce575f80fd5b5050820193919092039150565b5f84516127ec818460208901611fb1565b8201838582375f930192835250909392505050565b602081525f610eff6020830184866126ad565b5f823561013e19833603018112612515575f80fd5b6001600160401b03811681146112f2575f80fd5b63ffffffff61284b89612194565b168152602088013560208201525f604089013561286781612829565b6001600160401b03811660408401525087606083015260e0608083015261289260e0830187896126ad565b6001600160a01b03861660a084015282810360c08401526128b48185876126ad565b9a9950505050505050505050565b604080519081016001600160401b03811182821017156128e4576128e46124a7565b60405290565b5f602082840312156128fa575f80fd5b81516001600160401b0380821115612910575f80fd5b818401915084601f830112612923575f80fd5b815181811115612935576129356124a7565b604051601f8201601f19908116603f0116810190838211818310171561295d5761295d6124a7565b81604052828152876020848701011115612975575f80fd5b61196e836020830160208801611fb1565b5f60408284031215612996575f80fd5b61299e6128c2565b82358152602083013560208201528091505092915050565b5f602082840312156129c6575f80fd5b813561139e81612829565b60018060a01b038516815283602082015261ffff83166040820152608060608201525f611e986080830184611fd3565b604081525f612a136040830185611fd3565b828103602084015261174b8185611fd3565b5f60208284031215612a35575f80fd5b815161139e816121d4565b6040815263ffffffff8351166040820152602083015160608201525f604084015160a06080840152612a7560e0840182611fd3565b90506060850151603f198483030160a0850152612a928282611fd3565b60809690960151151560c08501525050506001600160a01b039190911660209091015290565b5f60408284031215612ac8575f80fd5b612ad06128c2565b9050815181526020820151602082015292915050565b5f60408284031215612af6575f80fd5b61139e8383612ab8565b6001600160f01b03198135818116916002851015612b285780818660020360031b1b83161692505b505092915050565b5f60808284031215612b40575f80fd5b604051606081018181106001600160401b0382111715612b6257612b626124a7565b604052825181526020830151612b7781612829565b6020820152612b898460408501612ab8565b60408201529392505050565b5f82612baf57634e487b7160e01b5f52601260045260245ffd5b500490565b808202811582820484141761091757610917612681565b80356020831015610917575f19602084900360031b1b1692915050565b6001600160c01b03198135818116916008851015612b285760089490940360031b84901b1690921692915050565b6001600160401b0360c01b8560c01b16815263ffffffff60e01b8460e01b16600882015282600c8201525f8251612c5481602c850160208701611fb1565b91909101602c0195945050505050565b8481526001600160401b0360c01b8460c01b1660208201528260288201525f8251612c96816048850160208701611fb1565b9190910160480195945050505050565b5f60208284031215612cb6575f80fd5b815161139e816120e8565b5f8251612515818460208701611fb156fe72ab1bc1039b79dc4724ffca13de82c96834302d3c7e0d4252232d4b2dd8f900a2646970667358221220d520de0a16039115949fc7165f7898c4976536a348a18c41283c3bab1dd5f1ac64736f6c63430008140033","linkReferences":{}},"methodIdentifiers":{"SEND()":"1f5e1334","SEND_AND_CALL()":"134d4f25","allowInitializePath((uint32,bytes32,uint64))":"ff7bd03d","approvalRequired()":"9f68b964","combineOptions(uint32,uint16,bytes)":"bc70b354","composeMsgSender()":"b92d0eff","decimalConversionRate()":"963efcaa","endpoint()":"5e280f11","enforcedOptions(uint32,uint16)":"5535d461","initialize(address,address)":"485cc955","isPeer(uint32,bytes32)":"5a0dfe4d","lzReceive((uint32,bytes32,uint64),bytes32,bytes,address,bytes)":"13137d65","lzReceiveAndRevert(((uint32,bytes32,uint64),uint32,address,bytes32,uint256,address,bytes,bytes)[])":"bd815db0","lzReceiveSimulate((uint32,bytes32,uint64),bytes32,bytes,address,bytes)":"d045a0dc","msgInspector()":"111ecdad","nextNonce(uint32,bytes32)":"7d25a05e","oApp()":"52ae2879","oAppVersion()":"17442b70","oftVersion()":"156a0d0f","owner()":"8da5cb5b","peers(uint32)":"bb0b6a53","preCrime()":"b731ea0a","quoteOFT((uint32,bytes32,uint256,uint256,bytes,bytes,bytes))":"0d35b415","quoteSend((uint32,bytes32,uint256,uint256,bytes,bytes,bytes),bool)":"3b6f743b","renounceOwnership()":"715018a6","send((uint32,bytes32,uint256,uint256,bytes,bytes,bytes),(uint256,uint256),address)":"c7c7f5b3","setDelegate(address)":"ca5eb5e1","setEnforcedOptions((uint32,uint16,bytes)[])":"b98bd070","setMsgInspector(address)":"6fc1b31e","setPeer(uint32,bytes32)":"3400288b","setPreCrime(address)":"d4243885","sharedDecimals()":"857749b0","token()":"fc0c546a","transferOwnership(address)":"f2fde38b"},"id":2}