{"abi":[{"type":"constructor","inputs":[{"name":"decimals_","type":"uint8","internalType":"uint8"}],"stateMutability":"nonpayable"},{"type":"function","name":"DEFAULT_ADMIN_ROLE","inputs":[],"outputs":[{"name":"","type":"bytes32","internalType":"bytes32"}],"stateMutability":"view"},{"type":"function","name":"MINTER_ROLE","inputs":[],"outputs":[{"name":"","type":"bytes32","internalType":"bytes32"}],"stateMutability":"view"},{"type":"function","name":"allowance","inputs":[{"name":"owner","type":"address","internalType":"address"},{"name":"spender","type":"address","internalType":"address"}],"outputs":[{"name":"","type":"uint256","internalType":"uint256"}],"stateMutability":"view"},{"type":"function","name":"approve","inputs":[{"name":"spender","type":"address","internalType":"address"},{"name":"value","type":"uint256","internalType":"uint256"}],"outputs":[{"name":"","type":"bool","internalType":"bool"}],"stateMutability":"nonpayable"},{"type":"function","name":"balanceOf","inputs":[{"name":"account","type":"address","internalType":"address"}],"outputs":[{"name":"","type":"uint256","internalType":"uint256"}],"stateMutability":"view"},{"type":"function","name":"burn","inputs":[{"name":"amount","type":"uint256","internalType":"uint256"}],"outputs":[],"stateMutability":"nonpayable"},{"type":"function","name":"decimals","inputs":[],"outputs":[{"name":"","type":"uint8","internalType":"uint8"}],"stateMutability":"view"},{"type":"function","name":"getRoleAdmin","inputs":[{"name":"role","type":"bytes32","internalType":"bytes32"}],"outputs":[{"name":"","type":"bytes32","internalType":"bytes32"}],"stateMutability":"view"},{"type":"function","name":"grantRole","inputs":[{"name":"role","type":"bytes32","internalType":"bytes32"},{"name":"account","type":"address","internalType":"address"}],"outputs":[],"stateMutability":"nonpayable"},{"type":"function","name":"hasRole","inputs":[{"name":"role","type":"bytes32","internalType":"bytes32"},{"name":"account","type":"address","internalType":"address"}],"outputs":[{"name":"","type":"bool","internalType":"bool"}],"stateMutability":"view"},{"type":"function","name":"initialize","inputs":[{"name":"name","type":"string","internalType":"string"},{"name":"symbol","type":"string","internalType":"string"},{"name":"owner","type":"address","internalType":"address"}],"outputs":[],"stateMutability":"nonpayable"},{"type":"function","name":"mint","inputs":[{"name":"to","type":"address","internalType":"address"},{"name":"amount","type":"uint256","internalType":"uint256"}],"outputs":[],"stateMutability":"nonpayable"},{"type":"function","name":"name","inputs":[],"outputs":[{"name":"","type":"string","internalType":"string"}],"stateMutability":"view"},{"type":"function","name":"renounceRole","inputs":[{"name":"role","type":"bytes32","internalType":"bytes32"},{"name":"callerConfirmation","type":"address","internalType":"address"}],"outputs":[],"stateMutability":"nonpayable"},{"type":"function","name":"revokeRole","inputs":[{"name":"role","type":"bytes32","internalType":"bytes32"},{"name":"account","type":"address","internalType":"address"}],"outputs":[],"stateMutability":"nonpayable"},{"type":"function","name":"supportsInterface","inputs":[{"name":"interfaceId","type":"bytes4","internalType":"bytes4"}],"outputs":[{"name":"","type":"bool","internalType":"bool"}],"stateMutability":"view"},{"type":"function","name":"symbol","inputs":[],"outputs":[{"name":"","type":"string","internalType":"string"}],"stateMutability":"view"},{"type":"function","name":"totalSupply","inputs":[],"outputs":[{"name":"","type":"uint256","internalType":"uint256"}],"stateMutability":"view"},{"type":"function","name":"transfer","inputs":[{"name":"to","type":"address","internalType":"address"},{"name":"value","type":"uint256","internalType":"uint256"}],"outputs":[{"name":"","type":"bool","internalType":"bool"}],"stateMutability":"nonpayable"},{"type":"function","name":"transferFrom","inputs":[{"name":"from","type":"address","internalType":"address"},{"name":"to","type":"address","internalType":"address"},{"name":"value","type":"uint256","internalType":"uint256"}],"outputs":[{"name":"","type":"bool","internalType":"bool"}],"stateMutability":"nonpayable"},{"type":"event","name":"Approval","inputs":[{"name":"owner","type":"address","indexed":true,"internalType":"address"},{"name":"spender","type":"address","indexed":true,"internalType":"address"},{"name":"value","type":"uint256","indexed":false,"internalType":"uint256"}],"anonymous":false},{"type":"event","name":"Initialized","inputs":[{"name":"version","type":"uint64","indexed":false,"internalType":"uint64"}],"anonymous":false},{"type":"event","name":"RoleAdminChanged","inputs":[{"name":"role","type":"bytes32","indexed":true,"internalType":"bytes32"},{"name":"previousAdminRole","type":"bytes32","indexed":true,"internalType":"bytes32"},{"name":"newAdminRole","type":"bytes32","indexed":true,"internalType":"bytes32"}],"anonymous":false},{"type":"event","name":"RoleGranted","inputs":[{"name":"role","type":"bytes32","indexed":true,"internalType":"bytes32"},{"name":"account","type":"address","indexed":true,"internalType":"address"},{"name":"sender","type":"address","indexed":true,"internalType":"address"}],"anonymous":false},{"type":"event","name":"RoleRevoked","inputs":[{"name":"role","type":"bytes32","indexed":true,"internalType":"bytes32"},{"name":"account","type":"address","indexed":true,"internalType":"address"},{"name":"sender","type":"address","indexed":true,"internalType":"address"}],"anonymous":false},{"type":"event","name":"Transfer","inputs":[{"name":"from","type":"address","indexed":true,"internalType":"address"},{"name":"to","type":"address","indexed":true,"internalType":"address"},{"name":"value","type":"uint256","indexed":false,"internalType":"uint256"}],"anonymous":false},{"type":"error","name":"AccessControlBadConfirmation","inputs":[]},{"type":"error","name":"AccessControlUnauthorizedAccount","inputs":[{"name":"account","type":"address","internalType":"address"},{"name":"neededRole","type":"bytes32","internalType":"bytes32"}]},{"type":"error","name":"ERC20InsufficientAllowance","inputs":[{"name":"spender","type":"address","internalType":"address"},{"name":"allowance","type":"uint256","internalType":"uint256"},{"name":"needed","type":"uint256","internalType":"uint256"}]},{"type":"error","name":"ERC20InsufficientBalance","inputs":[{"name":"sender","type":"address","internalType":"address"},{"name":"balance","type":"uint256","internalType":"uint256"},{"name":"needed","type":"uint256","internalType":"uint256"}]},{"type":"error","name":"ERC20InvalidApprover","inputs":[{"name":"approver","type":"address","internalType":"address"}]},{"type":"error","name":"ERC20InvalidReceiver","inputs":[{"name":"receiver","type":"address","internalType":"address"}]},{"type":"error","name":"ERC20InvalidSender","inputs":[{"name":"sender","type":"address","internalType":"address"}]},{"type":"error","name":"ERC20InvalidSpender","inputs":[{"name":"spender","type":"address","internalType":"address"}]},{"type":"error","name":"InvalidInitialization","inputs":[]},{"type":"error","name":"NotInitializing","inputs":[]}],"bytecode":{"object":"0x60a060405234801561000f575f80fd5b506040516111f33803806111f383398101604081905261002e916100f5565b60ff811660805261003d610043565b5061011c565b7ff0c57e16840df040f15088dc2f81fe391c3923bec73e23a9662efc9c229c6a00805468010000000000000000900460ff16156100935760405163f92ee8a960e01b815260040160405180910390fd5b80546001600160401b03908116146100f25780546001600160401b0319166001600160401b0390811782556040519081527fc7f505b2f371ae2175ee4913f4499e1f2633a7b5936321eed1cdaeb6115181d29060200160405180910390a15b50565b5f60208284031215610105575f80fd5b815160ff81168114610115575f80fd5b9392505050565b6080516110bf6101345f395f61020101526110bf5ff3fe608060405234801561000f575f80fd5b5060043610610127575f3560e01c806340c10f19116100a9578063a217fddf1161006e578063a217fddf146102b3578063a9059cbb146102ba578063d5391393146102cd578063d547741f146102f4578063dd62ed3e14610307575f80fd5b806340c10f191461023e57806342966c681461025157806370a082311461026457806391d148541461029857806395d89b41146102ab575f80fd5b806323b872dd116100ef57806323b872dd146101c1578063248a9ca3146101d45780632f2ff15d146101e7578063313ce567146101fa57806336568abe1461022b575f80fd5b806301ffc9a71461012b57806306fdde0314610153578063077f224a14610168578063095ea7b31461017d57806318160ddd14610190575b5f80fd5b61013e610139366004610c66565b61031a565b60405190151581526020015b60405180910390f35b61015b610350565b60405161014a9190610c94565b61017b610176366004610d97565b610410565b005b61013e61018b366004610e06565b61052c565b7f52c63247e1f47db19d5ce0460030c497f067ca4cebf71ba98eeadabe20bace02545b60405190815260200161014a565b61013e6101cf366004610e2e565b610543565b6101b36101e2366004610e67565b610566565b61017b6101f5366004610e7e565b610586565b60405160ff7f000000000000000000000000000000000000000000000000000000000000000016815260200161014a565b61017b610239366004610e7e565b6105a8565b61017b61024c366004610e06565b6105e0565b61017b61025f366004610e67565b610614565b6101b3610272366004610ea8565b6001600160a01b03165f9081525f8051602061104a833981519152602052604090205490565b61013e6102a6366004610e7e565b610621565b61015b610657565b6101b35f81565b61013e6102c8366004610e06565b610695565b6101b37f9f2df0fed2c77648de5860a4cc508cd0818c85b8b8a1ab4ceeef8d981c8956a681565b61017b610302366004610e7e565b6106a2565b6101b3610315366004610ec1565b6106be565b5f6001600160e01b03198216637965db0b60e01b148061034a57506301ffc9a760e01b6001600160e01b03198316145b92915050565b7f52c63247e1f47db19d5ce0460030c497f067ca4cebf71ba98eeadabe20bace0380546060915f8051602061104a8339815191529161038e90610ee9565b80601f01602080910402602001604051908101604052809291908181526020018280546103ba90610ee9565b80156104055780601f106103dc57610100808354040283529160200191610405565b820191905f5260205f20905b8154815290600101906020018083116103e857829003601f168201915b505050505091505090565b7ff0c57e16840df040f15088dc2f81fe391c3923bec73e23a9662efc9c229c6a008054600160401b810460ff16159067ffffffffffffffff165f811580156104555750825b90505f8267ffffffffffffffff1660011480156104715750303b155b90508115801561047f575080155b1561049d5760405163f92ee8a960e01b815260040160405180910390fd5b845467ffffffffffffffff1916600117855583156104c757845460ff60401b1916600160401b1785555b6104d18888610707565b6104db5f8761071d565b50831561052257845460ff60401b19168555604051600181527fc7f505b2f371ae2175ee4913f4499e1f2633a7b5936321eed1cdaeb6115181d29060200160405180910390a15b5050505050505050565b5f336105398185856107be565b5060019392505050565b5f336105508582856107cb565b61055b85858561082d565b506001949350505050565b5f9081525f8051602061106a833981519152602052604090206001015490565b61058f82610566565b6105988161088a565b6105a2838361071d565b50505050565b6001600160a01b03811633146105d15760405163334bd91960e11b815260040160405180910390fd5b6105db8282610894565b505050565b7f9f2df0fed2c77648de5860a4cc508cd0818c85b8b8a1ab4ceeef8d981c8956a661060a8161088a565b6105db838361090d565b61061e3382610941565b50565b5f9182525f8051602061106a833981519152602090815260408084206001600160a01b0393909316845291905290205460ff1690565b7f52c63247e1f47db19d5ce0460030c497f067ca4cebf71ba98eeadabe20bace0480546060915f8051602061104a8339815191529161038e90610ee9565b5f3361053981858561082d565b6106ab82610566565b6106b48161088a565b6105a28383610894565b6001600160a01b039182165f9081527f52c63247e1f47db19d5ce0460030c497f067ca4cebf71ba98eeadabe20bace016020908152604080832093909416825291909152205490565b61070f610975565b61071982826109c0565b5050565b5f5f8051602061106a8339815191526107368484610621565b6107b5575f848152602082815260408083206001600160a01b03871684529091529020805460ff1916600117905561076b3390565b6001600160a01b0316836001600160a01b0316857f2f8788117e7eff1d82e926ec794901d17c78024a50270940304540a733656f0d60405160405180910390a4600191505061034a565b5f91505061034a565b6105db8383836001610a10565b5f6107d684846106be565b90505f1981146105a2578181101561081f57604051637dc7a0d960e11b81526001600160a01b038416600482015260248101829052604481018390526064015b60405180910390fd5b6105a284848484035f610a10565b6001600160a01b03831661085657604051634b637e8f60e11b81525f6004820152602401610816565b6001600160a01b03821661087f5760405163ec442f0560e01b81525f6004820152602401610816565b6105db838383610af4565b61061e8133610c2d565b5f5f8051602061106a8339815191526108ad8484610621565b156107b5575f848152602082815260408083206001600160a01b0387168085529252808320805460ff1916905551339287917ff6391f5c32d9c69d2a47ea670b442974b53935d1edc7fd64eb21e047a839171b9190a4600191505061034a565b6001600160a01b0382166109365760405163ec442f0560e01b81525f6004820152602401610816565b6107195f8383610af4565b6001600160a01b03821661096a57604051634b637e8f60e11b81525f6004820152602401610816565b610719825f83610af4565b7ff0c57e16840df040f15088dc2f81fe391c3923bec73e23a9662efc9c229c6a0054600160401b900460ff166109be57604051631afcd79f60e31b815260040160405180910390fd5b565b6109c8610975565b5f8051602061104a8339815191527f52c63247e1f47db19d5ce0460030c497f067ca4cebf71ba98eeadabe20bace03610a018482610f6e565b50600481016105a28382610f6e565b5f8051602061104a8339815191526001600160a01b038516610a475760405163e602df0560e01b81525f6004820152602401610816565b6001600160a01b038416610a7057604051634a1406b160e11b81525f6004820152602401610816565b6001600160a01b038086165f90815260018301602090815260408083209388168352929052208390558115610aed57836001600160a01b0316856001600160a01b03167f8c5be1e5ebec7d5bd14f71427d1e84f3dd0314c0f7b2291e5b200ac8c7c3b92585604051610ae491815260200190565b60405180910390a35b5050505050565b5f8051602061104a8339815191526001600160a01b038416610b2e5781816002015f828254610b23919061102a565b90915550610b9e9050565b6001600160a01b0384165f9081526020829052604090205482811015610b805760405163391434e360e21b81526001600160a01b03861660048201526024810182905260448101849052606401610816565b6001600160a01b0385165f9081526020839052604090209083900390555b6001600160a01b038316610bbc576002810180548390039055610bda565b6001600160a01b0383165f9081526020829052604090208054830190555b826001600160a01b0316846001600160a01b03167fddf252ad1be2c89b69c2b068fc378daa952ba7f163c4a11628f55a4df523b3ef84604051610c1f91815260200190565b60405180910390a350505050565b610c378282610621565b6107195760405163e2517d3f60e01b81526001600160a01b038216600482015260248101839052604401610816565b5f60208284031215610c76575f80fd5b81356001600160e01b031981168114610c8d575f80fd5b9392505050565b5f6020808352835180828501525f5b81811015610cbf57858101830151858201604001528201610ca3565b505f604082860101526040601f19601f8301168501019250505092915050565b634e487b7160e01b5f52604160045260245ffd5b5f82601f830112610d02575f80fd5b813567ffffffffffffffff80821115610d1d57610d1d610cdf565b604051601f8301601f19908116603f01168101908282118183101715610d4557610d45610cdf565b81604052838152866020858801011115610d5d575f80fd5b836020870160208301375f602085830101528094505050505092915050565b80356001600160a01b0381168114610d92575f80fd5b919050565b5f805f60608486031215610da9575f80fd5b833567ffffffffffffffff80821115610dc0575f80fd5b610dcc87838801610cf3565b94506020860135915080821115610de1575f80fd5b50610dee86828701610cf3565b925050610dfd60408501610d7c565b90509250925092565b5f8060408385031215610e17575f80fd5b610e2083610d7c565b946020939093013593505050565b5f805f60608486031215610e40575f80fd5b610e4984610d7c565b9250610e5760208501610d7c565b9150604084013590509250925092565b5f60208284031215610e77575f80fd5b5035919050565b5f8060408385031215610e8f575f80fd5b82359150610e9f60208401610d7c565b90509250929050565b5f60208284031215610eb8575f80fd5b610c8d82610d7c565b5f8060408385031215610ed2575f80fd5b610edb83610d7c565b9150610e9f60208401610d7c565b600181811c90821680610efd57607f821691505b602082108103610f1b57634e487b7160e01b5f52602260045260245ffd5b50919050565b601f8211156105db575f81815260208120601f850160051c81016020861015610f475750805b601f850160051c820191505b81811015610f6657828155600101610f53565b505050505050565b815167ffffffffffffffff811115610f8857610f88610cdf565b610f9c81610f968454610ee9565b84610f21565b602080601f831160018114610fcf575f8415610fb85750858301515b5f19600386901b1c1916600185901b178555610f66565b5f85815260208120601f198616915b82811015610ffd57888601518255948401946001909101908401610fde565b508582101561101a57878501515f19600388901b60f8161c191681555b5050505050600190811b01905550565b8082018082111561034a57634e487b7160e01b5f52601160045260245ffdfe52c63247e1f47db19d5ce0460030c497f067ca4cebf71ba98eeadabe20bace0002dd7bc7dec4dceedda775e58dd541e08a116c6c53815c0bd028192f7b626800a26469706673582212205382916f817deae6d83e397c3137c20f0326d6878cd89e99b7a7d9f2544bb5e364736f6c63430008140033","linkReferences":{}},"methodIdentifiers":{"DEFAULT_ADMIN_ROLE()":"a217fddf","MINTER_ROLE()":"d5391393","allowance(address,address)":"dd62ed3e","approve(address,uint256)":"095ea7b3","balanceOf(address)":"70a08231","burn(uint256)":"42966c68","decimals()":"313ce567","getRoleAdmin(bytes32)":"248a9ca3","grantRole(bytes32,address)":"2f2ff15d","hasRole(bytes32,address)":"91d14854","initialize(string,string,address)":"077f224a","mint(address,uint256)":"40c10f19","name()":"06fdde03","renounceRole(bytes32,address)":"36568abe","revokeRole(bytes32,address)":"d547741f","supportsInterface(bytes4)":"01ffc9a7","symbol()":"95d89b41","totalSupply()":"18160ddd","transfer(address,uint256)":"a9059cbb","transferFrom(address,address,uint256)":"23b872dd"},"id":6}