{"abi":[{"type":"constructor","inputs":[{"name":"endpoint","type":"address","internalType":"address"}],"stateMutability":"nonpayable"},{"type":"function","name":"combineOptions","inputs":[{"name":"_eid","type":"uint32","internalType":"uint32"},{"name":"_msgType","type":"uint16","internalType":"uint16"},{"name":"_extraOptions","type":"bytes","internalType":"bytes"}],"outputs":[{"name":"","type":"bytes","internalType":"bytes"}],"stateMutability":"view"},{"type":"function","name":"deposit","inputs":[{"name":"tokenIn","type":"address","internalType":"address"},{"name":"amountIn","type":"uint256","internalType":"uint256"},{"name":"minAmountOut","type":"uint256","internalType":"uint256"}],"outputs":[{"name":"amountOut","type":"uint256","internalType":"uint256"}],"stateMutability":"payable"},{"type":"function","name":"deposit","inputs":[{"name":"tokenIn","type":"address","internalType":"address"},{"name":"amountIn","type":"uint256","internalType":"uint256"},{"name":"minAmountOut","type":"uint256","internalType":"uint256"},{"name":"referral","type":"address","internalType":"address"}],"outputs":[{"name":"amountOut","type":"uint256","internalType":"uint256"}],"stateMutability":"payable"},{"type":"function","name":"endpoint","inputs":[],"outputs":[{"name":"","type":"address","internalType":"contract ILayerZeroEndpointV2"}],"stateMutability":"view"},{"type":"function","name":"enforcedOptions","inputs":[{"name":"_eid","type":"uint32","internalType":"uint32"},{"name":"_msgType","type":"uint16","internalType":"uint16"}],"outputs":[{"name":"","type":"bytes","internalType":"bytes"}],"stateMutability":"view"},{"type":"function","name":"getDstEid","inputs":[],"outputs":[{"name":"","type":"uint32","internalType":"uint32"}],"stateMutability":"view"},{"type":"function","name":"getL2ExchangeRateProvider","inputs":[],"outputs":[{"name":"","type":"address","internalType":"address"}],"stateMutability":"view"},{"type":"function","name":"getMessenger","inputs":[],"outputs":[{"name":"","type":"address","internalType":"address"}],"stateMutability":"view"},{"type":"function","name":"getRateLimiter","inputs":[],"outputs":[{"name":"","type":"address","internalType":"address"}],"stateMutability":"view"},{"type":"function","name":"getReceiver","inputs":[],"outputs":[{"name":"","type":"address","internalType":"address"}],"stateMutability":"view"},{"type":"function","name":"getTokenData","inputs":[{"name":"tokenIn","type":"address","internalType":"address"}],"outputs":[{"name":"","type":"tuple","internalType":"struct L2BaseSyncPoolUpgradeable.Token","components":[{"name":"unsyncedAmountIn","type":"uint256","internalType":"uint256"},{"name":"unsyncedAmountOut","type":"uint256","internalType":"uint256"},{"name":"minSyncAmount","type":"uint256","internalType":"uint256"},{"name":"l1Address","type":"address","internalType":"address"}]}],"stateMutability":"view"},{"type":"function","name":"getTokenOut","inputs":[],"outputs":[{"name":"","type":"address","internalType":"address"}],"stateMutability":"view"},{"type":"function","name":"initialize","inputs":[{"name":"l2ExchangeRateProvider","type":"address","internalType":"address"},{"name":"rateLimiter","type":"address","internalType":"address"},{"name":"tokenOut","type":"address","internalType":"address"},{"name":"dstEid","type":"uint32","internalType":"uint32"},{"name":"messenger","type":"address","internalType":"address"},{"name":"receiver","type":"address","internalType":"address"},{"name":"delegate","type":"address","internalType":"address"}],"outputs":[],"stateMutability":"nonpayable"},{"type":"function","name":"oAppVersion","inputs":[],"outputs":[{"name":"senderVersion","type":"uint64","internalType":"uint64"},{"name":"receiverVersion","type":"uint64","internalType":"uint64"}],"stateMutability":"view"},{"type":"function","name":"owner","inputs":[],"outputs":[{"name":"","type":"address","internalType":"address"}],"stateMutability":"view"},{"type":"function","name":"peers","inputs":[{"name":"_eid","type":"uint32","internalType":"uint32"}],"outputs":[{"name":"","type":"bytes32","internalType":"bytes32"}],"stateMutability":"view"},{"type":"function","name":"quoteSync","inputs":[{"name":"tokenIn","type":"address","internalType":"address"},{"name":"extraOptions","type":"bytes","internalType":"bytes"},{"name":"payInLzToken","type":"bool","internalType":"bool"}],"outputs":[{"name":"msgFee","type":"tuple","internalType":"struct MessagingFee","components":[{"name":"nativeFee","type":"uint256","internalType":"uint256"},{"name":"lzTokenFee","type":"uint256","internalType":"uint256"}]}],"stateMutability":"view"},{"type":"function","name":"renounceOwnership","inputs":[],"outputs":[],"stateMutability":"nonpayable"},{"type":"function","name":"setDelegate","inputs":[{"name":"_delegate","type":"address","internalType":"address"}],"outputs":[],"stateMutability":"nonpayable"},{"type":"function","name":"setDstEid","inputs":[{"name":"dstEid","type":"uint32","internalType":"uint32"}],"outputs":[],"stateMutability":"nonpayable"},{"type":"function","name":"setEnforcedOptions","inputs":[{"name":"_enforcedOptions","type":"tuple[]","internalType":"struct EnforcedOptionParam[]","components":[{"name":"eid","type":"uint32","internalType":"uint32"},{"name":"msgType","type":"uint16","internalType":"uint16"},{"name":"options","type":"bytes","internalType":"bytes"}]}],"outputs":[],"stateMutability":"nonpayable"},{"type":"function","name":"setL1TokenIn","inputs":[{"name":"l2TokenIn","type":"address","internalType":"address"},{"name":"l1TokenIn","type":"address","internalType":"address"}],"outputs":[],"stateMutability":"nonpayable"},{"type":"function","name":"setL2ExchangeRateProvider","inputs":[{"name":"l2ExchangeRateProvider","type":"address","internalType":"address"}],"outputs":[],"stateMutability":"nonpayable"},{"type":"function","name":"setMessenger","inputs":[{"name":"messenger","type":"address","internalType":"address"}],"outputs":[],"stateMutability":"nonpayable"},{"type":"function","name":"setMinSyncAmount","inputs":[{"name":"tokenIn","type":"address","internalType":"address"},{"name":"minSyncAmount","type":"uint256","internalType":"uint256"}],"outputs":[],"stateMutability":"nonpayable"},{"type":"function","name":"setPeer","inputs":[{"name":"_eid","type":"uint32","internalType":"uint32"},{"name":"_peer","type":"bytes32","internalType":"bytes32"}],"outputs":[],"stateMutability":"nonpayable"},{"type":"function","name":"setRateLimiter","inputs":[{"name":"rateLimiter","type":"address","internalType":"address"}],"outputs":[],"stateMutability":"nonpayable"},{"type":"function","name":"setReceiver","inputs":[{"name":"receiver","type":"address","internalType":"address"}],"outputs":[],"stateMutability":"nonpayable"},{"type":"function","name":"setTokenOut","inputs":[{"name":"tokenOut","type":"address","internalType":"address"}],"outputs":[],"stateMutability":"nonpayable"},{"type":"function","name":"sync","inputs":[{"name":"tokenIn","type":"address","internalType":"address"},{"name":"extraOptions","type":"bytes","internalType":"bytes"},{"name":"fee","type":"tuple","internalType":"struct MessagingFee","components":[{"name":"nativeFee","type":"uint256","internalType":"uint256"},{"name":"lzTokenFee","type":"uint256","internalType":"uint256"}]}],"outputs":[{"name":"unsyncedAmountIn","type":"uint256","internalType":"uint256"},{"name":"unsyncedAmountOut","type":"uint256","internalType":"uint256"}],"stateMutability":"payable"},{"type":"function","name":"transferOwnership","inputs":[{"name":"newOwner","type":"address","internalType":"address"}],"outputs":[],"stateMutability":"nonpayable"},{"type":"event","name":"Deposit","inputs":[{"name":"tokenIn","type":"address","indexed":true,"internalType":"address"},{"name":"amountIn","type":"uint256","indexed":false,"internalType":"uint256"},{"name":"amountOut","type":"uint256","indexed":false,"internalType":"uint256"}],"anonymous":false},{"type":"event","name":"DepositWithReferral","inputs":[{"name":"sender","type":"address","indexed":true,"internalType":"address"},{"name":"amount","type":"uint256","indexed":false,"internalType":"uint256"},{"name":"referral","type":"address","indexed":false,"internalType":"address"}],"anonymous":false},{"type":"event","name":"DstEidSet","inputs":[{"name":"dstEid","type":"uint32","indexed":false,"internalType":"uint32"}],"anonymous":false},{"type":"event","name":"EnforcedOptionSet","inputs":[{"name":"_enforcedOptions","type":"tuple[]","indexed":false,"internalType":"struct EnforcedOptionParam[]","components":[{"name":"eid","type":"uint32","internalType":"uint32"},{"name":"msgType","type":"uint16","internalType":"uint16"},{"name":"options","type":"bytes","internalType":"bytes"}]}],"anonymous":false},{"type":"event","name":"Initialized","inputs":[{"name":"version","type":"uint64","indexed":false,"internalType":"uint64"}],"anonymous":false},{"type":"event","name":"L1TokenInSet","inputs":[{"name":"tokenIn","type":"address","indexed":false,"internalType":"address"},{"name":"l1TokenIn","type":"address","indexed":false,"internalType":"address"}],"anonymous":false},{"type":"event","name":"L2ExchangeRateProviderSet","inputs":[{"name":"l2ExchangeRateProvider","type":"address","indexed":false,"internalType":"address"}],"anonymous":false},{"type":"event","name":"MessengerSet","inputs":[{"name":"messenger","type":"address","indexed":false,"internalType":"address"}],"anonymous":false},{"type":"event","name":"MinSyncAmountSet","inputs":[{"name":"tokenIn","type":"address","indexed":false,"internalType":"address"},{"name":"minSyncAmount","type":"uint256","indexed":false,"internalType":"uint256"}],"anonymous":false},{"type":"event","name":"OwnershipTransferred","inputs":[{"name":"previousOwner","type":"address","indexed":true,"internalType":"address"},{"name":"newOwner","type":"address","indexed":true,"internalType":"address"}],"anonymous":false},{"type":"event","name":"PeerSet","inputs":[{"name":"eid","type":"uint32","indexed":false,"internalType":"uint32"},{"name":"peer","type":"bytes32","indexed":false,"internalType":"bytes32"}],"anonymous":false},{"type":"event","name":"RateLimiterSet","inputs":[{"name":"rateLimiter","type":"address","indexed":false,"internalType":"address"}],"anonymous":false},{"type":"event","name":"ReceiverSet","inputs":[{"name":"receiver","type":"address","indexed":false,"internalType":"address"}],"anonymous":false},{"type":"event","name":"Sync","inputs":[{"name":"dstEid","type":"uint32","indexed":false,"internalType":"uint32"},{"name":"tokenIn","type":"address","indexed":true,"internalType":"address"},{"name":"amountIn","type":"uint256","indexed":false,"internalType":"uint256"},{"name":"amountOut","type":"uint256","indexed":false,"internalType":"uint256"}],"anonymous":false},{"type":"event","name":"TokenOutSet","inputs":[{"name":"tokenOut","type":"address","indexed":false,"internalType":"address"}],"anonymous":false},{"type":"error","name":"AddressEmptyCode","inputs":[{"name":"target","type":"address","internalType":"address"}]},{"type":"error","name":"AddressInsufficientBalance","inputs":[{"name":"account","type":"address","internalType":"address"}]},{"type":"error","name":"FailedInnerCall","inputs":[]},{"type":"error","name":"InvalidDelegate","inputs":[]},{"type":"error","name":"InvalidEndpointCall","inputs":[]},{"type":"error","name":"InvalidInitialization","inputs":[]},{"type":"error","name":"InvalidOptions","inputs":[{"name":"options","type":"bytes","internalType":"bytes"}]},{"type":"error","name":"L2BaseSyncPool__InsufficientAmountOut","inputs":[]},{"type":"error","name":"L2BaseSyncPool__InsufficientAmountToSync","inputs":[]},{"type":"error","name":"L2BaseSyncPool__InvalidAmountIn","inputs":[]},{"type":"error","name":"L2BaseSyncPool__UnauthorizedToken","inputs":[]},{"type":"error","name":"L2BaseSyncPool__ZeroAmount","inputs":[]},{"type":"error","name":"L2ScrollStackSyncPoolETH__OnlyETH","inputs":[]},{"type":"error","name":"LzTokenUnavailable","inputs":[]},{"type":"error","name":"NoPeer","inputs":[{"name":"eid","type":"uint32","internalType":"uint32"}]},{"type":"error","name":"NotEnoughNative","inputs":[{"name":"msgValue","type":"uint256","internalType":"uint256"}]},{"type":"error","name":"NotInitializing","inputs":[]},{"type":"error","name":"OnlyPeer","inputs":[{"name":"eid","type":"uint32","internalType":"uint32"},{"name":"sender","type":"bytes32","internalType":"bytes32"}]},{"type":"error","name":"OwnableInvalidOwner","inputs":[{"name":"owner","type":"address","internalType":"address"}]},{"type":"error","name":"OwnableUnauthorizedAccount","inputs":[{"name":"account","type":"address","internalType":"address"}]},{"type":"error","name":"ReentrancyGuardReentrantCall","inputs":[]},{"type":"error","name":"SafeERC20FailedOperation","inputs":[{"name":"token","type":"address","internalType":"address"}]}],"bytecode":{"object":"0x60a060405234801562000010575f80fd5b5060405162002e9338038062002e93833981016040819052620000339162000105565b6001600160a01b0381166080526200004a62000051565b5062000134565b7ff0c57e16840df040f15088dc2f81fe391c3923bec73e23a9662efc9c229c6a00805468010000000000000000900460ff1615620000a25760405163f92ee8a960e01b815260040160405180910390fd5b80546001600160401b0390811614620001025780546001600160401b0319166001600160401b0390811782556040519081527fc7f505b2f371ae2175ee4913f4499e1f2633a7b5936321eed1cdaeb6115181d29060200160405180910390a15b50565b5f6020828403121562000116575f80fd5b81516001600160a01b03811681146200012d575f80fd5b9392505050565b608051612d1c620001775f395f81816103b301528181611248015281816113be015281816118cb01528181611df301528181611f83015261203a0152612d1c5ff3fe6080604052600436106101d0575f3560e01c80637d12aef8116100fd578063b98bd07011610092578063ca5eb5e111610062578063ca5eb5e1146105eb578063d038c4a91461060a578063f018d7c014610629578063f2fde38b14610648575f80fd5b8063b98bd0701461053e578063bb0b6a531461055d578063bc70b354146105ad578063c158910d146105cc575f80fd5b806398aca922116100cd57806398aca922146104bb578063a3809768146104cf578063b3b408451461050b578063b566c0da1461051f575f80fd5b80637d12aef81461043b5780638b6099db146104755780638da5cb5b146104885780639388bd521461049c575f80fd5b80634423c7ab11610173578063662859671161014357806366285967146103d5578063715018a6146103f4578063718da7ee14610408578063779c9ad814610427575f80fd5b80634423c7ab146102fc5780635535d4611461033957806359f27530146103655780635e280f11146103a2575f80fd5b806313ff7e9f116101ae57806313ff7e9f1461024357806317442b701461029e578063293e2fb5146102be5780633400288b146102dd575f80fd5b806303e74675146101d45780630d14c92e146102015780630efe6a8b14610222575b5f80fd5b6101e76101e236600461225d565b610667565b604080519283526020830191909152015b60405180910390f35b34801561020c575f80fd5b5061022061021b3660046122d8565b61079f565b005b6102356102303660046122f3565b6107b3565b6040519081526020016101f8565b34801561024e575f80fd5b5061026261025d366004612325565b6109ef565b6040516101f891908151815260208083015190820152604080830151908201526060918201516001600160a01b03169181019190915260800190565b3480156102a9575f80fd5b5060408051600181525f6020820152016101f8565b3480156102c9575f80fd5b506102206102d8366004612325565b610a7d565b3480156102e8575f80fd5b506102206102f7366004612340565b610a8e565b348015610307575f80fd5b505f80516020612c67833981519152546001600160a01b03165b6040516001600160a01b0390911681526020016101f8565b348015610344575f80fd5b50610358610353366004612380565b610b0c565b6040516101f89190612400565b348015610370575f80fd5b505f80516020612c6783398151915254600160a01b900463ffffffff1660405163ffffffff90911681526020016101f8565b3480156103ad575f80fd5b506103217f000000000000000000000000000000000000000000000000000000000000000081565b3480156103e0575f80fd5b506102206103ef366004612325565b610be5565b3480156103ff575f80fd5b50610220610bf6565b348015610413575f80fd5b50610220610422366004612325565b610c09565b348015610432575f80fd5b50610321610c1a565b348015610446575f80fd5b5061045a61045536600461241f565b610c4e565b604080518251815260209283015192810192909252016101f8565b610235610483366004612482565b610cec565b348015610493575f80fd5b50610321610d45565b3480156104a7575f80fd5b506102206104b63660046124be565b610d6d565b3480156104c6575f80fd5b50610321610d83565b3480156104da575f80fd5b507f4b36603b35af025fe7f5b305ecc1a13c2c1ca8257f1efc0a04a9ab3253595101546001600160a01b0316610321565b348015610516575f80fd5b50610321610dab565b34801561052a575f80fd5b506102206105393660046124da565b610dc0565b348015610549575f80fd5b5061022061055836600461256b565b610ef1565b348015610568575f80fd5b506102356105773660046122d8565b63ffffffff165f9081527f72ab1bc1039b79dc4724ffca13de82c96834302d3c7e0d4252232d4b2dd8f900602052604090205490565b3480156105b8575f80fd5b506103586105c73660046125d9565b611077565b3480156105d7575f80fd5b506102206105e6366004612325565b611210565b3480156105f6575f80fd5b50610220610605366004612325565b611221565b348015610615575f80fd5b50610220610624366004612637565b6112a2565b348015610634575f80fd5b50610220610643366004612325565b6112b4565b348015610653575f80fd5b50610220610662366004612325565b6112c5565b5f806106716112ff565b6001600160a01b038681165f9081525f80516020612ca78339815191526020526040902060038101545f80516020612cc78339815191529216806106c85760405163b1f28a6f60e01b815260040160405180910390fd5b8154600183015490955093508415806106e45750816002015485105b1561070257604051632e0ddae360e21b815260040160405180910390fd5b5f8083556001830155600283015460408051600160a01b90920463ffffffff1680835260208301889052908201869052906001600160a01b038b16907fdb49c955bbc09ebed0b7337419bcbc9ce581910150a5b1f91159e653a0a4978e9060600160405180910390a261077b818b8489898e8e8e611336565b505050505061079660015f80516020612c8783398151915255565b94509492505050565b6107a7611560565b6107b081611592565b50565b5f6107bc6112ff565b825f036107dc57604051639e4fb46960e01b815260040160405180910390fd5b6001600160a01b038481165f9081525f80516020612ca78339815191526020526040902060038101545f80516020612cc783398151915292166108325760405163b1f28a6f60e01b815260040160405180910390fd5b60408051868152602081018690526001600160a01b038816917f90890809c654f11d6e72a28fa60149770a0d11ec6c92319d6ceb2bb0a4ea1a15910160405180910390a26108808686611609565b81546040516308c3564960e01b81526001600160a01b03888116600483015260248201889052909116906308c3564990604401602060405180830381865afa1580156108ce573d5f803e3d5ffd5b505050506040513d601f19601f820116820180604052508101906108f2919061266e565b92508383101561091557604051634186812760e01b815260040160405180910390fd5b84815f015f8282546109279190612699565b9250508190555082816001015f8282546109419190612699565b909155505060018201546001600160a01b031680156109c557604051631f04d2d760e21b81523360048201526001600160a01b0388811660248301526044820188905260648201869052821690637c134b5c906084015f604051808303815f87803b1580156109ae575f80fd5b505af11580156109c0573d5f803e3d5ffd5b505050505b6109cf3385611650565b5050506109e860015f80516020612c8783398151915255565b9392505050565b610a1f60405180608001604052805f81526020015f81526020015f81526020015f6001600160a01b031681525090565b506001600160a01b039081165f9081525f80516020612ca78339815191526020908152604091829020825160808101845281548152600182015492810192909252600281015492820192909252600390910154909116606082015290565b610a85611560565b6107b0816116c9565b610a96611560565b63ffffffff82165f8181527f72ab1bc1039b79dc4724ffca13de82c96834302d3c7e0d4252232d4b2dd8f900602081815260409283902085905582519384528301849052917f238399d427b947898edb290f5ff0f9109849b1c3ba196a42e35f00c50a54b98b91015b60405180910390a1505050565b63ffffffff82165f9081527f8d2bda5d9f6ffb5796910376005392955773acee5548d0fcdb10e7c264ea00006020818152604080842061ffff8616855290915290912080546060929190610b5f906126ac565b80601f0160208091040260200160405190810160405280929190818152602001828054610b8b906126ac565b8015610bd65780601f10610bad57610100808354040283529160200191610bd6565b820191905f5260205f20905b815481529060010190602001808311610bb957829003601f168201915b50505050509150505b92915050565b610bed611560565b6107b081611722565b610bfe611560565b610c075f61178e565b565b610c11611560565b6107b0816117fe565b5f807f2d365d82646798ae645c4baa2dc2ee228626f61d8b5395bf298ba125a3c6b1005b546001600160a01b031692915050565b6040805180820182525f80825260208083018290526001600160a01b03881682525f80516020612ca783398151915290529182205f80516020612c67833981519152548154600183015493945f80516020612cc783398151915294600160a01b90930463ffffffff169290918291610ccc9185918d91908d8d61186a565b91509150610cdc8383838a6118b6565b955050505050505b949350505050565b604080513481526001600160a01b03831660208201525f9133917f66bfea63a3d589c5d7bbe344440ccf4b219832ab3266091fbf2d8875fbf065b8910160405180910390a2610d3c8585856107b3565b95945050505050565b5f807f9016d09d72d40fdae2fd8ceac6b6234c7706214fd39c1cd1e609a0528c199300610c3e565b610d75611560565b610d7f828261198b565b5050565b5f807f487698e326934c06370ca3c28e3bca79fe27d578048e9d42af7fa98f2e481e00610c3e565b5f805f80516020612cc7833981519152610c3e565b7ff0c57e16840df040f15088dc2f81fe391c3923bec73e23a9662efc9c229c6a008054600160401b810460ff1615906001600160401b03165f81158015610e045750825b90505f826001600160401b03166001148015610e1f5750303b155b905081158015610e2d575080155b15610e4b5760405163f92ee8a960e01b815260040160405180910390fd5b845467ffffffffffffffff191660011785558315610e7557845460ff60401b1916600160401b1785555b610e828c8c8c8c8a6119f9565b610e8b88611a1e565b610e9487611a2f565b610e9d86611a40565b8315610ee357845460ff60401b19168555604051600181527fc7f505b2f371ae2175ee4913f4499e1f2633a7b5936321eed1cdaeb6115181d29060200160405180910390a15b505050505050505050505050565b610ef9611560565b7f8d2bda5d9f6ffb5796910376005392955773acee5548d0fcdb10e7c264ea00005f5b8281101561104557610f5e848483818110610f3957610f396126e4565b9050602002810190610f4b91906126f8565b610f59906040810190612716565b611a51565b838382818110610f7057610f706126e4565b9050602002810190610f8291906126f8565b610f90906040810190612716565b835f878786818110610fa457610fa46126e4565b9050602002810190610fb691906126f8565b610fc49060208101906122d8565b63ffffffff1663ffffffff1681526020019081526020015f205f878786818110610ff057610ff06126e4565b905060200281019061100291906126f8565b611013906040810190602001612758565b61ffff16815260208101919091526040015f20916110329190836127d2565b508061103d8161288c565b915050610f1c565b507fbe4864a8e820971c0247f5992e2da559595f7bf076a21cb5928d443d2a13b6748383604051610aff9291906128cc565b63ffffffff84165f9081527f8d2bda5d9f6ffb5796910376005392955773acee5548d0fcdb10e7c264ea00006020818152604080842061ffff881685529091528220805460609391906110c9906126ac565b80601f01602080910402602001604051908101604052809291908181526020018280546110f5906126ac565b80156111405780601f1061111757610100808354040283529160200191611140565b820191905f5260205f20905b81548152906001019060200180831161112357829003601f168201915b5050505050905080515f0361118f5784848080601f0160208091040260200160405190810160405280939291908181526020018383808284375f92019190915250929550610ce4945050505050565b5f8490036111a0579150610ce49050565b600284106111ea576111b28585611a51565b806111c085600281896129ad565b6040516020016111d2939291906129d4565b60405160208183030381529060405292505050610ce4565b8484604051639a6d49cd60e01b81526004016112079291906129fa565b60405180910390fd5b611218611560565b6107b081611a97565b611229611560565b60405163ca5eb5e160e01b81526001600160a01b0382811660048301527f0000000000000000000000000000000000000000000000000000000000000000169063ca5eb5e1906024015f604051808303815f87803b158015611289575f80fd5b505af115801561129b573d5f803e3d5ffd5b5050505050565b6112aa611560565b610d7f8282611b00565b6112bc611560565b6107b081611b81565b6112cd611560565b6001600160a01b0381166112f657604051631e4fbdf760e01b81525f6004820152602401611207565b6107b08161178e565b5f80516020612c8783398151915280546001190161133057604051633ee5aeb560e01b815260040160405180910390fd5b60029055565b61133e6121c2565b6001600160a01b03871673eeeeeeeeeeeeeeeeeeeeeeeeeeeeeeeeeeeeeeee14158061138757506001600160a01b03881673eeeeeeeeeeeeeeeeeeeeeeeeeeeeeeeeeeeeeeee14155b156113a557604051635919469d60e11b815260040160405180910390fd5b5f6113ae610d83565b90505f6113b9610c1a565b90505f7f00000000000000000000000000000000000000000000000000000000000000006001600160a01b031663416ecebf6040518163ffffffff1660e01b8152600401602060405180830381865afa158015611418573d5f803e3d5ffd5b505050506040513d601f19601f8201168201806040525081019061143c9190612a0d565b90505f61144f8d8d8d8d8d8d8d8d611bfd565b80516040805163ffffffff86166020820152808201929092526001600160a01b038e166060830152608082018d905260a08083018d90528151808403909101815260c083019091529192505f906114aa90839060e401612400565b60408051601f198184030181529181526020820180516001600160e01b0316631d348cbf60e11b17905251635f7b157760e01b81529091506001600160a01b03861690635f7b1577908e9061150b908a90839087905f908490600401612a28565b5f604051808303818588803b158015611522575f80fd5b505af1158015611534573d5f803e3d5ffd5b5095995050505050505050505098975050505050505050565b60015f80516020612c8783398151915255565b33611569610d45565b6001600160a01b031614610c075760405163118cdaa760e01b8152336004820152602401611207565b5f80516020612c67833981519152805463ffffffff60a01b1916600160a01b63ffffffff8416908102919091179091556040519081525f80516020612cc7833981519152907fe6d4148fa8480ba4cb586ab5df8951ddaeddaab62b2a0dc1ad370bc198cb4ce4906020015b60405180910390a15050565b6001600160a01b03821673eeeeeeeeeeeeeeeeeeeeeeeeeeeeeeeeeeeeeeee1461164657604051635919469d60e11b815260040160405180910390fd5b610d7f8282611c44565b5f5f80516020612cc783398151915260028101546040516340c10f1960e01b81526001600160a01b038681166004830152602482018690529293509116906340c10f19906044015f604051808303815f87803b1580156116ae575f80fd5b505af11580156116c0573d5f803e3d5ffd5b50505050505050565b5f80516020612cc783398151915280546001600160a01b0319166001600160a01b03831690811782556040519081527f4a0f73c7c1971268d36d35f4aa566bc6bf4d11a95048a36db084492132ab6f74906020016115fd565b7f2d365d82646798ae645c4baa2dc2ee228626f61d8b5395bf298ba125a3c6b10080546001600160a01b0319166001600160a01b03831690811782556040519081527faf53bfd91676a5f7c3d8a2bcd6a9df83b50bde13a00670e3db6a6cefa04823bc906020016115fd565b7f9016d09d72d40fdae2fd8ceac6b6234c7706214fd39c1cd1e609a0528c19930080546001600160a01b031981166001600160a01b03848116918217845560405192169182907f8be0079c531659141344cd1fd0a4f28419497f9722a3daafe3b4186f6b6457e0905f90a3505050565b7f487698e326934c06370ca3c28e3bca79fe27d578048e9d42af7fa98f2e481e0080546001600160a01b0319166001600160a01b03831690811782556040519081527fb68fd1a788a85f8f18de7976d851969ff9ff2216de81169c17a6f4ac94c23def906020016115fd565b604080516001600160a01b038716602082015280820186905260608082018690528251808303820181526080909201909252906118a9885f8686611077565b9050965096945050505050565b604080518082019091525f80825260208201527f00000000000000000000000000000000000000000000000000000000000000006001600160a01b031663ddc28c586040518060a001604052808863ffffffff16815260200161191889611cb2565b8152602001878152602001868152602001851515815250306040518363ffffffff1660e01b815260040161194d929190612a69565b6040805180830381865afa158015611967573d5f803e3d5ffd5b505050506040513d601f19601f82011682018060405250810190610d3c9190612b37565b6001600160a01b0382165f8181525f80516020612ca78339815191526020908152604091829020600201849055815192835282018390525f80516020612cc7833981519152917f94ba8d5f7922370aad18b707619f668a8fd07cbdf364eeaa6a048e737c9f2a829101610aff565b611a01611d0e565b611a09611d57565b611a1281611d67565b61129b85858585611d78565b611a26611d0e565b6107b081611daa565b611a37611d0e565b6107b081611db2565b611a48611d0e565b6107b081611dba565b5f611a5f60028284866129ad565b611a6891612b51565b60f01c905060038114611a92578282604051639a6d49cd60e01b81526004016112079291906129fa565b505050565b5f80516020612c6783398151915280546001600160a01b0319166001600160a01b0383169081179091556040519081525f80516020612cc7833981519152907f911ee1e2b03817cdb041d13f742d20850bfa79a83a1748a1b13bfc492ad5ba60906020016115fd565b6001600160a01b038281165f8181525f80516020612ca7833981519152602090815260409182902060030180546001600160a01b031916948616948517905581519283528201929092525f80516020612cc7833981519152917fef31c3aa06f1248be5c6b6e1e2d20eadd1a9b8ba067380b4a303ef49f9a489ac9101610aff565b7f4b36603b35af025fe7f5b305ecc1a13c2c1ca8257f1efc0a04a9ab325359510180546001600160a01b0319166001600160a01b0383169081179091556040519081525f80516020612cc7833981519152907f3881bcae1b79d28312da310a8d211e93a9d6ea5a30e04f43bca54b0768e5b3e7906020016115fd565b611c056121c2565b5f80611c158b8a8a8a8a8a61186a565b9092509050611c358b8383611c2f36899003890189612b81565b33611dc2565b9b9a5050505050505050505050565b73eeeeeeeeeeeeeeeeeeeeeeeeeeeeeeeeeeeeeeed196001600160a01b03831601611c8857348114610d7f576040516256642360e71b815260040160405180910390fd5b3415611ca6576040516256642360e71b815260040160405180910390fd5b610d7f82333084611ec8565b63ffffffff81165f9081527f72ab1bc1039b79dc4724ffca13de82c96834302d3c7e0d4252232d4b2dd8f90060208190526040822054806109e85760405163f6ff4fb760e01b815263ffffffff85166004820152602401611207565b7ff0c57e16840df040f15088dc2f81fe391c3923bec73e23a9662efc9c229c6a0054600160401b900460ff16610c0757604051631afcd79f60e31b815260040160405180910390fd5b611d5f611d0e565b610c07611f22565b611d6f611d0e565b6107b081611f2a565b611d80611d0e565b611d89846116c9565b611d9283611b81565b611d9b82611a97565b611da481611592565b50505050565b610bed611d0e565b610c11611d0e565b6112cd611d0e565b611dca6121c2565b5f611dd7845f0151611f59565b602085015190915015611df157611df18460200151611f80565b7f00000000000000000000000000000000000000000000000000000000000000006001600160a01b0316632637a450826040518060a001604052808b63ffffffff168152602001611e418c611cb2565b81526020018a81526020018981526020015f8960200151111515815250866040518463ffffffff1660e01b8152600401611e7c929190612a69565b60806040518083038185885af1158015611e98573d5f803e3d5ffd5b50505050506040513d601f19601f82011682018060405250810190611ebd9190612bb1565b979650505050505050565b604080516001600160a01b0385811660248301528416604482015260648082018490528251808303909101815260849091019091526020810180516001600160e01b03166323b872dd60e01b179052611da490859061205f565b61154d611d0e565b611f32611d0e565b6001600160a01b03811661122957604051632d618d8160e21b815260040160405180910390fd5b5f813414611f7c576040516304fb820960e51b8152346004820152602401611207565b5090565b5f7f00000000000000000000000000000000000000000000000000000000000000006001600160a01b031663e4fe1d946040518163ffffffff1660e01b8152600401602060405180830381865afa158015611fdd573d5f803e3d5ffd5b505050506040513d601f19601f820116820180604052508101906120019190612c1f565b90506001600160a01b03811661202a576040516329b99a9560e11b815260040160405180910390fd5b610d7f6001600160a01b038216337f000000000000000000000000000000000000000000000000000000000000000085611ec8565b5f6120736001600160a01b038416836120c0565b905080515f141580156120975750808060200190518101906120959190612c3a565b155b15611a9257604051635274afe760e01b81526001600160a01b0384166004820152602401611207565b60606109e883835f845f80856001600160a01b031684866040516120e49190612c55565b5f6040518083038185875af1925050503d805f811461211e576040519150601f19603f3d011682016040523d82523d5f602084013e612123565b606091505b509150915061213386838361213d565b9695505050505050565b6060826121525761214d82612199565b6109e8565b815115801561216957506001600160a01b0384163b155b1561219257604051639996b31560e01b81526001600160a01b0385166004820152602401611207565b50806109e8565b8051156121a95780518082602001fd5b604051630a12f52160e11b815260040160405180910390fd5b60405180606001604052805f80191681526020015f6001600160401b0316815260200161220060405180604001604052805f81526020015f81525090565b905290565b6001600160a01b03811681146107b0575f80fd5b5f8083601f840112612229575f80fd5b5081356001600160401b0381111561223f575f80fd5b602083019150836020828501011115612256575f80fd5b9250929050565b5f805f808486036080811215612271575f80fd5b853561227c81612205565b945060208601356001600160401b03811115612296575f80fd5b6122a288828901612219565b9095509350506040603f19820112156122b9575f80fd5b509295919450926040019150565b63ffffffff811681146107b0575f80fd5b5f602082840312156122e8575f80fd5b81356109e8816122c7565b5f805f60608486031215612305575f80fd5b833561231081612205565b95602085013595506040909401359392505050565b5f60208284031215612335575f80fd5b81356109e881612205565b5f8060408385031215612351575f80fd5b823561235c816122c7565b946020939093013593505050565b803561ffff8116811461237b575f80fd5b919050565b5f8060408385031215612391575f80fd5b823561239c816122c7565b91506123aa6020840161236a565b90509250929050565b5f5b838110156123cd5781810151838201526020016123b5565b50505f910152565b5f81518084526123ec8160208601602086016123b3565b601f01601f19169290920160200192915050565b602081525f6109e860208301846123d5565b80151581146107b0575f80fd5b5f805f8060608587031215612432575f80fd5b843561243d81612205565b935060208501356001600160401b03811115612457575f80fd5b61246387828801612219565b909450925050604085013561247781612412565b939692955090935050565b5f805f8060808587031215612495575f80fd5b84356124a081612205565b93506020850135925060408501359150606085013561247781612205565b5f80604083850312156124cf575f80fd5b823561235c81612205565b5f805f805f805f60e0888a0312156124f0575f80fd5b87356124fb81612205565b9650602088013561250b81612205565b9550604088013561251b81612205565b9450606088013561252b816122c7565b9350608088013561253b81612205565b925060a088013561254b81612205565b915060c088013561255b81612205565b8091505092959891949750929550565b5f806020838503121561257c575f80fd5b82356001600160401b0380821115612592575f80fd5b818501915085601f8301126125a5575f80fd5b8135818111156125b3575f80fd5b8660208260051b85010111156125c7575f80fd5b60209290920196919550909350505050565b5f805f80606085870312156125ec575f80fd5b84356125f7816122c7565b93506126056020860161236a565b925060408501356001600160401b0381111561261f575f80fd5b61262b87828801612219565b95989497509550505050565b5f8060408385031215612648575f80fd5b823561265381612205565b9150602083013561266381612205565b809150509250929050565b5f6020828403121561267e575f80fd5b5051919050565b634e487b7160e01b5f52601160045260245ffd5b80820180821115610bdf57610bdf612685565b600181811c908216806126c057607f821691505b6020821081036126de57634e487b7160e01b5f52602260045260245ffd5b50919050565b634e487b7160e01b5f52603260045260245ffd5b5f8235605e1983360301811261270c575f80fd5b9190910192915050565b5f808335601e1984360301811261272b575f80fd5b8301803591506001600160401b03821115612744575f80fd5b602001915036819003821315612256575f80fd5b5f60208284031215612768575f80fd5b6109e88261236a565b634e487b7160e01b5f52604160045260245ffd5b601f821115611a92575f81815260208120601f850160051c810160208610156127ab5750805b601f850160051c820191505b818110156127ca578281556001016127b7565b505050505050565b6001600160401b038311156127e9576127e9612771565b6127fd836127f783546126ac565b83612785565b5f601f84116001811461282e575f85156128175750838201355b5f19600387901b1c1916600186901b17835561129b565b5f83815260209020601f19861690835b8281101561285e578685013582556020948501946001909201910161283e565b508682101561287a575f1960f88860031b161c19848701351681555b505060018560011b0183555050505050565b5f6001820161289d5761289d612685565b5060010190565b81835281816020850137505f828201602090810191909152601f909101601f19169091010190565b60208082528181018390525f906040808401600586901b8501820187855b8881101561299f57878303603f190184528135368b9003605e1901811261290f575f80fd5b8a016060813561291e816122c7565b63ffffffff16855261ffff612934838a0161236a565b168886015286820135601e1983360301811261294e575f80fd5b9091018781019190356001600160401b0381111561296a575f80fd5b803603831315612978575f80fd5b818887015261298a82870182856128a4565b968901969550505091860191506001016128ea565b509098975050505050505050565b5f80858511156129bb575f80fd5b838611156129c7575f80fd5b5050820193919092039150565b5f84516129e58184602089016123b3565b8201838582375f930192835250909392505050565b602081525f610ce46020830184866128a4565b5f60208284031215612a1d575f80fd5b81516109e8816122c7565b5f60018060a01b03808816835286602084015260a06040840152612a4f60a08401876123d5565b606084019590955292909216608090910152509392505050565b6040815263ffffffff8351166040820152602083015160608201525f604084015160a06080840152612a9e60e08401826123d5565b90506060850151603f198483030160a0850152612abb82826123d5565b60809690960151151560c08501525050506001600160a01b039190911660209091015290565b604080519081016001600160401b0381118282101715612b0357612b03612771565b60405290565b5f60408284031215612b19575f80fd5b612b21612ae1565b9050815181526020820151602082015292915050565b5f60408284031215612b47575f80fd5b6109e88383612b09565b6001600160f01b03198135818116916002851015612b795780818660020360031b1b83161692505b505092915050565b5f60408284031215612b91575f80fd5b612b99612ae1565b82358152602083013560208201528091505092915050565b5f60808284031215612bc1575f80fd5b604051606081016001600160401b038282108183111715612be457612be4612771565b8160405284518352602085015191508082168214612c00575f80fd5b506020820152612c138460408501612b09565b60408201529392505050565b5f60208284031215612c2f575f80fd5b81516109e881612205565b5f60208284031215612c4a575f80fd5b81516109e881612412565b5f825161270c8184602087016123b356fe4b36603b35af025fe7f5b305ecc1a13c2c1ca8257f1efc0a04a9ab32535951029b779b17422d0df92223018b32b4d1fa46e071723d6817e2486d003becc55f004b36603b35af025fe7f5b305ecc1a13c2c1ca8257f1efc0a04a9ab32535951034b36603b35af025fe7f5b305ecc1a13c2c1ca8257f1efc0a04a9ab3253595100a2646970667358221220267e8397ef07e6af6f2eacbe02c9d56f85c482aea45554ecaf680a49d7b60b0364736f6c63430008140033","linkReferences":{}},"methodIdentifiers":{"combineOptions(uint32,uint16,bytes)":"bc70b354","deposit(address,uint256,uint256)":"0efe6a8b","deposit(address,uint256,uint256,address)":"8b6099db","endpoint()":"5e280f11","enforcedOptions(uint32,uint16)":"5535d461","getDstEid()":"59f27530","getL2ExchangeRateProvider()":"b3b40845","getMessenger()":"779c9ad8","getRateLimiter()":"a3809768","getReceiver()":"98aca922","getTokenData(address)":"13ff7e9f","getTokenOut()":"4423c7ab","initialize(address,address,address,uint32,address,address,address)":"b566c0da","oAppVersion()":"17442b70","owner()":"8da5cb5b","peers(uint32)":"bb0b6a53","quoteSync(address,bytes,bool)":"7d12aef8","renounceOwnership()":"715018a6","setDelegate(address)":"ca5eb5e1","setDstEid(uint32)":"0d14c92e","setEnforcedOptions((uint32,uint16,bytes)[])":"b98bd070","setL1TokenIn(address,address)":"d038c4a9","setL2ExchangeRateProvider(address)":"293e2fb5","setMessenger(address)":"66285967","setMinSyncAmount(address,uint256)":"9388bd52","setPeer(uint32,bytes32)":"3400288b","setRateLimiter(address)":"f018d7c0","setReceiver(address)":"718da7ee","setTokenOut(address)":"c158910d","sync(address,bytes,(uint256,uint256))":"03e74675","transferOwnership(address)":"f2fde38b"},"id":14}