{"abi":[{"type":"constructor","inputs":[],"stateMutability":"nonpayable"},{"type":"function","name":"getL1SyncPool","inputs":[],"outputs":[{"name":"","type":"address","internalType":"address"}],"stateMutability":"view"},{"type":"function","name":"getMessenger","inputs":[],"outputs":[{"name":"","type":"address","internalType":"address"}],"stateMutability":"view"},{"type":"function","name":"initialize","inputs":[{"name":"l1SyncPool","type":"address","internalType":"address"},{"name":"messenger","type":"address","internalType":"address"},{"name":"owner","type":"address","internalType":"address"}],"outputs":[],"stateMutability":"nonpayable"},{"type":"function","name":"onMessageReceived","inputs":[{"name":"message","type":"bytes","internalType":"bytes"}],"outputs":[],"stateMutability":"payable"},{"type":"function","name":"owner","inputs":[],"outputs":[{"name":"","type":"address","internalType":"address"}],"stateMutability":"view"},{"type":"function","name":"renounceOwnership","inputs":[],"outputs":[],"stateMutability":"nonpayable"},{"type":"function","name":"setL1SyncPool","inputs":[{"name":"l1SyncPool","type":"address","internalType":"address"}],"outputs":[],"stateMutability":"nonpayable"},{"type":"function","name":"setMessenger","inputs":[{"name":"messenger","type":"address","internalType":"address"}],"outputs":[],"stateMutability":"nonpayable"},{"type":"function","name":"transferOwnership","inputs":[{"name":"newOwner","type":"address","internalType":"address"}],"outputs":[],"stateMutability":"nonpayable"},{"type":"event","name":"Initialized","inputs":[{"name":"version","type":"uint64","indexed":false,"internalType":"uint64"}],"anonymous":false},{"type":"event","name":"L1SyncPoolSet","inputs":[{"name":"l1SyncPool","type":"address","indexed":false,"internalType":"address"}],"anonymous":false},{"type":"event","name":"MessengerSet","inputs":[{"name":"messenger","type":"address","indexed":false,"internalType":"address"}],"anonymous":false},{"type":"event","name":"OwnershipTransferred","inputs":[{"name":"previousOwner","type":"address","indexed":true,"internalType":"address"},{"name":"newOwner","type":"address","indexed":true,"internalType":"address"}],"anonymous":false},{"type":"error","name":"InvalidInitialization","inputs":[]},{"type":"error","name":"L1BaseReceiver__UnauthorizedCaller","inputs":[]},{"type":"error","name":"L1BaseReceiver__UnauthorizedL2Sender","inputs":[]},{"type":"error","name":"L1ScrollReceiverETH__OnlyETH","inputs":[]},{"type":"error","name":"NotInitializing","inputs":[]},{"type":"error","name":"OwnableInvalidOwner","inputs":[{"name":"owner","type":"address","internalType":"address"}]},{"type":"error","name":"OwnableUnauthorizedAccount","inputs":[{"name":"account","type":"address","internalType":"address"}]}],"bytecode":{"object":"0x608060405234801561000f575f80fd5b5061001861001d565b6100cf565b7ff0c57e16840df040f15088dc2f81fe391c3923bec73e23a9662efc9c229c6a00805468010000000000000000900460ff161561006d5760405163f92ee8a960e01b815260040160405180910390fd5b80546001600160401b03908116146100cc5780546001600160401b0319166001600160401b0390811782556040519081527fc7f505b2f371ae2175ee4913f4499e1f2633a7b5936321eed1cdaeb6115181d29060200160405180910390a15b50565b6109bd806100dc5f395ff3fe608060405260043610610084575f3560e01c8063779c9ad811610057578063779c9ad8146101005780637a7c3351146101145780638da5cb5b14610133578063c0c53b8b14610147578063f2fde38b14610166575f80fd5b806308587292146100885780633a69197e146100b857806366285967146100cd578063715018a6146100ec575b5f80fd5b348015610093575f80fd5b5061009c610185565b6040516001600160a01b03909116815260200160405180910390f35b6100cb6100c63660046107fc565b6101a6565b005b3480156100d8575f80fd5b506100cb6100e736600461087c565b61028c565b3480156100f7575f80fd5b506100cb6102a0565b34801561010b575f80fd5b5061009c6102b3565b34801561011f575f80fd5b506100cb61012e36600461087c565b6102db565b34801561013e575f80fd5b5061009c6102ec565b348015610152575f80fd5b506100cb610161366004610897565b610314565b348015610171575f80fd5b506100cb61018036600461087c565b61042d565b5f805f805160206109688339815191525b546001600160a01b031692915050565b5f808080806101b7868801886108df565b9450945094509450945073eeeeeeeeeeeeeeeeeeeeeeeeeeeeeeeeeeeeeeee6001600160a01b0316836001600160a01b03161461020757604051635b417b4760e11b815260040160405180910390fd5b5f336001600160a01b0316636e296e456040518163ffffffff1660e01b8152600401602060405180830381865afa158015610244573d5f803e3d5ffd5b505050506040513d601f19601f820116820180604052508101906102689190610935565b9050610282866001600160a01b038316878787873461046c565b5050505050505050565b610294610565565b61029d81610597565b50565b6102a8610565565b6102b15f61060b565b565b5f807f2d365d82646798ae645c4baa2dc2ee228626f61d8b5395bf298ba125a3c6b100610196565b6102e3610565565b61029d8161067b565b5f807f9016d09d72d40fdae2fd8ceac6b6234c7706214fd39c1cd1e609a0528c199300610196565b7ff0c57e16840df040f15088dc2f81fe391c3923bec73e23a9662efc9c229c6a008054600160401b810460ff16159067ffffffffffffffff165f811580156103595750825b90505f8267ffffffffffffffff1660011480156103755750303b155b905081158015610383575080155b156103a15760405163f92ee8a960e01b815260040160405180910390fd5b845467ffffffffffffffff1916600117855583156103cb57845460ff60401b1916600160401b1785555b6103d4866106d4565b6103de88886106e5565b831561028257845460ff60401b19168555604051600181527fc7f505b2f371ae2175ee4913f4499e1f2633a7b5936321eed1cdaeb6115181d29060200160405180910390a15050505050505050565b610435610565565b6001600160a01b03811661046357604051631e4fbdf760e01b81525f60048201526024015b60405180910390fd5b61029d8161060b565b6104746102b3565b6001600160a01b0316336001600160a01b0316146104a55760405163b413b91960e01b815260040160405180910390fd5b856104af88610703565b146104cd57604051630749c60160e51b815260040160405180910390fd5b5f5f805160206109688339815191528054604051630a0fd84560e11b815263ffffffff8b166004820152602481018990526001600160a01b038881166044830152606482018890526084820187905292935091169063141fb08a90849060a4015f604051808303818588803b158015610544575f80fd5b505af1158015610556573d5f803e3d5ffd5b50505050505050505050505050565b3361056e6102ec565b6001600160a01b0316146102b15760405163118cdaa760e01b815233600482015260240161045a565b7f2d365d82646798ae645c4baa2dc2ee228626f61d8b5395bf298ba125a3c6b10080546001600160a01b0319166001600160a01b03831690811782556040519081527faf53bfd91676a5f7c3d8a2bcd6a9df83b50bde13a00670e3db6a6cefa04823bc906020015b60405180910390a15050565b7f9016d09d72d40fdae2fd8ceac6b6234c7706214fd39c1cd1e609a0528c19930080546001600160a01b031981166001600160a01b03848116918217845560405192169182907f8be0079c531659141344cd1fd0a4f28419497f9722a3daafe3b4186f6b6457e0905f90a3505050565b5f8051602061096883398151915280546001600160a01b0319166001600160a01b03831690811782556040519081527fc56136dbe126fa78122f00c45d3a7449ca0047154401f27c13fdd1c801882251906020016105ff565b6106dc61078a565b61029d816107d3565b6106ed61078a565b6106f6816107db565b6106ff826107ec565b5050565b5f805f80516020610968833981519152805460405163bb0b6a5360e01b815263ffffffff861660048201529192506001600160a01b03169063bb0b6a5390602401602060405180830381865afa15801561075f573d5f803e3d5ffd5b505050506040513d601f19601f820116820180604052508101906107839190610950565b9392505050565b7ff0c57e16840df040f15088dc2f81fe391c3923bec73e23a9662efc9c229c6a0054600160401b900460ff166102b157604051631afcd79f60e31b815260040160405180910390fd5b61043561078a565b6107e361078a565b61029d816107f4565b6102e361078a565b61029461078a565b5f806020838503121561080d575f80fd5b823567ffffffffffffffff80821115610824575f80fd5b818501915085601f830112610837575f80fd5b813581811115610845575f80fd5b866020828501011115610856575f80fd5b60209290920196919550909350505050565b6001600160a01b038116811461029d575f80fd5b5f6020828403121561088c575f80fd5b813561078381610868565b5f805f606084860312156108a9575f80fd5b83356108b481610868565b925060208401356108c481610868565b915060408401356108d481610868565b809150509250925092565b5f805f805f60a086880312156108f3575f80fd5b853563ffffffff81168114610906575f80fd5b945060208601359350604086013561091d81610868565b94979396509394606081013594506080013592915050565b5f60208284031215610945575f80fd5b815161078381610868565b5f60208284031215610960575f80fd5b505191905056feec90cfc37697dc33dbcf188d524bdc2a41f251df5a390991a45d6388ac04b500a2646970667358221220582da9917ca30e7671e1d3d7e4ca6761985dcb6f5199f23341629c524ff8d7de64736f6c63430008140033","linkReferences":{}},"methodIdentifiers":{"getL1SyncPool()":"08587292","getMessenger()":"779c9ad8","initialize(address,address,address)":"c0c53b8b","onMessageReceived(bytes)":"3a69197e","owner()":"8da5cb5b","renounceOwnership()":"715018a6","setL1SyncPool(address)":"7a7c3351","setMessenger(address)":"66285967","transferOwnership(address)":"f2fde38b"},"id":15}