{
    "contractName": "MintableOFTUpgradeable",
    "abi": [
        {
            "inputs": [
                {
                    "internalType": "address",
                    "name": "endpoint",
                    "type": "address"
                }
            ],
            "stateMutability": "nonpayable",
            "type": "constructor"
        },
        {
            "inputs": [],
            "name": "AccessControlBadConfirmation",
            "type": "error"
        },
        {
            "inputs": [
                {
                    "internalType": "address",
                    "name": "account",
                    "type": "address"
                },
                {
                    "internalType": "bytes32",
                    "name": "neededRole",
                    "type": "bytes32"
                }
            ],
            "name": "AccessControlUnauthorizedAccount",
            "type": "error"
        },
        {
            "inputs": [
                {
                    "internalType": "address",
                    "name": "target",
                    "type": "address"
                }
            ],
            "name": "AddressEmptyCode",
            "type": "error"
        },
        {
            "inputs": [
                {
                    "internalType": "address",
                    "name": "account",
                    "type": "address"
                }
            ],
            "name": "AddressInsufficientBalance",
            "type": "error"
        },
        {
            "inputs": [
                {
                    "internalType": "address",
                    "name": "spender",
                    "type": "address"
                },
                {
                    "internalType": "uint256",
                    "name": "allowance",
                    "type": "uint256"
                },
                {
                    "internalType": "uint256",
                    "name": "needed",
                    "type": "uint256"
                }
            ],
            "name": "ERC20InsufficientAllowance",
            "type": "error"
        },
        {
            "inputs": [
                {
                    "internalType": "address",
                    "name": "sender",
                    "type": "address"
                },
                {
                    "internalType": "uint256",
                    "name": "balance",
                    "type": "uint256"
                },
                {
                    "internalType": "uint256",
                    "name": "needed",
                    "type": "uint256"
                }
            ],
            "name": "ERC20InsufficientBalance",
            "type": "error"
        },
        {
            "inputs": [
                {
                    "internalType": "address",
                    "name": "approver",
                    "type": "address"
                }
            ],
            "name": "ERC20InvalidApprover",
            "type": "error"
        },
        {
            "inputs": [
                {
                    "internalType": "address",
                    "name": "receiver",
                    "type": "address"
                }
            ],
            "name": "ERC20InvalidReceiver",
            "type": "error"
        },
        {
            "inputs": [
                {
                    "internalType": "address",
                    "name": "sender",
                    "type": "address"
                }
            ],
            "name": "ERC20InvalidSender",
            "type": "error"
        },
        {
            "inputs": [
                {
                    "internalType": "address",
                    "name": "spender",
                    "type": "address"
                }
            ],
            "name": "ERC20InvalidSpender",
            "type": "error"
        },
        {
            "inputs": [],
            "name": "EnforcedPause",
            "type": "error"
        },
        {
            "inputs": [],
            "name": "ExpectedPause",
            "type": "error"
        },
        {
            "inputs": [],
            "name": "FailedInnerCall",
            "type": "error"
        },
        {
            "inputs": [],
            "name": "InvalidDelegate",
            "type": "error"
        },
        {
            "inputs": [],
            "name": "InvalidEndpointCall",
            "type": "error"
        },
        {
            "inputs": [],
            "name": "InvalidInitialization",
            "type": "error"
        },
        {
            "inputs": [],
            "name": "InvalidLocalDecimals",
            "type": "error"
        },
        {
            "inputs": [
                {
                    "internalType": "bytes",
                    "name": "options",
                    "type": "bytes"
                }
            ],
            "name": "InvalidOptions",
            "type": "error"
        },
        {
            "inputs": [],
            "name": "LzTokenUnavailable",
            "type": "error"
        },
        {
            "inputs": [
                {
                    "internalType": "uint32",
                    "name": "eid",
                    "type": "uint32"
                }
            ],
            "name": "NoPeer",
            "type": "error"
        },
        {
            "inputs": [
                {
                    "internalType": "uint256",
                    "name": "msgValue",
                    "type": "uint256"
                }
            ],
            "name": "NotEnoughNative",
            "type": "error"
        },
        {
            "inputs": [],
            "name": "NotInitializing",
            "type": "error"
        },
        {
            "inputs": [
                {
                    "internalType": "address",
                    "name": "addr",
                    "type": "address"
                }
            ],
            "name": "OnlyEndpoint",
            "type": "error"
        },
        {
            "inputs": [
                {
                    "internalType": "uint32",
                    "name": "eid",
                    "type": "uint32"
                },
                {
                    "internalType": "bytes32",
                    "name": "sender",
                    "type": "bytes32"
                }
            ],
            "name": "OnlyPeer",
            "type": "error"
        },
        {
            "inputs": [],
            "name": "OnlySelf",
            "type": "error"
        },
        {
            "inputs": [
                {
                    "internalType": "address",
                    "name": "owner",
                    "type": "address"
                }
            ],
            "name": "OwnableInvalidOwner",
            "type": "error"
        },
        {
            "inputs": [
                {
                    "internalType": "address",
                    "name": "account",
                    "type": "address"
                }
            ],
            "name": "OwnableUnauthorizedAccount",
            "type": "error"
        },
        {
            "inputs": [],
            "name": "RateLimitExceeded",
            "type": "error"
        },
        {
            "inputs": [
                {
                    "internalType": "address",
                    "name": "token",
                    "type": "address"
                }
            ],
            "name": "SafeERC20FailedOperation",
            "type": "error"
        },
        {
            "inputs": [
                {
                    "internalType": "bytes",
                    "name": "result",
                    "type": "bytes"
                }
            ],
            "name": "SimulationResult",
            "type": "error"
        },
        {
            "inputs": [
                {
                    "internalType": "uint256",
                    "name": "amountLD",
                    "type": "uint256"
                },
                {
                    "internalType": "uint256",
                    "name": "minAmountLD",
                    "type": "uint256"
                }
            ],
            "name": "SlippageExceeded",
            "type": "error"
        },
        {
            "anonymous": false,
            "inputs": [
                {
                    "indexed": true,
                    "internalType": "address",
                    "name": "owner",
                    "type": "address"
                },
                {
                    "indexed": true,
                    "internalType": "address",
                    "name": "spender",
                    "type": "address"
                },
                {
                    "indexed": false,
                    "internalType": "uint256",
                    "name": "value",
                    "type": "uint256"
                }
            ],
            "name": "Approval",
            "type": "event"
        },
        {
            "anonymous": false,
            "inputs": [
                {
                    "components": [
                        {
                            "internalType": "uint32",
                            "name": "eid",
                            "type": "uint32"
                        },
                        {
                            "internalType": "uint16",
                            "name": "msgType",
                            "type": "uint16"
                        },
                        {
                            "internalType": "bytes",
                            "name": "options",
                            "type": "bytes"
                        }
                    ],
                    "indexed": false,
                    "internalType": "struct EnforcedOptionParam[]",
                    "name": "_enforcedOptions",
                    "type": "tuple[]"
                }
            ],
            "name": "EnforcedOptionSet",
            "type": "event"
        },
        {
            "anonymous": false,
            "inputs": [
                {
                    "indexed": false,
                    "internalType": "uint64",
                    "name": "version",
                    "type": "uint64"
                }
            ],
            "name": "Initialized",
            "type": "event"
        },
        {
            "anonymous": false,
            "inputs": [
                {
                    "indexed": false,
                    "internalType": "address",
                    "name": "inspector",
                    "type": "address"
                }
            ],
            "name": "MsgInspectorSet",
            "type": "event"
        },
        {
            "anonymous": false,
            "inputs": [
                {
                    "indexed": true,
                    "internalType": "bytes32",
                    "name": "guid",
                    "type": "bytes32"
                },
                {
                    "indexed": false,
                    "internalType": "uint32",
                    "name": "srcEid",
                    "type": "uint32"
                },
                {
                    "indexed": true,
                    "internalType": "address",
                    "name": "toAddress",
                    "type": "address"
                },
                {
                    "indexed": false,
                    "internalType": "uint256",
                    "name": "amountReceivedLD",
                    "type": "uint256"
                }
            ],
            "name": "OFTReceived",
            "type": "event"
        },
        {
            "anonymous": false,
            "inputs": [
                {
                    "indexed": true,
                    "internalType": "bytes32",
                    "name": "guid",
                    "type": "bytes32"
                },
                {
                    "indexed": false,
                    "internalType": "uint32",
                    "name": "dstEid",
                    "type": "uint32"
                },
                {
                    "indexed": true,
                    "internalType": "address",
                    "name": "fromAddress",
                    "type": "address"
                },
                {
                    "indexed": false,
                    "internalType": "uint256",
                    "name": "amountSentLD",
                    "type": "uint256"
                },
                {
                    "indexed": false,
                    "internalType": "uint256",
                    "name": "amountReceivedLD",
                    "type": "uint256"
                }
            ],
            "name": "OFTSent",
            "type": "event"
        },
        {
            "anonymous": false,
            "inputs": [
                {
                    "indexed": true,
                    "internalType": "address",
                    "name": "previousOwner",
                    "type": "address"
                },
                {
                    "indexed": true,
                    "internalType": "address",
                    "name": "newOwner",
                    "type": "address"
                }
            ],
            "name": "OwnershipTransferred",
            "type": "event"
        },
        {
            "anonymous": false,
            "inputs": [
                {
                    "indexed": false,
                    "internalType": "address",
                    "name": "account",
                    "type": "address"
                }
            ],
            "name": "Paused",
            "type": "event"
        },
        {
            "anonymous": false,
            "inputs": [
                {
                    "indexed": false,
                    "internalType": "uint32",
                    "name": "eid",
                    "type": "uint32"
                },
                {
                    "indexed": false,
                    "internalType": "bytes32",
                    "name": "peer",
                    "type": "bytes32"
                }
            ],
            "name": "PeerSet",
            "type": "event"
        },
        {
            "anonymous": false,
            "inputs": [
                {
                    "indexed": false,
                    "internalType": "address",
                    "name": "preCrimeAddress",
                    "type": "address"
                }
            ],
            "name": "PreCrimeSet",
            "type": "event"
        },
        {
            "anonymous": false,
            "inputs": [
                {
                    "components": [
                        {
                            "internalType": "uint32",
                            "name": "dstEid",
                            "type": "uint32"
                        },
                        {
                            "internalType": "uint256",
                            "name": "limit",
                            "type": "uint256"
                        },
                        {
                            "internalType": "uint256",
                            "name": "window",
                            "type": "uint256"
                        }
                    ],
                    "indexed": false,
                    "internalType": "struct RateLimiter.RateLimitConfig[]",
                    "name": "rateLimitConfigs",
                    "type": "tuple[]"
                }
            ],
            "name": "RateLimitsChanged",
            "type": "event"
        },
        {
            "anonymous": false,
            "inputs": [
                {
                    "indexed": true,
                    "internalType": "bytes32",
                    "name": "role",
                    "type": "bytes32"
                },
                {
                    "indexed": true,
                    "internalType": "bytes32",
                    "name": "previousAdminRole",
                    "type": "bytes32"
                },
                {
                    "indexed": true,
                    "internalType": "bytes32",
                    "name": "newAdminRole",
                    "type": "bytes32"
                }
            ],
            "name": "RoleAdminChanged",
            "type": "event"
        },
        {
            "anonymous": false,
            "inputs": [
                {
                    "indexed": true,
                    "internalType": "bytes32",
                    "name": "role",
                    "type": "bytes32"
                },
                {
                    "indexed": true,
                    "internalType": "address",
                    "name": "account",
                    "type": "address"
                },
                {
                    "indexed": true,
                    "internalType": "address",
                    "name": "sender",
                    "type": "address"
                }
            ],
            "name": "RoleGranted",
            "type": "event"
        },
        {
            "anonymous": false,
            "inputs": [
                {
                    "indexed": true,
                    "internalType": "bytes32",
                    "name": "role",
                    "type": "bytes32"
                },
                {
                    "indexed": true,
                    "internalType": "address",
                    "name": "account",
                    "type": "address"
                },
                {
                    "indexed": true,
                    "internalType": "address",
                    "name": "sender",
                    "type": "address"
                }
            ],
            "name": "RoleRevoked",
            "type": "event"
        },
        {
            "anonymous": false,
            "inputs": [
                {
                    "indexed": true,
                    "internalType": "address",
                    "name": "from",
                    "type": "address"
                },
                {
                    "indexed": true,
                    "internalType": "address",
                    "name": "to",
                    "type": "address"
                },
                {
                    "indexed": false,
                    "internalType": "uint256",
                    "name": "value",
                    "type": "uint256"
                }
            ],
            "name": "Transfer",
            "type": "event"
        },
        {
            "anonymous": false,
            "inputs": [
                {
                    "indexed": false,
                    "internalType": "address",
                    "name": "account",
                    "type": "address"
                }
            ],
            "name": "Unpaused",
            "type": "event"
        },
        {
            "inputs": [],
            "name": "DEFAULT_ADMIN_ROLE",
            "outputs": [
                {
                    "internalType": "bytes32",
                    "name": "",
                    "type": "bytes32"
                }
            ],
            "stateMutability": "view",
            "type": "function"
        },
        {
            "inputs": [],
            "name": "MINTER_ROLE",
            "outputs": [
                {
                    "internalType": "bytes32",
                    "name": "",
                    "type": "bytes32"
                }
            ],
            "stateMutability": "view",
            "type": "function"
        },
        {
            "inputs": [],
            "name": "PAUSER_ROLE",
            "outputs": [
                {
                    "internalType": "bytes32",
                    "name": "",
                    "type": "bytes32"
                }
            ],
            "stateMutability": "view",
            "type": "function"
        },
        {
            "inputs": [],
            "name": "SEND",
            "outputs": [
                {
                    "internalType": "uint16",
                    "name": "",
                    "type": "uint16"
                }
            ],
            "stateMutability": "view",
            "type": "function"
        },
        {
            "inputs": [],
            "name": "SEND_AND_CALL",
            "outputs": [
                {
                    "internalType": "uint16",
                    "name": "",
                    "type": "uint16"
                }
            ],
            "stateMutability": "view",
            "type": "function"
        },
        {
            "inputs": [
                {
                    "components": [
                        {
                            "internalType": "uint32",
                            "name": "srcEid",
                            "type": "uint32"
                        },
                        {
                            "internalType": "bytes32",
                            "name": "sender",
                            "type": "bytes32"
                        },
                        {
                            "internalType": "uint64",
                            "name": "nonce",
                            "type": "uint64"
                        }
                    ],
                    "internalType": "struct Origin",
                    "name": "origin",
                    "type": "tuple"
                }
            ],
            "name": "allowInitializePath",
            "outputs": [
                {
                    "internalType": "bool",
                    "name": "",
                    "type": "bool"
                }
            ],
            "stateMutability": "view",
            "type": "function"
        },
        {
            "inputs": [
                {
                    "internalType": "address",
                    "name": "owner",
                    "type": "address"
                },
                {
                    "internalType": "address",
                    "name": "spender",
                    "type": "address"
                }
            ],
            "name": "allowance",
            "outputs": [
                {
                    "internalType": "uint256",
                    "name": "",
                    "type": "uint256"
                }
            ],
            "stateMutability": "view",
            "type": "function"
        },
        {
            "inputs": [],
            "name": "approvalRequired",
            "outputs": [
                {
                    "internalType": "bool",
                    "name": "",
                    "type": "bool"
                }
            ],
            "stateMutability": "pure",
            "type": "function"
        },
        {
            "inputs": [
                {
                    "internalType": "address",
                    "name": "spender",
                    "type": "address"
                },
                {
                    "internalType": "uint256",
                    "name": "value",
                    "type": "uint256"
                }
            ],
            "name": "approve",
            "outputs": [
                {
                    "internalType": "bool",
                    "name": "",
                    "type": "bool"
                }
            ],
            "stateMutability": "nonpayable",
            "type": "function"
        },
        {
            "inputs": [
                {
                    "internalType": "address",
                    "name": "account",
                    "type": "address"
                }
            ],
            "name": "balanceOf",
            "outputs": [
                {
                    "internalType": "uint256",
                    "name": "",
                    "type": "uint256"
                }
            ],
            "stateMutability": "view",
            "type": "function"
        },
        {
            "inputs": [
                {
                    "internalType": "uint32",
                    "name": "_eid",
                    "type": "uint32"
                },
                {
                    "internalType": "uint16",
                    "name": "_msgType",
                    "type": "uint16"
                },
                {
                    "internalType": "bytes",
                    "name": "_extraOptions",
                    "type": "bytes"
                }
            ],
            "name": "combineOptions",
            "outputs": [
                {
                    "internalType": "bytes",
                    "name": "",
                    "type": "bytes"
                }
            ],
            "stateMutability": "view",
            "type": "function"
        },
        {
            "inputs": [],
            "name": "composeMsgSender",
            "outputs": [
                {
                    "internalType": "address",
                    "name": "sender",
                    "type": "address"
                }
            ],
            "stateMutability": "view",
            "type": "function"
        },
        {
            "inputs": [],
            "name": "decimalConversionRate",
            "outputs": [
                {
                    "internalType": "uint256",
                    "name": "",
                    "type": "uint256"
                }
            ],
            "stateMutability": "view",
            "type": "function"
        },
        {
            "inputs": [],
            "name": "decimals",
            "outputs": [
                {
                    "internalType": "uint8",
                    "name": "",
                    "type": "uint8"
                }
            ],
            "stateMutability": "view",
            "type": "function"
        },
        {
            "inputs": [],
            "name": "endpoint",
            "outputs": [
                {
                    "internalType": "contract ILayerZeroEndpointV2",
                    "name": "",
                    "type": "address"
                }
            ],
            "stateMutability": "view",
            "type": "function"
        },
        {
            "inputs": [
                {
                    "internalType": "uint32",
                    "name": "_eid",
                    "type": "uint32"
                },
                {
                    "internalType": "uint16",
                    "name": "_msgType",
                    "type": "uint16"
                }
            ],
            "name": "enforcedOptions",
            "outputs": [
                {
                    "internalType": "bytes",
                    "name": "",
                    "type": "bytes"
                }
            ],
            "stateMutability": "view",
            "type": "function"
        },
        {
            "inputs": [
                {
                    "internalType": "uint32",
                    "name": "_dstEid",
                    "type": "uint32"
                }
            ],
            "name": "getAmountCanBeSent",
            "outputs": [
                {
                    "internalType": "uint256",
                    "name": "currentAmountInFlight",
                    "type": "uint256"
                },
                {
                    "internalType": "uint256",
                    "name": "amountCanBeSent",
                    "type": "uint256"
                }
            ],
            "stateMutability": "view",
            "type": "function"
        },
        {
            "inputs": [
                {
                    "internalType": "bytes32",
                    "name": "role",
                    "type": "bytes32"
                }
            ],
            "name": "getRoleAdmin",
            "outputs": [
                {
                    "internalType": "bytes32",
                    "name": "",
                    "type": "bytes32"
                }
            ],
            "stateMutability": "view",
            "type": "function"
        },
        {
            "inputs": [
                {
                    "internalType": "bytes32",
                    "name": "role",
                    "type": "bytes32"
                },
                {
                    "internalType": "address",
                    "name": "account",
                    "type": "address"
                }
            ],
            "name": "grantRole",
            "outputs": [],
            "stateMutability": "nonpayable",
            "type": "function"
        },
        {
            "inputs": [
                {
                    "internalType": "bytes32",
                    "name": "role",
                    "type": "bytes32"
                },
                {
                    "internalType": "address",
                    "name": "account",
                    "type": "address"
                }
            ],
            "name": "hasRole",
            "outputs": [
                {
                    "internalType": "bool",
                    "name": "",
                    "type": "bool"
                }
            ],
            "stateMutability": "view",
            "type": "function"
        },
        {
            "inputs": [
                {
                    "internalType": "string",
                    "name": "name",
                    "type": "string"
                },
                {
                    "internalType": "string",
                    "name": "symbol",
                    "type": "string"
                },
                {
                    "internalType": "address",
                    "name": "owner",
                    "type": "address"
                }
            ],
            "name": "initialize",
            "outputs": [],
            "stateMutability": "nonpayable",
            "type": "function"
        },
        {
            "inputs": [
                {
                    "internalType": "uint32",
                    "name": "_eid",
                    "type": "uint32"
                },
                {
                    "internalType": "bytes32",
                    "name": "_peer",
                    "type": "bytes32"
                }
            ],
            "name": "isPeer",
            "outputs": [
                {
                    "internalType": "bool",
                    "name": "",
                    "type": "bool"
                }
            ],
            "stateMutability": "view",
            "type": "function"
        },
        {
            "inputs": [
                {
                    "components": [
                        {
                            "internalType": "uint32",
                            "name": "srcEid",
                            "type": "uint32"
                        },
                        {
                            "internalType": "bytes32",
                            "name": "sender",
                            "type": "bytes32"
                        },
                        {
                            "internalType": "uint64",
                            "name": "nonce",
                            "type": "uint64"
                        }
                    ],
                    "internalType": "struct Origin",
                    "name": "_origin",
                    "type": "tuple"
                },
                {
                    "internalType": "bytes32",
                    "name": "_guid",
                    "type": "bytes32"
                },
                {
                    "internalType": "bytes",
                    "name": "_message",
                    "type": "bytes"
                },
                {
                    "internalType": "address",
                    "name": "_executor",
                    "type": "address"
                },
                {
                    "internalType": "bytes",
                    "name": "_extraData",
                    "type": "bytes"
                }
            ],
            "name": "lzReceive",
            "outputs": [],
            "stateMutability": "payable",
            "type": "function"
        },
        {
            "inputs": [
                {
                    "components": [
                        {
                            "components": [
                                {
                                    "internalType": "uint32",
                                    "name": "srcEid",
                                    "type": "uint32"
                                },
                                {
                                    "internalType": "bytes32",
                                    "name": "sender",
                                    "type": "bytes32"
                                },
                                {
                                    "internalType": "uint64",
                                    "name": "nonce",
                                    "type": "uint64"
                                }
                            ],
                            "internalType": "struct Origin",
                            "name": "origin",
                            "type": "tuple"
                        },
                        {
                            "internalType": "uint32",
                            "name": "dstEid",
                            "type": "uint32"
                        },
                        {
                            "internalType": "address",
                            "name": "receiver",
                            "type": "address"
                        },
                        {
                            "internalType": "bytes32",
                            "name": "guid",
                            "type": "bytes32"
                        },
                        {
                            "internalType": "uint256",
                            "name": "value",
                            "type": "uint256"
                        },
                        {
                            "internalType": "address",
                            "name": "executor",
                            "type": "address"
                        },
                        {
                            "internalType": "bytes",
                            "name": "message",
                            "type": "bytes"
                        },
                        {
                            "internalType": "bytes",
                            "name": "extraData",
                            "type": "bytes"
                        }
                    ],
                    "internalType": "struct InboundPacket[]",
                    "name": "_packets",
                    "type": "tuple[]"
                }
            ],
            "name": "lzReceiveAndRevert",
            "outputs": [],
            "stateMutability": "payable",
            "type": "function"
        },
        {
            "inputs": [
                {
                    "components": [
                        {
                            "internalType": "uint32",
                            "name": "srcEid",
                            "type": "uint32"
                        },
                        {
                            "internalType": "bytes32",
                            "name": "sender",
                            "type": "bytes32"
                        },
                        {
                            "internalType": "uint64",
                            "name": "nonce",
                            "type": "uint64"
                        }
                    ],
                    "internalType": "struct Origin",
                    "name": "_origin",
                    "type": "tuple"
                },
                {
                    "internalType": "bytes32",
                    "name": "_guid",
                    "type": "bytes32"
                },
                {
                    "internalType": "bytes",
                    "name": "_message",
                    "type": "bytes"
                },
                {
                    "internalType": "address",
                    "name": "_executor",
                    "type": "address"
                },
                {
                    "internalType": "bytes",
                    "name": "_extraData",
                    "type": "bytes"
                }
            ],
            "name": "lzReceiveSimulate",
            "outputs": [],
            "stateMutability": "payable",
            "type": "function"
        },
        {
            "inputs": [
                {
                    "internalType": "address",
                    "name": "_account",
                    "type": "address"
                },
                {
                    "internalType": "uint256",
                    "name": "_amount",
                    "type": "uint256"
                }
            ],
            "name": "mint",
            "outputs": [],
            "stateMutability": "nonpayable",
            "type": "function"
        },
        {
            "inputs": [],
            "name": "msgInspector",
            "outputs": [
                {
                    "internalType": "address",
                    "name": "",
                    "type": "address"
                }
            ],
            "stateMutability": "view",
            "type": "function"
        },
        {
            "inputs": [],
            "name": "name",
            "outputs": [
                {
                    "internalType": "string",
                    "name": "",
                    "type": "string"
                }
            ],
            "stateMutability": "view",
            "type": "function"
        },
        {
            "inputs": [
                {
                    "internalType": "uint32",
                    "name": "",
                    "type": "uint32"
                },
                {
                    "internalType": "bytes32",
                    "name": "",
                    "type": "bytes32"
                }
            ],
            "name": "nextNonce",
            "outputs": [
                {
                    "internalType": "uint64",
                    "name": "nonce",
                    "type": "uint64"
                }
            ],
            "stateMutability": "view",
            "type": "function"
        },
        {
            "inputs": [],
            "name": "oApp",
            "outputs": [
                {
                    "internalType": "address",
                    "name": "",
                    "type": "address"
                }
            ],
            "stateMutability": "view",
            "type": "function"
        },
        {
            "inputs": [],
            "name": "oAppVersion",
            "outputs": [
                {
                    "internalType": "uint64",
                    "name": "senderVersion",
                    "type": "uint64"
                },
                {
                    "internalType": "uint64",
                    "name": "receiverVersion",
                    "type": "uint64"
                }
            ],
            "stateMutability": "pure",
            "type": "function"
        },
        {
            "inputs": [],
            "name": "oftVersion",
            "outputs": [
                {
                    "internalType": "bytes4",
                    "name": "interfaceId",
                    "type": "bytes4"
                },
                {
                    "internalType": "uint64",
                    "name": "version",
                    "type": "uint64"
                }
            ],
            "stateMutability": "pure",
            "type": "function"
        },
        {
            "inputs": [],
            "name": "owner",
            "outputs": [
                {
                    "internalType": "address",
                    "name": "",
                    "type": "address"
                }
            ],
            "stateMutability": "view",
            "type": "function"
        },
        {
            "inputs": [],
            "name": "pauseBridge",
            "outputs": [],
            "stateMutability": "nonpayable",
            "type": "function"
        },
        {
            "inputs": [],
            "name": "paused",
            "outputs": [
                {
                    "internalType": "bool",
                    "name": "",
                    "type": "bool"
                }
            ],
            "stateMutability": "view",
            "type": "function"
        },
        {
            "inputs": [
                {
                    "internalType": "uint32",
                    "name": "_eid",
                    "type": "uint32"
                }
            ],
            "name": "peers",
            "outputs": [
                {
                    "internalType": "bytes32",
                    "name": "",
                    "type": "bytes32"
                }
            ],
            "stateMutability": "view",
            "type": "function"
        },
        {
            "inputs": [],
            "name": "preCrime",
            "outputs": [
                {
                    "internalType": "address",
                    "name": "",
                    "type": "address"
                }
            ],
            "stateMutability": "view",
            "type": "function"
        },
        {
            "inputs": [
                {
                    "components": [
                        {
                            "internalType": "uint32",
                            "name": "dstEid",
                            "type": "uint32"
                        },
                        {
                            "internalType": "bytes32",
                            "name": "to",
                            "type": "bytes32"
                        },
                        {
                            "internalType": "uint256",
                            "name": "amountLD",
                            "type": "uint256"
                        },
                        {
                            "internalType": "uint256",
                            "name": "minAmountLD",
                            "type": "uint256"
                        },
                        {
                            "internalType": "bytes",
                            "name": "extraOptions",
                            "type": "bytes"
                        },
                        {
                            "internalType": "bytes",
                            "name": "composeMsg",
                            "type": "bytes"
                        },
                        {
                            "internalType": "bytes",
                            "name": "oftCmd",
                            "type": "bytes"
                        }
                    ],
                    "internalType": "struct SendParam",
                    "name": "_sendParam",
                    "type": "tuple"
                }
            ],
            "name": "quoteOFT",
            "outputs": [
                {
                    "components": [
                        {
                            "internalType": "uint256",
                            "name": "minAmountLD",
                            "type": "uint256"
                        },
                        {
                            "internalType": "uint256",
                            "name": "maxAmountLD",
                            "type": "uint256"
                        }
                    ],
                    "internalType": "struct OFTLimit",
                    "name": "oftLimit",
                    "type": "tuple"
                },
                {
                    "components": [
                        {
                            "internalType": "int256",
                            "name": "feeAmountLD",
                            "type": "int256"
                        },
                        {
                            "internalType": "string",
                            "name": "description",
                            "type": "string"
                        }
                    ],
                    "internalType": "struct OFTFeeDetail[]",
                    "name": "oftFeeDetails",
                    "type": "tuple[]"
                },
                {
                    "components": [
                        {
                            "internalType": "uint256",
                            "name": "amountSentLD",
                            "type": "uint256"
                        },
                        {
                            "internalType": "uint256",
                            "name": "amountReceivedLD",
                            "type": "uint256"
                        }
                    ],
                    "internalType": "struct OFTReceipt",
                    "name": "oftReceipt",
                    "type": "tuple"
                }
            ],
            "stateMutability": "view",
            "type": "function"
        },
        {
            "inputs": [
                {
                    "components": [
                        {
                            "internalType": "uint32",
                            "name": "dstEid",
                            "type": "uint32"
                        },
                        {
                            "internalType": "bytes32",
                            "name": "to",
                            "type": "bytes32"
                        },
                        {
                            "internalType": "uint256",
                            "name": "amountLD",
                            "type": "uint256"
                        },
                        {
                            "internalType": "uint256",
                            "name": "minAmountLD",
                            "type": "uint256"
                        },
                        {
                            "internalType": "bytes",
                            "name": "extraOptions",
                            "type": "bytes"
                        },
                        {
                            "internalType": "bytes",
                            "name": "composeMsg",
                            "type": "bytes"
                        },
                        {
                            "internalType": "bytes",
                            "name": "oftCmd",
                            "type": "bytes"
                        }
                    ],
                    "internalType": "struct SendParam",
                    "name": "_sendParam",
                    "type": "tuple"
                },
                {
                    "internalType": "bool",
                    "name": "_payInLzToken",
                    "type": "bool"
                }
            ],
            "name": "quoteSend",
            "outputs": [
                {
                    "components": [
                        {
                            "internalType": "uint256",
                            "name": "nativeFee",
                            "type": "uint256"
                        },
                        {
                            "internalType": "uint256",
                            "name": "lzTokenFee",
                            "type": "uint256"
                        }
                    ],
                    "internalType": "struct MessagingFee",
                    "name": "msgFee",
                    "type": "tuple"
                }
            ],
            "stateMutability": "view",
            "type": "function"
        },
        {
            "inputs": [
                {
                    "internalType": "uint32",
                    "name": "dstEid",
                    "type": "uint32"
                }
            ],
            "name": "rateLimits",
            "outputs": [
                {
                    "internalType": "uint256",
                    "name": "amountInFlight",
                    "type": "uint256"
                },
                {
                    "internalType": "uint256",
                    "name": "lastUpdated",
                    "type": "uint256"
                },
                {
                    "internalType": "uint256",
                    "name": "limit",
                    "type": "uint256"
                },
                {
                    "internalType": "uint256",
                    "name": "window",
                    "type": "uint256"
                }
            ],
            "stateMutability": "view",
            "type": "function"
        },
        {
            "inputs": [],
            "name": "renounceOwnership",
            "outputs": [],
            "stateMutability": "nonpayable",
            "type": "function"
        },
        {
            "inputs": [
                {
                    "internalType": "bytes32",
                    "name": "role",
                    "type": "bytes32"
                },
                {
                    "internalType": "address",
                    "name": "callerConfirmation",
                    "type": "address"
                }
            ],
            "name": "renounceRole",
            "outputs": [],
            "stateMutability": "nonpayable",
            "type": "function"
        },
        {
            "inputs": [
                {
                    "internalType": "bytes32",
                    "name": "role",
                    "type": "bytes32"
                },
                {
                    "internalType": "address",
                    "name": "account",
                    "type": "address"
                }
            ],
            "name": "revokeRole",
            "outputs": [],
            "stateMutability": "nonpayable",
            "type": "function"
        },
        {
            "inputs": [
                {
                    "components": [
                        {
                            "internalType": "uint32",
                            "name": "dstEid",
                            "type": "uint32"
                        },
                        {
                            "internalType": "bytes32",
                            "name": "to",
                            "type": "bytes32"
                        },
                        {
                            "internalType": "uint256",
                            "name": "amountLD",
                            "type": "uint256"
                        },
                        {
                            "internalType": "uint256",
                            "name": "minAmountLD",
                            "type": "uint256"
                        },
                        {
                            "internalType": "bytes",
                            "name": "extraOptions",
                            "type": "bytes"
                        },
                        {
                            "internalType": "bytes",
                            "name": "composeMsg",
                            "type": "bytes"
                        },
                        {
                            "internalType": "bytes",
                            "name": "oftCmd",
                            "type": "bytes"
                        }
                    ],
                    "internalType": "struct SendParam",
                    "name": "_sendParam",
                    "type": "tuple"
                },
                {
                    "components": [
                        {
                            "internalType": "uint256",
                            "name": "nativeFee",
                            "type": "uint256"
                        },
                        {
                            "internalType": "uint256",
                            "name": "lzTokenFee",
                            "type": "uint256"
                        }
                    ],
                    "internalType": "struct MessagingFee",
                    "name": "_fee",
                    "type": "tuple"
                },
                {
                    "internalType": "address",
                    "name": "_refundAddress",
                    "type": "address"
                }
            ],
            "name": "send",
            "outputs": [
                {
                    "components": [
                        {
                            "internalType": "bytes32",
                            "name": "guid",
                            "type": "bytes32"
                        },
                        {
                            "internalType": "uint64",
                            "name": "nonce",
                            "type": "uint64"
                        },
                        {
                            "components": [
                                {
                                    "internalType": "uint256",
                                    "name": "nativeFee",
                                    "type": "uint256"
                                },
                                {
                                    "internalType": "uint256",
                                    "name": "lzTokenFee",
                                    "type": "uint256"
                                }
                            ],
                            "internalType": "struct MessagingFee",
                            "name": "fee",
                            "type": "tuple"
                        }
                    ],
                    "internalType": "struct MessagingReceipt",
                    "name": "msgReceipt",
                    "type": "tuple"
                },
                {
                    "components": [
                        {
                            "internalType": "uint256",
                            "name": "amountSentLD",
                            "type": "uint256"
                        },
                        {
                            "internalType": "uint256",
                            "name": "amountReceivedLD",
                            "type": "uint256"
                        }
                    ],
                    "internalType": "struct OFTReceipt",
                    "name": "oftReceipt",
                    "type": "tuple"
                }
            ],
            "stateMutability": "payable",
            "type": "function"
        },
        {
            "inputs": [
                {
                    "internalType": "address",
                    "name": "_delegate",
                    "type": "address"
                }
            ],
            "name": "setDelegate",
            "outputs": [],
            "stateMutability": "nonpayable",
            "type": "function"
        },
        {
            "inputs": [
                {
                    "components": [
                        {
                            "internalType": "uint32",
                            "name": "eid",
                            "type": "uint32"
                        },
                        {
                            "internalType": "uint16",
                            "name": "msgType",
                            "type": "uint16"
                        },
                        {
                            "internalType": "bytes",
                            "name": "options",
                            "type": "bytes"
                        }
                    ],
                    "internalType": "struct EnforcedOptionParam[]",
                    "name": "_enforcedOptions",
                    "type": "tuple[]"
                }
            ],
            "name": "setEnforcedOptions",
            "outputs": [],
            "stateMutability": "nonpayable",
            "type": "function"
        },
        {
            "inputs": [
                {
                    "internalType": "address",
                    "name": "_msgInspector",
                    "type": "address"
                }
            ],
            "name": "setMsgInspector",
            "outputs": [],
            "stateMutability": "nonpayable",
            "type": "function"
        },
        {
            "inputs": [
                {
                    "internalType": "uint32",
                    "name": "_eid",
                    "type": "uint32"
                },
                {
                    "internalType": "bytes32",
                    "name": "_peer",
                    "type": "bytes32"
                }
            ],
            "name": "setPeer",
            "outputs": [],
            "stateMutability": "nonpayable",
            "type": "function"
        },
        {
            "inputs": [
                {
                    "internalType": "address",
                    "name": "_preCrime",
                    "type": "address"
                }
            ],
            "name": "setPreCrime",
            "outputs": [],
            "stateMutability": "nonpayable",
            "type": "function"
        },
        {
            "inputs": [
                {
                    "components": [
                        {
                            "internalType": "uint32",
                            "name": "dstEid",
                            "type": "uint32"
                        },
                        {
                            "internalType": "uint256",
                            "name": "limit",
                            "type": "uint256"
                        },
                        {
                            "internalType": "uint256",
                            "name": "window",
                            "type": "uint256"
                        }
                    ],
                    "internalType": "struct RateLimiter.RateLimitConfig[]",
                    "name": "_rateLimitConfigs",
                    "type": "tuple[]"
                }
            ],
            "name": "setRateLimits",
            "outputs": [],
            "stateMutability": "nonpayable",
            "type": "function"
        },
        {
            "inputs": [],
            "name": "sharedDecimals",
            "outputs": [
                {
                    "internalType": "uint8",
                    "name": "",
                    "type": "uint8"
                }
            ],
            "stateMutability": "pure",
            "type": "function"
        },
        {
            "inputs": [
                {
                    "internalType": "bytes4",
                    "name": "interfaceId",
                    "type": "bytes4"
                }
            ],
            "name": "supportsInterface",
            "outputs": [
                {
                    "internalType": "bool",
                    "name": "",
                    "type": "bool"
                }
            ],
            "stateMutability": "view",
            "type": "function"
        },
        {
            "inputs": [],
            "name": "symbol",
            "outputs": [
                {
                    "internalType": "string",
                    "name": "",
                    "type": "string"
                }
            ],
            "stateMutability": "view",
            "type": "function"
        },
        {
            "inputs": [],
            "name": "token",
            "outputs": [
                {
                    "internalType": "address",
                    "name": "",
                    "type": "address"
                }
            ],
            "stateMutability": "view",
            "type": "function"
        },
        {
            "inputs": [],
            "name": "totalSupply",
            "outputs": [
                {
                    "internalType": "uint256",
                    "name": "",
                    "type": "uint256"
                }
            ],
            "stateMutability": "view",
            "type": "function"
        },
        {
            "inputs": [
                {
                    "internalType": "address",
                    "name": "to",
                    "type": "address"
                },
                {
                    "internalType": "uint256",
                    "name": "value",
                    "type": "uint256"
                }
            ],
            "name": "transfer",
            "outputs": [
                {
                    "internalType": "bool",
                    "name": "",
                    "type": "bool"
                }
            ],
            "stateMutability": "nonpayable",
            "type": "function"
        },
        {
            "inputs": [
                {
                    "internalType": "address",
                    "name": "from",
                    "type": "address"
                },
                {
                    "internalType": "address",
                    "name": "to",
                    "type": "address"
                },
                {
                    "internalType": "uint256",
                    "name": "value",
                    "type": "uint256"
                }
            ],
            "name": "transferFrom",
            "outputs": [
                {
                    "internalType": "bool",
                    "name": "",
                    "type": "bool"
                }
            ],
            "stateMutability": "nonpayable",
            "type": "function"
        },
        {
            "inputs": [
                {
                    "internalType": "address",
                    "name": "newOwner",
                    "type": "address"
                }
            ],
            "name": "transferOwnership",
            "outputs": [],
            "stateMutability": "nonpayable",
            "type": "function"
        },
        {
            "inputs": [],
            "name": "unpauseBridge",
            "outputs": [],
            "stateMutability": "nonpayable",
            "type": "function"
        },
        {
            "inputs": [
                {
                    "internalType": "string",
                    "name": "name_",
                    "type": "string"
                },
                {
                    "internalType": "string",
                    "name": "symbol_",
                    "type": "string"
                }
            ],
            "name": "updateTokenSymbol",
            "outputs": [],
            "stateMutability": "nonpayable",
            "type": "function"
        }
    ],
    "bytecode": "60c0346200016e576001600160401b0390601f62003f2a38819003918201601f19168301918483118484101762000172578084926020946040528339810103126200016e57516001600160a01b038116908190036200016e5760805264e8d4a5100060a0527ff0c57e16840df040f15088dc2f81fe391c3923bec73e23a9662efc9c229c6a009081549060ff8260401c166200015c57808083160362000116575b604051613da390816200018782396080518181816108730152818161096801528181610c1701528181610d5501528181611b4e01528181611fee015281816123b501526129c7015260a05181818161075901528181610ab50152818161176e01528181611f3d015281816124380152613aa20152f35b6001600160401b031990911681179091556040519081527fc7f505b2f371ae2175ee4913f4499e1f2633a7b5936321eed1cdaeb6115181d290602090a15f8080620000a0565b60405163f92ee8a960e01b8152600490fd5b5f80fd5b634e487b7160e01b5f52604160045260245ffdfe608060409080825260049081361015610016575f80fd5b5f9060e08235811c91826301ffc9a714612cc85750816306fdde0314612bf8578163077f224a14612824578163095ea7b31461277a5781630d35b41514612619578163111ecdad146125d157816313137d6514612395578163134d4f2514612379578163156a0d0f1461235257816317442b701461233057816318160ddd146122f25781631f5e1334146122d657816323b872dd146121e5578163248a9ca3146121ad5781632f2ff15d14612183578163313ce567146121675781633400288b146120da57816336568abe146120935781633b6f743b14611ece57816340c10f1914611e3e57816346f943e914611c7757816352ae2879146103125781635535d46114611bfc5781635a0dfe4d14611bad5781635c975abb14611b7d5781635e280f1114611b395781636fc1b31e14611aab57816370a0823114611a67578163715018a6146119fe5781637d25a05e146119d95781637dd0480f14611913578163857749b0146118f75781638da5cb5b146118c257816391d148541461187157816395d89b4114611791578163963efcaa146117565781639f68b9641461173b578163a217fddf1461173b578163a82f143c146116c3578163a9059cbb14611692578163ab99095d1461163d578163b731ea0a146115f5578163b92d0eff14610312578163b98bd0701461130a578163bb0b6a53146112c1578163bc70b35414611254578163bd815db014610fe0578163c272198d14610f47578163c7c7f5b3146109da578163ca5eb5e114610939578163d045a0dc146106f657508063d424388514610668578063d53913931461062d578063d547741f146105e2578063d9afa160146103c9578063dd62ed3e14610383578063e63ab1e914610344578063f2fde38b14610317578063fc0c546a146103125763ff7bd03d146102b8575f80fd5b3461030f57606036600319011261030f5750359063ffffffff8216820361030b5761030060209263ffffffff165f525f80516020613cee83398151915260205260405f205490565b905190602435148152f35b5f80fd5b80fd5b612f52565b503461030f57602036600319011261030f57610341610334612e6a565b61033c613463565b6133f2565b80f35b50823461037f578160031936011261037f57602090517f65d7a28e3265b37a6474929f336521b332c1681b933f6cb9f3376673440d862a8152f35b5080fd5b50823461037f578060031936011261037f576020906103a0612e6a565b6103b16103ab612e80565b9161318d565b9060018060a01b03165f528252805f20549051908152f35b50823461037f5736600319011261030f576001600160401b0382358181116105de576103f89036908501612e4c565b926024358281116105da576104109036908301612e4c565b936104196131c5565b80518381116105c757805f80516020613c6e83398151915292610445826104408654612fad565b612ffb565b602090601f831160011461055a57879261054f575b50508160011b915f199060031b1c19161790555b835191821161053c57505f80516020613cae8339815191529061049a816104958454612fad565b613056565b6020601f82116001146104d3578394829394926104c8575b50508160011b915f199060031b1c191617905580f35b0151905084806104b2565b8284525f80516020613d4e83398151915290601f198316855b8181106105245750958360019596971061050c575b505050811b01905580f35b01515f1960f88460031b161c19169055848080610501565b9192602060018192868b0151815501940192016104ec565b634e487b7160e01b835260419052602482fd5b01519050878061045a565b8488525f80516020613c4e8339815191529250601f198416885b8181106105af5750908460019594939210610597575b505050811b01905561046e565b01515f1960f88460031b161c1916905587808061058a565b92936020600181928786015181550195019301610574565b634e487b7160e01b855260418352602485fd5b8380fd5b8280fd5b5091346105de57806003193601126105de5761062991356106246001610606612e80565b938387525f80516020613d0e8339815191526020528620015461321c565b613372565b5080f35b50823461037f578160031936011261037f57602090517f9f2df0fed2c77648de5860a4cc508cd0818c85b8b8a1ab4ceeef8d981c8956a68152f35b50823461037f57602036600319011261037f5760207fd48d879cef83a1c0bdda516f27b13ddb1b3f8bbac1c9e1511bb2a659c2427760916106a7612e6a565b6106af613463565b7fefb041d771d6daaa55702fff6eb740d63ba559a75d2d1d3e151c78ff2480b60080546001600160a01b0319166001600160a01b039290921691821790559051908152a180f35b8484849261070336612ec3565b50505095929390919430330361092b57908791876020116105de576001600160a01b038435811698610783939061073a81886137df565b6001600160c01b03199691879190358281169160088110610915575b507f000000000000000000000000000000000000000000000000000000000000000092505060c01c6130ed565b9661078d8a61370a565b506107966136e0565b6107a0888d613657565b602882116107ef575b505050505050506107da7fefed6d3500546b29533b128a29e3a94d70788727f0507505ac12eaf2e578fd9c9361370a565b9063ffffffff8351921682526020820152a380f35b888a0135906001600160401b0382168203610911576108719361082961082285604c968f61081c9061370a565b956137f0565b3691612e16565b918b5198899460c01b16602085015263ffffffff60e01b911b16602883015288602c8301526108618151809260208686019101612d1c565b810103602c810186520184612dda565b7f00000000000000000000000000000000000000000000000000000000000000001691823b156105da576108d69289858094895196879586948593633e5ac80960e11b85528401528d6024840152836044840152608060648401526084830190612d3d565b03925af18015610907576108ef575b80808080806107a9565b6108f890612d62565b6109035785876108e5565b8580fd5b84513d84823e3d90fd5b8780fd5b8391925060080360031b1b161686908f80610756565b835163029a949d60e31b8152fd5b82808587346109d65760203660031901126109d657610956612e6a565b61095e613463565b6001600160a01b037f00000000000000000000000000000000000000000000000000000000000000008116803b15610903578592836024928651978895869463ca5eb5e160e01b865216908401525af19081156109cd57506109bd5750f35b6109c690612d62565b61030f5780f35b513d84823e3d90fd5b5050fd5b9291600319915060803683011261030f578235946001600160401b03948587116105de5786850193873603011261037f578060231936011261037f576001600160a01b0391606435838116810361030b57610a336139e4565b50825193610a4085612d89565b5f85525f602080960152606460448a013599013596610a5e8761370a565b99610a676136e0565b63ffffffff809b165f525f8752855f20805490610a956001820192835460028401549060038501549261311e565b8411610f375790610aab84610ae0959493613180565b9055429055610adb7f00000000000000000000000000000000000000000000000000000000000000008092613100565b6130ed565b97808910610f1a57503315610f0357335f525f80516020613c8e833981519152808752855f205490898210610ed257908991335f52885203855f20557f52c63247e1f47db19d5ce0460030c497f067ca4cebf71ba98eeadabe20bace028881540390555f85518981527fddf252ad1be2c89b69c2b068fc378daa952ba7f163c4a11628f55a4df523b3ef883392a3610b788888613a91565b91610b828961370a565b92875192610b8f84612d89565b6024358452898401936044358552610ba56139e4565b505193843403610ebc5790818f93925180610d4d575b5091608097959391879593610bd4610c139c9b9961371b565b90511515938d5197610be589612da4565b1687528d8701528b86015260608501528684015288516302637a4560e41b8152978895869485938401613976565b03927f0000000000000000000000000000000000000000000000000000000000000000165af1918215610d41578192610cd3575b5050819060c097825195610c5a87612d89565b87875285870197808952610c6f84519261370a565b928551931683528087840152848301527f85496b760a4b7f8d66384b9df21b381f5d1b1e79f229a47aaf4c232edc2fe59a60603393a381519681518852848201511684880152015190815190860152015160608401525160808301525160a0820152f35b90915060803d608011610d3a575b610ceb8183612dda565b8101906080818303126105de57835192610d0484612dbf565b815184528582015190898216820361030f575060c09992858593610d2d9389839801520161394e565b8382015291819850610c47565b503d610ce1565b508251903d90823e3d90fd5b9091929350877f0000000000000000000000000000000000000000000000000000000000000000168b5163393f876560e21b81528d818881855afa908115610eb257908a918d91610e74575b5016918215610e64578b808f92938f94610e0d955190858201926323b872dd60e01b84523360248401526044830152606482015260648152610dda81612da4565b519082875af13d15610e5b578d3d610dfd610df482612dfb565b92519283612dda565b81528d81933d92013e5b83613a2e565b8051908d8215159283610e42575b505050610e2c57908f939291610bbb565b846024918c5191635274afe760e01b8352820152fd5b610e529350820181019101613a16565b155f8d81610e1b565b60609150610e07565b8c516329b99a9560e11b81528790fd5b8f8193508092503d8311610eab575b610e8d8183612dda565b81010312610ea757518981168103610ea75789905f610d99565b8b80fd5b503d610e83565b8d513d8e823e3d90fd5b89516304fb820960e51b81523481860152602490fd5b50855163391434e360e21b8152339281019283526020830191909152604082018990529081906060010390fd5b0390fd5b8451634b637e8f60e11b8152908101849052602490fd5b85516371c4efed60e01b8152918201899052602482015260449150fd5b885163a74c1c5f60e01b81528590fd5b50503461030f57602036600319011261030f57829063ffffffff610f69612f2e565b16815280602052209082519060808201908282106001600160401b03831117610fcd575091606091610fc19385528154808252600183015491826020820152600360028501549485898401520154948591015261311e565b82519182526020820152f35b604190634e487b7160e01b5f525260245ffd5b8385849260209360031991858336011261037f576001600160401b039285358481116105da576110139036908801612f7d565b9290845b8481106110ec575050505050825190638e9e709960e01b825280828681335afa9283156110e0578193611067575b505050610eff9151938493638351eea760e01b85528401526024830190612d3d565b909192503d8083853e61107a8185612dda565b83019286818503126105de5780519182116105de570182601f8201121561037f578051916110a783612dfb565b936110b486519586612dda565b83855287848401011161030f575082916110d7918780610eff9796019101612d1c565b90918580611045565b508351903d90823e3d90fd5b8060051b82013561013e198336030181121561125057820161110d8161370a565b6111388c830135809263ffffffff165f525f80516020613cee83398151915260205260405f20541490565b156112165761114b61010083018361378d565b868401356001600160a01b0381169391929084900361124c5761117261012086018661378d565b939092303b1561124857908f9695949392918f8f91815199633411683760e21b8b5263ffffffff6111a28b612f41565b16908b015260248a01528701359081168091036112445787958e979587958e6111ed8f97899760c0996112019860448b015260a08d013560648b015260848a015260e48901916137bf565b9360a48701528584030160c48601526137bf565b03920135305af1801561123a57908791611226575b50506112219061375d565b611017565b61122f90612d62565b61090357858b611216565b89513d89823e3d90fd5b8d80fd5b8c80fd5b8a80fd5b8680fd5b828585346105de5760603660031901126105de57611270612f2e565b90611279612f6c565b93604435906001600160401b03821161030f5750916112a26112bd95926112aa94369101612e96565b92909161380d565b9051918291602083526020830190612d3d565b0390f35b82853461037f57602036600319011261037f576020906113036112e2612f2e565b63ffffffff165f525f80516020613cee83398151915260205260405f205490565b9051908152f35b505091346105de57602091826003193601126105da576001600160401b0392813584811161090357838693611343879336908301612f7d565b909161134d613463565b865b82811061143f575050825194818187018288525283860192848360051b88010195819589925b8584106113a6578a7fbe4864a8e820971c0247f5992e2da559595f7bf076a21cb5928d443d2a13b6748b8b038ca180f35b9091929394959697603f198a82030188528835605e1983360301811215610ea757820163ffffffff6113d782612f41565b1682528681013561ffff811680910361030b578783015283810135601e1982360301811215611248570186810190358581116112485780360382136112485761142f88928392600195606090818a82015201916137bf565b9a01980196959401929190611375565b61146461145e611455838688999a9b979861376b565b8881019061378d565b90613911565b61147b61147282868861376b565b8781019061378d565b63ffffffff61149361148e85898b61376b565b61370a565b168a527f8d2bda5d9f6ffb5796910376005392955773acee5548d0fcdb10e7c264ea00008552878a20856114c885898b61376b565b013561ffff8116809103610ea7575f528552875f20918982116115e2576114ef8354612fad565b90601f918281116115ac575b508b9183116001146115445761152e949392918c9183611539575b50508160011b915f199060031b1c191617905561375d565b95949392919561134f565b013590508c80611516565b838c52868c2091601f1984168d5b89828210611596575050908461152e9796959493921061157d575b505050600190811b01905561375d565b01355f19600384901b60f8161c191690558b808061156d565b6001849682939587013581550195019201611552565b6115d390855f52885f20600585808801821c8301938c89106115d9575b01901c0190612fe5565b8c6114fb565b935082936115c9565b634e487b7160e01b8b526041855260248bfd5b82853461037f578160031936011261037f577fefb041d771d6daaa55702fff6eb740d63ba559a75d2d1d3e151c78ff2480b6005490516001600160a01b039091168152602090f35b82853461037f57602036600319011261037f578060809263ffffffff611661612f2e565b1681528060205220908154916001810154916003600283015492015492815194855260208501528301526060820152f35b82853461037f578060031936011261037f576020906116bc6116b2612e6a565b602435903361356d565b5160018152f35b828585346105de57826003193601126105de576116de613463565b5f80516020613d2e8339815191529081549060ff82161561172d575060ff19169055513381527f5db9ee0a495bf2e6ff9c91a7834c1ba4fdd244a5e8aa4e537bd38aeae4b073aa90602090a180f35b8351638dfc202b60e01b8152fd5b82853461037f578160031936011261037f5751908152602090f35b82853461037f578160031936011261037f57602090517f00000000000000000000000000000000000000000000000000000000000000008152f35b84833461030f578060031936011261030f575080515f915f80516020613cae83398151915280546117c181612fad565b8085529160019180831690811561184957506001146117ff575b5050506117ed826112bd940383612dda565b51918291602083526020830190612d3d565b5f90815294505f80516020613d4e8339815191525b828610611831575050506117ed8260206112bd95820101946117db565b80546020878701810191909152909501948101611814565b6112bd9750869350602092506117ed94915060ff191682840152151560051b820101946117db565b828585346105de57816003193601126105de5781602093611890612e80565b923581525f80516020613d0e8339815191528552209060018060a01b03165f52825260ff815f20541690519015158152f35b82853461037f578160031936011261037f575f80516020613cce8339815191525490516001600160a01b039091168152602090f35b82853461037f578160031936011261037f576020905160068152f35b828585346105de57826003193601126105de577f65d7a28e3265b37a6474929f336521b332c1681b933f6cb9f3376673440d862a805f525f80516020613d0e833981519152602052825f20335f5260205260ff835f205416156119be57837f62e78cea01bee320cd4e420270b5ea74000d11b0c9f74754ebdbfc544b05a25860208561199d6136e0565b5f80516020613d2e833981519152805460ff1916600117905551338152a180f35b604492519163e2517d3f60e01b835233908301526024820152fd5b82853461037f578060031936011261037f57906020916119f7612f2e565b5051908152f35b823461030f578060031936011261030f57611a17613463565b5f80516020613cce83398151915280546001600160a01b031981169091555f906001600160a01b03167f8be0079c531659141344cd1fd0a4f28419497f9722a3daafe3b4186f6b6457e08280a380f35b82853461037f57602036600319011261037f5760209181906001600160a01b03611a8f612e6a565b1681525f80516020613c8e833981519152845220549051908152f35b82853461037f57602036600319011261037f5760207ff0be4f1e87349231d80c36b33f9e8639658eeaf474014dee15a3e6a4d441419791611aea612e6a565b611af2613463565b7f41db8a78b0206aba5c54bcbfc2bda0d84082a84eb88e680379a57b9e9f653c0080546001600160a01b0319166001600160a01b039290921691821790559051908152a180f35b82853461037f578160031936011261037f57517f00000000000000000000000000000000000000000000000000000000000000006001600160a01b03168152602090f35b82853461037f578160031936011261037f5760209060ff5f80516020613d2e833981519152541690519015158152f35b82853461037f578060031936011261037f57602090611bf3611bcd612f2e565b6024359063ffffffff165f525f80516020613cee83398151915260205260405f20541490565b90519015158152f35b84833461030f578160031936011261030f576112bd611c7083611c1d612f2e565b63ffffffff611c2a612f6c565b91165f527f8d2bda5d9f6ffb5796910376005392955773acee5548d0fcdb10e7c264ea000060205261ffff825f2091165f526020526117ed815f208251938480926134dc565b0383612dda565b8385843461030f5760208060031936011261037f578335926001600160401b03948585116105da57366023860112156105da578401359485116105de5760606024818702860101368111611e3a57611ccd6131c5565b825196611cdf858260051b0189612dda565b875283870195602401865b828210611dfd57505050835b8651811015611d815760019063ffffffff80611d12838b6130a4565b515116875286865284872090611d28838b6130a4565b5151165f525f8652845f208054848201805492611d5260029384830154600396878501549261311e565b50905542905587611d63858d6130a4565b5101519083015585611d75848c6130a4565b51015191015501611cf6565b509194909392948451948186019282875251809352808601949387915b848310611dcf57887fe888347665897e637801f36c5129f510657276178c89022bc5fa0246dbc19de18989038aa180f35b8551805163ffffffff1688528085015188860152810151878201529581019594830194600190920191611d9e565b8382360312611250578584918651611e1481612dbf565b611e1d85612f41565b815282850135838201528785013588820152815201910190611cea565b8480fd5b828585346105de57816003193601126105de57611e59612e6a565b917f9f2df0fed2c77648de5860a4cc508cd0818c85b8b8a1ab4ceeef8d981c8956a690815f525f80516020613d0e833981519152602052805f20335f5260205260ff815f20541615611eb2578461034160243586613657565b60449350519163e2517d3f60e01b835233908301526024820152fd5b84939150346105de576003199084823601126105da578235906001600160401b038211611e3a578184019282360301126105da5760243590811515809203611e3a575f60208751611f1e81612d89565b8281520152611f666044610adb606484013593611f3a8761370a565b507f00000000000000000000000000000000000000000000000000000000000000009283910135613100565b90808210612076575091611fea949391611f8c611f84889584613a91565b91909361370a565b925f60208751611f9b81612d89565b8281520152611fa98461371b565b63ffffffff875195611fba87612da4565b168552602085015285840152606083015260808201528251631bb8518b60e31b8152948592839230918401613976565b03817f00000000000000000000000000000000000000000000000000000000000000006001600160a01b03165afa918215610d4157819261203a575b505060208251918051835201516020820152f35b90928092503d831161206f575b6120518183612dda565b81019082818303126105da5761206892935061394e565b8280612026565b503d612047565b86516371c4efed60e01b8152808601929092526024820152604490fd5b5050823461037f578060031936011261037f576120ae612e80565b90336001600160a01b038316036120cb5750610629919235613372565b5163334bd91960e11b81528390fd5b82853461037f578060031936011261037f577f238399d427b947898edb290f5ff0f9109849b1c3ba196a42e35f00c50a54b98b90612116612f2e565b61216160243592612125613463565b63ffffffff831686525f80516020613cee833981519152602052838187205551928392836020909392919363ffffffff60408201951681520152565b0390a180f35b82853461037f578160031936011261037f576020905160128152f35b505091346105de57806003193601126105de5761062991356121a86001610606612e80565b6132e8565b828585346105de5760203660031901126105de57816020936001923581525f80516020613d0e83398151915285522001549051908152f35b50503461030f57606036600319011261030f5750612201612e6a565b612209612e80565b90604435926122178261318d565b335f52602052845f2054905f198203612239575b6020866116bc87878761356d565b8482106122ab576001600160a01b0383161561229557331561227f57509181846116bc9461226a602098979561318d565b335f52885203855f205591939481935061222b565b6024905f875191634a1406b160e11b8352820152fd5b6024905f87519163e602df0560e01b8352820152fd5b8551637dc7a0d960e11b81523391810191825260208201929092526040810185905281906060010390fd5b82853461037f578160031936011261037f576020905160018152f35b82853461037f578160031936011261037f576020907f52c63247e1f47db19d5ce0460030c497f067ca4cebf71ba98eeadabe20bace02549051908152f35b84833461030f578060031936011261030f575080516001815260016020820152f35b84833461030f578060031936011261030f5750805162b9270b60e21b815260016020820152f35b82853461037f578160031936011261037f576020905160028152f35b848484926123a236612ec3565b50505095929390919460018060a01b03807f000000000000000000000000000000000000000000000000000000000000000016923384036125bb576123ee6123e98861370a565b61371b565b60208801358091036125855750908993929189602011611e3a57612462918635169961241a81886137df565b6001600160c01b0319949185919035828116916008811061256f57507f000000000000000000000000000000000000000000000000000000000000000092505060c01c6130ed565b9661246c8a61370a565b506124756136e0565b61247f888d613657565b602882116124b857505050505050506107da7fefed6d3500546b29533b128a29e3a94d70788727f0507505ac12eaf2e578fd9c9361370a565b888a0135906001600160401b03821682036109115761252d936124e561082285604c968f61081c9061370a565b918b5196879460c01b16602085015263ffffffff60e01b911b16602883015288602c83015261251d8151809260208686019101612d1c565b810103602c810184520182612dda565b823b156105da576108d69289858094895196879586948593633e5ac80960e11b85528401528d6024840152836044840152608060648401526084830190612d3d565b8391925060080360031b1b161684908f80610756565b83610eff88926125948b61370a565b935163309afaf360e21b815263ffffffff9094169284019283526020830152829160400190565b85516391ac5e4f60e01b81523381850152602490fd5b82853461037f578160031936011261037f577f41db8a78b0206aba5c54bcbfc2bda0d84082a84eb88e680379a57b9e9f653c005490516001600160a01b039091168152602090f35b849150346105de576003199160203684018113611e3a578535926001600160401b0394858511611250578436030112611e3a575f81835161265981612d89565b82815201525f81835161266b81612d89565b828152015281519161267c83612d89565b858352818301958587528151978389019689881090881117610fcd578683528189526126b76044610adb606489013598611f3a81860161370a565b9580871061275d5750509291908051976126d089612d89565b85895282890195865281519760a0890194518952518389015260a0828901525180935260c0870160c08460051b8901019694915b84831061271f57895160608a0152865160808a015288880389f35b909192939496848061274d60019360bf198d820301875285838d518051845201519181858201520190612d3d565b9901930193019194939290612704565b83516371c4efed60e01b8152918201879052602482015260449150fd5b8385843461030f578160031936011261030f5750612796612e6a565b60243590331561280e576001600160a01b03169081156127f857602093506127bd3361318d565b825f52845280835f205582519081527f8c5be1e5ebec7d5bd14f71427d1e84f3dd0314c0f7b2291e5b200ac8c7c3b925843392a35160018152f35b8251634a1406b160e11b81525f81860152602490fd5b825163e602df0560e01b81525f81860152602490fd5b828585346105de5760603660031901126105de576001600160401b038135818111611e3a576128569036908401612e4c565b6024358281116109035761286d9036908501612e4c565b92604435906001600160a01b0380831690818403612bf4577ff0c57e16840df040f15088dc2f81fe391c3923bec73e23a9662efc9c229c6a009687549660ff888b1c16159681891698891580612bed575b6001809b149081612be3575b159081612bda575b50612bca5767ffffffffffffffff1981168a178b5588612bab575b506128f661349b565b6128fe61349b565b61290661349b565b8051828111612b9857808d5f80516020613c6e8339815191529361292e836104408754612fad565b602091601f8411600114612b2f5792612b24575b50505f19600383901b1c1916908a1b1790555b81519081116115e257805f80516020613cae8339815191529261297c826104958654612fad565b6020908d601f8411600114612abb5792612ab0575b50505f19600383901b1c191690881b1790555b6129ac61349b565b6129b461349b565b6129bc61349b565b8115612aa0579088917f00000000000000000000000000000000000000000000000000000000000000001692833b156105de57602490838a51958694859363ca5eb5e160e01b85528401525af18015612a9657612a81575b50612a3790612a2161349b565b612a2961349b565b612a32816133f2565b61324a565b50612a40578380f35b7fc7f505b2f371ae2175ee4913f4499e1f2633a7b5936321eed1cdaeb6115181d29260209268ff000000000000000019815416905551908152a18180808380f35b95612a8f612a379297612d62565b9590612a14565b86513d89823e3d90fd5b8751632d618d8160e21b81528390fd5b015190508c80612991565b91908b9450601f1984168684525f80516020613d4e833981519152935b818110612b0c57508411612af4575b505050811b0190556129a4565b01515f1960f88460031b161c191690558c8080612ae7565b8284015185558d969094019360209384019301612ad8565b015190508e80612942565b91908d9450601f1984168684525f80516020613c4e833981519152935b818110612b8057508411612b68575b505050811b019055612955565b01515f1960f88460031b161c191690558e8080612b5b565b8284015185558f969094019360209384019301612b4c565b634e487b7160e01b8d526041875260248dfd5b68ffffffffffffffffff191668010000000000000001178a558c6128ed565b8b5163f92ee8a960e01b81528790fd5b9050158e6128d2565b303b1591506128ca565b50886128be565b8880fd5b82853461037f578160031936011261037f57805190825f80516020613c6e83398151915290815490612c2982612fad565b80865292600192808416908115612c9d5750600114612c54575b6112bd86866117ed828b0383612dda565b815294505f80516020613c4e8339815191525b828610612c85575050506117ed8260206112bd958201019486612c43565b80546020878701810191909152909501948101612c67565b90506112bd9750869350602092506117ed94915060ff191682840152151560051b8201019486612c43565b839085346105de5760203660031901126105de573563ffffffff60e01b81168091036105de5760209250637965db0b60e01b8114908115612d0b575b5015158152f35b6301ffc9a760e01b14905083612d04565b5f5b838110612d2d5750505f910152565b8181015183820152602001612d1e565b90602091612d5681518092818552858086019101612d1c565b601f01601f1916010190565b6001600160401b038111612d7557604052565b634e487b7160e01b5f52604160045260245ffd5b604081019081106001600160401b03821117612d7557604052565b60a081019081106001600160401b03821117612d7557604052565b606081019081106001600160401b03821117612d7557604052565b90601f801991011681019081106001600160401b03821117612d7557604052565b6001600160401b038111612d7557601f01601f191660200190565b929192612e2282612dfb565b91612e306040519384612dda565b82948184528183011161030b578281602093845f960137010152565b9080601f8301121561030b57816020612e6793359101612e16565b90565b600435906001600160a01b038216820361030b57565b602435906001600160a01b038216820361030b57565b9181601f8401121561030b578235916001600160401b03831161030b576020838186019501011161030b57565b600319810160e0811261030b5760601361030b57600491606435916001600160401b039060843582811161030b5781612efd918701612e96565b9093909260a4356001600160a01b038116810361030b579260c43591821161030b57612f2a918801612e96565b9091565b6004359063ffffffff8216820361030b57565b359063ffffffff8216820361030b57565b3461030b575f36600319011261030b576020604051308152f35b6024359061ffff8216820361030b57565b9181601f8401121561030b578235916001600160401b03831161030b576020808501948460051b01011161030b57565b90600182811c92168015612fdb575b6020831014612fc757565b634e487b7160e01b5f52602260045260245ffd5b91607f1691612fbc565b818110612ff0575050565b5f8155600101612fe5565b90601f8211613008575050565b61304a915f80516020613c6e8339815191525f525f80516020613c4e833981519152906020601f840160051c8301931061304c575b601f0160051c0190612fe5565b565b909150819061303d565b90601f8211613063575050565b61304a915f80516020613cae8339815191525f525f80516020613d4e833981519152906020601f840160051c8301931061304c57601f0160051c0190612fe5565b80518210156130b85760209160051b010190565b634e487b7160e01b5f52603260045260245ffd5b919082039182116130d957565b634e487b7160e01b5f52601160045260245ffd5b818102929181159184041417156130d957565b811561310a570490565b634e487b7160e01b5f52601260045260245ffd5b9193929061312c90426130cc565b9080821061313c575050505f9190565b61314961314e92866130ed565b613100565b8082116131715750505f915b828082116131685750505f90565b612e67916130cc565b61317a916130cc565b9161315a565b919082018092116130d957565b6001600160a01b03165f9081527f52c63247e1f47db19d5ce0460030c497f067ca4cebf71ba98eeadabe20bace016020526040902090565b335f9081527fb7db2dd08fcb62d0c9e08c51941cae53c267786a0b75803fb7960902fc8ef97d602052604081205460ff16156131fe5750565b6044906040519063e2517d3f60e01b82523360048301526024820152fd5b805f525f80516020613d0e83398151915260205260405f20335f5260205260ff60405f205416156131fe5750565b6001600160a01b03165f8181527fb7db2dd08fcb62d0c9e08c51941cae53c267786a0b75803fb7960902fc8ef97d60205260408120549091905f80516020613d0e8339815191529060ff166132e3578280526020526040822081835260205260408220600160ff1982541617905533917f2f8788117e7eff1d82e926ec794901d17c78024a50270940304540a733656f0d8180a4600190565b505090565b905f918083525f80516020613d0e83398151915280602052604084209260018060a01b03169283855260205260ff604085205416155f1461336c578184526020526040832082845260205260408320600160ff198254161790557f2f8788117e7eff1d82e926ec794901d17c78024a50270940304540a733656f0d339380a4600190565b50505090565b905f918083525f80516020613d0e83398151915280602052604084209260018060a01b03169283855260205260ff6040852054165f1461336c57818452602052604083208284526020526040832060ff1981541690557ff6391f5c32d9c69d2a47ea670b442974b53935d1edc7fd64eb21e047a839171b339380a4600190565b6001600160a01b0390811690811561344b575f80516020613cce83398151915280546001600160a01b031981168417909155167f8be0079c531659141344cd1fd0a4f28419497f9722a3daafe3b4186f6b6457e05f80a3565b604051631e4fbdf760e01b81525f6004820152602490fd5b5f80516020613cce833981519152546001600160a01b0316330361348357565b60405163118cdaa760e01b8152336004820152602490fd5b60ff7ff0c57e16840df040f15088dc2f81fe391c3923bec73e23a9662efc9c229c6a005460401c16156134ca57565b604051631afcd79f60e31b8152600490fd5b905f92918054916134ec83612fad565b9182825260019384811690815f1461354a575060011461350d575b50505050565b90919394505f52602092835f2092845f945b83861061353657505050500101905f808080613507565b80548587018301529401938590820161351f565b9294505050602093945060ff191683830152151560051b0101905f808080613507565b916001600160a01b0380841692831561363f5716928315613627575f908382525f80516020613c8e833981519152806020526040832054918483106135f4575082847fddf252ad1be2c89b69c2b068fc378daa952ba7f163c4a11628f55a4df523b3ef959360409388602097528652038282205586815220818154019055604051908152a3565b60405163391434e360e21b81526001600160a01b0391909116600482015260248101929092525060448101839052606490fd5b60405163ec442f0560e01b81525f6004820152602490fd5b604051634b637e8f60e11b81525f6004820152602490fd5b6001600160a01b0316908115613627577fddf252ad1be2c89b69c2b068fc378daa952ba7f163c4a11628f55a4df523b3ef60205f927f52c63247e1f47db19d5ce0460030c497f067ca4cebf71ba98eeadabe20bace026136b8828254613180565b90558484525f80516020613c8e833981519152825260408420818154019055604051908152a3565b60ff5f80516020613d2e83398151915254166136f857565b60405163d93c066560e01b8152600490fd5b3563ffffffff8116810361030b5790565b63ffffffff16805f525f80516020613cee83398151915260205260405f2054908115613745575090565b6024906040519063f6ff4fb760e01b82526004820152fd5b5f1981146130d95760010190565b91908110156130b85760051b81013590605e198136030182121561030b570190565b903590601e198136030182121561030b57018035906001600160401b03821161030b5760200191813603831361030b57565b908060209392818452848401375f828201840152601f01601f1916010190565b9060281161030b5760200190600890565b909291928360281161030b57831161030b57602801916027190190565b611c709092919263ffffffff5f911681526020937f8d2bda5d9f6ffb5796910376005392955773acee5548d0fcdb10e7c264ea0000855261ffff6040832091168252845261386460408220604051938480926134dc565b8151156139025784156138fa57600285101561389f575050610eff90604051938493639a6d49cd60e01b8552600485015260248401916137bf565b9091936138ac8186613911565b8060021161037f5791612e679391601e9360405196836138d58995518092888089019101612d1c565b8401906001199560028785019201908301370190848201520390810184520182612dda565b509250505090565b50509050612e67913691612e16565b908060021161030b576003823560f01c0361392a575050565b610eff604051928392639a6d49cd60e01b84526020600485015260248401916137bf565b919082604091031261030b5760405161396681612d89565b6020808294805184520151910152565b906020909392936040835263ffffffff815116604084015281810151606084015260806139ca6139b4604084015160a08488015260e0870190612d3d565b6060840151868203603f190160a0880152612d3d565b910151151560c08401526001600160a01b03909416910152565b604051906139f182612dbf565b815f81525f60208201526040805191613a0983612d89565b5f83525f60208401520152565b9081602091031261030b5751801515810361030b5790565b90613a555750805115613a4357805190602001fd5b604051630a12f52160e11b8152600490fd5b81511580613a88575b613a66575090565b604051639996b31560e01b81526001600160a01b039091166004820152602490fd5b50803b15613a5e565b90916020613b56613ac782850135957f000000000000000000000000000000000000000000000000000000000000000090613100565b613ad761082260a087018761378d565b8051158015979190613c1b57613b3191606891604051948592888401526001600160401b0360c01b9060c01b166040830152336048830152613b2181518092898686019101612d1c565b8101036048810184520182612dda565b935b84955f14613c13576002905b6112a2613b4b8261370a565b91608081019061378d565b7f41db8a78b0206aba5c54bcbfc2bda0d84082a84eb88e680379a57b9e9f653c00549093906001600160a01b031680613b8e57505050565b613bbb8391613bcd9360405180958194829363043a78eb60e01b8452604060048501526044840190612d3d565b8281036003190160248401528a612d3d565b03915afa8015613c0857613bdf575050565b81613bfe92903d10613c01575b613bf68183612dda565b810190613a16565b50565b503d613bec565b6040513d5f823e3d90fd5b600190613b3f565b509060405191848301526001600160401b0360c01b9060c01b16604082015260288152613c4781612dbf565b93613b3356fe2ae08a8e29253f69ac5d979a101956ab8f8d9d7ded63fa7a83b16fc47648eab052c63247e1f47db19d5ce0460030c497f067ca4cebf71ba98eeadabe20bace0352c63247e1f47db19d5ce0460030c497f067ca4cebf71ba98eeadabe20bace0052c63247e1f47db19d5ce0460030c497f067ca4cebf71ba98eeadabe20bace049016d09d72d40fdae2fd8ceac6b6234c7706214fd39c1cd1e609a0528c19930072ab1bc1039b79dc4724ffca13de82c96834302d3c7e0d4252232d4b2dd8f90002dd7bc7dec4dceedda775e58dd541e08a116c6c53815c0bd028192f7b626800cd5ed15c6e187e77e9aee88184c21f4f2182ab5827cb3b7e07fbedcd63f0330046a2803e59a4de4e7a4c574b1243f25977ac4c77d5a1a4a609b5394cebb4a2aaa2646970667358221220229e34c1117864243e49ceabc530513974d98397975446eb5455f92caec6825d64736f6c63430008140033",
    "sourcePath": "/Users/jacobfirek/etherfi/weETH-cross-chain/contracts/MintableOFTUpgradeable.sol",
    "compiler": {
        "name": "solc",
        "version": "0.8.20+commit.a1b79de6"
    },
    "functionHashes": {
        "DEFAULT_ADMIN_ROLE()": "a217fddf",
        "MINTER_ROLE()": "d5391393",
        "PAUSER_ROLE()": "e63ab1e9",
        "SEND()": "1f5e1334",
        "SEND_AND_CALL()": "134d4f25",
        "allowInitializePath((uint32,bytes32,uint64))": "ff7bd03d",
        "allowance(address,address)": "dd62ed3e",
        "approvalRequired()": "9f68b964",
        "approve(address,uint256)": "095ea7b3",
        "balanceOf(address)": "70a08231",
        "combineOptions(uint32,uint16,bytes)": "bc70b354",
        "composeMsgSender()": "b92d0eff",
        "decimalConversionRate()": "963efcaa",
        "decimals()": "313ce567",
        "endpoint()": "5e280f11",
        "enforcedOptions(uint32,uint16)": "5535d461",
        "getAmountCanBeSent(uint32)": "c272198d",
        "getRoleAdmin(bytes32)": "248a9ca3",
        "grantRole(bytes32,address)": "2f2ff15d",
        "hasRole(bytes32,address)": "91d14854",
        "initialize(string,string,address)": "077f224a",
        "isPeer(uint32,bytes32)": "5a0dfe4d",
        "lzReceive((uint32,bytes32,uint64),bytes32,bytes,address,bytes)": "13137d65",
        "lzReceiveAndRevert(((uint32,bytes32,uint64),uint32,address,bytes32,uint256,address,bytes,bytes)[])": "bd815db0",
        "lzReceiveSimulate((uint32,bytes32,uint64),bytes32,bytes,address,bytes)": "d045a0dc",
        "mint(address,uint256)": "40c10f19",
        "msgInspector()": "111ecdad",
        "name()": "06fdde03",
        "nextNonce(uint32,bytes32)": "7d25a05e",
        "oApp()": "52ae2879",
        "oAppVersion()": "17442b70",
        "oftVersion()": "156a0d0f",
        "owner()": "8da5cb5b",
        "pauseBridge()": "7dd0480f",
        "paused()": "5c975abb",
        "peers(uint32)": "bb0b6a53",
        "preCrime()": "b731ea0a",
        "quoteOFT((uint32,bytes32,uint256,uint256,bytes,bytes,bytes))": "0d35b415",
        "quoteSend((uint32,bytes32,uint256,uint256,bytes,bytes,bytes),bool)": "3b6f743b",
        "rateLimits(uint32)": "ab99095d",
        "renounceOwnership()": "715018a6",
        "renounceRole(bytes32,address)": "36568abe",
        "revokeRole(bytes32,address)": "d547741f",
        "send((uint32,bytes32,uint256,uint256,bytes,bytes,bytes),(uint256,uint256),address)": "c7c7f5b3",
        "setDelegate(address)": "ca5eb5e1",
        "setEnforcedOptions((uint32,uint16,bytes)[])": "b98bd070",
        "setMsgInspector(address)": "6fc1b31e",
        "setPeer(uint32,bytes32)": "3400288b",
        "setPreCrime(address)": "d4243885",
        "setRateLimits((uint32,uint256,uint256)[])": "46f943e9",
        "sharedDecimals()": "857749b0",
        "supportsInterface(bytes4)": "01ffc9a7",
        "symbol()": "95d89b41",
        "token()": "fc0c546a",
        "totalSupply()": "18160ddd",
        "transfer(address,uint256)": "a9059cbb",
        "transferFrom(address,address,uint256)": "23b872dd",
        "transferOwnership(address)": "f2fde38b",
        "unpauseBridge()": "a82f143c",
        "updateTokenSymbol(string,string)": "d9afa160"
    },
    "gasEstimates": {
        "creation": {
            "codeDepositCost": "3155800",
            "executionCost": "infinite",
            "totalCost": "infinite"
        },
        "external": {
            "DEFAULT_ADMIN_ROLE()": "995",
            "MINTER_ROLE()": "1326",
            "PAUSER_ROLE()": "1414",
            "SEND()": "423",
            "SEND_AND_CALL()": "335",
            "allowInitializePath((uint32,bytes32,uint64))": "infinite",
            "allowance(address,address)": "3836",
            "approvalRequired()": "973",
            "approve(address,uint256)": "24455",
            "balanceOf(address)": "infinite",
            "combineOptions(uint32,uint16,bytes)": "infinite",
            "composeMsgSender()": "1109",
            "decimalConversionRate()": "infinite",
            "decimals()": "511",
            "endpoint()": "infinite",
            "enforcedOptions(uint32,uint16)": "infinite",
            "getAmountCanBeSent(uint32)": "infinite",
            "getRoleAdmin(bytes32)": "infinite",
            "grantRole(bytes32,address)": "infinite",
            "hasRole(bytes32,address)": "infinite",
            "initialize(string,string,address)": "infinite",
            "isPeer(uint32,bytes32)": "infinite",
            "lzReceive((uint32,bytes32,uint64),bytes32,bytes,address,bytes)": "infinite",
            "lzReceiveAndRevert(((uint32,bytes32,uint64),uint32,address,bytes32,uint256,address,bytes,bytes)[])": "infinite",
            "lzReceiveSimulate((uint32,bytes32,uint64),bytes32,bytes,address,bytes)": "infinite",
            "mint(address,uint256)": "infinite",
            "msgInspector()": "2418",
            "name()": "infinite",
            "nextNonce(uint32,bytes32)": "885",
            "oApp()": "647",
            "oAppVersion()": "396",
            "oftVersion()": "380",
            "owner()": "infinite",
            "pauseBridge()": "infinite",
            "paused()": "infinite",
            "peers(uint32)": "infinite",
            "preCrime()": "3210",
            "quoteOFT((uint32,bytes32,uint256,uint256,bytes,bytes,bytes))": "infinite",
            "quoteSend((uint32,bytes32,uint256,uint256,bytes,bytes,bytes),bool)": "infinite",
            "rateLimits(uint32)": "9675",
            "renounceOwnership()": "infinite",
            "renounceRole(bytes32,address)": "29240",
            "revokeRole(bytes32,address)": "infinite",
            "send((uint32,bytes32,uint256,uint256,bytes,bytes,bytes),(uint256,uint256),address)": "infinite",
            "setDelegate(address)": "infinite",
            "setEnforcedOptions((uint32,uint16,bytes)[])": "infinite",
            "setMsgInspector(address)": "infinite",
            "setPeer(uint32,bytes32)": "infinite",
            "setPreCrime(address)": "infinite",
            "setRateLimits((uint32,uint256,uint256)[])": "infinite",
            "sharedDecimals()": "863",
            "supportsInterface(bytes4)": "296",
            "symbol()": "infinite",
            "token()": "1463",
            "totalSupply()": "2507",
            "transfer(address,uint256)": "infinite",
            "transferFrom(address,address,uint256)": "infinite",
            "transferOwnership(address)": "infinite",
            "unpauseBridge()": "infinite",
            "updateTokenSymbol(string,string)": "infinite"
        },
        "internal": {
            "_credit(address,uint256,uint32)": "infinite",
            "_debit(uint256,uint256,uint32)": "infinite",
            "getERC20Storage()": "infinite"
        }
    }
}