{"abi":[{"type":"constructor","inputs":[],"stateMutability":"nonpayable"},{"type":"function","name":"getConversionAmount","inputs":[{"name":"token","type":"address","internalType":"address"},{"name":"amountIn","type":"uint256","internalType":"uint256"}],"outputs":[{"name":"amountOut","type":"uint256","internalType":"uint256"}],"stateMutability":"view"},{"type":"function","name":"getConversionAmountUnsafe","inputs":[{"name":"token","type":"address","internalType":"address"},{"name":"amountIn","type":"uint256","internalType":"uint256"}],"outputs":[{"name":"amountOut","type":"uint256","internalType":"uint256"}],"stateMutability":"view"},{"type":"function","name":"getRateParameters","inputs":[{"name":"token","type":"address","internalType":"address"}],"outputs":[{"name":"parameters","type":"tuple","internalType":"struct IL2ExchangeRateProvider.RateParameters","components":[{"name":"rateOracle","type":"address","internalType":"address"},{"name":"depositFee","type":"uint64","internalType":"uint64"},{"name":"freshPeriod","type":"uint32","internalType":"uint32"}]}],"stateMutability":"view"},{"type":"function","name":"initialize","inputs":[{"name":"owner","type":"address","internalType":"address"}],"outputs":[],"stateMutability":"nonpayable"},{"type":"function","name":"owner","inputs":[],"outputs":[{"name":"","type":"address","internalType":"address"}],"stateMutability":"view"},{"type":"function","name":"renounceOwnership","inputs":[],"outputs":[],"stateMutability":"nonpayable"},{"type":"function","name":"setRateParameters","inputs":[{"name":"token","type":"address","internalType":"address"},{"name":"rateOracle","type":"address","internalType":"address"},{"name":"depositFee","type":"uint64","internalType":"uint64"},{"name":"freshPeriod","type":"uint32","internalType":"uint32"}],"outputs":[],"stateMutability":"nonpayable"},{"type":"function","name":"transferOwnership","inputs":[{"name":"newOwner","type":"address","internalType":"address"}],"outputs":[],"stateMutability":"nonpayable"},{"type":"event","name":"Initialized","inputs":[{"name":"version","type":"uint64","indexed":false,"internalType":"uint64"}],"anonymous":false},{"type":"event","name":"OwnershipTransferred","inputs":[{"name":"previousOwner","type":"address","indexed":true,"internalType":"address"},{"name":"newOwner","type":"address","indexed":true,"internalType":"address"}],"anonymous":false},{"type":"event","name":"RateParametersSet","inputs":[{"name":"token","type":"address","indexed":false,"internalType":"address"},{"name":"rateOracle","type":"address","indexed":false,"internalType":"address"},{"name":"depositFee","type":"uint64","indexed":false,"internalType":"uint64"},{"name":"freshPeriod","type":"uint32","indexed":false,"internalType":"uint32"}],"anonymous":false},{"type":"error","name":"EtherfiL2ExchangeRateProvider__InvalidRate","inputs":[]},{"type":"error","name":"InvalidInitialization","inputs":[]},{"type":"error","name":"L2ExchangeRateProvider__DepositFeeExceedsMax","inputs":[]},{"type":"error","name":"L2ExchangeRateProvider__NoRateOracle","inputs":[]},{"type":"error","name":"L2ExchangeRateProvider__OutdatedRate","inputs":[]},{"type":"error","name":"NotInitializing","inputs":[]},{"type":"error","name":"OwnableInvalidOwner","inputs":[{"name":"owner","type":"address","internalType":"address"}]},{"type":"error","name":"OwnableUnauthorizedAccount","inputs":[{"name":"account","type":"address","internalType":"address"}]}],"bytecode":{"object":"0x608060405234801561000f575f80fd5b5061001861001d565b6100cf565b7ff0c57e16840df040f15088dc2f81fe391c3923bec73e23a9662efc9c229c6a00805468010000000000000000900460ff161561006d5760405163f92ee8a960e01b815260040160405180910390fd5b80546001600160401b03908116146100cc5780546001600160401b0319166001600160401b0390811782556040519081527fc7f505b2f371ae2175ee4913f4499e1f2633a7b5936321eed1cdaeb6115181d29060200160405180910390a15b50565b610b74806100dc5f395ff3fe608060405234801561000f575f80fd5b5060043610610085575f3560e01c8063715018a611610058578063715018a6146101975780638da5cb5b1461019f578063c4d66de8146101d9578063f2fde38b146101ec575f80fd5b806308c35649146100895780630f9566e6146100af57806316089ef9146100c457806323643524146100d7575b5f80fd5b61009c61009736600461088a565b6101ff565b6040519081526020015b60405180910390f35b6100c26100bd3660046108b2565b610319565b005b61009c6100d236600461088a565b610333565b61015c6100e536600461091b565b60408051606080820183525f80835260208084018290529284018190526001600160a01b0394851681525f80516020610b1f833981519152835283902083519182018452549384168152600160a01b840467ffffffffffffffff1691810191909152600160e01b90920463ffffffff169082015290565b6040805182516001600160a01b0316815260208084015167ffffffffffffffff16908201529181015163ffffffff16908201526060016100a6565b6100c26103a6565b7f9016d09d72d40fdae2fd8ceac6b6234c7706214fd39c1cd1e609a0528c199300546040516001600160a01b0390911681526020016100a6565b6100c26101e736600461091b565b6103b9565b6100c26101fa36600461091b565b6104c7565b5f805f80516020610b1f8339815191526001600160a01b038086165f908152602083905260409020805492935091168061024c57604051633d9ecf6560e11b815260040160405180910390fd5b5f806102588389610509565b85549193509150429061027890600160e01b900463ffffffff168361094f565b1015610297576040516334360deb60e11b815260040160405180910390fd5b5f670de0b6b3a76400006102ac600182610962565b86546102c990600160a01b900467ffffffffffffffff168b610975565b6102d3919061094f565b6102dd919061098c565b90505f6102ea828a610962565b9050836102ff670de0b6b3a764000083610975565b610309919061098c565b9750505050505050505b92915050565b61032161062b565b61032d84848484610686565b50505050565b5f805f80516020610b1f8339815191526001600160a01b038086165f908152602083905260409020805492935091168061038057604051633d9ecf6560e11b815260040160405180910390fd5b5f8061038c8389610509565b90925090505f670de0b6b3a76400006102ac600182610962565b6103ae61062b565b6103b75f61079d565b565b7ff0c57e16840df040f15088dc2f81fe391c3923bec73e23a9662efc9c229c6a008054600160401b810460ff16159067ffffffffffffffff165f811580156103fe5750825b90505f8267ffffffffffffffff16600114801561041a5750303b155b905081158015610428575080155b156104465760405163f92ee8a960e01b815260040160405180910390fd5b845467ffffffffffffffff19166001178555831561047057845460ff60401b1916600160401b1785555b6104798661080d565b83156104bf57845460ff60401b19168555604051600181527fc7f505b2f371ae2175ee4913f4499e1f2633a7b5936321eed1cdaeb6115181d29060200160405180910390a15b505050505050565b6104cf61062b565b6001600160a01b0381166104fd57604051631e4fbdf760e01b81525f60048201526024015b60405180910390fd5b6105068161079d565b50565b5f805f80856001600160a01b031663feaf968c6040518163ffffffff1660e01b815260040160a060405180830381865afa158015610549573d5f803e3d5ffd5b505050506040513d601f19601f8201168201806040525081019061056d91906109c4565b509350509250505f82136105945760405163797d2bbf60e11b815260040160405180910390fd5b5f866001600160a01b031663313ce5676040518163ffffffff1660e01b8152600401602060405180830381865afa1580156105d1573d5f803e3d5ffd5b505050506040513d601f19601f820116820180604052508101906105f59190610a10565b905061060281600a610b10565b61061484670de0b6b3a7640000610975565b61061e919061098c565b9791965090945050505050565b3361065d7f9016d09d72d40fdae2fd8ceac6b6234c7706214fd39c1cd1e609a0528c199300546001600160a01b031690565b6001600160a01b0316146103b75760405163118cdaa760e01b81523360048201526024016104f4565b670de0b6b3a76400008267ffffffffffffffff1611156106b9576040516381b20be960e01b815260040160405180910390fd5b60408051606080820183526001600160a01b0386811680845267ffffffffffffffff878116602080870182815263ffffffff8a8116898b018181528f89165f8181525f80516020610b1f833981519152808852908e90209c518d54965193519b166001600160e01b031990961695909517600160a01b9290981691909102969096176001600160e01b0316600160e01b98909216979097021790975587519283528201929092529485015290830152907fe32dd0e1ba6b23ac15f09a0c455561d7dbc2ad9b22f20259edfd397ae8ca85169060800160405180910390a15050505050565b7f9016d09d72d40fdae2fd8ceac6b6234c7706214fd39c1cd1e609a0528c19930080546001600160a01b031981166001600160a01b03848116918217845560405192169182907f8be0079c531659141344cd1fd0a4f28419497f9722a3daafe3b4186f6b6457e0905f90a3505050565b61081561081e565b61050681610867565b7ff0c57e16840df040f15088dc2f81fe391c3923bec73e23a9662efc9c229c6a0054600160401b900460ff166103b757604051631afcd79f60e31b815260040160405180910390fd5b6104cf61081e565b80356001600160a01b0381168114610885575f80fd5b919050565b5f806040838503121561089b575f80fd5b6108a48361086f565b946020939093013593505050565b5f805f80608085870312156108c5575f80fd5b6108ce8561086f565b93506108dc6020860161086f565b9250604085013567ffffffffffffffff811681146108f8575f80fd5b9150606085013563ffffffff81168114610910575f80fd5b939692955090935050565b5f6020828403121561092b575f80fd5b6109348261086f565b9392505050565b634e487b7160e01b5f52601160045260245ffd5b808201808211156103135761031361093b565b818103818111156103135761031361093b565b80820281158282048414176103135761031361093b565b5f826109a657634e487b7160e01b5f52601260045260245ffd5b500490565b805169ffffffffffffffffffff81168114610885575f80fd5b5f805f805f60a086880312156109d8575f80fd5b6109e1866109ab565b9450602086015193506040860151925060608601519150610a04608087016109ab565b90509295509295909350565b5f60208284031215610a20575f80fd5b815160ff81168114610934575f80fd5b600181815b80851115610a6a57815f1904821115610a5057610a5061093b565b80851615610a5d57918102915b93841c9390800290610a35565b509250929050565b5f82610a8057506001610313565b81610a8c57505f610313565b8160018114610aa25760028114610aac57610ac8565b6001915050610313565b60ff841115610abd57610abd61093b565b50506001821b610313565b5060208310610133831016604e8410600b8410161715610aeb575081810a610313565b610af58383610a30565b805f1904821115610b0857610b0861093b565b029392505050565b5f61093460ff841683610a7256fee04a73ceb6eb109286b5315cfafd156065d9e3fbfa5269d3606a1b3095f3ad00a264697066735822122027ff2d17f4bf0560ccf123bbb47a3a5d0381f8b79495bf185e2cb8a1eb8ffa2164736f6c63430008140033","linkReferences":{}},"methodIdentifiers":{"getConversionAmount(address,uint256)":"08c35649","getConversionAmountUnsafe(address,uint256)":"16089ef9","getRateParameters(address)":"23643524","initialize(address)":"c4d66de8","owner()":"8da5cb5b","renounceOwnership()":"715018a6","setRateParameters(address,address,uint64,uint32)":"0f9566e6","transferOwnership(address)":"f2fde38b"},"id":8}