{"abi":[{"type":"constructor","inputs":[{"name":"endpoint","type":"address","internalType":"address"}],"stateMutability":"nonpayable"},{"type":"function","name":"allowInitializePath","inputs":[{"name":"origin","type":"tuple","internalType":"struct Origin","components":[{"name":"srcEid","type":"uint32","internalType":"uint32"},{"name":"sender","type":"bytes32","internalType":"bytes32"},{"name":"nonce","type":"uint64","internalType":"uint64"}]}],"outputs":[{"name":"","type":"bool","internalType":"bool"}],"stateMutability":"view"},{"type":"function","name":"composeMsgSender","inputs":[],"outputs":[{"name":"sender","type":"address","internalType":"address"}],"stateMutability":"view"},{"type":"function","name":"endpoint","inputs":[],"outputs":[{"name":"","type":"address","internalType":"contract ILayerZeroEndpointV2"}],"stateMutability":"view"},{"type":"function","name":"getDummyToken","inputs":[{"name":"originEid","type":"uint32","internalType":"uint32"}],"outputs":[{"name":"","type":"address","internalType":"address"}],"stateMutability":"view"},{"type":"function","name":"getEEth","inputs":[],"outputs":[{"name":"","type":"address","internalType":"address"}],"stateMutability":"view"},{"type":"function","name":"getLiquifier","inputs":[],"outputs":[{"name":"","type":"address","internalType":"address"}],"stateMutability":"view"},{"type":"function","name":"getLockBox","inputs":[],"outputs":[{"name":"","type":"address","internalType":"address"}],"stateMutability":"view"},{"type":"function","name":"getReceiver","inputs":[{"name":"originEid","type":"uint32","internalType":"uint32"}],"outputs":[{"name":"","type":"address","internalType":"address"}],"stateMutability":"view"},{"type":"function","name":"getTokenOut","inputs":[],"outputs":[{"name":"","type":"address","internalType":"address"}],"stateMutability":"view"},{"type":"function","name":"getTotalUnbackedTokens","inputs":[],"outputs":[{"name":"","type":"uint256","internalType":"uint256"}],"stateMutability":"view"},{"type":"function","name":"initialize","inputs":[{"name":"liquifier","type":"address","internalType":"address"},{"name":"eEth","type":"address","internalType":"address"},{"name":"tokenOut","type":"address","internalType":"address"},{"name":"lockBox","type":"address","internalType":"address"},{"name":"owner","type":"address","internalType":"address"}],"outputs":[],"stateMutability":"nonpayable"},{"type":"function","name":"lzReceive","inputs":[{"name":"origin","type":"tuple","internalType":"struct Origin","components":[{"name":"srcEid","type":"uint32","internalType":"uint32"},{"name":"sender","type":"bytes32","internalType":"bytes32"},{"name":"nonce","type":"uint64","internalType":"uint64"}]},{"name":"guid","type":"bytes32","internalType":"bytes32"},{"name":"message","type":"bytes","internalType":"bytes"},{"name":"executor","type":"address","internalType":"address"},{"name":"extraData","type":"bytes","internalType":"bytes"}],"outputs":[],"stateMutability":"payable"},{"type":"function","name":"nextNonce","inputs":[{"name":"","type":"uint32","internalType":"uint32"},{"name":"","type":"bytes32","internalType":"bytes32"}],"outputs":[{"name":"nonce","type":"uint64","internalType":"uint64"}],"stateMutability":"view"},{"type":"function","name":"oAppVersion","inputs":[],"outputs":[{"name":"senderVersion","type":"uint64","internalType":"uint64"},{"name":"receiverVersion","type":"uint64","internalType":"uint64"}],"stateMutability":"view"},{"type":"function","name":"onMessageReceived","inputs":[{"name":"originEid","type":"uint32","internalType":"uint32"},{"name":"guid","type":"bytes32","internalType":"bytes32"},{"name":"tokenIn","type":"address","internalType":"address"},{"name":"amountIn","type":"uint256","internalType":"uint256"},{"name":"amountOut","type":"uint256","internalType":"uint256"}],"outputs":[],"stateMutability":"payable"},{"type":"function","name":"owner","inputs":[],"outputs":[{"name":"","type":"address","internalType":"address"}],"stateMutability":"view"},{"type":"function","name":"peers","inputs":[{"name":"_eid","type":"uint32","internalType":"uint32"}],"outputs":[{"name":"","type":"bytes32","internalType":"bytes32"}],"stateMutability":"view"},{"type":"function","name":"renounceOwnership","inputs":[],"outputs":[],"stateMutability":"nonpayable"},{"type":"function","name":"setDelegate","inputs":[{"name":"_delegate","type":"address","internalType":"address"}],"outputs":[],"stateMutability":"nonpayable"},{"type":"function","name":"setDummyToken","inputs":[{"name":"originEid","type":"uint32","internalType":"uint32"},{"name":"dummyToken","type":"address","internalType":"address"}],"outputs":[],"stateMutability":"nonpayable"},{"type":"function","name":"setEEth","inputs":[{"name":"eEth","type":"address","internalType":"address"}],"outputs":[],"stateMutability":"nonpayable"},{"type":"function","name":"setLiquifier","inputs":[{"name":"liquifier","type":"address","internalType":"address"}],"outputs":[],"stateMutability":"nonpayable"},{"type":"function","name":"setLockBox","inputs":[{"name":"lockBox","type":"address","internalType":"address"}],"outputs":[],"stateMutability":"nonpayable"},{"type":"function","name":"setPeer","inputs":[{"name":"_eid","type":"uint32","internalType":"uint32"},{"name":"_peer","type":"bytes32","internalType":"bytes32"}],"outputs":[],"stateMutability":"nonpayable"},{"type":"function","name":"setReceiver","inputs":[{"name":"originEid","type":"uint32","internalType":"uint32"},{"name":"receiver","type":"address","internalType":"address"}],"outputs":[],"stateMutability":"nonpayable"},{"type":"function","name":"setTokenOut","inputs":[{"name":"tokenOut","type":"address","internalType":"address"}],"outputs":[],"stateMutability":"nonpayable"},{"type":"function","name":"sweep","inputs":[{"name":"token","type":"address","internalType":"address"},{"name":"receiver","type":"address","internalType":"address"},{"name":"amount","type":"uint256","internalType":"uint256"}],"outputs":[],"stateMutability":"nonpayable"},{"type":"function","name":"transferOwnership","inputs":[{"name":"newOwner","type":"address","internalType":"address"}],"outputs":[],"stateMutability":"nonpayable"},{"type":"event","name":"DummyTokenSet","inputs":[{"name":"originEid","type":"uint32","indexed":false,"internalType":"uint32"},{"name":"dummyToken","type":"address","indexed":false,"internalType":"address"}],"anonymous":false},{"type":"event","name":"EEthSet","inputs":[{"name":"eEth","type":"address","indexed":false,"internalType":"address"}],"anonymous":false},{"type":"event","name":"Fee","inputs":[{"name":"originEid","type":"uint32","indexed":true,"internalType":"uint32"},{"name":"guid","type":"bytes32","indexed":false,"internalType":"bytes32"},{"name":"actualAmountOut","type":"uint256","indexed":false,"internalType":"uint256"},{"name":"expectedAmountOut","type":"uint256","indexed":false,"internalType":"uint256"},{"name":"fee","type":"uint256","indexed":false,"internalType":"uint256"}],"anonymous":false},{"type":"event","name":"Initialized","inputs":[{"name":"version","type":"uint64","indexed":false,"internalType":"uint64"}],"anonymous":false},{"type":"event","name":"InsufficientDeposit","inputs":[{"name":"originEid","type":"uint32","indexed":true,"internalType":"uint32"},{"name":"guid","type":"bytes32","indexed":false,"internalType":"bytes32"},{"name":"actualAmountOut","type":"uint256","indexed":false,"internalType":"uint256"},{"name":"expectedAmountOut","type":"uint256","indexed":false,"internalType":"uint256"},{"name":"unbackedTokens","type":"uint256","indexed":false,"internalType":"uint256"}],"anonymous":false},{"type":"event","name":"LiquifierSet","inputs":[{"name":"liquifier","type":"address","indexed":false,"internalType":"address"}],"anonymous":false},{"type":"event","name":"LockBoxSet","inputs":[{"name":"lockBox","type":"address","indexed":false,"internalType":"address"}],"anonymous":false},{"type":"event","name":"OwnershipTransferred","inputs":[{"name":"previousOwner","type":"address","indexed":true,"internalType":"address"},{"name":"newOwner","type":"address","indexed":true,"internalType":"address"}],"anonymous":false},{"type":"event","name":"PeerSet","inputs":[{"name":"eid","type":"uint32","indexed":false,"internalType":"uint32"},{"name":"peer","type":"bytes32","indexed":false,"internalType":"bytes32"}],"anonymous":false},{"type":"event","name":"ReceiverSet","inputs":[{"name":"originEid","type":"uint32","indexed":true,"internalType":"uint32"},{"name":"receiver","type":"address","indexed":false,"internalType":"address"}],"anonymous":false},{"type":"event","name":"Sweep","inputs":[{"name":"token","type":"address","indexed":false,"internalType":"address"},{"name":"receiver","type":"address","indexed":false,"internalType":"address"},{"name":"amount","type":"uint256","indexed":false,"internalType":"uint256"}],"anonymous":false},{"type":"event","name":"TokenOutSet","inputs":[{"name":"tokenOut","type":"address","indexed":false,"internalType":"address"}],"anonymous":false},{"type":"error","name":"AddressEmptyCode","inputs":[{"name":"target","type":"address","internalType":"address"}]},{"type":"error","name":"AddressInsufficientBalance","inputs":[{"name":"account","type":"address","internalType":"address"}]},{"type":"error","name":"EtherfiL1SyncPoolETH__InvalidAmountIn","inputs":[]},{"type":"error","name":"EtherfiL1SyncPoolETH__OnlyETH","inputs":[]},{"type":"error","name":"EtherfiL1SyncPoolETH__UnsetDummyToken","inputs":[]},{"type":"error","name":"FailedInnerCall","inputs":[]},{"type":"error","name":"InvalidDelegate","inputs":[]},{"type":"error","name":"InvalidEndpointCall","inputs":[]},{"type":"error","name":"InvalidInitialization","inputs":[]},{"type":"error","name":"L1BaseSyncPool__NativeTransferFailed","inputs":[]},{"type":"error","name":"L1BaseSyncPool__UnauthorizedCaller","inputs":[]},{"type":"error","name":"NoPeer","inputs":[{"name":"eid","type":"uint32","internalType":"uint32"}]},{"type":"error","name":"NotInitializing","inputs":[]},{"type":"error","name":"OnlyEndpoint","inputs":[{"name":"addr","type":"address","internalType":"address"}]},{"type":"error","name":"OnlyPeer","inputs":[{"name":"eid","type":"uint32","internalType":"uint32"},{"name":"sender","type":"bytes32","internalType":"bytes32"}]},{"type":"error","name":"OwnableInvalidOwner","inputs":[{"name":"owner","type":"address","internalType":"address"}]},{"type":"error","name":"OwnableUnauthorizedAccount","inputs":[{"name":"account","type":"address","internalType":"address"}]},{"type":"error","name":"ReentrancyGuardReentrantCall","inputs":[]},{"type":"error","name":"SafeERC20FailedOperation","inputs":[{"name":"token","type":"address","internalType":"address"}]}],"bytecode":{"object":"0x60a060405234801561000f575f80fd5b50604051611ec2380380611ec283398101604081905261002e9161003f565b6001600160a01b031660805261006c565b5f6020828403121561004f575f80fd5b81516001600160a01b0381168114610065575f80fd5b9392505050565b608051611e306100925f395f818161036501528181610a4a0152610c0d0152611e305ff3fe6080604052600436106101af575f3560e01c80637d25a05e116100e7578063bbff8ff611610087578063d084251211610062578063d08425121461054a578063dbe1f0001461057d578063f2fde38b1461059c578063ff7bd03d146105bb575f80fd5b8063bbff8ff6146104f0578063c158910d1461050c578063ca5eb5e11461052b575f80fd5b80638c6894fb116100c25780638c6894fb146104305780638da5cb5b1461046c578063b92d0eff14610480578063bb0b6a5314610492575f80fd5b80637d25a05e146103ba57806386dc6e9a146103f257806389f8cf2414610411575f80fd5b80633400288b116101525780635b6988bd1161012d5780635b6988bd1461031a5780635e280f111461035457806362c0676714610387578063715018a6146103a6575f80fd5b80633400288b1461028e5780633c78fe07146102ad5780634423c7ab14610306575f80fd5b80631459457a1161018d5780631459457a146101fa57806317442b70146102195780631df006071461023e5780632d8c80391461026f575f80fd5b806309f37812146101b357806313137d65146101d4578063141fb08a146101e7575b5f80fd5b3480156101be575f80fd5b506101d26101cd366004611a56565b6105ea565b005b6101d26101e2366004611ae6565b610600565b6101d26101f5366004611b7f565b610636565b348015610205575f80fd5b506101d2610214366004611bcb565b6106d4565b348015610224575f80fd5b50604080515f815260016020820152015b60405180910390f35b348015610249575f80fd5b506001546001600160a01b03165b6040516001600160a01b039091168152602001610235565b34801561027a575f80fd5b506101d2610289366004611c38565b610803565b348015610299575f80fd5b506101d26102a8366004611c53565b610817565b3480156102b8575f80fd5b506102576102c7366004611c7b565b63ffffffff165f9081527fd96cd964f71a052084af61290ff53294a8f76de4d8f66ba7682fe6598635ef0360205260409020546001600160a01b031690565b348015610311575f80fd5b50610257610895565b348015610325575f80fd5b50610257610334366004611c7b565b63ffffffff165f908152600260205260409020546001600160a01b031690565b34801561035f575f80fd5b506102577f000000000000000000000000000000000000000000000000000000000000000081565b348015610392575f80fd5b506101d26103a1366004611c94565b6108b6565b3480156103b1575f80fd5b506101d26109ac565b3480156103c5575f80fd5b506103d96103d4366004611c53565b6109bf565b60405167ffffffffffffffff9091168152602001610235565b3480156103fd575f80fd5b506101d261040c366004611a56565b6109c7565b34801561041c575f80fd5b506101d261042b366004611c38565b6109d9565b34801561043b575f80fd5b507fd96cd964f71a052084af61290ff53294a8f76de4d8f66ba7682fe6598635ef01546001600160a01b0316610257565b348015610477575f80fd5b506102576109ea565b34801561048b575f80fd5b5030610257565b34801561049d575f80fd5b506104e26104ac366004611c7b565b63ffffffff165f9081527f72ab1bc1039b79dc4724ffca13de82c96834302d3c7e0d4252232d4b2dd8f900602052604090205490565b604051908152602001610235565b3480156104fb575f80fd5b505f546001600160a01b0316610257565b348015610517575f80fd5b506101d2610526366004611c38565b610a12565b348015610536575f80fd5b506101d2610545366004611c38565b610a23565b348015610555575f80fd5b507fd96cd964f71a052084af61290ff53294a8f76de4d8f66ba7682fe6598635ef02546104e2565b348015610588575f80fd5b506101d2610597366004611c38565b610a9d565b3480156105a7575f80fd5b506101d26105b6366004611c38565b610aae565b3480156105c6575f80fd5b506105da6105d5366004611cd2565b610aed565b6040519015158152602001610235565b6105f2610b0a565b6105fc8282610b3c565b5050565b610608610bd4565b61061787878787878787610c0b565b61062d60015f80516020611ddb83398151915255565b50505050505050565b61063e610bd4565b63ffffffff85165f9081527fd96cd964f71a052084af61290ff53294a8f76de4d8f66ba7682fe6598635ef0360205260409020545f80516020611dbb833981519152906001600160a01b031633146106a957604051636ced1c5960e01b815260040160405180910390fd5b6106b68686868686610cd0565b506106cd60015f80516020611ddb83398151915255565b5050505050565b7ff0c57e16840df040f15088dc2f81fe391c3923bec73e23a9662efc9c229c6a008054600160401b810460ff16159067ffffffffffffffff165f811580156107195750825b90505f8267ffffffffffffffff1660011480156107355750303b155b905081158015610743575080155b156107615760405163f92ee8a960e01b815260040160405180910390fd5b845467ffffffffffffffff19166001178555831561078b57845460ff60401b1916600160401b1785555b610796888888610ebf565b61079f86610ee7565b6107a88a610ef8565b6107b189610f4c565b83156107f757845460ff60401b19168555604051600181527fc7f505b2f371ae2175ee4913f4499e1f2633a7b5936321eed1cdaeb6115181d29060200160405180910390a15b50505050505050505050565b61080b610b0a565b61081481610f9a565b50565b61081f610b0a565b63ffffffff82165f8181527f72ab1bc1039b79dc4724ffca13de82c96834302d3c7e0d4252232d4b2dd8f900602081815260409283902085905582519384528301849052917f238399d427b947898edb290f5ff0f9109849b1c3ba196a42e35f00c50a54b98b91015b60405180910390a1505050565b5f805f80516020611dbb8339815191525b546001600160a01b031692915050565b6108be610b0a565b73eeeeeeeeeeeeeeeeeeeeeeeeeeeeeeeeeeeeeeed196001600160a01b03841601610959575f826001600160a01b0316826040515f6040518083038185875af1925050503d805f811461092c576040519150601f19603f3d011682016040523d82523d5f602084013e610931565b606091505b505090508061095357604051634a18641b60e01b815260040160405180910390fd5b50610964565b61096483838361101e565b604080516001600160a01b038086168252841660208201529081018290527fed679328aebf74ede77ae09efcf36e90244f83643dadac1c2d9f0b21a46f6ab790606001610888565b6109b4610b0a565b6109bd5f611070565b565b5f5b92915050565b6109cf610b0a565b6105fc82826110e0565b6109e1610b0a565b61081481610ef8565b5f807f9016d09d72d40fdae2fd8ceac6b6234c7706214fd39c1cd1e609a0528c1993006108a6565b610a1a610b0a565b61081481611145565b610a2b610b0a565b60405163ca5eb5e160e01b81526001600160a01b0382811660048301527f0000000000000000000000000000000000000000000000000000000000000000169063ca5eb5e1906024015f604051808303815f87803b158015610a8b575f80fd5b505af11580156106cd573d5f803e3d5ffd5b610aa5610b0a565b61081481610f4c565b610ab6610b0a565b6001600160a01b038116610ae457604051631e4fbdf760e01b81525f60048201526024015b60405180910390fd5b61081481611070565b5f60208201803590610b03906104ac9085611c7b565b1492915050565b33610b136109ea565b6001600160a01b0316146109bd5760405163118cdaa760e01b8152336004820152602401610adb565b63ffffffff82165f8181527fd96cd964f71a052084af61290ff53294a8f76de4d8f66ba7682fe6598635ef03602090815260409182902080546001600160a01b0319166001600160a01b038616908117909155825190815291515f80516020611dbb83398151915293927f91a78db8b70a6d450735b196f83bc5ea6c8b5ce7ac516d8a774daa0bbdb7727e92908290030190a2505050565b5f80516020611ddb833981519152805460011901610c0557604051633ee5aeb560e01b815260040160405180910390fd5b60029055565b7f00000000000000000000000000000000000000000000000000000000000000006001600160a01b03163314610c56576040516391ac5e4f60e01b8152336004820152602401610adb565b60208701803590610c7090610c6b908a611c7b565b61119e565b14610cae57610c826020880188611c7b565b60405163309afaf360e21b815263ffffffff909116600482015260208801356024820152604401610adb565b61062d87878787878787611201565b60015f80516020611ddb83398151915255565b6001600160a01b03831673eeeeeeeeeeeeeeeeeeeeeeeeeeeeeeeeeeeeeeee14610d0d5760405163427aa7f760e01b815260040160405180910390fd5b348214610d2d57604051630d288b4d60e01b815260040160405180910390fd5b5f805463ffffffff8716825260026020526040909120546001600160a01b03918216911680610d6f5760405163053ee76960e31b815260040160405180910390fd5b6040516370a0823160e01b81526001600160a01b0383811660048301525f91908316906370a0823190602401602060405180830381865afa158015610db6573d5f803e3d5ffd5b505050506040513d601f19601f82011682018060405250810190610dda9190611cec565b9050475f828211610deb5781610ded565b825b604051630b42efdf60e21b81526001600160a01b03868116600483015291925090861690632d0bbf7c90839060240160206040518083038185885af1158015610e38573d5f803e3d5ffd5b50505050506040513d601f19601f82011682018060405250810190610e5d9190611cec565b50604051630852cd8d60e31b8152600481018290526001600160a01b038516906342966c68906024015f604051808303815f87803b158015610e9d575f80fd5b505af1158015610eaf573d5f803e3d5ffd5b5050505050505050505050505050565b610ec7611258565b610ecf6112a1565b610ed8816112b1565b610ee283836112c2565b505050565b610eef611258565b610814816112dc565b5f80546001600160a01b0319166001600160a01b0383169081179091556040519081527fae89cc546a32817df9e4d341f457b8ed8e6978ead08b129c47dd36a5a25314a9906020015b60405180910390a150565b600180546001600160a01b0319166001600160a01b0383169081179091556040519081527f3775f769836afe879aa3c9566e0e76c7319f2c89727ed1d1c872d67eead2ff4390602001610f41565b7fd96cd964f71a052084af61290ff53294a8f76de4d8f66ba7682fe6598635ef0180546001600160a01b0319166001600160a01b0383169081179091556040519081525f80516020611dbb833981519152907fa0d5e8b51197b9b55e3cab7ce2df1d6e544a83b48bce8b14e28ae6b8d7923da9906020015b60405180910390a15050565b604080516001600160a01b038416602482015260448082018490528251808303909101815260649091019091526020810180516001600160e01b031663a9059cbb60e01b179052610ee29084906112e4565b7f9016d09d72d40fdae2fd8ceac6b6234c7706214fd39c1cd1e609a0528c19930080546001600160a01b031981166001600160a01b03848116918217845560405192169182907f8be0079c531659141344cd1fd0a4f28419497f9722a3daafe3b4186f6b6457e0905f90a3505050565b63ffffffff82165f8181526002602090815260409182902080546001600160a01b0319166001600160a01b0386169081179091558251938452908301527fd40853e1a2bd39892d9b328c8a345de047a40d40b6b1c1220206a13a55f3d0459101611012565b5f80516020611dbb83398151915280546001600160a01b0319166001600160a01b03831690811782556040519081527f911ee1e2b03817cdb041d13f742d20850bfa79a83a1748a1b13bfc492ad5ba6090602001611012565b63ffffffff81165f9081527f72ab1bc1039b79dc4724ffca13de82c96834302d3c7e0d4252232d4b2dd8f90060208190526040822054806111fa5760405163f6ff4fb760e01b815263ffffffff85166004820152602401610adb565b9392505050565b5f808061121087890189611d03565b919450925090505f61123161122860208d018d611c7b565b8b868686611345565b905061124b61124360208d018d611c7b565b8b838561174a565b5050505050505050505050565b7ff0c57e16840df040f15088dc2f81fe391c3923bec73e23a9662efc9c229c6a0054600160401b900460ff166109bd57604051631afcd79f60e31b815260040160405180910390fd5b6112a9611258565b6109bd6118f1565b6112b9611258565b610814816118f9565b6112ca611258565b6112d382611145565b6105fc81610f9a565b610ab6611258565b5f6112f86001600160a01b03841683611928565b905080515f1415801561131c57508080602001905181019061131a9190611d35565b155b15610ee257604051635274afe760e01b81526001600160a01b0384166004820152602401610adb565b5f6001600160a01b03841673eeeeeeeeeeeeeeeeeeeeeeeeeeeeeeeeeeeeeeee146113835760405163427aa7f760e01b815260040160405180910390fd5b5f61138c610895565b5f805463ffffffff8a16825260026020526040909120549192506001600160a01b039081169116806113d15760405163053ee76960e31b815260040160405180910390fd5b6040516370a0823160e01b81523060048201525f906001600160a01b038516906370a0823190602401602060405180830381865afa158015611415573d5f803e3d5ffd5b505050506040513d601f19601f820116820180604052508101906114399190611cec565b6040516340c10f1960e01b8152306004820152602481018990529091506001600160a01b038316906340c10f19906044015f604051808303815f87803b158015611481575f80fd5b505af1158015611493573d5f803e3d5ffd5b505060405163095ea7b360e01b81526001600160a01b038681166004830152602482018b90528516925063095ea7b391506044016020604051808303815f875af11580156114e3573d5f803e3d5ffd5b505050506040513d601f19601f820116820180604052508101906115079190611d35565b50604051632dbc21bd60e21b81526001600160a01b038381166004830152602482018990525f604483015284169063b6f086f4906064016020604051808303815f875af115801561155a573d5f803e3d5ffd5b505050506040513d601f19601f8201168201806040525081019061157e9190611cec565b506001546040516370a0823160e01b81523060048201525f916001600160a01b0316906370a0823190602401602060405180830381865afa1580156115c5573d5f803e3d5ffd5b505050506040513d601f19601f820116820180604052508101906115e99190611cec565b60015460405163095ea7b360e01b81526001600160a01b0388811660048301526024820184905292935091169063095ea7b3906044016020604051808303815f875af115801561163b573d5f803e3d5ffd5b505050506040513d601f19601f8201168201806040525081019061165f9190611d35565b50604051630ea598cb60e41b8152600481018290526001600160a01b0386169063ea598cb0906024016020604051808303815f875af11580156116a4573d5f803e3d5ffd5b505050506040513d601f19601f820116820180604052508101906116c89190611cec565b506040516370a0823160e01b815230600482015282906001600160a01b038716906370a0823190602401602060405180830381865afa15801561170d573d5f803e3d5ffd5b505050506040513d601f19601f820116820180604052508101906117319190611cec565b61173b9190611d68565b9b9a5050505050505050505050565b5f5f80516020611dbb833981519152805460028201546040516370a0823160e01b81523060048201529293506001600160a01b03909116915f9083906370a0823190602401602060405180830381865afa1580156117aa573d5f803e3d5ffd5b505050506040513d601f19601f820116820180604052508101906117ce9190611cec565b90505f6117db8387611d7b565b90505f818310156117fc5750816117f28183611d68565b600287015561180b565b5080831561180b575f60028701555b86881015611877575f61181e8989611d68565b604080518c8152602081018c90529081018a90526060810182905290915063ffffffff8c16907fa089f492661ec30f616b1832904023bf44486a5bc56e729fc89bcd0b804cb5269060800160405180910390a2506118d7565b5f611882888a611d68565b604080518c8152602081018c90529081018a90526060810182905290915063ffffffff8c16907ffb0c5352582a29d48fc4633bcde5055e28e653e2332400344eb55a3c5337af879060800160405180910390a2505b60018601546107f79086906001600160a01b03168361101e565b610cbd611258565b611901611258565b6001600160a01b038116610a2b57604051632d618d8160e21b815260040160405180910390fd5b60606111fa83835f845f80856001600160a01b0316848660405161194c9190611d8e565b5f6040518083038185875af1925050503d805f8114611986576040519150601f19603f3d011682016040523d82523d5f602084013e61198b565b606091505b509150915061199b8683836119a5565b9695505050505050565b6060826119ba576119b582611a01565b6111fa565b81511580156119d157506001600160a01b0384163b155b156119fa57604051639996b31560e01b81526001600160a01b0385166004820152602401610adb565b50806111fa565b805115611a115780518082602001fd5b604051630a12f52160e11b815260040160405180910390fd5b803563ffffffff81168114611a3d575f80fd5b919050565b6001600160a01b0381168114610814575f80fd5b5f8060408385031215611a67575f80fd5b611a7083611a2a565b91506020830135611a8081611a42565b809150509250929050565b5f60608284031215611a9b575f80fd5b50919050565b5f8083601f840112611ab1575f80fd5b50813567ffffffffffffffff811115611ac8575f80fd5b602083019150836020828501011115611adf575f80fd5b9250929050565b5f805f805f805f60e0888a031215611afc575f80fd5b611b068989611a8b565b965060608801359550608088013567ffffffffffffffff80821115611b29575f80fd5b611b358b838c01611aa1565b909750955060a08a01359150611b4a82611a42565b90935060c08901359080821115611b5f575f80fd5b50611b6c8a828b01611aa1565b989b979a50959850939692959293505050565b5f805f805f60a08688031215611b93575f80fd5b611b9c86611a2a565b9450602086013593506040860135611bb381611a42565b94979396509394606081013594506080013592915050565b5f805f805f60a08688031215611bdf575f80fd5b8535611bea81611a42565b94506020860135611bfa81611a42565b93506040860135611c0a81611a42565b92506060860135611c1a81611a42565b91506080860135611c2a81611a42565b809150509295509295909350565b5f60208284031215611c48575f80fd5b81356111fa81611a42565b5f8060408385031215611c64575f80fd5b611c6d83611a2a565b946020939093013593505050565b5f60208284031215611c8b575f80fd5b6111fa82611a2a565b5f805f60608486031215611ca6575f80fd5b8335611cb181611a42565b92506020840135611cc181611a42565b929592945050506040919091013590565b5f60608284031215611ce2575f80fd5b6111fa8383611a8b565b5f60208284031215611cfc575f80fd5b5051919050565b5f805f60608486031215611d15575f80fd5b8335611d2081611a42565b95602085013595506040909401359392505050565b5f60208284031215611d45575f80fd5b815180151581146111fa575f80fd5b634e487b7160e01b5f52601160045260245ffd5b818103818111156109c1576109c1611d54565b808201808211156109c1576109c1611d54565b5f82515f5b81811015611dad5760208186018101518583015201611d93565b505f92019182525091905056fed96cd964f71a052084af61290ff53294a8f76de4d8f66ba7682fe6598635ef009b779b17422d0df92223018b32b4d1fa46e071723d6817e2486d003becc55f00a2646970667358221220a2464a6512fd54bdda407c4a83b757e85b8eee4264bdc2fe49367b4082c64cfb64736f6c63430008140033","linkReferences":{}},"methodIdentifiers":{"allowInitializePath((uint32,bytes32,uint64))":"ff7bd03d","composeMsgSender()":"b92d0eff","endpoint()":"5e280f11","getDummyToken(uint32)":"5b6988bd","getEEth()":"1df00607","getLiquifier()":"bbff8ff6","getLockBox()":"8c6894fb","getReceiver(uint32)":"3c78fe07","getTokenOut()":"4423c7ab","getTotalUnbackedTokens()":"d0842512","initialize(address,address,address,address,address)":"1459457a","lzReceive((uint32,bytes32,uint64),bytes32,bytes,address,bytes)":"13137d65","nextNonce(uint32,bytes32)":"7d25a05e","oAppVersion()":"17442b70","onMessageReceived(uint32,bytes32,address,uint256,uint256)":"141fb08a","owner()":"8da5cb5b","peers(uint32)":"bb0b6a53","renounceOwnership()":"715018a6","setDelegate(address)":"ca5eb5e1","setDummyToken(uint32,address)":"86dc6e9a","setEEth(address)":"dbe1f000","setLiquifier(address)":"89f8cf24","setLockBox(address)":"2d8c8039","setPeer(uint32,bytes32)":"3400288b","setReceiver(uint32,address)":"09f37812","setTokenOut(address)":"c158910d","sweep(address,address,uint256)":"62c06767","transferOwnership(address)":"f2fde38b"},"id":7}