{"abi":[{"type":"function","name":"_getDeadUln","inputs":[],"outputs":[{"name":"","type":"bytes","internalType":"bytes"}],"stateMutability":"pure"},{"type":"function","name":"_getExpectedUln","inputs":[{"name":"lzDvn","type":"address","internalType":"address"},{"name":"nethermindDvn","type":"address","internalType":"address"}],"outputs":[{"name":"","type":"bytes","internalType":"bytes"}],"stateMutability":"pure"},{"type":"function","name":"_toBytes32","inputs":[{"name":"addr","type":"address","internalType":"address"}],"outputs":[{"name":"","type":"bytes32","internalType":"bytes32"}],"stateMutability":"pure"},{"type":"function","name":"getEnforcedOptions","inputs":[{"name":"_eid","type":"uint32","internalType":"uint32"}],"outputs":[{"name":"","type":"tuple[]","internalType":"struct EnforcedOptionParam[]","components":[{"name":"eid","type":"uint32","internalType":"uint32"},{"name":"msgType","type":"uint16","internalType":"uint16"},{"name":"options","type":"bytes","internalType":"bytes"}]}],"stateMutability":"view"},{"type":"error","name":"InvalidOptionType","inputs":[{"name":"optionType","type":"uint16","internalType":"uint16"}]},{"type":"error","name":"SafeCastOverflowedUintDowncast","inputs":[{"name":"bits","type":"uint8","internalType":"uint8"},{"name":"value","type":"uint256","internalType":"uint256"}]}],"bytecode":{"object":"0x608060405234801561000f575f80fd5b506109238061001d5f395ff3fe608060405234801561000f575f80fd5b506004361061004a575f3560e01c806304d901421461004e5780633ee4df391461007b5780634be534bc14610090578063d4bcd026146100b0575b5f80fd5b61006861005c366004610619565b6001600160a01b031690565b6040519081526020015b60405180910390f35b6100836100c3565b604051610072919061067f565b6100a361009e366004610691565b610172565b60405161007291906106b4565b6100836100be36600461073b565b6102a3565b6040805160018082528183019092526060915f91906020808301908036833701905050905061dead815f815181106100fd576100fd61076c565b6001600160a01b03929092166020928302919091018201526040805160c0810182528181526001818401525f81830181905260608201819052608082018590528251908152808401835260a08201529051909161015c918391016107c2565b6040516020818303038152906040529250505090565b60408051600280825260608281019093525f9190816020015b60408051606080820183525f80835260208301529181019190915281526020019060019003908161018b5750506040805160608101825263ffffffff8616815260016020820152919250810161020c620f42405f61020560408051600360f01b602082015281516002818303018152602290910190915290565b919061041b565b815250815f815181106102215761022161076c565b602002602001018190525060405180606001604052808463ffffffff168152602001600261ffff16815260200161027c620f42405f61020560408051600360f01b602082015281516002818303018152602290910190915290565b815250816001815181106102925761029261076c565b602090810291909101015292915050565b60408051600280825260608083018452925f929190602083019080368337019050509050826001600160a01b0316846001600160a01b0316111561034d5782815f815181106102f4576102f461076c565b60200260200101906001600160a01b031690816001600160a01b03168152505083816001815181106103285761032861076c565b60200260200101906001600160a01b031690816001600160a01b0316815250506103b5565b83815f815181106103605761036061076c565b60200260200101906001600160a01b031690816001600160a01b03168152505082816001815181106103945761039461076c565b60200260200101906001600160a01b031690816001600160a01b0316815250505b6040805160c08101825281815260026020808301919091525f82840181905260608301819052608083018590528351908152808201845260a083015291519091610401918391016107c2565b604051602081830303815290604052925050505b92915050565b606083600361042a825f610485565b61ffff16146104625761043d815f610485565b604051633a51740d60e01b815261ffff90911660048201526024015b60405180910390fd5b5f61046d85856104e1565b905061047b86600183610563565b9695505050505050565b5f610491826002610852565b835110156104d85760405162461bcd60e51b8152602060048201526014602482015273746f55696e7431365f6f75744f66426f756e647360601b6044820152606401610459565b50016002015190565b60606fffffffffffffffffffffffffffffffff82161561053257604080516001600160801b0319608086811b8216602084015285901b1660308201520160405160208183030381529060405261055c565b6040516001600160801b0319608085901b1660208201526030016040516020818303038152906040525b9392505050565b6060836003610572825f610485565b61ffff16146105855761043d815f610485565b84600161059285516105cc565b61059d906001610865565b86866040516020016105b3959493929190610887565b6040516020818303038152906040529150509392505050565b5f61ffff8211156105fa576040516306dfcc6560e41b81526010600482015260248101839052604401610459565b5090565b80356001600160a01b0381168114610614575f80fd5b919050565b5f60208284031215610629575f80fd5b61055c826105fe565b5f5b8381101561064c578181015183820152602001610634565b50505f910152565b5f815180845261066b816020860160208601610632565b601f01601f19169290920160200192915050565b602081525f61055c6020830184610654565b5f602082840312156106a1575f80fd5b813563ffffffff8116811461055c575f80fd5b5f6020808301818452808551808352604092508286019150828160051b8701018488015f5b8381101561072d57888303603f190185528151805163ffffffff1684528781015161ffff1688850152860151606087850181905261071981860183610654565b9689019694505050908601906001016106d9565b509098975050505050505050565b5f806040838503121561074c575f80fd5b610755836105fe565b9150610763602084016105fe565b90509250929050565b634e487b7160e01b5f52603260045260245ffd5b5f8151808452602080850194508084015f5b838110156107b75781516001600160a01b031687529582019590820190600101610792565b509495945050505050565b6020815267ffffffffffffffff825116602082015260ff602083015116604082015260ff604083015116606082015260ff60608301511660808201525f608083015160c060a084015261081860e0840182610780565b905060a0840151601f198483030160c08501526108358282610780565b95945050505050565b634e487b7160e01b5f52601160045260245ffd5b808201808211156104155761041561083e565b61ffff8181168382160190808211156108805761088061083e565b5092915050565b5f8651610898818460208b01610632565b6001600160f81b031960f888811b82169285019283526001600160f01b031960f089901b16600184015286901b16600382015283516108de816004840160208801610632565b0160040197965050505050505056fea264697066735822122017d49ef55cace6bcd3ca7006126963abf5a47c326e91a0d381a6707a84b052c364736f6c63430008140033","linkReferences":{}},"methodIdentifiers":{"_getDeadUln()":"3ee4df39","_getExpectedUln(address,address)":"d4bcd026","_toBytes32(address)":"04d90142","getEnforcedOptions(uint32)":"4be534bc"},"id":150}