{"abi":[{"type":"constructor","inputs":[{"name":"_name","type":"string","internalType":"string"},{"name":"_symbol","type":"string","internalType":"string"},{"name":"_lzEndpoint","type":"address","internalType":"address"},{"name":"_initialOwner","type":"address","internalType":"address"},{"name":"_targetOFTAdapter","type":"address","internalType":"address"}],"stateMutability":"nonpayable"},{"type":"function","name":"DST_EID","inputs":[],"outputs":[{"name":"","type":"uint32","internalType":"uint32"}],"stateMutability":"view"},{"type":"function","name":"SEND","inputs":[],"outputs":[{"name":"","type":"uint16","internalType":"uint16"}],"stateMutability":"view"},{"type":"function","name":"SEND_AND_CALL","inputs":[],"outputs":[{"name":"","type":"uint16","internalType":"uint16"}],"stateMutability":"view"},{"type":"function","name":"TARGET_OFT_ADAPTER","inputs":[],"outputs":[{"name":"","type":"address","internalType":"address"}],"stateMutability":"view"},{"type":"function","name":"_toBytes32","inputs":[{"name":"addr","type":"address","internalType":"address"}],"outputs":[{"name":"","type":"bytes32","internalType":"bytes32"}],"stateMutability":"pure"},{"type":"function","name":"allowInitializePath","inputs":[{"name":"origin","type":"tuple","internalType":"struct Origin","components":[{"name":"srcEid","type":"uint32","internalType":"uint32"},{"name":"sender","type":"bytes32","internalType":"bytes32"},{"name":"nonce","type":"uint64","internalType":"uint64"}]}],"outputs":[{"name":"","type":"bool","internalType":"bool"}],"stateMutability":"view"},{"type":"function","name":"allowance","inputs":[{"name":"owner","type":"address","internalType":"address"},{"name":"spender","type":"address","internalType":"address"}],"outputs":[{"name":"","type":"uint256","internalType":"uint256"}],"stateMutability":"view"},{"type":"function","name":"approvalRequired","inputs":[],"outputs":[{"name":"","type":"bool","internalType":"bool"}],"stateMutability":"pure"},{"type":"function","name":"approve","inputs":[{"name":"spender","type":"address","internalType":"address"},{"name":"value","type":"uint256","internalType":"uint256"}],"outputs":[{"name":"","type":"bool","internalType":"bool"}],"stateMutability":"nonpayable"},{"type":"function","name":"balanceOf","inputs":[{"name":"account","type":"address","internalType":"address"}],"outputs":[{"name":"","type":"uint256","internalType":"uint256"}],"stateMutability":"view"},{"type":"function","name":"combineOptions","inputs":[{"name":"_eid","type":"uint32","internalType":"uint32"},{"name":"_msgType","type":"uint16","internalType":"uint16"},{"name":"_extraOptions","type":"bytes","internalType":"bytes"}],"outputs":[{"name":"","type":"bytes","internalType":"bytes"}],"stateMutability":"view"},{"type":"function","name":"decimalConversionRate","inputs":[],"outputs":[{"name":"","type":"uint256","internalType":"uint256"}],"stateMutability":"view"},{"type":"function","name":"decimals","inputs":[],"outputs":[{"name":"","type":"uint8","internalType":"uint8"}],"stateMutability":"view"},{"type":"function","name":"endpoint","inputs":[],"outputs":[{"name":"","type":"address","internalType":"contract ILayerZeroEndpointV2"}],"stateMutability":"view"},{"type":"function","name":"enforcedOptions","inputs":[{"name":"eid","type":"uint32","internalType":"uint32"},{"name":"msgType","type":"uint16","internalType":"uint16"}],"outputs":[{"name":"enforcedOption","type":"bytes","internalType":"bytes"}],"stateMutability":"view"},{"type":"function","name":"isComposeMsgSender","inputs":[{"name":"","type":"tuple","internalType":"struct Origin","components":[{"name":"srcEid","type":"uint32","internalType":"uint32"},{"name":"sender","type":"bytes32","internalType":"bytes32"},{"name":"nonce","type":"uint64","internalType":"uint64"}]},{"name":"","type":"bytes","internalType":"bytes"},{"name":"_sender","type":"address","internalType":"address"}],"outputs":[{"name":"","type":"bool","internalType":"bool"}],"stateMutability":"view"},{"type":"function","name":"isPeer","inputs":[{"name":"_eid","type":"uint32","internalType":"uint32"},{"name":"_peer","type":"bytes32","internalType":"bytes32"}],"outputs":[{"name":"","type":"bool","internalType":"bool"}],"stateMutability":"view"},{"type":"function","name":"lzReceive","inputs":[{"name":"_origin","type":"tuple","internalType":"struct Origin","components":[{"name":"srcEid","type":"uint32","internalType":"uint32"},{"name":"sender","type":"bytes32","internalType":"bytes32"},{"name":"nonce","type":"uint64","internalType":"uint64"}]},{"name":"_guid","type":"bytes32","internalType":"bytes32"},{"name":"_message","type":"bytes","internalType":"bytes"},{"name":"_executor","type":"address","internalType":"address"},{"name":"_extraData","type":"bytes","internalType":"bytes"}],"outputs":[],"stateMutability":"payable"},{"type":"function","name":"lzReceiveAndRevert","inputs":[{"name":"_packets","type":"tuple[]","internalType":"struct InboundPacket[]","components":[{"name":"origin","type":"tuple","internalType":"struct Origin","components":[{"name":"srcEid","type":"uint32","internalType":"uint32"},{"name":"sender","type":"bytes32","internalType":"bytes32"},{"name":"nonce","type":"uint64","internalType":"uint64"}]},{"name":"dstEid","type":"uint32","internalType":"uint32"},{"name":"receiver","type":"address","internalType":"address"},{"name":"guid","type":"bytes32","internalType":"bytes32"},{"name":"value","type":"uint256","internalType":"uint256"},{"name":"executor","type":"address","internalType":"address"},{"name":"message","type":"bytes","internalType":"bytes"},{"name":"extraData","type":"bytes","internalType":"bytes"}]}],"outputs":[],"stateMutability":"payable"},{"type":"function","name":"lzReceiveSimulate","inputs":[{"name":"_origin","type":"tuple","internalType":"struct Origin","components":[{"name":"srcEid","type":"uint32","internalType":"uint32"},{"name":"sender","type":"bytes32","internalType":"bytes32"},{"name":"nonce","type":"uint64","internalType":"uint64"}]},{"name":"_guid","type":"bytes32","internalType":"bytes32"},{"name":"_message","type":"bytes","internalType":"bytes"},{"name":"_executor","type":"address","internalType":"address"},{"name":"_extraData","type":"bytes","internalType":"bytes"}],"outputs":[],"stateMutability":"payable"},{"type":"function","name":"msgInspector","inputs":[],"outputs":[{"name":"","type":"address","internalType":"address"}],"stateMutability":"view"},{"type":"function","name":"name","inputs":[],"outputs":[{"name":"","type":"string","internalType":"string"}],"stateMutability":"view"},{"type":"function","name":"nextNonce","inputs":[{"name":"","type":"uint32","internalType":"uint32"},{"name":"","type":"bytes32","internalType":"bytes32"}],"outputs":[{"name":"nonce","type":"uint64","internalType":"uint64"}],"stateMutability":"view"},{"type":"function","name":"oApp","inputs":[],"outputs":[{"name":"","type":"address","internalType":"address"}],"stateMutability":"view"},{"type":"function","name":"oAppVersion","inputs":[],"outputs":[{"name":"senderVersion","type":"uint64","internalType":"uint64"},{"name":"receiverVersion","type":"uint64","internalType":"uint64"}],"stateMutability":"pure"},{"type":"function","name":"oftVersion","inputs":[],"outputs":[{"name":"interfaceId","type":"bytes4","internalType":"bytes4"},{"name":"version","type":"uint64","internalType":"uint64"}],"stateMutability":"pure"},{"type":"function","name":"owner","inputs":[],"outputs":[{"name":"","type":"address","internalType":"address"}],"stateMutability":"view"},{"type":"function","name":"peers","inputs":[{"name":"eid","type":"uint32","internalType":"uint32"}],"outputs":[{"name":"peer","type":"bytes32","internalType":"bytes32"}],"stateMutability":"view"},{"type":"function","name":"preCrime","inputs":[],"outputs":[{"name":"","type":"address","internalType":"address"}],"stateMutability":"view"},{"type":"function","name":"quoteMigrationMessage","inputs":[{"name":"_amount","type":"uint256","internalType":"uint256"}],"outputs":[{"name":"","type":"uint256","internalType":"uint256"}],"stateMutability":"view"},{"type":"function","name":"quoteOFT","inputs":[{"name":"_sendParam","type":"tuple","internalType":"struct SendParam","components":[{"name":"dstEid","type":"uint32","internalType":"uint32"},{"name":"to","type":"bytes32","internalType":"bytes32"},{"name":"amountLD","type":"uint256","internalType":"uint256"},{"name":"minAmountLD","type":"uint256","internalType":"uint256"},{"name":"extraOptions","type":"bytes","internalType":"bytes"},{"name":"composeMsg","type":"bytes","internalType":"bytes"},{"name":"oftCmd","type":"bytes","internalType":"bytes"}]}],"outputs":[{"name":"oftLimit","type":"tuple","internalType":"struct OFTLimit","components":[{"name":"minAmountLD","type":"uint256","internalType":"uint256"},{"name":"maxAmountLD","type":"uint256","internalType":"uint256"}]},{"name":"oftFeeDetails","type":"tuple[]","internalType":"struct OFTFeeDetail[]","components":[{"name":"feeAmountLD","type":"int256","internalType":"int256"},{"name":"description","type":"string","internalType":"string"}]},{"name":"oftReceipt","type":"tuple","internalType":"struct OFTReceipt","components":[{"name":"amountSentLD","type":"uint256","internalType":"uint256"},{"name":"amountReceivedLD","type":"uint256","internalType":"uint256"}]}],"stateMutability":"view"},{"type":"function","name":"quoteSend","inputs":[{"name":"_sendParam","type":"tuple","internalType":"struct SendParam","components":[{"name":"dstEid","type":"uint32","internalType":"uint32"},{"name":"to","type":"bytes32","internalType":"bytes32"},{"name":"amountLD","type":"uint256","internalType":"uint256"},{"name":"minAmountLD","type":"uint256","internalType":"uint256"},{"name":"extraOptions","type":"bytes","internalType":"bytes"},{"name":"composeMsg","type":"bytes","internalType":"bytes"},{"name":"oftCmd","type":"bytes","internalType":"bytes"}]},{"name":"_payInLzToken","type":"bool","internalType":"bool"}],"outputs":[{"name":"msgFee","type":"tuple","internalType":"struct MessagingFee","components":[{"name":"nativeFee","type":"uint256","internalType":"uint256"},{"name":"lzTokenFee","type":"uint256","internalType":"uint256"}]}],"stateMutability":"view"},{"type":"function","name":"renounceOwnership","inputs":[],"outputs":[],"stateMutability":"nonpayable"},{"type":"function","name":"send","inputs":[{"name":"_sendParam","type":"tuple","internalType":"struct SendParam","components":[{"name":"dstEid","type":"uint32","internalType":"uint32"},{"name":"to","type":"bytes32","internalType":"bytes32"},{"name":"amountLD","type":"uint256","internalType":"uint256"},{"name":"minAmountLD","type":"uint256","internalType":"uint256"},{"name":"extraOptions","type":"bytes","internalType":"bytes"},{"name":"composeMsg","type":"bytes","internalType":"bytes"},{"name":"oftCmd","type":"bytes","internalType":"bytes"}]},{"name":"_fee","type":"tuple","internalType":"struct MessagingFee","components":[{"name":"nativeFee","type":"uint256","internalType":"uint256"},{"name":"lzTokenFee","type":"uint256","internalType":"uint256"}]},{"name":"_refundAddress","type":"address","internalType":"address"}],"outputs":[{"name":"msgReceipt","type":"tuple","internalType":"struct MessagingReceipt","components":[{"name":"guid","type":"bytes32","internalType":"bytes32"},{"name":"nonce","type":"uint64","internalType":"uint64"},{"name":"fee","type":"tuple","internalType":"struct MessagingFee","components":[{"name":"nativeFee","type":"uint256","internalType":"uint256"},{"name":"lzTokenFee","type":"uint256","internalType":"uint256"}]}]},{"name":"oftReceipt","type":"tuple","internalType":"struct OFTReceipt","components":[{"name":"amountSentLD","type":"uint256","internalType":"uint256"},{"name":"amountReceivedLD","type":"uint256","internalType":"uint256"}]}],"stateMutability":"payable"},{"type":"function","name":"sendMigrationMessage","inputs":[{"name":"_amount","type":"uint256","internalType":"uint256"}],"outputs":[],"stateMutability":"payable"},{"type":"function","name":"setDelegate","inputs":[{"name":"_delegate","type":"address","internalType":"address"}],"outputs":[],"stateMutability":"nonpayable"},{"type":"function","name":"setEnforcedOptions","inputs":[{"name":"_enforcedOptions","type":"tuple[]","internalType":"struct EnforcedOptionParam[]","components":[{"name":"eid","type":"uint32","internalType":"uint32"},{"name":"msgType","type":"uint16","internalType":"uint16"},{"name":"options","type":"bytes","internalType":"bytes"}]}],"outputs":[],"stateMutability":"nonpayable"},{"type":"function","name":"setMsgInspector","inputs":[{"name":"_msgInspector","type":"address","internalType":"address"}],"outputs":[],"stateMutability":"nonpayable"},{"type":"function","name":"setPeer","inputs":[{"name":"_eid","type":"uint32","internalType":"uint32"},{"name":"_peer","type":"bytes32","internalType":"bytes32"}],"outputs":[],"stateMutability":"nonpayable"},{"type":"function","name":"setPreCrime","inputs":[{"name":"_preCrime","type":"address","internalType":"address"}],"outputs":[],"stateMutability":"nonpayable"},{"type":"function","name":"sharedDecimals","inputs":[],"outputs":[{"name":"","type":"uint8","internalType":"uint8"}],"stateMutability":"pure"},{"type":"function","name":"symbol","inputs":[],"outputs":[{"name":"","type":"string","internalType":"string"}],"stateMutability":"view"},{"type":"function","name":"token","inputs":[],"outputs":[{"name":"","type":"address","internalType":"address"}],"stateMutability":"view"},{"type":"function","name":"totalSupply","inputs":[],"outputs":[{"name":"","type":"uint256","internalType":"uint256"}],"stateMutability":"view"},{"type":"function","name":"transfer","inputs":[{"name":"to","type":"address","internalType":"address"},{"name":"value","type":"uint256","internalType":"uint256"}],"outputs":[{"name":"","type":"bool","internalType":"bool"}],"stateMutability":"nonpayable"},{"type":"function","name":"transferFrom","inputs":[{"name":"from","type":"address","internalType":"address"},{"name":"to","type":"address","internalType":"address"},{"name":"value","type":"uint256","internalType":"uint256"}],"outputs":[{"name":"","type":"bool","internalType":"bool"}],"stateMutability":"nonpayable"},{"type":"function","name":"transferOwnership","inputs":[{"name":"newOwner","type":"address","internalType":"address"}],"outputs":[],"stateMutability":"nonpayable"},{"type":"event","name":"Approval","inputs":[{"name":"owner","type":"address","indexed":true,"internalType":"address"},{"name":"spender","type":"address","indexed":true,"internalType":"address"},{"name":"value","type":"uint256","indexed":false,"internalType":"uint256"}],"anonymous":false},{"type":"event","name":"EnforcedOptionSet","inputs":[{"name":"_enforcedOptions","type":"tuple[]","indexed":false,"internalType":"struct EnforcedOptionParam[]","components":[{"name":"eid","type":"uint32","internalType":"uint32"},{"name":"msgType","type":"uint16","internalType":"uint16"},{"name":"options","type":"bytes","internalType":"bytes"}]}],"anonymous":false},{"type":"event","name":"MsgInspectorSet","inputs":[{"name":"inspector","type":"address","indexed":false,"internalType":"address"}],"anonymous":false},{"type":"event","name":"OFTReceived","inputs":[{"name":"guid","type":"bytes32","indexed":true,"internalType":"bytes32"},{"name":"srcEid","type":"uint32","indexed":false,"internalType":"uint32"},{"name":"toAddress","type":"address","indexed":true,"internalType":"address"},{"name":"amountReceivedLD","type":"uint256","indexed":false,"internalType":"uint256"}],"anonymous":false},{"type":"event","name":"OFTSent","inputs":[{"name":"guid","type":"bytes32","indexed":true,"internalType":"bytes32"},{"name":"dstEid","type":"uint32","indexed":false,"internalType":"uint32"},{"name":"fromAddress","type":"address","indexed":true,"internalType":"address"},{"name":"amountSentLD","type":"uint256","indexed":false,"internalType":"uint256"},{"name":"amountReceivedLD","type":"uint256","indexed":false,"internalType":"uint256"}],"anonymous":false},{"type":"event","name":"OwnershipTransferred","inputs":[{"name":"previousOwner","type":"address","indexed":true,"internalType":"address"},{"name":"newOwner","type":"address","indexed":true,"internalType":"address"}],"anonymous":false},{"type":"event","name":"PeerSet","inputs":[{"name":"eid","type":"uint32","indexed":false,"internalType":"uint32"},{"name":"peer","type":"bytes32","indexed":false,"internalType":"bytes32"}],"anonymous":false},{"type":"event","name":"PreCrimeSet","inputs":[{"name":"preCrimeAddress","type":"address","indexed":false,"internalType":"address"}],"anonymous":false},{"type":"event","name":"Transfer","inputs":[{"name":"from","type":"address","indexed":true,"internalType":"address"},{"name":"to","type":"address","indexed":true,"internalType":"address"},{"name":"value","type":"uint256","indexed":false,"internalType":"uint256"}],"anonymous":false},{"type":"error","name":"AddressEmptyCode","inputs":[{"name":"target","type":"address","internalType":"address"}]},{"type":"error","name":"AddressInsufficientBalance","inputs":[{"name":"account","type":"address","internalType":"address"}]},{"type":"error","name":"ERC20InsufficientAllowance","inputs":[{"name":"spender","type":"address","internalType":"address"},{"name":"allowance","type":"uint256","internalType":"uint256"},{"name":"needed","type":"uint256","internalType":"uint256"}]},{"type":"error","name":"ERC20InsufficientBalance","inputs":[{"name":"sender","type":"address","internalType":"address"},{"name":"balance","type":"uint256","internalType":"uint256"},{"name":"needed","type":"uint256","internalType":"uint256"}]},{"type":"error","name":"ERC20InvalidApprover","inputs":[{"name":"approver","type":"address","internalType":"address"}]},{"type":"error","name":"ERC20InvalidReceiver","inputs":[{"name":"receiver","type":"address","internalType":"address"}]},{"type":"error","name":"ERC20InvalidSender","inputs":[{"name":"sender","type":"address","internalType":"address"}]},{"type":"error","name":"ERC20InvalidSpender","inputs":[{"name":"spender","type":"address","internalType":"address"}]},{"type":"error","name":"FailedInnerCall","inputs":[]},{"type":"error","name":"InvalidDelegate","inputs":[]},{"type":"error","name":"InvalidEndpointCall","inputs":[]},{"type":"error","name":"InvalidLocalDecimals","inputs":[]},{"type":"error","name":"InvalidOptions","inputs":[{"name":"options","type":"bytes","internalType":"bytes"}]},{"type":"error","name":"LzTokenUnavailable","inputs":[]},{"type":"error","name":"NoPeer","inputs":[{"name":"eid","type":"uint32","internalType":"uint32"}]},{"type":"error","name":"NotEnoughNative","inputs":[{"name":"msgValue","type":"uint256","internalType":"uint256"}]},{"type":"error","name":"OnlyEndpoint","inputs":[{"name":"addr","type":"address","internalType":"address"}]},{"type":"error","name":"OnlyPeer","inputs":[{"name":"eid","type":"uint32","internalType":"uint32"},{"name":"sender","type":"bytes32","internalType":"bytes32"}]},{"type":"error","name":"OnlySelf","inputs":[]},{"type":"error","name":"OwnableInvalidOwner","inputs":[{"name":"owner","type":"address","internalType":"address"}]},{"type":"error","name":"OwnableUnauthorizedAccount","inputs":[{"name":"account","type":"address","internalType":"address"}]},{"type":"error","name":"SafeERC20FailedOperation","inputs":[{"name":"token","type":"address","internalType":"address"}]},{"type":"error","name":"SimulationResult","inputs":[{"name":"result","type":"bytes","internalType":"bytes"}]},{"type":"error","name":"SlippageExceeded","inputs":[{"name":"amountLD","type":"uint256","internalType":"uint256"},{"name":"minAmountLD","type":"uint256","internalType":"uint256"}]}],"bytecode":{"object":"0x60e060405234801562000010575f80fd5b5060405162003ab338038062003ab383398101604081905262000033916200034d565b84848484838360128484818181818e6001600160a01b0381166200007157604051631e4fbdf760e01b81525f60048201526024015b60405180910390fd5b6200007c816200021f565b506001600160a01b038083166080528116620000ab57604051632d618d8160e21b815260040160405180910390fd5b60805160405163ca5eb5e160e01b81526001600160a01b0383811660048301529091169063ca5eb5e1906024015f604051808303815f87803b158015620000f0575f80fd5b505af115801562000103573d5f803e3d5ffd5b50505050505050506200011b6200026e60201b60201c565b60ff168360ff16101562000142576040516301e9714b60e41b815260040160405180910390fd5b6200014f600684620003fd565b6200015c90600a62000518565b60a05250600891506200017290508382620005bb565b506009620001818282620005bb565b5050506001600160a01b038516935062000208925050505760405162461bcd60e51b815260206004820152603b60248201527f4d6967726174696f6e4f46543a20746172676574204f4654206164617074657260448201527f2063616e6e6f7420626520746865207a65726f20616464726573730000000000606482015260840162000068565b6001600160a01b031660c052506200068392505050565b5f80546001600160a01b038381166001600160a01b0319831681178455604051919092169283917f8be0079c531659141344cd1fd0a4f28419497f9722a3daafe3b4186f6b6457e09190a35050565b600690565b634e487b7160e01b5f52604160045260245ffd5b5f82601f83011262000297575f80fd5b81516001600160401b0380821115620002b457620002b462000273565b604051601f8301601f19908116603f01168101908282118183101715620002df57620002df62000273565b81604052838152602092508683858801011115620002fb575f80fd5b5f91505b838210156200031e5785820183015181830184015290820190620002ff565b5f93810190920192909252949350505050565b80516001600160a01b038116811462000348575f80fd5b919050565b5f805f805f60a0868803121562000362575f80fd5b85516001600160401b038082111562000379575f80fd5b6200038789838a0162000287565b965060208801519150808211156200039d575f80fd5b50620003ac8882890162000287565b945050620003bd6040870162000331565b9250620003cd6060870162000331565b9150620003dd6080870162000331565b90509295509295909350565b634e487b7160e01b5f52601160045260245ffd5b60ff8281168282160390811115620004195762000419620003e9565b92915050565b600181815b808511156200045f57815f1904821115620004435762000443620003e9565b808516156200045157918102915b93841c939080029062000424565b509250929050565b5f82620004775750600162000419565b816200048557505f62000419565b81600181146200049e5760028114620004a957620004c9565b600191505062000419565b60ff841115620004bd57620004bd620003e9565b50506001821b62000419565b5060208310610133831016604e8410600b8410161715620004ee575081810a62000419565b620004fa83836200041f565b805f1904821115620005105762000510620003e9565b029392505050565b5f6200052860ff84168362000467565b9392505050565b600181811c908216806200054457607f821691505b6020821081036200056357634e487b7160e01b5f52602260045260245ffd5b50919050565b601f821115620005b6575f81815260208120601f850160051c81016020861015620005915750805b601f850160051c820191505b81811015620005b2578281556001016200059d565b5050505b505050565b81516001600160401b03811115620005d757620005d762000273565b620005ef81620005e884546200052f565b8462000569565b602080601f83116001811462000625575f84156200060d5750858301515b5f19600386901b1c1916600185901b178555620005b2565b5f85815260208120601f198616915b82811015620006555788860151825594840194600190910190840162000634565b50858210156200067357878501515f19600388901b60f8161c191681555b5050505050600190811b01905550565b60805160a05160c0516133b1620007025f395f818161046301528181610a680152610d9c01525f81816106f2015281816114ed01528181611e6d015261205601525f818161059b01528181610b6c0152818161134c015281816115ed0152818161194601528181611c8701528181612153015261220801526133b15ff3fe608060405260043610610280575f3560e01c80636fc1b31e11610155578063b98bd070116100be578063d045a0dc11610078578063d045a0dc14610820578063d424388514610833578063dd62ed3e14610852578063f2fde38b14610896578063fc0c546a14610524578063ff7bd03d146108b5575f80fd5b8063b98bd07014610764578063bb0b6a5314610783578063bc70b354146107ae578063bd815db0146107cd578063c7c7f5b3146107e0578063ca5eb5e114610801575f80fd5b80638da5cb5b1161010f5780638da5cb5b146106b157806395d89b41146106cd578063963efcaa146106e15780639f68b96414610714578063a9059cbb14610726578063b731ea0a14610745575f80fd5b80636fc1b31e146105d057806370a08231146105ef578063715018a6146106235780637d25a05e1461063757806382413eac14610670578063857749b01461069e575f80fd5b806318160ddd116101f75780633b6f743b116101b15780633b6f743b146104f857806352ae2879146105245780635535d461146105365780635a0dfe4d146105555780635e280f111461058a57806369503eb0146105bd575f80fd5b806318160ddd1461043e5780631ad096ad146104525780631f5e13341461048557806323b872dd14610499578063313ce567146104b85780633400288b146104d9575f80fd5b806311ffaef61161024857806311ffaef61461037257806313137d6514610391578063134d4f25146103a6578063156a0d0f146103cd57806317442b70146103f3578063176e619e14610414575f80fd5b806304d901421461028457806306fdde03146102bd578063095ea7b3146102de5780630d35b4151461030d578063111ecdad1461033b575b5f80fd5b34801561028f575f80fd5b506102aa61029e36600461241c565b6001600160a01b031690565b6040519081526020015b60405180910390f35b3480156102c8575f80fd5b506102d16108d4565b6040516102b49190612484565b3480156102e9575f80fd5b506102fd6102f8366004612496565b610964565b60405190151581526020016102b4565b348015610318575f80fd5b5061032c6103273660046124d6565b61097d565b6040516102b493929190612507565b348015610346575f80fd5b5060045461035a906001600160a01b031681565b6040516001600160a01b0390911681526020016102b4565b34801561037d575f80fd5b506102aa61038c36600461259d565b610a48565b6103a461039f366004612608565b610b6a565b005b3480156103b1575f80fd5b506103ba600281565b60405161ffff90911681526020016102b4565b3480156103d8575f80fd5b506040805162b9270b60e21b815260016020820152016102b4565b3480156103fe575f80fd5b50604080516001815260026020820152016102b4565b34801561041f575f80fd5b5061042961759581565b60405163ffffffff90911681526020016102b4565b348015610449575f80fd5b506007546102aa565b34801561045d575f80fd5b5061035a7f000000000000000000000000000000000000000000000000000000000000000081565b348015610490575f80fd5b506103ba600181565b3480156104a4575f80fd5b506102fd6104b33660046126a0565b610c2a565b3480156104c3575f80fd5b5060125b60405160ff90911681526020016102b4565b3480156104e4575f80fd5b506103a46104f33660046126f6565b610c4f565b348015610503575f80fd5b5061051761051236600461271d565b610c65565b6040516102b4919061276b565b34801561052f575f80fd5b503061035a565b348015610541575f80fd5b506102d1610550366004612793565b610cc9565b348015610560575f80fd5b506102fd61056f3660046126f6565b63ffffffff919091165f908152600160205260409020541490565b348015610595575f80fd5b5061035a7f000000000000000000000000000000000000000000000000000000000000000081565b6103a46105cb36600461259d565b610d6b565b3480156105db575f80fd5b506103a46105ea36600461241c565b610e98565b3480156105fa575f80fd5b506102aa61060936600461241c565b6001600160a01b03165f9081526005602052604090205490565b34801561062e575f80fd5b506103a4610ef5565b348015610642575f80fd5b506106586106513660046126f6565b5f92915050565b6040516001600160401b0390911681526020016102b4565b34801561067b575f80fd5b506102fd61068a3660046127c4565b6001600160a01b0381163014949350505050565b3480156106a9575f80fd5b5060066104c7565b3480156106bc575f80fd5b505f546001600160a01b031661035a565b3480156106d8575f80fd5b506102d1610f08565b3480156106ec575f80fd5b506102aa7f000000000000000000000000000000000000000000000000000000000000000081565b34801561071f575f80fd5b505f6102fd565b348015610731575f80fd5b506102fd610740366004612496565b610f17565b348015610750575f80fd5b5060025461035a906001600160a01b031681565b34801561076f575f80fd5b506103a461077e366004612866565b610f24565b34801561078e575f80fd5b506102aa61079d3660046128a4565b60016020525f908152604090205481565b3480156107b9575f80fd5b506102d16107c83660046128bd565b610f36565b6103a46107db366004612866565b6110a3565b6107f36107ee366004612919565b61122d565b6040516102b4929190612981565b34801561080c575f80fd5b506103a461081b36600461241c565b611325565b6103a461082e366004612608565b61139f565b34801561083e575f80fd5b506103a461084d36600461241c565b6113ce565b34801561085d575f80fd5b506102aa61086c3660046129d2565b6001600160a01b039182165f90815260066020908152604080832093909416825291909152205490565b3480156108a1575f80fd5b506103a46108b036600461241c565b611424565b3480156108c0575f80fd5b506102fd6108cf3660046129fe565b611461565b6060600880546108e390612a18565b80601f016020809104026020016040519081016040528092919081815260200182805461090f90612a18565b801561095a5780601f106109315761010080835404028352916020019161095a565b820191905f5260205f20905b81548152906001019060200180831161093d57829003601f168201915b5050505050905090565b5f33610971818585611495565b60019150505b92915050565b604080518082019091525f808252602082015260606109ad60405180604001604052805f81526020015f81525090565b6040805180820182525f8082526001600160401b03602080840182905284518381529081019094529195509182610a06565b604080518082019091525f8152606060208201528152602001906001900390816109df5790505b5093505f80610a2a604089013560608a0135610a2560208c018c6128a4565b6114a7565b60408051808201909152918252602082015296989597505050505050565b5f806040518060e0016040528061759563ffffffff168152602001610a937f00000000000000000000000000000000000000000000000000000000000000006001600160a01b031690565b8152602001848152602001610aa7856114ea565b815260408051602081810183525f8083528185019290925282518082018452828152838501528251908101835281815260609093019290925251633b6f743b60e01b8152919250903090633b6f743b90610b079085908590600401612ad3565b6040805180830381865afa158015610b21573d5f803e3d5ffd5b505050506040513d601f19601f82011682018060405250810190610b459190612b4c565b8051909150600290610b58906003612b7a565b610b629190612b91565b949350505050565b7f00000000000000000000000000000000000000000000000000000000000000006001600160a01b03163314610bba576040516391ac5e4f60e01b81523360048201526024015b60405180910390fd5b60208701803590610bd490610bcf908a6128a4565b611520565b14610c1257610be660208801886128a4565b60405163309afaf360e21b815263ffffffff909116600482015260208801356024820152604401610bb1565b610c218787878787878761155b565b50505050505050565b5f33610c378582856116b9565b610c42858585611734565b60019150505b9392505050565b610c57611791565b610c6182826117bd565b5050565b604080518082019091525f80825260208201525f610c9360408501356060860135610a2560208801886128a4565b9150505f80610ca28684611812565b9092509050610cbf610cb760208801886128a4565b838388611931565b9695505050505050565b600360209081525f928352604080842090915290825290208054610cec90612a18565b80601f0160208091040260200160405190810160405280929190818152602001828054610d1890612a18565b8015610d635780601f10610d3a57610100808354040283529160200191610d63565b820191905f5260205f20905b815481529060010190602001808311610d4657829003601f168201915b505050505081565b610d73611791565b610d7d3082611a0f565b5f6040518060e0016040528061759563ffffffff168152602001610dc77f00000000000000000000000000000000000000000000000000000000000000006001600160a01b031690565b8152602001838152602001610ddb846114ea565b815260408051602081810183525f80835281850192909252825180820184528281528385015282518082018452828152606090940193909352815180830183523480825293810191909152905163c7c7f5b360e01b815292935091309163c7c7f5b391610e5090869086903390600401612bb0565b60c06040518083038185885af1158015610e6c573d5f803e3d5ffd5b50505050506040513d601f19601f82011682018060405250810190610e919190612c72565b5050505050565b610ea0611791565b600480546001600160a01b0319166001600160a01b0383169081179091556040519081527ff0be4f1e87349231d80c36b33f9e8639658eeaf474014dee15a3e6a4d4414197906020015b60405180910390a150565b610efd611791565b610f065f611a43565b565b6060600980546108e390612a18565b5f33610971818585611734565b610f2c611791565b610c618282611a92565b63ffffffff84165f90815260036020908152604080832061ffff87168452909152812080546060929190610f6990612a18565b80601f0160208091040260200160405190810160405280929190818152602001828054610f9590612a18565b8015610fe05780601f10610fb757610100808354040283529160200191610fe0565b820191905f5260205f20905b815481529060010190602001808311610fc357829003601f168201915b5050505050905080515f0361102e5783838080601f0160208091040260200160405190810160405280939291908181526020018383808284375f92019190915250929450610b629350505050565b5f83900361103d579050610b62565b600283106110865761104f8484611bf0565b8061105d8460028188612c9c565b60405160200161106f93929190612cc3565b604051602081830303815290604052915050610b62565b8383604051639a6d49cd60e01b8152600401610bb1929190612d11565b5f5b818110156111b057368383838181106110c0576110c0612d24565b90506020028101906110d29190612d38565b90506111046110e460208301836128a4565b602083013563ffffffff919091165f908152600160205260409020541490565b61110e575061119e565b3063d045a0dc60c08301358360a081013561112d610100830183612d57565b61113e610100890160e08a0161241c565b61114c6101208a018a612d57565b6040518963ffffffff1660e01b815260040161116e9796959493929190612d99565b5f604051808303818588803b158015611185575f80fd5b505af1158015611197573d5f803e3d5ffd5b5050505050505b806111a881612e1e565b9150506110a5565b50336001600160a01b0316638e9e70996040518163ffffffff1660e01b81526004015f60405180830381865afa1580156111ec573d5f803e3d5ffd5b505050506040513d5f823e601f3d908101601f191682016040526112139190810190612e36565b604051638351eea760e01b8152600401610bb19190612484565b6112356123c5565b604080518082019091525f80825260208201525f8061126a33604089013560608a013561126560208c018c6128a4565b611c31565b915091505f8061127a8984611812565b90925090506112a661128f60208b018b6128a4565b83836112a0368d90038d018d612ed2565b8b611c56565b60408051808201909152858152602080820186905282519298509096503391907f85496b760a4b7f8d66384b9df21b381f5d1b1e79f229a47aaf4c232edc2fe59a906112f4908d018d6128a4565b6040805163ffffffff909216825260208201899052810187905260600160405180910390a350505050935093915050565b61132d611791565b60405163ca5eb5e160e01b81526001600160a01b0382811660048301527f0000000000000000000000000000000000000000000000000000000000000000169063ca5eb5e1906024015f604051808303815f87803b15801561138d575f80fd5b505af1158015610e91573d5f803e3d5ffd5b3330146113bf5760405163029a949d60e31b815260040160405180910390fd5b610c2187878787878787610c12565b6113d6611791565b600280546001600160a01b0319166001600160a01b0383169081179091556040519081527fd48d879cef83a1c0bdda516f27b13ddb1b3f8bbac1c9e1511bb2a659c242776090602001610eea565b61142c611791565b6001600160a01b03811661145557604051631e4fbdf760e01b81525f6004820152602401610bb1565b61145e81611a43565b50565b5f60208201803590600190839061147890866128a4565b63ffffffff16815260208101919091526040015f20541492915050565b6114a28383836001611d5c565b505050565b5f806114b2856114ea565b9150819050838110156114e2576040516371c4efed60e01b81526004810182905260248101859052604401610bb1565b935093915050565b5f7f00000000000000000000000000000000000000000000000000000000000000006115168184612b91565b6109779190612b7a565b63ffffffff81165f90815260016020526040812054806109775760405163f6ff4fb760e01b815263ffffffff84166004820152602401610bb1565b5f61156c6115698787611e2e565b90565b90505f611597826115856115808a8a611e45565b611e67565b61159260208d018d6128a4565b611e9b565b90506028861115611657575f6115d36115b660608c0160408d01612f02565b6115c360208d018d6128a4565b846115ce8c8c611eae565b611ef8565b604051633e5ac80960e11b81529091506001600160a01b037f00000000000000000000000000000000000000000000000000000000000000001690637cb59012906116289086908d905f908790600401612f1d565b5f604051808303815f87803b15801561163f575f80fd5b505af1158015611651573d5f803e3d5ffd5b50505050505b6001600160a01b038216887fefed6d3500546b29533b128a29e3a94d70788727f0507505ac12eaf2e578fd9c61169060208d018d6128a4565b6040805163ffffffff9092168252602082018690520160405180910390a3505050505050505050565b6001600160a01b038381165f908152600660209081526040808320938616835292905220545f19811461172e578181101561172057604051637dc7a0d960e11b81526001600160a01b03841660048201526024810182905260448101839052606401610bb1565b61172e84848484035f611d5c565b50505050565b6001600160a01b03831661175d57604051634b637e8f60e11b81525f6004820152602401610bb1565b6001600160a01b0382166117865760405163ec442f0560e01b81525f6004820152602401610bb1565b6114a2838383611f2a565b5f546001600160a01b03163314610f065760405163118cdaa760e01b8152336004820152602401610bb1565b63ffffffff82165f81815260016020908152604091829020849055815192835282018390527f238399d427b947898edb290f5ff0f9109849b1c3ba196a42e35f00c50a54b98b91015b60405180910390a15050565b6060805f61186d856020013561182786612050565b61183460a0890189612d57565b8080601f0160208091040260200160405190810160405280939291908181526020018383808284375f9201919091525061207b92505050565b90935090505f8161187f576001611882565b60025b90506118a261189460208801886128a4565b826107c860808a018a612d57565b6004549093506001600160a01b031615611928576004805460405163043a78eb60e01b81526001600160a01b039091169163043a78eb916118e7918891889101612f4d565b602060405180830381865afa158015611902573d5f803e3d5ffd5b505050506040513d601f19601f820116820180604052508101906119269190612f71565b505b50509250929050565b604080518082019091525f80825260208201527f00000000000000000000000000000000000000000000000000000000000000006001600160a01b031663ddc28c586040518060a001604052808863ffffffff16815260200161199389611520565b8152602001878152602001868152602001851515815250306040518363ffffffff1660e01b81526004016119c8929190612f8c565b6040805180830381865afa1580156119e2573d5f803e3d5ffd5b505050506040513d601f19601f82011682018060405250810190611a069190612b4c565b95945050505050565b6001600160a01b038216611a385760405163ec442f0560e01b81525f6004820152602401610bb1565b610c615f8383611f2a565b5f80546001600160a01b038381166001600160a01b0319831681178455604051919092169283917f8be0079c531659141344cd1fd0a4f28419497f9722a3daafe3b4186f6b6457e09190a35050565b5f5b81811015611bbe57611ad6838383818110611ab157611ab1612d24565b9050602002810190611ac39190613004565b611ad1906040810190612d57565b611bf0565b828282818110611ae857611ae8612d24565b9050602002810190611afa9190613004565b611b08906040810190612d57565b60035f868686818110611b1d57611b1d612d24565b9050602002810190611b2f9190613004565b611b3d9060208101906128a4565b63ffffffff1663ffffffff1681526020019081526020015f205f868686818110611b6957611b69612d24565b9050602002810190611b7b9190613004565b611b8c906040810190602001613018565b61ffff16815260208101919091526040015f2091611bab91908361307e565b5080611bb681612e1e565b915050611a94565b507fbe4864a8e820971c0247f5992e2da559595f7bf076a21cb5928d443d2a13b6748282604051611806929190613138565b5f611bfe6002828486612c9c565b611c0791613217565b60f01c9050600381146114a2578282604051639a6d49cd60e01b8152600401610bb1929190612d11565b5f80611c3e8585856114a7565b9092509050611c4d86836120f5565b94509492505050565b611c5e6123c5565b5f611c6b845f0151612129565b602085015190915015611c8557611c858460200151612150565b7f00000000000000000000000000000000000000000000000000000000000000006001600160a01b0316632637a450826040518060a001604052808b63ffffffff168152602001611cd58c611520565b81526020018a81526020018981526020015f8960200151111515815250866040518463ffffffff1660e01b8152600401611d10929190612f8c565b60806040518083038185885af1158015611d2c573d5f803e3d5ffd5b50505050506040513d601f19601f82011682018060405250810190611d519190613247565b979650505050505050565b6001600160a01b038416611d855760405163e602df0560e01b81525f6004820152602401610bb1565b6001600160a01b038316611dae57604051634a1406b160e11b81525f6004820152602401610bb1565b6001600160a01b038085165f908152600660209081526040808320938716835292905220829055801561172e57826001600160a01b0316846001600160a01b03167f8c5be1e5ebec7d5bd14f71427d1e84f3dd0314c0f7b2291e5b200ac8c7c3b92584604051611e2091815260200190565b60405180910390a350505050565b5f611e3c6020828486612c9c565b610c4891613261565b5f611e54602860208486612c9c565b611e5d9161327e565b60c01c9392505050565b5f6109777f00000000000000000000000000000000000000000000000000000000000000006001600160401b038416612b7a565b5f611ea68484611a0f565b509092915050565b6060611ebd8260288186612c9c565b8080601f0160208091040260200160405190810160405280939291908181526020018383808284375f92019190915250929695505050505050565b606084848484604051602001611f1194939291906132ac565b6040516020818303038152906040529050949350505050565b6001600160a01b038316611f54578060075f828254611f4991906132fa565b90915550611fc49050565b6001600160a01b0383165f9081526005602052604090205481811015611fa65760405163391434e360e21b81526001600160a01b03851660048201526024810182905260448101839052606401610bb1565b6001600160a01b0384165f9081526005602052604090209082900390555b6001600160a01b038216611fe057600780548290039055611ffe565b6001600160a01b0382165f9081526005602052604090208054820190555b816001600160a01b0316836001600160a01b03167fddf252ad1be2c89b69c2b068fc378daa952ba7f163c4a11628f55a4df523b3ef8360405161204391815260200190565b60405180910390a3505050565b5f6109777f000000000000000000000000000000000000000000000000000000000000000083612b91565b80516060901515806120c45784846040516020016120b092919091825260c01b6001600160c01b031916602082015260280190565b6040516020818303038152906040526120eb565b848433856040516020016120db949392919061330d565b6040516020818303038152906040525b9150935093915050565b6001600160a01b03821661211e57604051634b637e8f60e11b81525f6004820152602401610bb1565b610c61825f83611f2a565b5f81341461214c576040516304fb820960e51b8152346004820152602401610bb1565b5090565b5f7f00000000000000000000000000000000000000000000000000000000000000006001600160a01b031663e4fe1d946040518163ffffffff1660e01b8152600401602060405180830381865afa1580156121ad573d5f803e3d5ffd5b505050506040513d601f19601f820116820180604052508101906121d1919061334f565b90506001600160a01b0381166121fa576040516329b99a9560e11b815260040160405180910390fd5b6040805133602482018190527f00000000000000000000000000000000000000000000000000000000000000006001600160a01b03818116604485015260648085018890528551808603909101815260849094019094526020830180516001600160e01b03166323b872dd60e01b179052610c6193851692869061172e9085905f61228583836122d2565b905080515f141580156122a95750808060200190518101906122a79190612f71565b155b156114a257604051635274afe760e01b81526001600160a01b0384166004820152602401610bb1565b6060610c4883835f845f80856001600160a01b031684866040516122f6919061336a565b5f6040518083038185875af1925050503d805f8114612330576040519150601f19603f3d011682016040523d82523d5f602084013e612335565b606091505b5091509150610cbf868383606082612355576123508261239c565b610c48565b815115801561236c57506001600160a01b0384163b155b1561239557604051639996b31560e01b81526001600160a01b0385166004820152602401610bb1565b5080610c48565b8051156123ac5780518082602001fd5b604051630a12f52160e11b815260040160405180910390fd5b60405180606001604052805f80191681526020015f6001600160401b0316815260200161240360405180604001604052805f81526020015f81525090565b905290565b6001600160a01b038116811461145e575f80fd5b5f6020828403121561242c575f80fd5b8135610c4881612408565b5f5b83811015612451578181015183820152602001612439565b50505f910152565b5f8151808452612470816020860160208601612437565b601f01601f19169290920160200192915050565b602081525f610c486020830184612459565b5f80604083850312156124a7575f80fd5b82356124b281612408565b946020939093013593505050565b5f60e082840312156124d0575f80fd5b50919050565b5f602082840312156124e6575f80fd5b81356001600160401b038111156124fb575f80fd5b610b62848285016124c0565b83518152602080850151908201525f60a08201604060a08185015281865180845260c08601915060c08160051b870101935060208089015f5b8381101561257f5788870360bf1901855281518051885283015183880187905261256c87890182612459565b9750509382019390820190600101612540565b50508751606088015250505060208501516080850152509050610b62565b5f602082840312156125ad575f80fd5b5035919050565b5f606082840312156124d0575f80fd5b5f8083601f8401126125d4575f80fd5b5081356001600160401b038111156125ea575f80fd5b602083019150836020828501011115612601575f80fd5b9250929050565b5f805f805f805f60e0888a03121561261e575f80fd5b61262889896125b4565b96506060880135955060808801356001600160401b038082111561264a575f80fd5b6126568b838c016125c4565b909750955060a08a0135915061266b82612408565b90935060c08901359080821115612680575f80fd5b5061268d8a828b016125c4565b989b979a50959850939692959293505050565b5f805f606084860312156126b2575f80fd5b83356126bd81612408565b925060208401356126cd81612408565b929592945050506040919091013590565b803563ffffffff811681146126f1575f80fd5b919050565b5f8060408385031215612707575f80fd5b6124b2836126de565b801515811461145e575f80fd5b5f806040838503121561272e575f80fd5b82356001600160401b03811115612743575f80fd5b61274f858286016124c0565b925050602083013561276081612710565b809150509250929050565b815181526020808301519082015260408101610977565b803561ffff811681146126f1575f80fd5b5f80604083850312156127a4575f80fd5b6127ad836126de565b91506127bb60208401612782565b90509250929050565b5f805f8060a085870312156127d7575f80fd5b6127e186866125b4565b935060608501356001600160401b038111156127fb575f80fd5b612807878288016125c4565b909450925050608085013561281b81612408565b939692955090935050565b5f8083601f840112612836575f80fd5b5081356001600160401b0381111561284c575f80fd5b6020830191508360208260051b8501011115612601575f80fd5b5f8060208385031215612877575f80fd5b82356001600160401b0381111561288c575f80fd5b61289885828601612826565b90969095509350505050565b5f602082840312156128b4575f80fd5b610c48826126de565b5f805f80606085870312156128d0575f80fd5b6128d9856126de565b93506128e760208601612782565b925060408501356001600160401b03811115612901575f80fd5b61290d878288016125c4565b95989497509550505050565b5f805f838503608081121561292c575f80fd5b84356001600160401b03811115612941575f80fd5b61294d878288016124c0565b9450506040601f1982011215612961575f80fd5b50602084019150606084013561297681612408565b809150509250925092565b5f60c082019050835182526001600160401b03602085015116602083015260408401516129bb604084018280518252602090810151910152565b5082516080830152602083015160a0830152610c48565b5f80604083850312156129e3575f80fd5b82356129ee81612408565b9150602083013561276081612408565b5f60608284031215612a0e575f80fd5b610c4883836125b4565b600181811c90821680612a2c57607f821691505b6020821081036124d057634e487b7160e01b5f52602260045260245ffd5b634e487b7160e01b5f52604160045260245ffd5b63ffffffff81511682526020810151602083015260408101516040830152606081015160608301525f608082015160e06080850152612aa060e0850182612459565b905060a083015184820360a0860152612ab98282612459565b91505060c083015184820360c0860152611a068282612459565b604081525f612ae56040830185612a5e565b905082151560208301529392505050565b604080519081016001600160401b0381118282101715612b1857612b18612a4a565b60405290565b5f60408284031215612b2e575f80fd5b612b36612af6565b9050815181526020820151602082015292915050565b5f60408284031215612b5c575f80fd5b610c488383612b1e565b634e487b7160e01b5f52601160045260245ffd5b808202811582820484141761097757610977612b66565b5f82612bab57634e487b7160e01b5f52601260045260245ffd5b500490565b608081525f612bc26080830186612a5e565b9050612bdb602083018580518252602090810151910152565b6001600160a01b03929092166060919091015292915050565b6001600160401b038116811461145e575f80fd5b5f60808284031215612c18575f80fd5b604051606081018181106001600160401b0382111715612c3a57612c3a612a4a565b8060405250809150825181526020830151612c5481612bf4565b6020820152612c668460408501612b1e565b60408201525092915050565b5f8060c08385031215612c83575f80fd5b612c8d8484612c08565b91506127bb8460808501612b1e565b5f8085851115612caa575f80fd5b83861115612cb6575f80fd5b5050820193919092039150565b5f8451612cd4818460208901612437565b8201838582375f930192835250909392505050565b81835281816020850137505f828201602090810191909152601f909101601f19169091010190565b602081525f610b62602083018486612ce9565b634e487b7160e01b5f52603260045260245ffd5b5f823561013e19833603018112612d4d575f80fd5b9190910192915050565b5f808335601e19843603018112612d6c575f80fd5b8301803591506001600160401b03821115612d85575f80fd5b602001915036819003821315612601575f80fd5b63ffffffff612da7896126de565b168152602088013560208201525f6040890135612dc381612bf4565b6001600160401b03811660408401525087606083015260e06080830152612dee60e083018789612ce9565b6001600160a01b03861660a084015282810360c0840152612e10818587612ce9565b9a9950505050505050505050565b5f60018201612e2f57612e2f612b66565b5060010190565b5f60208284031215612e46575f80fd5b81516001600160401b0380821115612e5c575f80fd5b818401915084601f830112612e6f575f80fd5b815181811115612e8157612e81612a4a565b604051601f8201601f19908116603f01168101908382118183101715612ea957612ea9612a4a565b81604052828152876020848701011115612ec1575f80fd5b611d51836020830160208801612437565b5f60408284031215612ee2575f80fd5b612eea612af6565b82358152602083013560208201528091505092915050565b5f60208284031215612f12575f80fd5b8135610c4881612bf4565b60018060a01b038516815283602082015261ffff83166040820152608060608201525f610cbf6080830184612459565b604081525f612f5f6040830185612459565b8281036020840152611a068185612459565b5f60208284031215612f81575f80fd5b8151610c4881612710565b6040815263ffffffff8351166040820152602083015160608201525f604084015160a06080840152612fc160e0840182612459565b90506060850151603f198483030160a0850152612fde8282612459565b60809690960151151560c08501525050506001600160a01b039190911660209091015290565b5f8235605e19833603018112612d4d575f80fd5b5f60208284031215613028575f80fd5b610c4882612782565b601f8211156114a2575f81815260208120601f850160051c810160208610156130575750805b601f850160051c820191505b8181101561307657828155600101613063565b505050505050565b6001600160401b0383111561309557613095612a4a565b6130a9836130a38354612a18565b83613031565b5f601f8411600181146130da575f85156130c35750838201355b5f19600387901b1c1916600186901b178355610e91565b5f83815260209020601f19861690835b8281101561310a57868501358255602094850194600190920191016130ea565b5086821015613126575f1960f88860031b161c19848701351681555b505060018560011b0183555050505050565b60208082528181018390525f906040808401600586901b8501820187855b8881101561320957878303603f190184528135368b9003605e1901811261317b575f80fd5b8a01606063ffffffff61318d836126de565b16855261ffff61319e898401612782565b168886015286820135601e198336030181126131b8575f80fd5b9091018781019190356001600160401b038111156131d4575f80fd5b8036038313156131e2575f80fd5b81888701526131f48287018285612ce9565b96890196955050509186019150600101613156565b509098975050505050505050565b6001600160f01b0319813581811691600285101561323f5780818660020360031b1b83161692505b505092915050565b5f60808284031215613257575f80fd5b610c488383612c08565b80356020831015610977575f19602084900360031b1b1692915050565b6001600160c01b0319813581811691600885101561323f5760089490940360031b84901b1690921692915050565b6001600160401b0360c01b8560c01b16815263ffffffff60e01b8460e01b16600882015282600c8201525f82516132ea81602c850160208701612437565b91909101602c0195945050505050565b8082018082111561097757610977612b66565b8481526001600160401b0360c01b8460c01b1660208201528260288201525f825161333f816048850160208701612437565b9190910160480195945050505050565b5f6020828403121561335f575f80fd5b8151610c4881612408565b5f8251612d4d81846020870161243756fea2646970667358221220fc6bc390658c3aa1598e0f9d69af75324d3d72f724bc875cc7c4ae781fdeb07e64736f6c63430008140033","linkReferences":{}},"methodIdentifiers":{"DST_EID()":"176e619e","SEND()":"1f5e1334","SEND_AND_CALL()":"134d4f25","TARGET_OFT_ADAPTER()":"1ad096ad","_toBytes32(address)":"04d90142","allowInitializePath((uint32,bytes32,uint64))":"ff7bd03d","allowance(address,address)":"dd62ed3e","approvalRequired()":"9f68b964","approve(address,uint256)":"095ea7b3","balanceOf(address)":"70a08231","combineOptions(uint32,uint16,bytes)":"bc70b354","decimalConversionRate()":"963efcaa","decimals()":"313ce567","endpoint()":"5e280f11","enforcedOptions(uint32,uint16)":"5535d461","isComposeMsgSender((uint32,bytes32,uint64),bytes,address)":"82413eac","isPeer(uint32,bytes32)":"5a0dfe4d","lzReceive((uint32,bytes32,uint64),bytes32,bytes,address,bytes)":"13137d65","lzReceiveAndRevert(((uint32,bytes32,uint64),uint32,address,bytes32,uint256,address,bytes,bytes)[])":"bd815db0","lzReceiveSimulate((uint32,bytes32,uint64),bytes32,bytes,address,bytes)":"d045a0dc","msgInspector()":"111ecdad","name()":"06fdde03","nextNonce(uint32,bytes32)":"7d25a05e","oApp()":"52ae2879","oAppVersion()":"17442b70","oftVersion()":"156a0d0f","owner()":"8da5cb5b","peers(uint32)":"bb0b6a53","preCrime()":"b731ea0a","quoteMigrationMessage(uint256)":"11ffaef6","quoteOFT((uint32,bytes32,uint256,uint256,bytes,bytes,bytes))":"0d35b415","quoteSend((uint32,bytes32,uint256,uint256,bytes,bytes,bytes),bool)":"3b6f743b","renounceOwnership()":"715018a6","send((uint32,bytes32,uint256,uint256,bytes,bytes,bytes),(uint256,uint256),address)":"c7c7f5b3","sendMigrationMessage(uint256)":"69503eb0","setDelegate(address)":"ca5eb5e1","setEnforcedOptions((uint32,uint16,bytes)[])":"b98bd070","setMsgInspector(address)":"6fc1b31e","setPeer(uint32,bytes32)":"3400288b","setPreCrime(address)":"d4243885","sharedDecimals()":"857749b0","symbol()":"95d89b41","token()":"fc0c546a","totalSupply()":"18160ddd","transfer(address,uint256)":"a9059cbb","transferFrom(address,address,uint256)":"23b872dd","transferOwnership(address)":"f2fde38b"},"id":3}