{"abi":[{"type":"constructor","inputs":[{"name":"endpoint","type":"address","internalType":"address"}],"stateMutability":"nonpayable"},{"type":"function","name":"DEFAULT_ADMIN_ROLE","inputs":[],"outputs":[{"name":"","type":"bytes32","internalType":"bytes32"}],"stateMutability":"view"},{"type":"function","name":"MINTER_ROLE","inputs":[],"outputs":[{"name":"","type":"bytes32","internalType":"bytes32"}],"stateMutability":"view"},{"type":"function","name":"SEND","inputs":[],"outputs":[{"name":"","type":"uint16","internalType":"uint16"}],"stateMutability":"view"},{"type":"function","name":"SEND_AND_CALL","inputs":[],"outputs":[{"name":"","type":"uint16","internalType":"uint16"}],"stateMutability":"view"},{"type":"function","name":"allowInitializePath","inputs":[{"name":"origin","type":"tuple","internalType":"struct Origin","components":[{"name":"srcEid","type":"uint32","internalType":"uint32"},{"name":"sender","type":"bytes32","internalType":"bytes32"},{"name":"nonce","type":"uint64","internalType":"uint64"}]}],"outputs":[{"name":"","type":"bool","internalType":"bool"}],"stateMutability":"view"},{"type":"function","name":"allowance","inputs":[{"name":"owner","type":"address","internalType":"address"},{"name":"spender","type":"address","internalType":"address"}],"outputs":[{"name":"","type":"uint256","internalType":"uint256"}],"stateMutability":"view"},{"type":"function","name":"approvalRequired","inputs":[],"outputs":[{"name":"","type":"bool","internalType":"bool"}],"stateMutability":"pure"},{"type":"function","name":"approve","inputs":[{"name":"spender","type":"address","internalType":"address"},{"name":"value","type":"uint256","internalType":"uint256"}],"outputs":[{"name":"","type":"bool","internalType":"bool"}],"stateMutability":"nonpayable"},{"type":"function","name":"balanceOf","inputs":[{"name":"account","type":"address","internalType":"address"}],"outputs":[{"name":"","type":"uint256","internalType":"uint256"}],"stateMutability":"view"},{"type":"function","name":"combineOptions","inputs":[{"name":"_eid","type":"uint32","internalType":"uint32"},{"name":"_msgType","type":"uint16","internalType":"uint16"},{"name":"_extraOptions","type":"bytes","internalType":"bytes"}],"outputs":[{"name":"","type":"bytes","internalType":"bytes"}],"stateMutability":"view"},{"type":"function","name":"composeMsgSender","inputs":[],"outputs":[{"name":"sender","type":"address","internalType":"address"}],"stateMutability":"view"},{"type":"function","name":"decimalConversionRate","inputs":[],"outputs":[{"name":"","type":"uint256","internalType":"uint256"}],"stateMutability":"view"},{"type":"function","name":"decimals","inputs":[],"outputs":[{"name":"","type":"uint8","internalType":"uint8"}],"stateMutability":"view"},{"type":"function","name":"endpoint","inputs":[],"outputs":[{"name":"","type":"address","internalType":"contract ILayerZeroEndpointV2"}],"stateMutability":"view"},{"type":"function","name":"enforcedOptions","inputs":[{"name":"_eid","type":"uint32","internalType":"uint32"},{"name":"_msgType","type":"uint16","internalType":"uint16"}],"outputs":[{"name":"","type":"bytes","internalType":"bytes"}],"stateMutability":"view"},{"type":"function","name":"getAmountCanBeSent","inputs":[{"name":"_dstEid","type":"uint32","internalType":"uint32"}],"outputs":[{"name":"currentAmountInFlight","type":"uint256","internalType":"uint256"},{"name":"amountCanBeSent","type":"uint256","internalType":"uint256"}],"stateMutability":"view"},{"type":"function","name":"getRoleAdmin","inputs":[{"name":"role","type":"bytes32","internalType":"bytes32"}],"outputs":[{"name":"","type":"bytes32","internalType":"bytes32"}],"stateMutability":"view"},{"type":"function","name":"grantRole","inputs":[{"name":"role","type":"bytes32","internalType":"bytes32"},{"name":"account","type":"address","internalType":"address"}],"outputs":[],"stateMutability":"nonpayable"},{"type":"function","name":"hasRole","inputs":[{"name":"role","type":"bytes32","internalType":"bytes32"},{"name":"account","type":"address","internalType":"address"}],"outputs":[{"name":"","type":"bool","internalType":"bool"}],"stateMutability":"view"},{"type":"function","name":"initialize","inputs":[{"name":"name","type":"string","internalType":"string"},{"name":"symbol","type":"string","internalType":"string"},{"name":"owner","type":"address","internalType":"address"}],"outputs":[],"stateMutability":"nonpayable"},{"type":"function","name":"isPeer","inputs":[{"name":"_eid","type":"uint32","internalType":"uint32"},{"name":"_peer","type":"bytes32","internalType":"bytes32"}],"outputs":[{"name":"","type":"bool","internalType":"bool"}],"stateMutability":"view"},{"type":"function","name":"lzReceive","inputs":[{"name":"_origin","type":"tuple","internalType":"struct Origin","components":[{"name":"srcEid","type":"uint32","internalType":"uint32"},{"name":"sender","type":"bytes32","internalType":"bytes32"},{"name":"nonce","type":"uint64","internalType":"uint64"}]},{"name":"_guid","type":"bytes32","internalType":"bytes32"},{"name":"_message","type":"bytes","internalType":"bytes"},{"name":"_executor","type":"address","internalType":"address"},{"name":"_extraData","type":"bytes","internalType":"bytes"}],"outputs":[],"stateMutability":"payable"},{"type":"function","name":"lzReceiveAndRevert","inputs":[{"name":"_packets","type":"tuple[]","internalType":"struct InboundPacket[]","components":[{"name":"origin","type":"tuple","internalType":"struct Origin","components":[{"name":"srcEid","type":"uint32","internalType":"uint32"},{"name":"sender","type":"bytes32","internalType":"bytes32"},{"name":"nonce","type":"uint64","internalType":"uint64"}]},{"name":"dstEid","type":"uint32","internalType":"uint32"},{"name":"receiver","type":"address","internalType":"address"},{"name":"guid","type":"bytes32","internalType":"bytes32"},{"name":"value","type":"uint256","internalType":"uint256"},{"name":"executor","type":"address","internalType":"address"},{"name":"message","type":"bytes","internalType":"bytes"},{"name":"extraData","type":"bytes","internalType":"bytes"}]}],"outputs":[],"stateMutability":"payable"},{"type":"function","name":"lzReceiveSimulate","inputs":[{"name":"_origin","type":"tuple","internalType":"struct Origin","components":[{"name":"srcEid","type":"uint32","internalType":"uint32"},{"name":"sender","type":"bytes32","internalType":"bytes32"},{"name":"nonce","type":"uint64","internalType":"uint64"}]},{"name":"_guid","type":"bytes32","internalType":"bytes32"},{"name":"_message","type":"bytes","internalType":"bytes"},{"name":"_executor","type":"address","internalType":"address"},{"name":"_extraData","type":"bytes","internalType":"bytes"}],"outputs":[],"stateMutability":"payable"},{"type":"function","name":"mint","inputs":[{"name":"_account","type":"address","internalType":"address"},{"name":"_amount","type":"uint256","internalType":"uint256"}],"outputs":[],"stateMutability":"nonpayable"},{"type":"function","name":"msgInspector","inputs":[],"outputs":[{"name":"","type":"address","internalType":"address"}],"stateMutability":"view"},{"type":"function","name":"name","inputs":[],"outputs":[{"name":"","type":"string","internalType":"string"}],"stateMutability":"view"},{"type":"function","name":"nextNonce","inputs":[{"name":"","type":"uint32","internalType":"uint32"},{"name":"","type":"bytes32","internalType":"bytes32"}],"outputs":[{"name":"nonce","type":"uint64","internalType":"uint64"}],"stateMutability":"view"},{"type":"function","name":"oApp","inputs":[],"outputs":[{"name":"","type":"address","internalType":"address"}],"stateMutability":"view"},{"type":"function","name":"oAppVersion","inputs":[],"outputs":[{"name":"senderVersion","type":"uint64","internalType":"uint64"},{"name":"receiverVersion","type":"uint64","internalType":"uint64"}],"stateMutability":"pure"},{"type":"function","name":"oftVersion","inputs":[],"outputs":[{"name":"interfaceId","type":"bytes4","internalType":"bytes4"},{"name":"version","type":"uint64","internalType":"uint64"}],"stateMutability":"pure"},{"type":"function","name":"owner","inputs":[],"outputs":[{"name":"","type":"address","internalType":"address"}],"stateMutability":"view"},{"type":"function","name":"peers","inputs":[{"name":"_eid","type":"uint32","internalType":"uint32"}],"outputs":[{"name":"","type":"bytes32","internalType":"bytes32"}],"stateMutability":"view"},{"type":"function","name":"preCrime","inputs":[],"outputs":[{"name":"","type":"address","internalType":"address"}],"stateMutability":"view"},{"type":"function","name":"quoteOFT","inputs":[{"name":"_sendParam","type":"tuple","internalType":"struct SendParam","components":[{"name":"dstEid","type":"uint32","internalType":"uint32"},{"name":"to","type":"bytes32","internalType":"bytes32"},{"name":"amountLD","type":"uint256","internalType":"uint256"},{"name":"minAmountLD","type":"uint256","internalType":"uint256"},{"name":"extraOptions","type":"bytes","internalType":"bytes"},{"name":"composeMsg","type":"bytes","internalType":"bytes"},{"name":"oftCmd","type":"bytes","internalType":"bytes"}]}],"outputs":[{"name":"oftLimit","type":"tuple","internalType":"struct OFTLimit","components":[{"name":"minAmountLD","type":"uint256","internalType":"uint256"},{"name":"maxAmountLD","type":"uint256","internalType":"uint256"}]},{"name":"oftFeeDetails","type":"tuple[]","internalType":"struct OFTFeeDetail[]","components":[{"name":"feeAmountLD","type":"int256","internalType":"int256"},{"name":"description","type":"string","internalType":"string"}]},{"name":"oftReceipt","type":"tuple","internalType":"struct OFTReceipt","components":[{"name":"amountSentLD","type":"uint256","internalType":"uint256"},{"name":"amountReceivedLD","type":"uint256","internalType":"uint256"}]}],"stateMutability":"view"},{"type":"function","name":"quoteSend","inputs":[{"name":"_sendParam","type":"tuple","internalType":"struct SendParam","components":[{"name":"dstEid","type":"uint32","internalType":"uint32"},{"name":"to","type":"bytes32","internalType":"bytes32"},{"name":"amountLD","type":"uint256","internalType":"uint256"},{"name":"minAmountLD","type":"uint256","internalType":"uint256"},{"name":"extraOptions","type":"bytes","internalType":"bytes"},{"name":"composeMsg","type":"bytes","internalType":"bytes"},{"name":"oftCmd","type":"bytes","internalType":"bytes"}]},{"name":"_payInLzToken","type":"bool","internalType":"bool"}],"outputs":[{"name":"msgFee","type":"tuple","internalType":"struct MessagingFee","components":[{"name":"nativeFee","type":"uint256","internalType":"uint256"},{"name":"lzTokenFee","type":"uint256","internalType":"uint256"}]}],"stateMutability":"view"},{"type":"function","name":"rateLimits","inputs":[{"name":"dstEid","type":"uint32","internalType":"uint32"}],"outputs":[{"name":"amountInFlight","type":"uint256","internalType":"uint256"},{"name":"lastUpdated","type":"uint256","internalType":"uint256"},{"name":"limit","type":"uint256","internalType":"uint256"},{"name":"window","type":"uint256","internalType":"uint256"}],"stateMutability":"view"},{"type":"function","name":"renounceOwnership","inputs":[],"outputs":[],"stateMutability":"nonpayable"},{"type":"function","name":"renounceRole","inputs":[{"name":"role","type":"bytes32","internalType":"bytes32"},{"name":"callerConfirmation","type":"address","internalType":"address"}],"outputs":[],"stateMutability":"nonpayable"},{"type":"function","name":"revokeRole","inputs":[{"name":"role","type":"bytes32","internalType":"bytes32"},{"name":"account","type":"address","internalType":"address"}],"outputs":[],"stateMutability":"nonpayable"},{"type":"function","name":"send","inputs":[{"name":"_sendParam","type":"tuple","internalType":"struct SendParam","components":[{"name":"dstEid","type":"uint32","internalType":"uint32"},{"name":"to","type":"bytes32","internalType":"bytes32"},{"name":"amountLD","type":"uint256","internalType":"uint256"},{"name":"minAmountLD","type":"uint256","internalType":"uint256"},{"name":"extraOptions","type":"bytes","internalType":"bytes"},{"name":"composeMsg","type":"bytes","internalType":"bytes"},{"name":"oftCmd","type":"bytes","internalType":"bytes"}]},{"name":"_fee","type":"tuple","internalType":"struct MessagingFee","components":[{"name":"nativeFee","type":"uint256","internalType":"uint256"},{"name":"lzTokenFee","type":"uint256","internalType":"uint256"}]},{"name":"_refundAddress","type":"address","internalType":"address"}],"outputs":[{"name":"msgReceipt","type":"tuple","internalType":"struct MessagingReceipt","components":[{"name":"guid","type":"bytes32","internalType":"bytes32"},{"name":"nonce","type":"uint64","internalType":"uint64"},{"name":"fee","type":"tuple","internalType":"struct MessagingFee","components":[{"name":"nativeFee","type":"uint256","internalType":"uint256"},{"name":"lzTokenFee","type":"uint256","internalType":"uint256"}]}]},{"name":"oftReceipt","type":"tuple","internalType":"struct OFTReceipt","components":[{"name":"amountSentLD","type":"uint256","internalType":"uint256"},{"name":"amountReceivedLD","type":"uint256","internalType":"uint256"}]}],"stateMutability":"payable"},{"type":"function","name":"setDelegate","inputs":[{"name":"_delegate","type":"address","internalType":"address"}],"outputs":[],"stateMutability":"nonpayable"},{"type":"function","name":"setEnforcedOptions","inputs":[{"name":"_enforcedOptions","type":"tuple[]","internalType":"struct EnforcedOptionParam[]","components":[{"name":"eid","type":"uint32","internalType":"uint32"},{"name":"msgType","type":"uint16","internalType":"uint16"},{"name":"options","type":"bytes","internalType":"bytes"}]}],"outputs":[],"stateMutability":"nonpayable"},{"type":"function","name":"setMsgInspector","inputs":[{"name":"_msgInspector","type":"address","internalType":"address"}],"outputs":[],"stateMutability":"nonpayable"},{"type":"function","name":"setPeer","inputs":[{"name":"_eid","type":"uint32","internalType":"uint32"},{"name":"_peer","type":"bytes32","internalType":"bytes32"}],"outputs":[],"stateMutability":"nonpayable"},{"type":"function","name":"setPreCrime","inputs":[{"name":"_preCrime","type":"address","internalType":"address"}],"outputs":[],"stateMutability":"nonpayable"},{"type":"function","name":"setRateLimits","inputs":[{"name":"_rateLimitConfigs","type":"tuple[]","internalType":"struct RateLimiter.RateLimitConfig[]","components":[{"name":"dstEid","type":"uint32","internalType":"uint32"},{"name":"limit","type":"uint256","internalType":"uint256"},{"name":"window","type":"uint256","internalType":"uint256"}]}],"outputs":[],"stateMutability":"nonpayable"},{"type":"function","name":"sharedDecimals","inputs":[],"outputs":[{"name":"","type":"uint8","internalType":"uint8"}],"stateMutability":"pure"},{"type":"function","name":"supportsInterface","inputs":[{"name":"interfaceId","type":"bytes4","internalType":"bytes4"}],"outputs":[{"name":"","type":"bool","internalType":"bool"}],"stateMutability":"view"},{"type":"function","name":"symbol","inputs":[],"outputs":[{"name":"","type":"string","internalType":"string"}],"stateMutability":"view"},{"type":"function","name":"token","inputs":[],"outputs":[{"name":"","type":"address","internalType":"address"}],"stateMutability":"view"},{"type":"function","name":"totalSupply","inputs":[],"outputs":[{"name":"","type":"uint256","internalType":"uint256"}],"stateMutability":"view"},{"type":"function","name":"transfer","inputs":[{"name":"to","type":"address","internalType":"address"},{"name":"value","type":"uint256","internalType":"uint256"}],"outputs":[{"name":"","type":"bool","internalType":"bool"}],"stateMutability":"nonpayable"},{"type":"function","name":"transferFrom","inputs":[{"name":"from","type":"address","internalType":"address"},{"name":"to","type":"address","internalType":"address"},{"name":"value","type":"uint256","internalType":"uint256"}],"outputs":[{"name":"","type":"bool","internalType":"bool"}],"stateMutability":"nonpayable"},{"type":"function","name":"transferOwnership","inputs":[{"name":"newOwner","type":"address","internalType":"address"}],"outputs":[],"stateMutability":"nonpayable"},{"type":"function","name":"updateTokenSymbol","inputs":[{"name":"name_","type":"string","internalType":"string"},{"name":"symbol_","type":"string","internalType":"string"}],"outputs":[],"stateMutability":"nonpayable"},{"type":"event","name":"Approval","inputs":[{"name":"owner","type":"address","indexed":true,"internalType":"address"},{"name":"spender","type":"address","indexed":true,"internalType":"address"},{"name":"value","type":"uint256","indexed":false,"internalType":"uint256"}],"anonymous":false},{"type":"event","name":"EnforcedOptionSet","inputs":[{"name":"_enforcedOptions","type":"tuple[]","indexed":false,"internalType":"struct EnforcedOptionParam[]","components":[{"name":"eid","type":"uint32","internalType":"uint32"},{"name":"msgType","type":"uint16","internalType":"uint16"},{"name":"options","type":"bytes","internalType":"bytes"}]}],"anonymous":false},{"type":"event","name":"Initialized","inputs":[{"name":"version","type":"uint64","indexed":false,"internalType":"uint64"}],"anonymous":false},{"type":"event","name":"MsgInspectorSet","inputs":[{"name":"inspector","type":"address","indexed":false,"internalType":"address"}],"anonymous":false},{"type":"event","name":"OFTReceived","inputs":[{"name":"guid","type":"bytes32","indexed":true,"internalType":"bytes32"},{"name":"srcEid","type":"uint32","indexed":false,"internalType":"uint32"},{"name":"toAddress","type":"address","indexed":true,"internalType":"address"},{"name":"amountReceivedLD","type":"uint256","indexed":false,"internalType":"uint256"}],"anonymous":false},{"type":"event","name":"OFTSent","inputs":[{"name":"guid","type":"bytes32","indexed":true,"internalType":"bytes32"},{"name":"dstEid","type":"uint32","indexed":false,"internalType":"uint32"},{"name":"fromAddress","type":"address","indexed":true,"internalType":"address"},{"name":"amountSentLD","type":"uint256","indexed":false,"internalType":"uint256"},{"name":"amountReceivedLD","type":"uint256","indexed":false,"internalType":"uint256"}],"anonymous":false},{"type":"event","name":"OwnershipTransferred","inputs":[{"name":"previousOwner","type":"address","indexed":true,"internalType":"address"},{"name":"newOwner","type":"address","indexed":true,"internalType":"address"}],"anonymous":false},{"type":"event","name":"PeerSet","inputs":[{"name":"eid","type":"uint32","indexed":false,"internalType":"uint32"},{"name":"peer","type":"bytes32","indexed":false,"internalType":"bytes32"}],"anonymous":false},{"type":"event","name":"PreCrimeSet","inputs":[{"name":"preCrimeAddress","type":"address","indexed":false,"internalType":"address"}],"anonymous":false},{"type":"event","name":"RateLimitsChanged","inputs":[{"name":"rateLimitConfigs","type":"tuple[]","indexed":false,"internalType":"struct RateLimiter.RateLimitConfig[]","components":[{"name":"dstEid","type":"uint32","internalType":"uint32"},{"name":"limit","type":"uint256","internalType":"uint256"},{"name":"window","type":"uint256","internalType":"uint256"}]}],"anonymous":false},{"type":"event","name":"RoleAdminChanged","inputs":[{"name":"role","type":"bytes32","indexed":true,"internalType":"bytes32"},{"name":"previousAdminRole","type":"bytes32","indexed":true,"internalType":"bytes32"},{"name":"newAdminRole","type":"bytes32","indexed":true,"internalType":"bytes32"}],"anonymous":false},{"type":"event","name":"RoleGranted","inputs":[{"name":"role","type":"bytes32","indexed":true,"internalType":"bytes32"},{"name":"account","type":"address","indexed":true,"internalType":"address"},{"name":"sender","type":"address","indexed":true,"internalType":"address"}],"anonymous":false},{"type":"event","name":"RoleRevoked","inputs":[{"name":"role","type":"bytes32","indexed":true,"internalType":"bytes32"},{"name":"account","type":"address","indexed":true,"internalType":"address"},{"name":"sender","type":"address","indexed":true,"internalType":"address"}],"anonymous":false},{"type":"event","name":"Transfer","inputs":[{"name":"from","type":"address","indexed":true,"internalType":"address"},{"name":"to","type":"address","indexed":true,"internalType":"address"},{"name":"value","type":"uint256","indexed":false,"internalType":"uint256"}],"anonymous":false},{"type":"error","name":"AccessControlBadConfirmation","inputs":[]},{"type":"error","name":"AccessControlUnauthorizedAccount","inputs":[{"name":"account","type":"address","internalType":"address"},{"name":"neededRole","type":"bytes32","internalType":"bytes32"}]},{"type":"error","name":"AddressEmptyCode","inputs":[{"name":"target","type":"address","internalType":"address"}]},{"type":"error","name":"AddressInsufficientBalance","inputs":[{"name":"account","type":"address","internalType":"address"}]},{"type":"error","name":"ERC20InsufficientAllowance","inputs":[{"name":"spender","type":"address","internalType":"address"},{"name":"allowance","type":"uint256","internalType":"uint256"},{"name":"needed","type":"uint256","internalType":"uint256"}]},{"type":"error","name":"ERC20InsufficientBalance","inputs":[{"name":"sender","type":"address","internalType":"address"},{"name":"balance","type":"uint256","internalType":"uint256"},{"name":"needed","type":"uint256","internalType":"uint256"}]},{"type":"error","name":"ERC20InvalidApprover","inputs":[{"name":"approver","type":"address","internalType":"address"}]},{"type":"error","name":"ERC20InvalidReceiver","inputs":[{"name":"receiver","type":"address","internalType":"address"}]},{"type":"error","name":"ERC20InvalidSender","inputs":[{"name":"sender","type":"address","internalType":"address"}]},{"type":"error","name":"ERC20InvalidSpender","inputs":[{"name":"spender","type":"address","internalType":"address"}]},{"type":"error","name":"FailedInnerCall","inputs":[]},{"type":"error","name":"InvalidDelegate","inputs":[]},{"type":"error","name":"InvalidEndpointCall","inputs":[]},{"type":"error","name":"InvalidInitialization","inputs":[]},{"type":"error","name":"InvalidLocalDecimals","inputs":[]},{"type":"error","name":"InvalidOptions","inputs":[{"name":"options","type":"bytes","internalType":"bytes"}]},{"type":"error","name":"LzTokenUnavailable","inputs":[]},{"type":"error","name":"NoPeer","inputs":[{"name":"eid","type":"uint32","internalType":"uint32"}]},{"type":"error","name":"NotEnoughNative","inputs":[{"name":"msgValue","type":"uint256","internalType":"uint256"}]},{"type":"error","name":"NotInitializing","inputs":[]},{"type":"error","name":"OnlyEndpoint","inputs":[{"name":"addr","type":"address","internalType":"address"}]},{"type":"error","name":"OnlyPeer","inputs":[{"name":"eid","type":"uint32","internalType":"uint32"},{"name":"sender","type":"bytes32","internalType":"bytes32"}]},{"type":"error","name":"OnlySelf","inputs":[]},{"type":"error","name":"OwnableInvalidOwner","inputs":[{"name":"owner","type":"address","internalType":"address"}]},{"type":"error","name":"OwnableUnauthorizedAccount","inputs":[{"name":"account","type":"address","internalType":"address"}]},{"type":"error","name":"RateLimitExceeded","inputs":[]},{"type":"error","name":"SafeERC20FailedOperation","inputs":[{"name":"token","type":"address","internalType":"address"}]},{"type":"error","name":"SimulationResult","inputs":[{"name":"result","type":"bytes","internalType":"bytes"}]},{"type":"error","name":"SlippageExceeded","inputs":[{"name":"amountLD","type":"uint256","internalType":"uint256"},{"name":"minAmountLD","type":"uint256","internalType":"uint256"}]}],"bytecode":{"object":"0x60c060405234801562000010575f80fd5b50604051620042f6380380620042f683398101604081905262000033916200012a565b6001600160a01b03811660805280601281620000516006836200016d565b6200005e90600a62000288565b60a052506200006f91505062000076565b5062000298565b7ff0c57e16840df040f15088dc2f81fe391c3923bec73e23a9662efc9c229c6a00805468010000000000000000900460ff1615620000c75760405163f92ee8a960e01b815260040160405180910390fd5b80546001600160401b0390811614620001275780546001600160401b0319166001600160401b0390811782556040519081527fc7f505b2f371ae2175ee4913f4499e1f2633a7b5936321eed1cdaeb6115181d29060200160405180910390a15b50565b5f602082840312156200013b575f80fd5b81516001600160a01b038116811462000152575f80fd5b9392505050565b634e487b7160e01b5f52601160045260245ffd5b60ff828116828216039081111562000189576200018962000159565b92915050565b600181815b80851115620001cf57815f1904821115620001b357620001b362000159565b80851615620001c157918102915b93841c939080029062000194565b509250929050565b5f82620001e75750600162000189565b81620001f557505f62000189565b81600181146200020e5760028114620002195762000239565b600191505062000189565b60ff8411156200022d576200022d62000159565b50506001821b62000189565b5060208310610133831016604e8410600b84101617156200025e575081810a62000189565b6200026a83836200018f565b805f190482111562000280576200028062000159565b029392505050565b5f6200015260ff841683620001d7565b60805160a051613ff6620003005f395f81816108010152818161267e015281816126f0015261292501525f81816106c801528181610e0f0152818161193b01528181611d41015281816120d20152818161244f01528181612a7f0152612b360152613ff65ff3fe60806040526004361061035b575f3560e01c80637d25a05e116101bd578063bc70b354116100f2578063d539139311610092578063dd62ed3e1161006d578063dd62ed3e14610a80578063f2fde38b14610a9f578063fc0c546a14610645578063ff7bd03d14610abe575f80fd5b8063d539139314610a0f578063d547741f14610a42578063d9afa16014610a61575f80fd5b8063c7c7f5b3116100cd578063c7c7f5b31461099d578063ca5eb5e1146109be578063d045a0dc146109dd578063d4243885146109f0575f80fd5b8063bc70b35414610937578063bd815db014610956578063c272198d14610969575f80fd5b8063a217fddf1161015d578063b731ea0a11610138578063b731ea0a146108c7578063b92d0eff14610645578063b98bd070146108db578063bb0b6a53146108fa575f80fd5b8063a217fddf14610835578063a9059cbb14610848578063ab99095d14610867575f80fd5b806391d148541161019857806391d14854146107bd57806395d89b41146107dc578063963efcaa146107f05780639f68b96414610823575f80fd5b80637d25a05e1461075d578063857749b0146107965780638da5cb5b146107a9575f80fd5b80632f2ff15d1161029357806352ae2879116102335780635e280f111161020e5780635e280f11146106b75780636fc1b31e146106ea57806370a0823114610709578063715018a614610749575f80fd5b806352ae2879146106455780635535d461146106575780635a0dfe4d14610676575f80fd5b806336568abe1161026e57806336568abe146105bc5780633b6f743b146105db57806340c10f191461060757806346f943e914610626575f80fd5b80632f2ff15d1461055d578063313ce5671461057c5780633400288b1461059d575f80fd5b8063134d4f25116102fe57806318160ddd116102d957806318160ddd146104ce5780631f5e13341461050b57806323b872dd1461051f578063248a9ca31461053e575f80fd5b8063134d4f2514610461578063156a0d0f1461048857806317442b70146104ae575f80fd5b8063095ea7b311610339578063095ea7b3146103d55780630d35b415146103f4578063111ecdad1461042257806313137d651461044e575f80fd5b806301ffc9a71461035f57806306fdde0314610393578063077f224a146103b4575b5f80fd5b34801561036a575f80fd5b5061037e610379366004612e10565b610add565b60405190151581526020015b60405180910390f35b34801561039e575f80fd5b506103a7610b13565b60405161038a9190612e84565b3480156103bf575f80fd5b506103d36103ce366004612fb0565b610bd3565b005b3480156103e0575f80fd5b5061037e6103ef366004613022565b610cf7565b3480156103ff575f80fd5b5061041361040e366004613062565b610d0e565b60405161038a93929190613093565b34801561042d575f80fd5b50610436610dd9565b6040516001600160a01b03909116815260200161038a565b6103d361045c36600461317d565b610e0d565b34801561046c575f80fd5b50610475600281565b60405161ffff909116815260200161038a565b348015610493575f80fd5b506040805162b9270b60e21b8152600160208201520161038a565b3480156104b9575f80fd5b5060408051600180825260208201520161038a565b3480156104d9575f80fd5b507f52c63247e1f47db19d5ce0460030c497f067ca4cebf71ba98eeadabe20bace02545b60405190815260200161038a565b348015610516575f80fd5b50610475600181565b34801561052a575f80fd5b5061037e610539366004613215565b610ecd565b348015610549575f80fd5b506104fd610558366004613253565b610ef2565b348015610568575f80fd5b506103d361057736600461326a565b610f12565b348015610587575f80fd5b5060125b60405160ff909116815260200161038a565b3480156105a8575f80fd5b506103d36105b73660046132b0565b610f34565b3480156105c7575f80fd5b506103d36105d636600461326a565b610f9f565b3480156105e6575f80fd5b506105fa6105f53660046132d7565b610fd7565b60405161038a919061331a565b348015610612575f80fd5b506103d3610621366004613022565b61103b565b348015610631575f80fd5b506103d3610640366004613331565b61106f565b348015610650575f80fd5b5030610436565b348015610662575f80fd5b506103a76106713660046133b0565b6110d3565b348015610681575f80fd5b5061037e6106903660046132b0565b63ffffffff919091165f9081525f80516020613f8183398151915260205260409020541490565b3480156106c2575f80fd5b506104367f000000000000000000000000000000000000000000000000000000000000000081565b3480156106f5575f80fd5b506103d36107043660046133e1565b6111ab565b348015610714575f80fd5b506104fd6107233660046133e1565b6001600160a01b03165f9081525f80516020613f61833981519152602052604090205490565b348015610754575f80fd5b506103d3611227565b348015610768575f80fd5b5061077e6107773660046132b0565b5f92915050565b6040516001600160401b03909116815260200161038a565b3480156107a1575f80fd5b50600661058b565b3480156107b4575f80fd5b5061043661123a565b3480156107c8575f80fd5b5061037e6107d736600461326a565b611262565b3480156107e7575f80fd5b506103a7611298565b3480156107fb575f80fd5b506104fd7f000000000000000000000000000000000000000000000000000000000000000081565b34801561082e575f80fd5b505f61037e565b348015610840575f80fd5b506104fd5f81565b348015610853575f80fd5b5061037e610862366004613022565b6112d6565b348015610872575f80fd5b506108a76108813660046133fc565b5f6020819052908152604090208054600182015460028301546003909301549192909184565b60408051948552602085019390935291830152606082015260800161038a565b3480156108d2575f80fd5b506104366112e3565b3480156108e6575f80fd5b506103d36108f5366004613455565b61130b565b348015610905575f80fd5b506104fd6109143660046133fc565b63ffffffff165f9081525f80516020613f81833981519152602052604090205490565b348015610942575f80fd5b506103a7610951366004613493565b611491565b6103d3610964366004613455565b611629565b348015610974575f80fd5b506109886109833660046133fc565b6117bf565b6040805192835260208301919091520161038a565b6109b06109ab3660046134ef565b61181d565b60405161038a92919061354c565b3480156109c9575f80fd5b506103d36109d83660046133e1565b611914565b6103d36109eb36600461317d565b611995565b3480156109fb575f80fd5b506103d3610a0a3660046133e1565b6119c4565b348015610a1a575f80fd5b506104fd7f9f2df0fed2c77648de5860a4cc508cd0818c85b8b8a1ab4ceeef8d981c8956a681565b348015610a4d575f80fd5b506103d3610a5c36600461326a565b611a38565b348015610a6c575f80fd5b506103d3610a7b36600461359d565b611a54565b348015610a8b575f80fd5b506104fd610a9a3660046135fc565b611aa6565b348015610aaa575f80fd5b506103d3610ab93660046133e1565b611aef565b348015610ac9575f80fd5b5061037e610ad8366004613628565b611b2c565b5f6001600160e01b03198216637965db0b60e01b1480610b0d57506301ffc9a760e01b6001600160e01b03198316145b92915050565b7f52c63247e1f47db19d5ce0460030c497f067ca4cebf71ba98eeadabe20bace0380546060915f80516020613f6183398151915291610b5190613642565b80601f0160208091040260200160405190810160405280929190818152602001828054610b7d90613642565b8015610bc85780601f10610b9f57610100808354040283529160200191610bc8565b820191905f5260205f20905b815481529060010190602001808311610bab57829003601f168201915b505050505091505090565b7ff0c57e16840df040f15088dc2f81fe391c3923bec73e23a9662efc9c229c6a008054600160401b810460ff1615906001600160401b03165f81158015610c175750825b90505f826001600160401b03166001148015610c325750303b155b905081158015610c40575080155b15610c5e5760405163f92ee8a960e01b815260040160405180910390fd5b845467ffffffffffffffff191660011785558315610c8857845460ff60401b1916600160401b1785555b610c93888888611b49565b610c9c86611b64565b610ca65f87611b75565b508315610ced57845460ff60401b19168555604051600181527fc7f505b2f371ae2175ee4913f4499e1f2633a7b5936321eed1cdaeb6115181d29060200160405180910390a15b5050505050505050565b5f33610d04818585611c16565b5060019392505050565b604080518082019091525f80825260208201526060610d3e60405180604001604052805f81526020015f81525090565b6040805180820182525f8082526001600160401b03602080840182905284518381529081019094529195509182610d97565b604080518082019091525f815260606020820152815260200190600190039081610d705790505b5093505f80610dbb604089013560608a0135610db660208c018c6133fc565b611c23565b60408051808201909152918252602082015296989597505050505050565b5f807f41db8a78b0206aba5c54bcbfc2bda0d84082a84eb88e680379a57b9e9f653c005b546001600160a01b031692915050565b7f00000000000000000000000000000000000000000000000000000000000000006001600160a01b03163314610e5d576040516391ac5e4f60e01b81523360048201526024015b60405180910390fd5b60208701803590610e7790610e72908a6133fc565b611c66565b14610eb557610e8960208801886133fc565b60405163309afaf360e21b815263ffffffff909116600482015260208801356024820152604401610e54565b610ec487878787878787611caf565b50505050505050565b5f33610eda858285611e0d565b610ee5858585611e6a565b60019150505b9392505050565b5f9081525f80516020613fa1833981519152602052604090206001015490565b610f1b82610ef2565b610f2481611ec7565b610f2e8383611b75565b50505050565b610f3c611ed1565b63ffffffff82165f8181525f80516020613f81833981519152602081815260409283902085905582519384528301849052917f238399d427b947898edb290f5ff0f9109849b1c3ba196a42e35f00c50a54b98b91015b60405180910390a1505050565b6001600160a01b0381163314610fc85760405163334bd91960e11b815260040160405180910390fd5b610fd28282611f03565b505050565b604080518082019091525f80825260208201525f61100560408501356060860135610db660208801886133fc565b9150505f806110148684611f7c565b909250905061103161102960208801886133fc565b8383886120bd565b9695505050505050565b7f9f2df0fed2c77648de5860a4cc508cd0818c85b8b8a1ab4ceeef8d981c8956a661106581611ec7565b610fd2838361219b565b5f61107981611ec7565b610fd28383808060200260200160405190810160405280939291908181526020015f905b828210156110c9576110ba60608302860136819003810190613674565b8152602001906001019061109d565b50505050506121d3565b63ffffffff82165f9081527f8d2bda5d9f6ffb5796910376005392955773acee5548d0fcdb10e7c264ea00006020818152604080842061ffff861685529091529091208054606092919061112690613642565b80601f016020809104026020016040519081016040528092919081815260200182805461115290613642565b801561119d5780601f106111745761010080835404028352916020019161119d565b820191905f5260205f20905b81548152906001019060200180831161118057829003601f168201915b505050505091505092915050565b6111b3611ed1565b7f41db8a78b0206aba5c54bcbfc2bda0d84082a84eb88e680379a57b9e9f653c0080546001600160a01b0319166001600160a01b03831690811782556040519081527ff0be4f1e87349231d80c36b33f9e8639658eeaf474014dee15a3e6a4d4414197906020015b60405180910390a15050565b61122f611ed1565b6112385f6122cf565b565b5f807f9016d09d72d40fdae2fd8ceac6b6234c7706214fd39c1cd1e609a0528c199300610dfd565b5f9182525f80516020613fa1833981519152602090815260408084206001600160a01b0393909316845291905290205460ff1690565b7f52c63247e1f47db19d5ce0460030c497f067ca4cebf71ba98eeadabe20bace0480546060915f80516020613f6183398151915291610b5190613642565b5f33610d04818585611e6a565b5f807fefb041d771d6daaa55702fff6eb740d63ba559a75d2d1d3e151c78ff2480b600610dfd565b611313611ed1565b7f8d2bda5d9f6ffb5796910376005392955773acee5548d0fcdb10e7c264ea00005f5b8281101561145f57611378848483818110611353576113536136b5565b905060200281019061136591906136c9565b6113739060408101906136e7565b61233f565b83838281811061138a5761138a6136b5565b905060200281019061139c91906136c9565b6113aa9060408101906136e7565b835f8787868181106113be576113be6136b5565b90506020028101906113d091906136c9565b6113de9060208101906133fc565b63ffffffff1663ffffffff1681526020019081526020015f205f87878681811061140a5761140a6136b5565b905060200281019061141c91906136c9565b61142d906040810190602001613729565b61ffff16815260208101919091526040015f209161144c91908361378f565b50806114578161385d565b915050611336565b507fbe4864a8e820971c0247f5992e2da559595f7bf076a21cb5928d443d2a13b6748383604051610f9292919061389d565b63ffffffff84165f9081527f8d2bda5d9f6ffb5796910376005392955773acee5548d0fcdb10e7c264ea00006020818152604080842061ffff881685529091528220805460609391906114e390613642565b80601f016020809104026020016040519081016040528092919081815260200182805461150f90613642565b801561155a5780601f106115315761010080835404028352916020019161155a565b820191905f5260205f20905b81548152906001019060200180831161153d57829003601f168201915b5050505050905080515f036115a95784848080601f0160208091040260200160405190810160405280939291908181526020018383808284375f92019190915250929550611621945050505050565b5f8490036115ba5791506116219050565b60028410611604576115cc858561233f565b806115da856002818961397c565b6040516020016115ec939291906139a3565b60405160208183030381529060405292505050611621565b8484604051639a6d49cd60e01b8152600401610e549291906139c9565b949350505050565b5f5b818110156117425736838383818110611646576116466136b5565b905060200281019061165891906139dc565b905061169661166a60208301836133fc565b602083013563ffffffff919091165f9081525f80516020613f8183398151915260205260409020541490565b6116a05750611730565b3063d045a0dc60c08301358360a08101356116bf6101008301836136e7565b6116d0610100890160e08a016133e1565b6116de6101208a018a6136e7565b6040518963ffffffff1660e01b81526004016117009796959493929190613a05565b5f604051808303818588803b158015611717575f80fd5b505af1158015611729573d5f803e3d5ffd5b5050505050505b8061173a8161385d565b91505061162b565b50336001600160a01b0316638e9e70996040518163ffffffff1660e01b81526004015f60405180830381865afa15801561177e573d5f803e3d5ffd5b505050506040513d5f823e601f3d908101601f191682016040526117a59190810190613a8a565b604051638351eea760e01b8152600401610e549190612e84565b63ffffffff81165f9081526020818152604080832081516080810183528154808252600183015494820185905260028301549382018490526003909201546060820181905285949193611813939291612380565b9250925050915091565b611825612dcd565b604080518082019091525f80825260208201525f806118596040880135606089013561185460208b018b6133fc565b6123fb565b915091505f806118698984611f7c565b909250905061189561187e60208b018b6133fc565b838361188f368d90038d018d613af2565b8b61241e565b60408051808201909152858152602080820186905282519298509096503391907f85496b760a4b7f8d66384b9df21b381f5d1b1e79f229a47aaf4c232edc2fe59a906118e3908d018d6133fc565b6040805163ffffffff909216825260208201899052810187905260600160405180910390a350505050935093915050565b61191c611ed1565b60405163ca5eb5e160e01b81526001600160a01b0382811660048301527f0000000000000000000000000000000000000000000000000000000000000000169063ca5eb5e1906024015f604051808303815f87803b15801561197c575f80fd5b505af115801561198e573d5f803e3d5ffd5b5050505050565b3330146119b55760405163029a949d60e31b815260040160405180910390fd5b610ec487878787878787610eb5565b6119cc611ed1565b7fefb041d771d6daaa55702fff6eb740d63ba559a75d2d1d3e151c78ff2480b60080546001600160a01b0319166001600160a01b03831690811782556040519081527fd48d879cef83a1c0bdda516f27b13ddb1b3f8bbac1c9e1511bb2a659c24277609060200161121b565b611a4182610ef2565b611a4a81611ec7565b610f2e8383611f03565b5f611a5e81611ec7565b5f80516020613f618339815191527f52c63247e1f47db19d5ce0460030c497f067ca4cebf71ba98eeadabe20bace03611a978582613b22565b506004810161198e8482613b22565b6001600160a01b039182165f9081527f52c63247e1f47db19d5ce0460030c497f067ca4cebf71ba98eeadabe20bace016020908152604080832093909416825291909152205490565b611af7611ed1565b6001600160a01b038116611b2057604051631e4fbdf760e01b81525f6004820152602401610e54565b611b29816122cf565b50565b5f60208201803590611b429061091490856133fc565b1492915050565b611b51612524565b611b5b838361256d565b610fd28161257f565b611b6c612524565b611b2981612590565b5f5f80516020613fa1833981519152611b8e8484611262565b611c0d575f848152602082815260408083206001600160a01b03871684529091529020805460ff19166001179055611bc33390565b6001600160a01b0316836001600160a01b0316857f2f8788117e7eff1d82e926ec794901d17c78024a50270940304540a733656f0d60405160405180910390a46001915050610b0d565b5f915050610b0d565b610fd28383836001612598565b5f80611c2e8561267b565b915081905083811015611c5e576040516371c4efed60e01b81526004810182905260248101859052604401610e54565b935093915050565b63ffffffff81165f9081525f80516020613f818339815191526020819052604082205480610eeb5760405163f6ff4fb760e01b815263ffffffff85166004820152602401610e54565b5f611cc0611cbd87876126b1565b90565b90505f611ceb82611cd9611cd48a8a6126c8565b6126ea565b611ce660208d018d6133fc565b61271e565b90506028861115611dab575f611d27611d0a60608c0160408d01613bdd565b611d1760208d018d6133fc565b84611d228c8c612731565b61277b565b604051633e5ac80960e11b81529091506001600160a01b037f00000000000000000000000000000000000000000000000000000000000000001690637cb5901290611d7c9086908d905f908790600401613bf8565b5f604051808303815f87803b158015611d93575f80fd5b505af1158015611da5573d5f803e3d5ffd5b50505050505b6001600160a01b038216887fefed6d3500546b29533b128a29e3a94d70788727f0507505ac12eaf2e578fd9c611de460208d018d6133fc565b6040805163ffffffff9092168252602082018690520160405180910390a3505050505050505050565b5f611e188484611aa6565b90505f198114610f2e5781811015611e5c57604051637dc7a0d960e11b81526001600160a01b03841660048201526024810182905260448101839052606401610e54565b610f2e84848484035f612598565b6001600160a01b038316611e9357604051634b637e8f60e11b81525f6004820152602401610e54565b6001600160a01b038216611ebc5760405163ec442f0560e01b81525f6004820152602401610e54565b610fd28383836127ad565b611b2981336128e6565b33611eda61123a565b6001600160a01b0316146112385760405163118cdaa760e01b8152336004820152602401610e54565b5f5f80516020613fa1833981519152611f1c8484611262565b15611c0d575f848152602082815260408083206001600160a01b0387168085529252808320805460ff1916905551339287917ff6391f5c32d9c69d2a47ea670b442974b53935d1edc7fd64eb21e047a839171b9190a46001915050610b0d565b6060805f611fd78560200135611f918661291f565b611f9e60a08901896136e7565b8080601f0160208091040260200160405190810160405280939291908181526020018383808284375f9201919091525061294a92505050565b90935090505f81611fe9576001611fec565b60025b905061200c611ffe60208801886133fc565b8261095160808a018a6136e7565b7f41db8a78b0206aba5c54bcbfc2bda0d84082a84eb88e680379a57b9e9f653c008054919450906001600160a01b0316156120b357805460405163043a78eb60e01b81526001600160a01b039091169063043a78eb906120729088908890600401613c28565b602060405180830381865afa15801561208d573d5f803e3d5ffd5b505050506040513d601f19601f820116820180604052508101906120b19190613c4c565b505b5050509250929050565b604080518082019091525f80825260208201527f00000000000000000000000000000000000000000000000000000000000000006001600160a01b031663ddc28c586040518060a001604052808863ffffffff16815260200161211f89611c66565b8152602001878152602001868152602001851515815250306040518363ffffffff1660e01b8152600401612154929190613c67565b6040805180830381865afa15801561216e573d5f803e3d5ffd5b505050506040513d601f19601f820116820180604052508101906121929190613d0d565b95945050505050565b6001600160a01b0382166121c45760405163ec442f0560e01b81525f6004820152602401610e54565b6121cf5f83836127ad565b5050565b5f5b8151811015612294575f805f8484815181106121f3576121f36136b5565b60200260200101515f015163ffffffff1663ffffffff1681526020019081526020015f20905061223f83838151811061222e5761222e6136b5565b60200260200101515f01515f6129c4565b828281518110612251576122516136b5565b6020026020010151602001518160020181905550828281518110612277576122776136b5565b6020908102919091010151604001516003909101556001016121d5565b507fe888347665897e637801f36c5129f510657276178c89022bc5fa0246dbc19de1816040516122c49190613d27565b60405180910390a150565b7f9016d09d72d40fdae2fd8ceac6b6234c7706214fd39c1cd1e609a0528c19930080546001600160a01b031981166001600160a01b03848116918217845560405192169182907f8be0079c531659141344cd1fd0a4f28419497f9722a3daafe3b4186f6b6457e0905f90a3505050565b5f61234d600282848661397c565b61235691613d85565b60f01c905060038114610fd2578282604051639a6d49cd60e01b8152600401610e549291906139c9565b5f808061238d8642613db5565b90508381106123a1575f92508491506123f1565b5f846123ad8388613dc8565b6123b79190613ddf565b9050808811156123d0576123cb8189613db5565b6123d2565b5f5b9350838611156123eb576123e68487613db5565b6123ed565b5f5b9250505b5094509492505050565b5f8061240783866129c4565b612412858585612a39565b91509150935093915050565b612426612dcd565b5f612433845f0151612a55565b60208501519091501561244d5761244d8460200151612a7c565b7f00000000000000000000000000000000000000000000000000000000000000006001600160a01b0316632637a450826040518060a001604052808b63ffffffff16815260200161249d8c611c66565b81526020018a81526020018981526020015f8960200151111515815250866040518463ffffffff1660e01b81526004016124d8929190613c67565b60806040518083038185885af11580156124f4573d5f803e3d5ffd5b50505050506040513d601f19601f820116820180604052508101906125199190613dfe565b979650505050505050565b7ff0c57e16840df040f15088dc2f81fe391c3923bec73e23a9662efc9c229c6a0054600160401b900460ff1661123857604051631afcd79f60e31b815260040160405180910390fd5b612575612524565b6121cf8282612b5b565b612587612524565b611b2981612bab565b611af7612524565b5f80516020613f618339815191526001600160a01b0385166125cf5760405163e602df0560e01b81525f6004820152602401610e54565b6001600160a01b0384166125f857604051634a1406b160e11b81525f6004820152602401610e54565b6001600160a01b038086165f9081526001830160209081526040808320938816835292905220839055811561198e57836001600160a01b0316856001600160a01b03167f8c5be1e5ebec7d5bd14f71427d1e84f3dd0314c0f7b2291e5b200ac8c7c3b9258560405161266c91815260200190565b60405180910390a35050505050565b5f7f00000000000000000000000000000000000000000000000000000000000000006126a78184613ddf565b610b0d9190613dc8565b5f6126bf602082848661397c565b610eeb91613e46565b5f6126d760286020848661397c565b6126e091613e63565b60c01c9392505050565b5f610b0d7f00000000000000000000000000000000000000000000000000000000000000006001600160401b038416613dc8565b5f612729848461219b565b509092915050565b6060612740826028818661397c565b8080601f0160208091040260200160405190810160405280939291908181526020018383808284375f92019190915250929695505050505050565b6060848484846040516020016127949493929190613e91565b6040516020818303038152906040529050949350505050565b5f80516020613f618339815191526001600160a01b0384166127e75781816002015f8282546127dc9190613edf565b909155506128579050565b6001600160a01b0384165f90815260208290526040902054828110156128395760405163391434e360e21b81526001600160a01b03861660048201526024810182905260448101849052606401610e54565b6001600160a01b0385165f9081526020839052604090209083900390555b6001600160a01b038316612875576002810180548390039055612893565b6001600160a01b0383165f9081526020829052604090208054830190555b826001600160a01b0316846001600160a01b03167fddf252ad1be2c89b69c2b068fc378daa952ba7f163c4a11628f55a4df523b3ef846040516128d891815260200190565b60405180910390a350505050565b6128f08282611262565b6121cf5760405163e2517d3f60e01b81526001600160a01b038216600482015260248101839052604401610e54565b5f610b0d7f000000000000000000000000000000000000000000000000000000000000000083613ddf565b805160609015158061299357848460405160200161297f92919091825260c01b6001600160c01b031916602082015260280190565b6040516020818303038152906040526129ba565b848433856040516020016129aa9493929190613ef2565b6040516020818303038152906040525b9150935093915050565b63ffffffff82165f908152602081905260408120805460018201546002830154600384015493949384936129fb9390929091612380565b9150915080841115612a205760405163a74c1c5f60e01b815260040160405180910390fd5b612a2a8483613edf565b83555050426001909101555050565b5f80612a46858585611c23565b9092509050611c5e3383612bbc565b5f813414612a78576040516304fb820960e51b8152346004820152602401610e54565b5090565b5f7f00000000000000000000000000000000000000000000000000000000000000006001600160a01b031663e4fe1d946040518163ffffffff1660e01b8152600401602060405180830381865afa158015612ad9573d5f803e3d5ffd5b505050506040513d601f19601f82011682018060405250810190612afd9190613f34565b90506001600160a01b038116612b26576040516329b99a9560e11b815260040160405180910390fd5b6121cf6001600160a01b038216337f000000000000000000000000000000000000000000000000000000000000000085612bf0565b612b63612524565b5f80516020613f618339815191527f52c63247e1f47db19d5ce0460030c497f067ca4cebf71ba98eeadabe20bace03612b9c8482613b22565b5060048101610f2e8382613b22565b612bb3612524565b611b2981612c4a565b6001600160a01b038216612be557604051634b637e8f60e11b81525f6004820152602401610e54565b6121cf825f836127ad565b604080516001600160a01b0385811660248301528416604482015260648082018490528251808303909101815260849091019091526020810180516001600160e01b03166323b872dd60e01b179052610f2e908590612c79565b612c52612524565b6001600160a01b03811661191c57604051632d618d8160e21b815260040160405180910390fd5b5f612c8d6001600160a01b03841683612cda565b905080515f14158015612cb1575080806020019051810190612caf9190613c4c565b155b15610fd257604051635274afe760e01b81526001600160a01b0384166004820152602401610e54565b6060610eeb83835f845f80856001600160a01b03168486604051612cfe9190613f4f565b5f6040518083038185875af1925050503d805f8114612d38576040519150601f19603f3d011682016040523d82523d5f602084013e612d3d565b606091505b5091509150611031868383606082612d5d57612d5882612da4565b610eeb565b8151158015612d7457506001600160a01b0384163b155b15612d9d57604051639996b31560e01b81526001600160a01b0385166004820152602401610e54565b5080610eeb565b805115612db45780518082602001fd5b604051630a12f52160e11b815260040160405180910390fd5b60405180606001604052805f80191681526020015f6001600160401b03168152602001612e0b60405180604001604052805f81526020015f81525090565b905290565b5f60208284031215612e20575f80fd5b81356001600160e01b031981168114610eeb575f80fd5b5f5b83811015612e51578181015183820152602001612e39565b50505f910152565b5f8151808452612e70816020860160208601612e37565b601f01601f19169290920160200192915050565b602081525f610eeb6020830184612e59565b634e487b7160e01b5f52604160045260245ffd5b604051606081016001600160401b0381118282101715612ecc57612ecc612e96565b60405290565b604080519081016001600160401b0381118282101715612ecc57612ecc612e96565b604051601f8201601f191681016001600160401b0381118282101715612f1c57612f1c612e96565b604052919050565b5f6001600160401b03821115612f3c57612f3c612e96565b50601f01601f191660200190565b5f82601f830112612f59575f80fd5b8135612f6c612f6782612f24565b612ef4565b818152846020838601011115612f80575f80fd5b816020850160208301375f918101602001919091529392505050565b6001600160a01b0381168114611b29575f80fd5b5f805f60608486031215612fc2575f80fd5b83356001600160401b0380821115612fd8575f80fd5b612fe487838801612f4a565b94506020860135915080821115612ff9575f80fd5b5061300686828701612f4a565b925050604084013561301781612f9c565b809150509250925092565b5f8060408385031215613033575f80fd5b823561303e81612f9c565b946020939093013593505050565b5f60e0828403121561305c575f80fd5b50919050565b5f60208284031215613072575f80fd5b81356001600160401b03811115613087575f80fd5b6116218482850161304c565b83518152602080850151908201525f60a08201604060a08185015281865180845260c08601915060c08160051b870101935060208089015f5b8381101561310b5788870360bf190185528151805188528301518388018790526130f887890182612e59565b97505093820193908201906001016130cc565b50508751606088015250505060208501516080850152509050611621565b5f6060828403121561305c575f80fd5b5f8083601f840112613149575f80fd5b5081356001600160401b0381111561315f575f80fd5b602083019150836020828501011115613176575f80fd5b9250929050565b5f805f805f805f60e0888a031215613193575f80fd5b61319d8989613129565b96506060880135955060808801356001600160401b03808211156131bf575f80fd5b6131cb8b838c01613139565b909750955060a08a013591506131e082612f9c565b90935060c089013590808211156131f5575f80fd5b506132028a828b01613139565b989b979a50959850939692959293505050565b5f805f60608486031215613227575f80fd5b833561323281612f9c565b9250602084013561324281612f9c565b929592945050506040919091013590565b5f60208284031215613263575f80fd5b5035919050565b5f806040838503121561327b575f80fd5b82359150602083013561328d81612f9c565b809150509250929050565b803563ffffffff811681146132ab575f80fd5b919050565b5f80604083850312156132c1575f80fd5b61303e83613298565b8015158114611b29575f80fd5b5f80604083850312156132e8575f80fd5b82356001600160401b038111156132fd575f80fd5b6133098582860161304c565b925050602083013561328d816132ca565b815181526020808301519082015260408101610b0d565b5f8060208385031215613342575f80fd5b82356001600160401b0380821115613358575f80fd5b818501915085601f83011261336b575f80fd5b813581811115613379575f80fd5b86602060608302850101111561338d575f80fd5b60209290920196919550909350505050565b803561ffff811681146132ab575f80fd5b5f80604083850312156133c1575f80fd5b6133ca83613298565b91506133d86020840161339f565b90509250929050565b5f602082840312156133f1575f80fd5b8135610eeb81612f9c565b5f6020828403121561340c575f80fd5b610eeb82613298565b5f8083601f840112613425575f80fd5b5081356001600160401b0381111561343b575f80fd5b6020830191508360208260051b8501011115613176575f80fd5b5f8060208385031215613466575f80fd5b82356001600160401b0381111561347b575f80fd5b61348785828601613415565b90969095509350505050565b5f805f80606085870312156134a6575f80fd5b6134af85613298565b93506134bd6020860161339f565b925060408501356001600160401b038111156134d7575f80fd5b6134e387828801613139565b95989497509550505050565b5f805f8385036080811215613502575f80fd5b84356001600160401b03811115613517575f80fd5b6135238782880161304c565b9450506040601f1982011215613537575f80fd5b50602084019150606084013561301781612f9c565b5f60c082019050835182526001600160401b0360208501511660208301526040840151613586604084018280518252602090810151910152565b5082516080830152602083015160a0830152610eeb565b5f80604083850312156135ae575f80fd5b82356001600160401b03808211156135c4575f80fd5b6135d086838701612f4a565b935060208501359150808211156135e5575f80fd5b506135f285828601612f4a565b9150509250929050565b5f806040838503121561360d575f80fd5b823561361881612f9c565b9150602083013561328d81612f9c565b5f60608284031215613638575f80fd5b610eeb8383613129565b600181811c9082168061365657607f821691505b60208210810361305c57634e487b7160e01b5f52602260045260245ffd5b5f60608284031215613684575f80fd5b61368c612eaa565b61369583613298565b815260208301356020820152604083013560408201528091505092915050565b634e487b7160e01b5f52603260045260245ffd5b5f8235605e198336030181126136dd575f80fd5b9190910192915050565b5f808335601e198436030181126136fc575f80fd5b8301803591506001600160401b03821115613715575f80fd5b602001915036819003821315613176575f80fd5b5f60208284031215613739575f80fd5b610eeb8261339f565b601f821115610fd2575f81815260208120601f850160051c810160208610156137685750805b601f850160051c820191505b8181101561378757828155600101613774565b505050505050565b6001600160401b038311156137a6576137a6612e96565b6137ba836137b48354613642565b83613742565b5f601f8411600181146137eb575f85156137d45750838201355b5f19600387901b1c1916600186901b17835561198e565b5f83815260209020601f19861690835b8281101561381b57868501358255602094850194600190920191016137fb565b5086821015613837575f1960f88860031b161c19848701351681555b505060018560011b0183555050505050565b634e487b7160e01b5f52601160045260245ffd5b5f6001820161386e5761386e613849565b5060010190565b81835281816020850137505f828201602090810191909152601f909101601f19169091010190565b60208082528181018390525f906040808401600586901b8501820187855b8881101561396e57878303603f190184528135368b9003605e190181126138e0575f80fd5b8a01606063ffffffff6138f283613298565b16855261ffff61390389840161339f565b168886015286820135601e1983360301811261391d575f80fd5b9091018781019190356001600160401b03811115613939575f80fd5b803603831315613947575f80fd5b81888701526139598287018285613875565b968901969550505091860191506001016138bb565b509098975050505050505050565b5f808585111561398a575f80fd5b83861115613996575f80fd5b5050820193919092039150565b5f84516139b4818460208901612e37565b8201838582375f930192835250909392505050565b602081525f611621602083018486613875565b5f823561013e198336030181126136dd575f80fd5b6001600160401b0381168114611b29575f80fd5b63ffffffff613a1389613298565b168152602088013560208201525f6040890135613a2f816139f1565b6001600160401b03811660408401525087606083015260e06080830152613a5a60e083018789613875565b6001600160a01b03861660a084015282810360c0840152613a7c818587613875565b9a9950505050505050505050565b5f60208284031215613a9a575f80fd5b81516001600160401b03811115613aaf575f80fd5b8201601f81018413613abf575f80fd5b8051613acd612f6782612f24565b818152856020838501011115613ae1575f80fd5b612192826020830160208601612e37565b5f60408284031215613b02575f80fd5b613b0a612ed2565b82358152602083013560208201528091505092915050565b81516001600160401b03811115613b3b57613b3b612e96565b613b4f81613b498454613642565b84613742565b602080601f831160018114613b82575f8415613b6b5750858301515b5f19600386901b1c1916600185901b178555613787565b5f85815260208120601f198616915b82811015613bb057888601518255948401946001909101908401613b91565b5085821015613bcd57878501515f19600388901b60f8161c191681555b5050505050600190811b01905550565b5f60208284031215613bed575f80fd5b8135610eeb816139f1565b60018060a01b038516815283602082015261ffff83166040820152608060608201525f6110316080830184612e59565b604081525f613c3a6040830185612e59565b82810360208401526121928185612e59565b5f60208284031215613c5c575f80fd5b8151610eeb816132ca565b6040815263ffffffff8351166040820152602083015160608201525f604084015160a06080840152613c9c60e0840182612e59565b90506060850151603f198483030160a0850152613cb98282612e59565b60809690960151151560c08501525050506001600160a01b039190911660209091015290565b5f60408284031215613cef575f80fd5b613cf7612ed2565b9050815181526020820151602082015292915050565b5f60408284031215613d1d575f80fd5b610eeb8383613cdf565b602080825282518282018190525f919060409081850190868401855b82811015613d78578151805163ffffffff16855286810151878601528501518585015260609093019290850190600101613d43565b5091979650505050505050565b6001600160f01b03198135818116916002851015613dad5780818660020360031b1b83161692505b505092915050565b81810381811115610b0d57610b0d613849565b8082028115828204841417610b0d57610b0d613849565b5f82613df957634e487b7160e01b5f52601260045260245ffd5b500490565b5f60808284031215613e0e575f80fd5b613e16612eaa565b825181526020830151613e28816139f1565b6020820152613e3a8460408501613cdf565b60408201529392505050565b80356020831015610b0d575f19602084900360031b1b1692915050565b6001600160c01b03198135818116916008851015613dad5760089490940360031b84901b1690921692915050565b6001600160401b0360c01b8560c01b16815263ffffffff60e01b8460e01b16600882015282600c8201525f8251613ecf81602c850160208701612e37565b91909101602c0195945050505050565b80820180821115610b0d57610b0d613849565b8481526001600160401b0360c01b8460c01b1660208201528260288201525f8251613f24816048850160208701612e37565b9190910160480195945050505050565b5f60208284031215613f44575f80fd5b8151610eeb81612f9c565b5f82516136dd818460208701612e3756fe52c63247e1f47db19d5ce0460030c497f067ca4cebf71ba98eeadabe20bace0072ab1bc1039b79dc4724ffca13de82c96834302d3c7e0d4252232d4b2dd8f90002dd7bc7dec4dceedda775e58dd541e08a116c6c53815c0bd028192f7b626800a2646970667358221220a0f94e7f6d2f3734bacb2e6a98466a4872a2e846272bfc1de39f743a7973a9cb64736f6c63430008140033","linkReferences":{}},"methodIdentifiers":{"DEFAULT_ADMIN_ROLE()":"a217fddf","MINTER_ROLE()":"d5391393","SEND()":"1f5e1334","SEND_AND_CALL()":"134d4f25","allowInitializePath((uint32,bytes32,uint64))":"ff7bd03d","allowance(address,address)":"dd62ed3e","approvalRequired()":"9f68b964","approve(address,uint256)":"095ea7b3","balanceOf(address)":"70a08231","combineOptions(uint32,uint16,bytes)":"bc70b354","composeMsgSender()":"b92d0eff","decimalConversionRate()":"963efcaa","decimals()":"313ce567","endpoint()":"5e280f11","enforcedOptions(uint32,uint16)":"5535d461","getAmountCanBeSent(uint32)":"c272198d","getRoleAdmin(bytes32)":"248a9ca3","grantRole(bytes32,address)":"2f2ff15d","hasRole(bytes32,address)":"91d14854","initialize(string,string,address)":"077f224a","isPeer(uint32,bytes32)":"5a0dfe4d","lzReceive((uint32,bytes32,uint64),bytes32,bytes,address,bytes)":"13137d65","lzReceiveAndRevert(((uint32,bytes32,uint64),uint32,address,bytes32,uint256,address,bytes,bytes)[])":"bd815db0","lzReceiveSimulate((uint32,bytes32,uint64),bytes32,bytes,address,bytes)":"d045a0dc","mint(address,uint256)":"40c10f19","msgInspector()":"111ecdad","name()":"06fdde03","nextNonce(uint32,bytes32)":"7d25a05e","oApp()":"52ae2879","oAppVersion()":"17442b70","oftVersion()":"156a0d0f","owner()":"8da5cb5b","peers(uint32)":"bb0b6a53","preCrime()":"b731ea0a","quoteOFT((uint32,bytes32,uint256,uint256,bytes,bytes,bytes))":"0d35b415","quoteSend((uint32,bytes32,uint256,uint256,bytes,bytes,bytes),bool)":"3b6f743b","rateLimits(uint32)":"ab99095d","renounceOwnership()":"715018a6","renounceRole(bytes32,address)":"36568abe","revokeRole(bytes32,address)":"d547741f","send((uint32,bytes32,uint256,uint256,bytes,bytes,bytes),(uint256,uint256),address)":"c7c7f5b3","setDelegate(address)":"ca5eb5e1","setEnforcedOptions((uint32,uint16,bytes)[])":"b98bd070","setMsgInspector(address)":"6fc1b31e","setPeer(uint32,bytes32)":"3400288b","setPreCrime(address)":"d4243885","setRateLimits((uint32,uint256,uint256)[])":"46f943e9","sharedDecimals()":"857749b0","supportsInterface(bytes4)":"01ffc9a7","symbol()":"95d89b41","token()":"fc0c546a","totalSupply()":"18160ddd","transfer(address,uint256)":"a9059cbb","transferFrom(address,address,uint256)":"23b872dd","transferOwnership(address)":"f2fde38b","updateTokenSymbol(string,string)":"d9afa160"},"id":4}