{"abi":[{"type":"constructor","inputs":[],"stateMutability":"nonpayable"},{"type":"function","name":"UPGRADE_INTERFACE_VERSION","inputs":[],"outputs":[{"name":"","type":"string","internalType":"string"}],"stateMutability":"view"},{"type":"function","name":"admins","inputs":[{"name":"","type":"address","internalType":"address"}],"outputs":[{"name":"","type":"bool","internalType":"bool"}],"stateMutability":"view"},{"type":"function","name":"consumer","inputs":[],"outputs":[{"name":"","type":"address","internalType":"address"}],"stateMutability":"view"},{"type":"function","name":"initialize","inputs":[{"name":"owner","type":"address","internalType":"address"}],"outputs":[],"stateMutability":"nonpayable"},{"type":"function","name":"limit","inputs":[],"outputs":[{"name":"capacity","type":"uint64","internalType":"uint64"},{"name":"remaining","type":"uint64","internalType":"uint64"},{"name":"lastRefill","type":"uint64","internalType":"uint64"},{"name":"refillRate","type":"uint64","internalType":"uint64"}],"stateMutability":"view"},{"type":"function","name":"owner","inputs":[],"outputs":[{"name":"","type":"address","internalType":"address"}],"stateMutability":"view"},{"type":"function","name":"pauseContract","inputs":[],"outputs":[],"stateMutability":"nonpayable"},{"type":"function","name":"paused","inputs":[],"outputs":[{"name":"","type":"bool","internalType":"bool"}],"stateMutability":"view"},{"type":"function","name":"pausers","inputs":[{"name":"","type":"address","internalType":"address"}],"outputs":[{"name":"","type":"bool","internalType":"bool"}],"stateMutability":"view"},{"type":"function","name":"proxiableUUID","inputs":[],"outputs":[{"name":"","type":"bytes32","internalType":"bytes32"}],"stateMutability":"view"},{"type":"function","name":"renounceOwnership","inputs":[],"outputs":[],"stateMutability":"nonpayable"},{"type":"function","name":"setCapacity","inputs":[{"name":"capacity","type":"uint256","internalType":"uint256"}],"outputs":[],"stateMutability":"nonpayable"},{"type":"function","name":"setRefillRatePerSecond","inputs":[{"name":"refillRate","type":"uint256","internalType":"uint256"}],"outputs":[],"stateMutability":"nonpayable"},{"type":"function","name":"transferOwnership","inputs":[{"name":"newOwner","type":"address","internalType":"address"}],"outputs":[],"stateMutability":"nonpayable"},{"type":"function","name":"unPauseContract","inputs":[],"outputs":[],"stateMutability":"nonpayable"},{"type":"function","name":"updateAdmin","inputs":[{"name":"admin","type":"address","internalType":"address"},{"name":"status","type":"bool","internalType":"bool"}],"outputs":[],"stateMutability":"nonpayable"},{"type":"function","name":"updateConsumer","inputs":[{"name":"_consumer","type":"address","internalType":"address"}],"outputs":[],"stateMutability":"nonpayable"},{"type":"function","name":"updatePauser","inputs":[{"name":"pauser","type":"address","internalType":"address"},{"name":"status","type":"bool","internalType":"bool"}],"outputs":[],"stateMutability":"nonpayable"},{"type":"function","name":"updateRateLimit","inputs":[{"name":"sender","type":"address","internalType":"address"},{"name":"tokenIn","type":"address","internalType":"address"},{"name":"amountIn","type":"uint256","internalType":"uint256"},{"name":"amountOut","type":"uint256","internalType":"uint256"}],"outputs":[],"stateMutability":"nonpayable"},{"type":"function","name":"upgradeToAndCall","inputs":[{"name":"newImplementation","type":"address","internalType":"address"},{"name":"data","type":"bytes","internalType":"bytes"}],"outputs":[],"stateMutability":"payable"},{"type":"event","name":"Initialized","inputs":[{"name":"version","type":"uint64","indexed":false,"internalType":"uint64"}],"anonymous":false},{"type":"event","name":"OwnershipTransferred","inputs":[{"name":"previousOwner","type":"address","indexed":true,"internalType":"address"},{"name":"newOwner","type":"address","indexed":true,"internalType":"address"}],"anonymous":false},{"type":"event","name":"Paused","inputs":[{"name":"account","type":"address","indexed":false,"internalType":"address"}],"anonymous":false},{"type":"event","name":"Unpaused","inputs":[{"name":"account","type":"address","indexed":false,"internalType":"address"}],"anonymous":false},{"type":"event","name":"UpdatedAdmin","inputs":[{"name":"admin","type":"address","indexed":true,"internalType":"address"},{"name":"status","type":"bool","indexed":false,"internalType":"bool"}],"anonymous":false},{"type":"event","name":"UpdatedPauser","inputs":[{"name":"pauser","type":"address","indexed":true,"internalType":"address"},{"name":"status","type":"bool","indexed":false,"internalType":"bool"}],"anonymous":false},{"type":"event","name":"Upgraded","inputs":[{"name":"implementation","type":"address","indexed":true,"internalType":"address"}],"anonymous":false},{"type":"error","name":"AddressEmptyCode","inputs":[{"name":"target","type":"address","internalType":"address"}]},{"type":"error","name":"ERC1967InvalidImplementation","inputs":[{"name":"implementation","type":"address","internalType":"address"}]},{"type":"error","name":"ERC1967NonPayable","inputs":[]},{"type":"error","name":"EnforcedPause","inputs":[]},{"type":"error","name":"ExpectedPause","inputs":[]},{"type":"error","name":"FailedInnerCall","inputs":[]},{"type":"error","name":"InvalidInitialization","inputs":[]},{"type":"error","name":"NotInitializing","inputs":[]},{"type":"error","name":"OwnableInvalidOwner","inputs":[{"name":"owner","type":"address","internalType":"address"}]},{"type":"error","name":"OwnableUnauthorizedAccount","inputs":[{"name":"account","type":"address","internalType":"address"}]},{"type":"error","name":"SafeCastOverflowedUintDowncast","inputs":[{"name":"bits","type":"uint8","internalType":"uint8"},{"name":"value","type":"uint256","internalType":"uint256"}]},{"type":"error","name":"UUPSUnauthorizedCallContext","inputs":[]},{"type":"error","name":"UUPSUnsupportedProxiableUUID","inputs":[{"name":"slot","type":"bytes32","internalType":"bytes32"}]}],"bytecode":{"object":"0x60a060405230608052348015610013575f80fd5b5061001c610021565b6100d3565b7ff0c57e16840df040f15088dc2f81fe391c3923bec73e23a9662efc9c229c6a00805468010000000000000000900460ff16156100715760405163f92ee8a960e01b815260040160405180910390fd5b80546001600160401b03908116146100d05780546001600160401b0319166001600160401b0390811782556040519081527fc7f505b2f371ae2175ee4913f4499e1f2633a7b5936321eed1cdaeb6115181d29060200160405180910390a15b50565b60805161156b6100f95f395f8181610a8e01528181610ab70152610bfb015261156b5ff3fe60806040526004361061011b575f3560e01c806380f51c121161009d578063ad3cb1cc11610062578063ad3cb1cc14610368578063b4fd7296146103a5578063bac15203146103c4578063c4d66de8146103d8578063f2fde38b146103f7575f80fd5b806380f51c12146102605780638da5cb5b1461028e57806391915ef8146102ba5780639e3b1db6146102d9578063a4d66daf146102f8575f80fd5b80635c975abb116100e35780635c975abb146101cc578063670a6fd9146101ef578063715018a61461020e5780637bfa1058146102225780637c134b5c14610241575f80fd5b80632f5308241461011f578063429b62e514610140578063439766ce146101835780634f1ef2861461019757806352d1902d146101aa575b5f80fd5b34801561012a575f80fd5b5061013e610139366004611212565b610416565b005b34801561014b575f80fd5b5061016e61015a366004611244565b60026020525f908152604090205460ff1681565b60405190151581526020015b60405180910390f35b34801561018e575f80fd5b5061013e610446565b61013e6101a5366004611271565b6104dc565b3480156101b5575f80fd5b506101be6104f7565b60405190815260200161017a565b3480156101d7575f80fd5b505f805160206115168339815191525460ff1661016e565b3480156101fa575f80fd5b5061013e61020936600461132c565b610512565b348015610219575f80fd5b5061013e610579565b34801561022d575f80fd5b5061013e61023c36600461132c565b61058a565b34801561024c575f80fd5b5061013e61025b366004611365565b6105e9565b34801561026b575f80fd5b5061016e61027a366004611244565b60036020525f908152604090205460ff1681565b348015610299575f80fd5b506102a26106e1565b6040516001600160a01b03909116815260200161017a565b3480156102c5575f80fd5b5061013e6102d4366004611212565b61070f565b3480156102e4575f80fd5b5061013e6102f3366004611244565b610736565b348015610303575f80fd5b505f54610335906001600160401b0380821691600160401b8104821691600160801b8204811691600160c01b90041684565b604080516001600160401b039586168152938516602085015291841691830191909152909116606082015260800161017a565b348015610373575f80fd5b50610398604051806040016040528060058152602001640352e302e360dc1b81525081565b60405161017a91906113c6565b3480156103b0575f80fd5b506001546102a2906001600160a01b031681565b3480156103cf575f80fd5b5061013e610760565b3480156103e3575f80fd5b5061013e6103f2366004611244565b6107d5565b348015610402575f80fd5b5061013e610411366004611244565b61094d565b61041e61098a565b5f61043661043164e8d4a510008461140c565b6109bc565b90506104425f826109f5565b5050565b335f9081526003602052604090205460ff16806104715750335f9081526002602052604090205460ff165b80610494575061047f6106e1565b6001600160a01b0316336001600160a01b0316145b6104d25760405162461bcd60e51b815260206004820152600a6024820152692727aa2fa820aaa9a2a960b11b60448201526064015b60405180910390fd5b6104da610a21565b565b6104e4610a83565b6104ed82610b27565b6104428282610b2f565b5f610500610bf0565b505f805160206114f683398151915290565b61051a61098a565b6001600160a01b0382165f81815260026020908152604091829020805460ff191685151590811790915591519182527f75734bff051d085f94244c3b739b0dab1e47933c9afdb3566f2e39ece31aeeaa91015b60405180910390a25050565b61058161098a565b6104da5f610c39565b61059261098a565b6001600160a01b0382165f81815260036020908152604091829020805460ff191685151590811790915591519182527f85cd1b4925ff24a817c00622085a8e26f7f6d76012b93f751375a4ce2b8be6f9910161056d565b6105f1610ca9565b6001546001600160a01b0316331461063a5760405162461bcd60e51b815260206004820152600c60248201526b2727aa2fa1a7a729aaa6a2a960a11b60448201526064016104c9565b5f61067364e8d4a510006001610650858761142b565b61065f9064e8d4a5100061142b565b610669919061143e565b610431919061140c565b905061067f5f82610cd9565b6106da5760405162461bcd60e51b815260206004820152602660248201527f4275636b6574526174654c696d697465723a2072617465206c696d697420657860448201526518d95959195960d21b60648201526084016104c9565b5050505050565b7f9016d09d72d40fdae2fd8ceac6b6234c7706214fd39c1cd1e609a0528c199300546001600160a01b031690565b61071761098a565b5f61072a61043164e8d4a510008461140c565b90506104425f82610db0565b61073e61098a565b600180546001600160a01b0319166001600160a01b0392909216919091179055565b335f9081526002602052604090205460ff168061079557506107806106e1565b6001600160a01b0316336001600160a01b0316145b6107cd5760405162461bcd60e51b81526020600482015260096024820152682727aa2fa0a226a4a760b91b60448201526064016104c9565b6104da610e13565b7ff0c57e16840df040f15088dc2f81fe391c3923bec73e23a9662efc9c229c6a008054600160401b810460ff1615906001600160401b03165f811580156108195750825b90505f826001600160401b031660011480156108345750303b155b905081158015610842575080155b156108605760405163f92ee8a960e01b815260040160405180910390fd5b845467ffffffffffffffff19166001178555831561088a57845460ff60401b1916600160401b1785555b610892610e58565b61089b86610e68565b6108a3610e79565b60408051608080820183525f808352602080840182905283850182905260609384018290528451928301855281835282018190526001600160401b0342169382018490529101819052600160801b9091026001600160c01b03169055831561094557845460ff60401b19168555604051600181527fc7f505b2f371ae2175ee4913f4499e1f2633a7b5936321eed1cdaeb6115181d29060200160405180910390a15b505050505050565b61095561098a565b6001600160a01b03811661097e57604051631e4fbdf760e01b81525f60048201526024016104c9565b61098781610c39565b50565b336109936106e1565b6001600160a01b0316146104da5760405163118cdaa760e01b81523360048201526024016104c9565b5f6001600160401b038211156109f157604080516306dfcc6560e41b81526004810191909152602481018390526044016104c9565b5090565b6109fe82610e81565b81546001600160401b03909116600160c01b026001600160c01b03909116179055565b610a29610ca9565b5f80516020611516833981519152805460ff191660011781557f62e78cea01bee320cd4e420270b5ea74000d11b0c9f74754ebdbfc544b05a258335b6040516001600160a01b03909116815260200160405180910390a150565b306001600160a01b037f0000000000000000000000000000000000000000000000000000000000000000161480610b0957507f00000000000000000000000000000000000000000000000000000000000000006001600160a01b0316610afd5f805160206114f6833981519152546001600160a01b031690565b6001600160a01b031614155b156104da5760405163703e46dd60e11b815260040160405180910390fd5b61098761098a565b816001600160a01b03166352d1902d6040518163ffffffff1660e01b8152600401602060405180830381865afa925050508015610b89575060408051601f3d908101601f19168201909252610b8691810190611451565b60015b610bb157604051634c9c8ce360e01b81526001600160a01b03831660048201526024016104c9565b5f805160206114f68339815191528114610be157604051632a87526960e21b8152600481018290526024016104c9565b610beb8383610f1b565b505050565b306001600160a01b037f000000000000000000000000000000000000000000000000000000000000000016146104da5760405163703e46dd60e11b815260040160405180910390fd5b7f9016d09d72d40fdae2fd8ceac6b6234c7706214fd39c1cd1e609a0528c19930080546001600160a01b031981166001600160a01b03848116918217845560405192169182907f8be0079c531659141344cd1fd0a4f28419497f9722a3daafe3b4186f6b6457e0905f90a3505050565b5f805160206115168339815191525460ff16156104da5760405163d93c066560e01b815260040160405180910390fd5b6040805160808101825283546001600160401b038082168352600160401b820481166020840152600160801b8204811693830193909352600160c01b900490911660608201525f90610d2a81610f70565b826001600160401b031681602001516001600160401b03161015610d51575f915050610daa565b828160200151610d619190611468565b845460409290920151600160401b600160c01b0319909216600160401b6001600160401b039283160267ffffffffffffffff60801b191617600160801b91909216021783555060015b92915050565b610db982610e81565b815467ffffffffffffffff19166001600160401b03828116918217808555600160401b90041611156104425781546001600160401b038216600160401b026fffffffffffffffff0000000000000000199091161782555050565b610e1b610ff6565b5f80516020611516833981519152805460ff191681557f5db9ee0a495bf2e6ff9c91a7834c1ba4fdd244a5e8aa4e537bd38aeae4b073aa33610a65565b610e60611025565b6104da61106e565b610e70611025565b6109878161108e565b6104da611025565b6040805160808101825282546001600160401b038082168352600160401b820481166020840152600160801b8204811693830193909352600160c01b90049091166060820152610ed081610f70565b60208101518254604090920151600160401b600160c01b0319909216600160401b6001600160401b039283160267ffffffffffffffff60801b191617600160801b9190921602179055565b610f2482611096565b6040516001600160a01b038316907fbc7cd75a20ee27fd9adebab32041f755214dbc6bffa90cc0225b39da2e5c2d3b905f90a2805115610f6857610beb82826110f9565b61044261116b565b6040810151606082015142918203905f90610f8b908361148f565b90505f818560200151610f9e91906114ba565b9050845f01516001600160401b0316816001600160401b03161115610fd25784516001600160401b03166020860152610fe2565b6001600160401b03811660208601525b5050506001600160401b0316604090910152565b5f805160206115168339815191525460ff166104da57604051638dfc202b60e01b815260040160405180910390fd5b7ff0c57e16840df040f15088dc2f81fe391c3923bec73e23a9662efc9c229c6a0054600160401b900460ff166104da57604051631afcd79f60e31b815260040160405180910390fd5b611076611025565b5f80516020611516833981519152805460ff19169055565b610955611025565b806001600160a01b03163b5f036110cb57604051634c9c8ce360e01b81526001600160a01b03821660048201526024016104c9565b5f805160206114f683398151915280546001600160a01b0319166001600160a01b0392909216919091179055565b60605f80846001600160a01b03168460405161111591906114da565b5f60405180830381855af49150503d805f811461114d576040519150601f19603f3d011682016040523d82523d5f602084013e611152565b606091505b509150915061116285838361118a565b95945050505050565b34156104da5760405163b398979f60e01b815260040160405180910390fd5b60608261119f5761119a826111e9565b6111e2565b81511580156111b657506001600160a01b0384163b155b156111df57604051639996b31560e01b81526001600160a01b03851660048201526024016104c9565b50805b9392505050565b8051156111f95780518082602001fd5b604051630a12f52160e11b815260040160405180910390fd5b5f60208284031215611222575f80fd5b5035919050565b80356001600160a01b038116811461123f575f80fd5b919050565b5f60208284031215611254575f80fd5b6111e282611229565b634e487b7160e01b5f52604160045260245ffd5b5f8060408385031215611282575f80fd5b61128b83611229565b915060208301356001600160401b03808211156112a6575f80fd5b818501915085601f8301126112b9575f80fd5b8135818111156112cb576112cb61125d565b604051601f8201601f19908116603f011681019083821181831017156112f3576112f361125d565b8160405282815288602084870101111561130b575f80fd5b826020860160208301375f6020848301015280955050505050509250929050565b5f806040838503121561133d575f80fd5b61134683611229565b91506020830135801515811461135a575f80fd5b809150509250929050565b5f805f8060808587031215611378575f80fd5b61138185611229565b935061138f60208601611229565b93969395505050506040820135916060013590565b5f5b838110156113be5781810151838201526020016113a6565b50505f910152565b602081525f82518060208401526113e48160408501602087016113a4565b601f01601f19169190910160400192915050565b634e487b7160e01b5f52601160045260245ffd5b5f8261142657634e487b7160e01b5f52601260045260245ffd5b500490565b80820180821115610daa57610daa6113f8565b81810381811115610daa57610daa6113f8565b5f60208284031215611461575f80fd5b5051919050565b6001600160401b03828116828216039080821115611488576114886113f8565b5092915050565b6001600160401b038181168382160280821691908281146114b2576114b26113f8565b505092915050565b6001600160401b03818116838216019080821115611488576114886113f8565b5f82516114eb8184602087016113a4565b919091019291505056fe360894a13ba1a3210667c828492db98dca3e2076cc3735a920a3ca505d382bbccd5ed15c6e187e77e9aee88184c21f4f2182ab5827cb3b7e07fbedcd63f03300a2646970667358221220e4245b43ebe3969249c56a2683c95f58e51bd8058e254f5cf5e89ed68e0eb1e364736f6c63430008140033","linkReferences":{}},"methodIdentifiers":{"UPGRADE_INTERFACE_VERSION()":"ad3cb1cc","admins(address)":"429b62e5","consumer()":"b4fd7296","initialize(address)":"c4d66de8","limit()":"a4d66daf","owner()":"8da5cb5b","pauseContract()":"439766ce","paused()":"5c975abb","pausers(address)":"80f51c12","proxiableUUID()":"52d1902d","renounceOwnership()":"715018a6","setCapacity(uint256)":"91915ef8","setRefillRatePerSecond(uint256)":"2f530824","transferOwnership(address)":"f2fde38b","unPauseContract()":"bac15203","updateAdmin(address,bool)":"670a6fd9","updateConsumer(address)":"9e3b1db6","updatePauser(address,bool)":"7bfa1058","updateRateLimit(address,address,uint256,uint256)":"7c134b5c","upgradeToAndCall(address,bytes)":"4f1ef286"},"id":5}